{
	"contracts/Alyra/DefiProjectUniswap.sol": {
		"DefiProjectUniswap": {
			"abi": [
				{
					"inputs": [
						{
							"internalType": "contract ISwapRouter",
							"name": "_swapRouter",
							"type": "address"
						}
					],
					"stateMutability": "nonpayable",
					"type": "constructor"
				},
				{
					"inputs": [],
					"name": "DAI",
					"outputs": [
						{
							"internalType": "address",
							"name": "",
							"type": "address"
						}
					],
					"stateMutability": "view",
					"type": "function"
				},
				{
					"inputs": [],
					"name": "LINK",
					"outputs": [
						{
							"internalType": "address",
							"name": "",
							"type": "address"
						}
					],
					"stateMutability": "view",
					"type": "function"
				},
				{
					"inputs": [],
					"name": "poolFee",
					"outputs": [
						{
							"internalType": "uint24",
							"name": "",
							"type": "uint24"
						}
					],
					"stateMutability": "view",
					"type": "function"
				},
				{
					"inputs": [],
					"name": "swapExactInputSingle",
					"outputs": [],
					"stateMutability": "nonpayable",
					"type": "function"
				},
				{
					"inputs": [],
					"name": "swapRouter",
					"outputs": [
						{
							"internalType": "contract ISwapRouter",
							"name": "",
							"type": "address"
						}
					],
					"stateMutability": "view",
					"type": "function"
				}
			],
			"devdoc": {
				"kind": "dev",
				"methods": {},
				"version": 1
			},
			"evm": {
				"assembly": "    /* \"contracts/Alyra/DefiProjectUniswap.sol\":979:2593  contract DefiProjectUniswap {... */\n  mstore(0x40, 0xa0)\n    /* \"contracts/Alyra/DefiProjectUniswap.sol\":1476:1554  constructor(ISwapRouter _swapRouter) {... */\n  callvalue\n  dup1\n  iszero\n  tag_1\n  jumpi\n  0x00\n  dup1\n  revert\ntag_1:\n  pop\n  mload(0x40)\n  sub(codesize, bytecodeSize)\n  dup1\n  bytecodeSize\n  dup4\n  codecopy\n  dup2\n  dup2\n  add\n  0x40\n  mstore\n  dup2\n  add\n  swap1\n  tag_2\n  swap2\n  swap1\n  tag_3\n  jump\t// in\ntag_2:\n    /* \"contracts/Alyra/DefiProjectUniswap.sol\":1536:1547  _swapRouter */\n  dup1\n    /* \"contracts/Alyra/DefiProjectUniswap.sol\":1523:1547  swapRouter = _swapRouter */\n  0xffffffffffffffffffffffffffffffffffffffff\n  and\n  0x80\n  dup2\n  0xffffffffffffffffffffffffffffffffffffffff\n  and\n  dup2\n  mstore\n  pop\n  pop\n    /* \"contracts/Alyra/DefiProjectUniswap.sol\":1476:1554  constructor(ISwapRouter _swapRouter) {... */\n  pop\n    /* \"contracts/Alyra/DefiProjectUniswap.sol\":979:2593  contract DefiProjectUniswap {... */\n  jump(tag_6)\n    /* \"#utility.yul\":88:205   */\ntag_8:\n    /* \"#utility.yul\":197:198   */\n  0x00\n    /* \"#utility.yul\":194:195   */\n  dup1\n    /* \"#utility.yul\":187:199   */\n  revert\n    /* \"#utility.yul\":334:460   */\ntag_10:\n    /* \"#utility.yul\":371:378   */\n  0x00\n    /* \"#utility.yul\":411:453   */\n  0xffffffffffffffffffffffffffffffffffffffff\n    /* \"#utility.yul\":404:409   */\n  dup3\n    /* \"#utility.yul\":400:454   */\n  and\n    /* \"#utility.yul\":389:454   */\n  swap1\n  pop\n    /* \"#utility.yul\":334:460   */\n  swap2\n  swap1\n  pop\n  jump\t// out\n    /* \"#utility.yul\":466:562   */\ntag_11:\n    /* \"#utility.yul\":503:510   */\n  0x00\n    /* \"#utility.yul\":532:556   */\n  tag_21\n    /* \"#utility.yul\":550:555   */\n  dup3\n    /* \"#utility.yul\":532:556   */\n  tag_10\n  jump\t// in\ntag_21:\n    /* \"#utility.yul\":521:556   */\n  swap1\n  pop\n    /* \"#utility.yul\":466:562   */\n  swap2\n  swap1\n  pop\n  jump\t// out\n    /* \"#utility.yul\":568:682   */\ntag_12:\n    /* \"#utility.yul\":623:630   */\n  0x00\n    /* \"#utility.yul\":652:676   */\n  tag_23\n    /* \"#utility.yul\":670:675   */\n  dup3\n    /* \"#utility.yul\":652:676   */\n  tag_11\n  jump\t// in\ntag_23:\n    /* \"#utility.yul\":641:676   */\n  swap1\n  pop\n    /* \"#utility.yul\":568:682   */\n  swap2\n  swap1\n  pop\n  jump\t// out\n    /* \"#utility.yul\":688:846   */\ntag_13:\n    /* \"#utility.yul\":779:821   */\n  tag_25\n    /* \"#utility.yul\":815:820   */\n  dup2\n    /* \"#utility.yul\":779:821   */\n  tag_12\n  jump\t// in\ntag_25:\n    /* \"#utility.yul\":772:777   */\n  dup2\n    /* \"#utility.yul\":769:822   */\n  eq\n    /* \"#utility.yul\":759:840   */\n  tag_26\n  jumpi\n    /* \"#utility.yul\":836:837   */\n  0x00\n    /* \"#utility.yul\":833:834   */\n  dup1\n    /* \"#utility.yul\":826:838   */\n  revert\n    /* \"#utility.yul\":759:840   */\ntag_26:\n    /* \"#utility.yul\":688:846   */\n  pop\n  jump\t// out\n    /* \"#utility.yul\":852:1031   */\ntag_14:\n    /* \"#utility.yul\":927:932   */\n  0x00\n    /* \"#utility.yul\":958:964   */\n  dup2\n    /* \"#utility.yul\":952:965   */\n  mload\n    /* \"#utility.yul\":943:965   */\n  swap1\n  pop\n    /* \"#utility.yul\":974:1025   */\n  tag_28\n    /* \"#utility.yul\":1019:1024   */\n  dup2\n    /* \"#utility.yul\":974:1025   */\n  tag_13\n  jump\t// in\ntag_28:\n    /* \"#utility.yul\":852:1031   */\n  swap3\n  swap2\n  pop\n  pop\n  jump\t// out\n    /* \"#utility.yul\":1037:1424   */\ntag_3:\n    /* \"#utility.yul\":1125:1131   */\n  0x00\n    /* \"#utility.yul\":1174:1176   */\n  0x20\n    /* \"#utility.yul\":1162:1171   */\n  dup3\n    /* \"#utility.yul\":1153:1160   */\n  dup5\n    /* \"#utility.yul\":1149:1172   */\n  sub\n    /* \"#utility.yul\":1145:1177   */\n  slt\n    /* \"#utility.yul\":1142:1261   */\n  iszero\n  tag_30\n  jumpi\n    /* \"#utility.yul\":1180:1259   */\n  tag_31\n  tag_8\n  jump\t// in\ntag_31:\n    /* \"#utility.yul\":1142:1261   */\ntag_30:\n    /* \"#utility.yul\":1300:1301   */\n  0x00\n    /* \"#utility.yul\":1325:1407   */\n  tag_32\n    /* \"#utility.yul\":1399:1406   */\n  dup5\n    /* \"#utility.yul\":1390:1396   */\n  dup3\n    /* \"#utility.yul\":1379:1388   */\n  dup6\n    /* \"#utility.yul\":1375:1397   */\n  add\n    /* \"#utility.yul\":1325:1407   */\n  tag_14\n  jump\t// in\ntag_32:\n    /* \"#utility.yul\":1315:1407   */\n  swap2\n  pop\n    /* \"#utility.yul\":1271:1417   */\n  pop\n    /* \"#utility.yul\":1037:1424   */\n  swap3\n  swap2\n  pop\n  pop\n  jump\t// out\n    /* \"contracts/Alyra/DefiProjectUniswap.sol\":979:2593  contract DefiProjectUniswap {... */\ntag_6:\n  mload(0x80)\n  codecopy(0x00, dataOffset(sub_0), dataSize(sub_0))\n  0x00\n  assignImmutable(\"0xcd41b8bf8f20f7ad95d96d948a315af225b219053fc98a80aee13063b692b681\")\n  return(0x00, dataSize(sub_0))\nstop\n\nsub_0: assembly {\n        /* \"contracts/Alyra/DefiProjectUniswap.sol\":979:2593  contract DefiProjectUniswap {... */\n      mstore(0x40, 0x80)\n      callvalue\n      dup1\n      iszero\n      tag_1\n      jumpi\n      0x00\n      dup1\n      revert\n    tag_1:\n      pop\n      jumpi(tag_2, lt(calldatasize, 0x04))\n      shr(0xe0, calldataload(0x00))\n      dup1\n      0x089fe6aa\n      eq\n      tag_3\n      jumpi\n      dup1\n      0x1b6b6d23\n      eq\n      tag_4\n      jumpi\n      dup1\n      0x7ea47f89\n      eq\n      tag_5\n      jumpi\n      dup1\n      0xc31c9c07\n      eq\n      tag_6\n      jumpi\n      dup1\n      0xe0bab4c4\n      eq\n      tag_7\n      jumpi\n    tag_2:\n      0x00\n      dup1\n      revert\n        /* \"contracts/Alyra/DefiProjectUniswap.sol\":1432:1469  uint24 public constant poolFee = 3000 */\n    tag_3:\n      tag_8\n      tag_9\n      jump\t// in\n    tag_8:\n      mload(0x40)\n      tag_10\n      swap2\n      swap1\n      tag_11\n      jump\t// in\n    tag_10:\n      mload(0x40)\n      dup1\n      swap2\n      sub\n      swap1\n      return\n        /* \"contracts/Alyra/DefiProjectUniswap.sol\":1220:1293  address public constant LINK = 0x326C977E6efc84E512bB9C30f76E30c160eD06FB */\n    tag_4:\n      tag_12\n      tag_13\n      jump\t// in\n    tag_12:\n      mload(0x40)\n      tag_14\n      swap2\n      swap1\n      tag_15\n      jump\t// in\n    tag_14:\n      mload(0x40)\n      dup1\n      swap2\n      sub\n      swap1\n      return\n        /* \"contracts/Alyra/DefiProjectUniswap.sol\":1560:2591  function swapExactInputSingle() external { //uint256 amountIn, address _token... */\n    tag_5:\n      tag_16\n      tag_17\n      jump\t// in\n    tag_16:\n      stop\n        /* \"contracts/Alyra/DefiProjectUniswap.sol\":1013:1052  ISwapRouter public immutable swapRouter */\n    tag_6:\n      tag_18\n      tag_19\n      jump\t// in\n    tag_18:\n      mload(0x40)\n      tag_20\n      swap2\n      swap1\n      tag_21\n      jump\t// in\n    tag_20:\n      mload(0x40)\n      dup1\n      swap2\n      sub\n      swap1\n      return\n        /* \"contracts/Alyra/DefiProjectUniswap.sol\":1142:1214  address public constant DAI = 0xdc31Ee1784292379Fbb2964b3B9C4124D8F89C60 */\n    tag_7:\n      tag_22\n      tag_23\n      jump\t// in\n    tag_22:\n      mload(0x40)\n      tag_24\n      swap2\n      swap1\n      tag_15\n      jump\t// in\n    tag_24:\n      mload(0x40)\n      dup1\n      swap2\n      sub\n      swap1\n      return\n        /* \"contracts/Alyra/DefiProjectUniswap.sol\":1432:1469  uint24 public constant poolFee = 3000 */\n    tag_9:\n        /* \"contracts/Alyra/DefiProjectUniswap.sol\":1465:1469  3000 */\n      0x0bb8\n        /* \"contracts/Alyra/DefiProjectUniswap.sol\":1432:1469  uint24 public constant poolFee = 3000 */\n      dup2\n      jump\t// out\n        /* \"contracts/Alyra/DefiProjectUniswap.sol\":1220:1293  address public constant LINK = 0x326C977E6efc84E512bB9C30f76E30c160eD06FB */\n    tag_13:\n        /* \"contracts/Alyra/DefiProjectUniswap.sol\":1251:1293  0x326C977E6efc84E512bB9C30f76E30c160eD06FB */\n      0x326c977e6efc84e512bb9c30f76e30c160ed06fb\n        /* \"contracts/Alyra/DefiProjectUniswap.sol\":1220:1293  address public constant LINK = 0x326C977E6efc84E512bB9C30f76E30c160eD06FB */\n      dup2\n      jump\t// out\n        /* \"contracts/Alyra/DefiProjectUniswap.sol\":1560:2591  function swapExactInputSingle() external { //uint256 amountIn, address _token... */\n    tag_17:\n        /* \"contracts/Alyra/DefiProjectUniswap.sol\":1172:1214  0xdc31Ee1784292379Fbb2964b3B9C4124D8F89C60 */\n      0xdc31ee1784292379fbb2964b3b9c4124d8f89c60\n        /* \"contracts/Alyra/DefiProjectUniswap.sol\":1789:1813  IERC20(DAI).transferFrom */\n      0xffffffffffffffffffffffffffffffffffffffff\n      and\n      0x23b872dd\n        /* \"contracts/Alyra/DefiProjectUniswap.sol\":1814:1824  msg.sender */\n      caller\n        /* \"contracts/Alyra/DefiProjectUniswap.sol\":1834:1838  this */\n      address\n        /* \"contracts/Alyra/DefiProjectUniswap.sol\":1841:1847  10**18 */\n      0x0de0b6b3a7640000\n        /* \"contracts/Alyra/DefiProjectUniswap.sol\":1789:1848  IERC20(DAI).transferFrom(msg.sender, address(this), 10**18) */\n      mload(0x40)\n      dup5\n      0xffffffff\n      and\n      0xe0\n      shl\n      dup2\n      mstore\n      0x04\n      add\n      tag_26\n      swap4\n      swap3\n      swap2\n      swap1\n      tag_27\n      jump\t// in\n    tag_26:\n      0x20\n      mload(0x40)\n      dup1\n      dup4\n      sub\n      dup2\n      0x00\n      dup8\n      gas\n      call\n      iszero\n      dup1\n      iszero\n      tag_29\n      jumpi\n      returndatasize\n      0x00\n      dup1\n      returndatacopy\n      revert(0x00, returndatasize)\n    tag_29:\n      pop\n      pop\n      pop\n      pop\n      mload(0x40)\n      returndatasize\n      not(0x1f)\n      0x1f\n      dup3\n      add\n      and\n      dup3\n      add\n      dup1\n      0x40\n      mstore\n      pop\n      dup2\n      add\n      swap1\n      tag_30\n      swap2\n      swap1\n      tag_31\n      jump\t// in\n    tag_30:\n      pop\n        /* \"contracts/Alyra/DefiProjectUniswap.sol\":1172:1214  0xdc31Ee1784292379Fbb2964b3B9C4124D8F89C60 */\n      0xdc31ee1784292379fbb2964b3b9c4124d8f89c60\n        /* \"contracts/Alyra/DefiProjectUniswap.sol\":1911:1930  IERC20(DAI).approve */\n      0xffffffffffffffffffffffffffffffffffffffff\n      and\n      0x095ea7b3\n        /* \"contracts/Alyra/DefiProjectUniswap.sol\":1939:1949  swapRouter */\n      immutable(\"0xcd41b8bf8f20f7ad95d96d948a315af225b219053fc98a80aee13063b692b681\")\n        /* \"contracts/Alyra/DefiProjectUniswap.sol\":1952:1958  10**18 */\n      0x0de0b6b3a7640000\n        /* \"contracts/Alyra/DefiProjectUniswap.sol\":1911:1959  IERC20(DAI).approve(address(swapRouter), 10**18) */\n      mload(0x40)\n      dup4\n      0xffffffff\n      and\n      0xe0\n      shl\n      dup2\n      mstore\n      0x04\n      add\n      tag_32\n      swap3\n      swap2\n      swap1\n      tag_33\n      jump\t// in\n    tag_32:\n      0x20\n      mload(0x40)\n      dup1\n      dup4\n      sub\n      dup2\n      0x00\n      dup8\n      gas\n      call\n      iszero\n      dup1\n      iszero\n      tag_35\n      jumpi\n      returndatasize\n      0x00\n      dup1\n      returndatacopy\n      revert(0x00, returndatasize)\n    tag_35:\n      pop\n      pop\n      pop\n      pop\n      mload(0x40)\n      returndatasize\n      not(0x1f)\n      0x1f\n      dup3\n      add\n      and\n      dup3\n      add\n      dup1\n      0x40\n      mstore\n      pop\n      dup2\n      add\n      swap1\n      tag_36\n      swap2\n      swap1\n      tag_31\n      jump\t// in\n    tag_36:\n      pop\n        /* \"contracts/Alyra/DefiProjectUniswap.sol\":2026:2074  ISwapRouter.ExactInputSingleParams memory params */\n      0x00\n        /* \"contracts/Alyra/DefiProjectUniswap.sol\":2077:2461  ISwapRouter... */\n      mload(0x40)\n      dup1\n      0x0100\n      add\n      0x40\n      mstore\n      dup1\n        /* \"contracts/Alyra/DefiProjectUniswap.sol\":2152:2194  0xB4FBF271143F4FBf7B91A5ded31805e42b2208d6 */\n      0xb4fbf271143f4fbf7b91a5ded31805e42b2208d6\n        /* \"contracts/Alyra/DefiProjectUniswap.sol\":2077:2461  ISwapRouter... */\n      0xffffffffffffffffffffffffffffffffffffffff\n      and\n      dup2\n      mstore\n      0x20\n      add\n        /* \"contracts/Alyra/DefiProjectUniswap.sol\":1172:1214  0xdc31Ee1784292379Fbb2964b3B9C4124D8F89C60 */\n      0xdc31ee1784292379fbb2964b3b9c4124d8f89c60\n        /* \"contracts/Alyra/DefiProjectUniswap.sol\":2077:2461  ISwapRouter... */\n      0xffffffffffffffffffffffffffffffffffffffff\n      and\n      dup2\n      mstore\n      0x20\n      add\n        /* \"contracts/Alyra/DefiProjectUniswap.sol\":1465:1469  3000 */\n      0x0bb8\n        /* \"contracts/Alyra/DefiProjectUniswap.sol\":2077:2461  ISwapRouter... */\n      0xffffff\n      and\n      dup2\n      mstore\n      0x20\n      add\n        /* \"contracts/Alyra/DefiProjectUniswap.sol\":2284:2294  msg.sender */\n      caller\n        /* \"contracts/Alyra/DefiProjectUniswap.sol\":2077:2461  ISwapRouter... */\n      0xffffffffffffffffffffffffffffffffffffffff\n      and\n      dup2\n      mstore\n      0x20\n      add\n        /* \"contracts/Alyra/DefiProjectUniswap.sol\":2322:2337  block.timestamp */\n      timestamp\n        /* \"contracts/Alyra/DefiProjectUniswap.sol\":2077:2461  ISwapRouter... */\n      dup2\n      mstore\n      0x20\n      add\n        /* \"contracts/Alyra/DefiProjectUniswap.sol\":2365:2371  10**18 */\n      0x0de0b6b3a7640000\n        /* \"contracts/Alyra/DefiProjectUniswap.sol\":2077:2461  ISwapRouter... */\n      dup2\n      mstore\n      0x20\n      add\n        /* \"contracts/Alyra/DefiProjectUniswap.sol\":2407:2408  0 */\n      0x00\n        /* \"contracts/Alyra/DefiProjectUniswap.sol\":2077:2461  ISwapRouter... */\n      dup2\n      mstore\n      0x20\n      add\n        /* \"contracts/Alyra/DefiProjectUniswap.sol\":2445:2446  0 */\n      0x00\n        /* \"contracts/Alyra/DefiProjectUniswap.sol\":2077:2461  ISwapRouter... */\n      0xffffffffffffffffffffffffffffffffffffffff\n      and\n      dup2\n      mstore\n      pop\n        /* \"contracts/Alyra/DefiProjectUniswap.sol\":2026:2461  ISwapRouter.ExactInputSingleParams memory params = ISwapRouter... */\n      swap1\n      pop\n        /* \"contracts/Alyra/DefiProjectUniswap.sol\":2549:2559  swapRouter */\n      immutable(\"0xcd41b8bf8f20f7ad95d96d948a315af225b219053fc98a80aee13063b692b681\")\n        /* \"contracts/Alyra/DefiProjectUniswap.sol\":2549:2576  swapRouter.exactInputSingle */\n      0xffffffffffffffffffffffffffffffffffffffff\n      and\n      0x414bf389\n        /* \"contracts/Alyra/DefiProjectUniswap.sol\":2577:2583  params */\n      dup3\n        /* \"contracts/Alyra/DefiProjectUniswap.sol\":2549:2584  swapRouter.exactInputSingle(params) */\n      mload(0x40)\n      dup3\n      0xffffffff\n      and\n      0xe0\n      shl\n      dup2\n      mstore\n      0x04\n      add\n      tag_37\n      swap2\n      swap1\n      tag_38\n      jump\t// in\n    tag_37:\n      0x20\n      mload(0x40)\n      dup1\n      dup4\n      sub\n      dup2\n      0x00\n      dup8\n      gas\n      call\n      iszero\n      dup1\n      iszero\n      tag_40\n      jumpi\n      returndatasize\n      0x00\n      dup1\n      returndatacopy\n      revert(0x00, returndatasize)\n    tag_40:\n      pop\n      pop\n      pop\n      pop\n      mload(0x40)\n      returndatasize\n      not(0x1f)\n      0x1f\n      dup3\n      add\n      and\n      dup3\n      add\n      dup1\n      0x40\n      mstore\n      pop\n      dup2\n      add\n      swap1\n      tag_41\n      swap2\n      swap1\n      tag_42\n      jump\t// in\n    tag_41:\n      pop\n        /* \"contracts/Alyra/DefiProjectUniswap.sol\":1601:2591  { //uint256 amountIn, address _token... */\n      pop\n        /* \"contracts/Alyra/DefiProjectUniswap.sol\":1560:2591  function swapExactInputSingle() external { //uint256 amountIn, address _token... */\n      jump\t// out\n        /* \"contracts/Alyra/DefiProjectUniswap.sol\":1013:1052  ISwapRouter public immutable swapRouter */\n    tag_19:\n      immutable(\"0xcd41b8bf8f20f7ad95d96d948a315af225b219053fc98a80aee13063b692b681\")\n      dup2\n      jump\t// out\n        /* \"contracts/Alyra/DefiProjectUniswap.sol\":1142:1214  address public constant DAI = 0xdc31Ee1784292379Fbb2964b3B9C4124D8F89C60 */\n    tag_23:\n        /* \"contracts/Alyra/DefiProjectUniswap.sol\":1172:1214  0xdc31Ee1784292379Fbb2964b3B9C4124D8F89C60 */\n      0xdc31ee1784292379fbb2964b3b9c4124d8f89c60\n        /* \"contracts/Alyra/DefiProjectUniswap.sol\":1142:1214  address public constant DAI = 0xdc31Ee1784292379Fbb2964b3B9C4124D8F89C60 */\n      dup2\n      jump\t// out\n        /* \"#utility.yul\":7:98   */\n    tag_43:\n        /* \"#utility.yul\":43:50   */\n      0x00\n        /* \"#utility.yul\":83:91   */\n      0xffffff\n        /* \"#utility.yul\":76:81   */\n      dup3\n        /* \"#utility.yul\":72:92   */\n      and\n        /* \"#utility.yul\":61:92   */\n      swap1\n      pop\n        /* \"#utility.yul\":7:98   */\n      swap2\n      swap1\n      pop\n      jump\t// out\n        /* \"#utility.yul\":104:219   */\n    tag_44:\n        /* \"#utility.yul\":189:212   */\n      tag_73\n        /* \"#utility.yul\":206:211   */\n      dup2\n        /* \"#utility.yul\":189:212   */\n      tag_43\n      jump\t// in\n    tag_73:\n        /* \"#utility.yul\":184:187   */\n      dup3\n        /* \"#utility.yul\":177:213   */\n      mstore\n        /* \"#utility.yul\":104:219   */\n      pop\n      pop\n      jump\t// out\n        /* \"#utility.yul\":225:443   */\n    tag_11:\n        /* \"#utility.yul\":316:320   */\n      0x00\n        /* \"#utility.yul\":354:356   */\n      0x20\n        /* \"#utility.yul\":343:352   */\n      dup3\n        /* \"#utility.yul\":339:357   */\n      add\n        /* \"#utility.yul\":331:357   */\n      swap1\n      pop\n        /* \"#utility.yul\":367:436   */\n      tag_75\n        /* \"#utility.yul\":433:434   */\n      0x00\n        /* \"#utility.yul\":422:431   */\n      dup4\n        /* \"#utility.yul\":418:435   */\n      add\n        /* \"#utility.yul\":409:415   */\n      dup5\n        /* \"#utility.yul\":367:436   */\n      tag_44\n      jump\t// in\n    tag_75:\n        /* \"#utility.yul\":225:443   */\n      swap3\n      swap2\n      pop\n      pop\n      jump\t// out\n        /* \"#utility.yul\":449:575   */\n    tag_45:\n        /* \"#utility.yul\":486:493   */\n      0x00\n        /* \"#utility.yul\":526:568   */\n      0xffffffffffffffffffffffffffffffffffffffff\n        /* \"#utility.yul\":519:524   */\n      dup3\n        /* \"#utility.yul\":515:569   */\n      and\n        /* \"#utility.yul\":504:569   */\n      swap1\n      pop\n        /* \"#utility.yul\":449:575   */\n      swap2\n      swap1\n      pop\n      jump\t// out\n        /* \"#utility.yul\":581:677   */\n    tag_46:\n        /* \"#utility.yul\":618:625   */\n      0x00\n        /* \"#utility.yul\":647:671   */\n      tag_78\n        /* \"#utility.yul\":665:670   */\n      dup3\n        /* \"#utility.yul\":647:671   */\n      tag_45\n      jump\t// in\n    tag_78:\n        /* \"#utility.yul\":636:671   */\n      swap1\n      pop\n        /* \"#utility.yul\":581:677   */\n      swap2\n      swap1\n      pop\n      jump\t// out\n        /* \"#utility.yul\":683:801   */\n    tag_47:\n        /* \"#utility.yul\":770:794   */\n      tag_80\n        /* \"#utility.yul\":788:793   */\n      dup2\n        /* \"#utility.yul\":770:794   */\n      tag_46\n      jump\t// in\n    tag_80:\n        /* \"#utility.yul\":765:768   */\n      dup3\n        /* \"#utility.yul\":758:795   */\n      mstore\n        /* \"#utility.yul\":683:801   */\n      pop\n      pop\n      jump\t// out\n        /* \"#utility.yul\":807:1029   */\n    tag_15:\n        /* \"#utility.yul\":900:904   */\n      0x00\n        /* \"#utility.yul\":938:940   */\n      0x20\n        /* \"#utility.yul\":927:936   */\n      dup3\n        /* \"#utility.yul\":923:941   */\n      add\n        /* \"#utility.yul\":915:941   */\n      swap1\n      pop\n        /* \"#utility.yul\":951:1022   */\n      tag_82\n        /* \"#utility.yul\":1019:1020   */\n      0x00\n        /* \"#utility.yul\":1008:1017   */\n      dup4\n        /* \"#utility.yul\":1004:1021   */\n      add\n        /* \"#utility.yul\":995:1001   */\n      dup5\n        /* \"#utility.yul\":951:1022   */\n      tag_47\n      jump\t// in\n    tag_82:\n        /* \"#utility.yul\":807:1029   */\n      swap3\n      swap2\n      pop\n      pop\n      jump\t// out\n        /* \"#utility.yul\":1035:1095   */\n    tag_48:\n        /* \"#utility.yul\":1063:1066   */\n      0x00\n        /* \"#utility.yul\":1084:1089   */\n      dup2\n        /* \"#utility.yul\":1077:1089   */\n      swap1\n      pop\n        /* \"#utility.yul\":1035:1095   */\n      swap2\n      swap1\n      pop\n      jump\t// out\n        /* \"#utility.yul\":1101:1243   */\n    tag_49:\n        /* \"#utility.yul\":1151:1160   */\n      0x00\n        /* \"#utility.yul\":1184:1237   */\n      tag_85\n        /* \"#utility.yul\":1202:1236   */\n      tag_86\n        /* \"#utility.yul\":1211:1235   */\n      tag_87\n        /* \"#utility.yul\":1229:1234   */\n      dup5\n        /* \"#utility.yul\":1211:1235   */\n      tag_45\n      jump\t// in\n    tag_87:\n        /* \"#utility.yul\":1202:1236   */\n      tag_48\n      jump\t// in\n    tag_86:\n        /* \"#utility.yul\":1184:1237   */\n      tag_45\n      jump\t// in\n    tag_85:\n        /* \"#utility.yul\":1171:1237   */\n      swap1\n      pop\n        /* \"#utility.yul\":1101:1243   */\n      swap2\n      swap1\n      pop\n      jump\t// out\n        /* \"#utility.yul\":1249:1375   */\n    tag_50:\n        /* \"#utility.yul\":1299:1308   */\n      0x00\n        /* \"#utility.yul\":1332:1369   */\n      tag_89\n        /* \"#utility.yul\":1363:1368   */\n      dup3\n        /* \"#utility.yul\":1332:1369   */\n      tag_49\n      jump\t// in\n    tag_89:\n        /* \"#utility.yul\":1319:1369   */\n      swap1\n      pop\n        /* \"#utility.yul\":1249:1375   */\n      swap2\n      swap1\n      pop\n      jump\t// out\n        /* \"#utility.yul\":1381:1525   */\n    tag_51:\n        /* \"#utility.yul\":1449:1458   */\n      0x00\n        /* \"#utility.yul\":1482:1519   */\n      tag_91\n        /* \"#utility.yul\":1513:1518   */\n      dup3\n        /* \"#utility.yul\":1482:1519   */\n      tag_50\n      jump\t// in\n    tag_91:\n        /* \"#utility.yul\":1469:1519   */\n      swap1\n      pop\n        /* \"#utility.yul\":1381:1525   */\n      swap2\n      swap1\n      pop\n      jump\t// out\n        /* \"#utility.yul\":1531:1698   */\n    tag_52:\n        /* \"#utility.yul\":1636:1691   */\n      tag_93\n        /* \"#utility.yul\":1685:1690   */\n      dup2\n        /* \"#utility.yul\":1636:1691   */\n      tag_51\n      jump\t// in\n    tag_93:\n        /* \"#utility.yul\":1631:1634   */\n      dup3\n        /* \"#utility.yul\":1624:1692   */\n      mstore\n        /* \"#utility.yul\":1531:1698   */\n      pop\n      pop\n      jump\t// out\n        /* \"#utility.yul\":1704:1962   */\n    tag_21:\n        /* \"#utility.yul\":1815:1819   */\n      0x00\n        /* \"#utility.yul\":1853:1855   */\n      0x20\n        /* \"#utility.yul\":1842:1851   */\n      dup3\n        /* \"#utility.yul\":1838:1856   */\n      add\n        /* \"#utility.yul\":1830:1856   */\n      swap1\n      pop\n        /* \"#utility.yul\":1866:1955   */\n      tag_95\n        /* \"#utility.yul\":1952:1953   */\n      0x00\n        /* \"#utility.yul\":1941:1950   */\n      dup4\n        /* \"#utility.yul\":1937:1954   */\n      add\n        /* \"#utility.yul\":1928:1934   */\n      dup5\n        /* \"#utility.yul\":1866:1955   */\n      tag_52\n      jump\t// in\n    tag_95:\n        /* \"#utility.yul\":1704:1962   */\n      swap3\n      swap2\n      pop\n      pop\n      jump\t// out\n        /* \"#utility.yul\":1968:2071   */\n    tag_53:\n        /* \"#utility.yul\":2031:2038   */\n      0x00\n        /* \"#utility.yul\":2060:2065   */\n      dup2\n        /* \"#utility.yul\":2049:2065   */\n      swap1\n      pop\n        /* \"#utility.yul\":1968:2071   */\n      swap2\n      swap1\n      pop\n      jump\t// out\n        /* \"#utility.yul\":2077:2154   */\n    tag_54:\n        /* \"#utility.yul\":2114:2121   */\n      0x00\n        /* \"#utility.yul\":2143:2148   */\n      dup2\n        /* \"#utility.yul\":2132:2148   */\n      swap1\n      pop\n        /* \"#utility.yul\":2077:2154   */\n      swap2\n      swap1\n      pop\n      jump\t// out\n        /* \"#utility.yul\":2160:2354   */\n    tag_55:\n        /* \"#utility.yul\":2236:2245   */\n      0x00\n        /* \"#utility.yul\":2269:2348   */\n      tag_99\n        /* \"#utility.yul\":2287:2347   */\n      tag_100\n        /* \"#utility.yul\":2296:2346   */\n      tag_101\n        /* \"#utility.yul\":2340:2345   */\n      dup5\n        /* \"#utility.yul\":2296:2346   */\n      tag_53\n      jump\t// in\n    tag_101:\n        /* \"#utility.yul\":2287:2347   */\n      tag_48\n      jump\t// in\n    tag_100:\n        /* \"#utility.yul\":2269:2348   */\n      tag_54\n      jump\t// in\n    tag_99:\n        /* \"#utility.yul\":2256:2348   */\n      swap1\n      pop\n        /* \"#utility.yul\":2160:2354   */\n      swap2\n      swap1\n      pop\n      jump\t// out\n        /* \"#utility.yul\":2360:2543   */\n    tag_56:\n        /* \"#utility.yul\":2473:2536   */\n      tag_103\n        /* \"#utility.yul\":2530:2535   */\n      dup2\n        /* \"#utility.yul\":2473:2536   */\n      tag_55\n      jump\t// in\n    tag_103:\n        /* \"#utility.yul\":2468:2471   */\n      dup3\n        /* \"#utility.yul\":2461:2537   */\n      mstore\n        /* \"#utility.yul\":2360:2543   */\n      pop\n      pop\n      jump\t// out\n        /* \"#utility.yul\":2549:3043   */\n    tag_27:\n        /* \"#utility.yul\":2724:2728   */\n      0x00\n        /* \"#utility.yul\":2762:2764   */\n      0x60\n        /* \"#utility.yul\":2751:2760   */\n      dup3\n        /* \"#utility.yul\":2747:2765   */\n      add\n        /* \"#utility.yul\":2739:2765   */\n      swap1\n      pop\n        /* \"#utility.yul\":2775:2846   */\n      tag_105\n        /* \"#utility.yul\":2843:2844   */\n      0x00\n        /* \"#utility.yul\":2832:2841   */\n      dup4\n        /* \"#utility.yul\":2828:2845   */\n      add\n        /* \"#utility.yul\":2819:2825   */\n      dup7\n        /* \"#utility.yul\":2775:2846   */\n      tag_47\n      jump\t// in\n    tag_105:\n        /* \"#utility.yul\":2856:2928   */\n      tag_106\n        /* \"#utility.yul\":2924:2926   */\n      0x20\n        /* \"#utility.yul\":2913:2922   */\n      dup4\n        /* \"#utility.yul\":2909:2927   */\n      add\n        /* \"#utility.yul\":2900:2906   */\n      dup6\n        /* \"#utility.yul\":2856:2928   */\n      tag_47\n      jump\t// in\n    tag_106:\n        /* \"#utility.yul\":2938:3036   */\n      tag_107\n        /* \"#utility.yul\":3032:3034   */\n      0x40\n        /* \"#utility.yul\":3021:3030   */\n      dup4\n        /* \"#utility.yul\":3017:3035   */\n      add\n        /* \"#utility.yul\":3008:3014   */\n      dup5\n        /* \"#utility.yul\":2938:3036   */\n      tag_56\n      jump\t// in\n    tag_107:\n        /* \"#utility.yul\":2549:3043   */\n      swap5\n      swap4\n      pop\n      pop\n      pop\n      pop\n      jump\t// out\n        /* \"#utility.yul\":3130:3247   */\n    tag_58:\n        /* \"#utility.yul\":3239:3240   */\n      0x00\n        /* \"#utility.yul\":3236:3237   */\n      dup1\n        /* \"#utility.yul\":3229:3241   */\n      revert\n        /* \"#utility.yul\":3376:3466   */\n    tag_60:\n        /* \"#utility.yul\":3410:3417   */\n      0x00\n        /* \"#utility.yul\":3453:3458   */\n      dup2\n        /* \"#utility.yul\":3446:3459   */\n      iszero\n        /* \"#utility.yul\":3439:3460   */\n      iszero\n        /* \"#utility.yul\":3428:3460   */\n      swap1\n      pop\n        /* \"#utility.yul\":3376:3466   */\n      swap2\n      swap1\n      pop\n      jump\t// out\n        /* \"#utility.yul\":3472:3588   */\n    tag_61:\n        /* \"#utility.yul\":3542:3563   */\n      tag_113\n        /* \"#utility.yul\":3557:3562   */\n      dup2\n        /* \"#utility.yul\":3542:3563   */\n      tag_60\n      jump\t// in\n    tag_113:\n        /* \"#utility.yul\":3535:3540   */\n      dup2\n        /* \"#utility.yul\":3532:3564   */\n      eq\n        /* \"#utility.yul\":3522:3582   */\n      tag_114\n      jumpi\n        /* \"#utility.yul\":3578:3579   */\n      0x00\n        /* \"#utility.yul\":3575:3576   */\n      dup1\n        /* \"#utility.yul\":3568:3580   */\n      revert\n        /* \"#utility.yul\":3522:3582   */\n    tag_114:\n        /* \"#utility.yul\":3472:3588   */\n      pop\n      jump\t// out\n        /* \"#utility.yul\":3594:3731   */\n    tag_62:\n        /* \"#utility.yul\":3648:3653   */\n      0x00\n        /* \"#utility.yul\":3679:3685   */\n      dup2\n        /* \"#utility.yul\":3673:3686   */\n      mload\n        /* \"#utility.yul\":3664:3686   */\n      swap1\n      pop\n        /* \"#utility.yul\":3695:3725   */\n      tag_116\n        /* \"#utility.yul\":3719:3724   */\n      dup2\n        /* \"#utility.yul\":3695:3725   */\n      tag_61\n      jump\t// in\n    tag_116:\n        /* \"#utility.yul\":3594:3731   */\n      swap3\n      swap2\n      pop\n      pop\n      jump\t// out\n        /* \"#utility.yul\":3737:4082   */\n    tag_31:\n        /* \"#utility.yul\":3804:3810   */\n      0x00\n        /* \"#utility.yul\":3853:3855   */\n      0x20\n        /* \"#utility.yul\":3841:3850   */\n      dup3\n        /* \"#utility.yul\":3832:3839   */\n      dup5\n        /* \"#utility.yul\":3828:3851   */\n      sub\n        /* \"#utility.yul\":3824:3856   */\n      slt\n        /* \"#utility.yul\":3821:3940   */\n      iszero\n      tag_118\n      jumpi\n        /* \"#utility.yul\":3859:3938   */\n      tag_119\n      tag_58\n      jump\t// in\n    tag_119:\n        /* \"#utility.yul\":3821:3940   */\n    tag_118:\n        /* \"#utility.yul\":3979:3980   */\n      0x00\n        /* \"#utility.yul\":4004:4065   */\n      tag_120\n        /* \"#utility.yul\":4057:4064   */\n      dup5\n        /* \"#utility.yul\":4048:4054   */\n      dup3\n        /* \"#utility.yul\":4037:4046   */\n      dup6\n        /* \"#utility.yul\":4033:4055   */\n      add\n        /* \"#utility.yul\":4004:4065   */\n      tag_62\n      jump\t// in\n    tag_120:\n        /* \"#utility.yul\":3994:4065   */\n      swap2\n      pop\n        /* \"#utility.yul\":3950:4075   */\n      pop\n        /* \"#utility.yul\":3737:4082   */\n      swap3\n      swap2\n      pop\n      pop\n      jump\t// out\n        /* \"#utility.yul\":4088:4472   */\n    tag_33:\n        /* \"#utility.yul\":4235:4239   */\n      0x00\n        /* \"#utility.yul\":4273:4275   */\n      0x40\n        /* \"#utility.yul\":4262:4271   */\n      dup3\n        /* \"#utility.yul\":4258:4276   */\n      add\n        /* \"#utility.yul\":4250:4276   */\n      swap1\n      pop\n        /* \"#utility.yul\":4286:4357   */\n      tag_122\n        /* \"#utility.yul\":4354:4355   */\n      0x00\n        /* \"#utility.yul\":4343:4352   */\n      dup4\n        /* \"#utility.yul\":4339:4356   */\n      add\n        /* \"#utility.yul\":4330:4336   */\n      dup6\n        /* \"#utility.yul\":4286:4357   */\n      tag_47\n      jump\t// in\n    tag_122:\n        /* \"#utility.yul\":4367:4465   */\n      tag_123\n        /* \"#utility.yul\":4461:4463   */\n      0x20\n        /* \"#utility.yul\":4450:4459   */\n      dup4\n        /* \"#utility.yul\":4446:4464   */\n      add\n        /* \"#utility.yul\":4437:4443   */\n      dup5\n        /* \"#utility.yul\":4367:4465   */\n      tag_56\n      jump\t// in\n    tag_123:\n        /* \"#utility.yul\":4088:4472   */\n      swap4\n      swap3\n      pop\n      pop\n      pop\n      jump\t// out\n        /* \"#utility.yul\":4478:4586   */\n    tag_63:\n        /* \"#utility.yul\":4555:4579   */\n      tag_125\n        /* \"#utility.yul\":4573:4578   */\n      dup2\n        /* \"#utility.yul\":4555:4579   */\n      tag_46\n      jump\t// in\n    tag_125:\n        /* \"#utility.yul\":4550:4553   */\n      dup3\n        /* \"#utility.yul\":4543:4580   */\n      mstore\n        /* \"#utility.yul\":4478:4586   */\n      pop\n      pop\n      jump\t// out\n        /* \"#utility.yul\":4592:4697   */\n    tag_64:\n        /* \"#utility.yul\":4667:4690   */\n      tag_127\n        /* \"#utility.yul\":4684:4689   */\n      dup2\n        /* \"#utility.yul\":4667:4690   */\n      tag_43\n      jump\t// in\n    tag_127:\n        /* \"#utility.yul\":4662:4665   */\n      dup3\n        /* \"#utility.yul\":4655:4691   */\n      mstore\n        /* \"#utility.yul\":4592:4697   */\n      pop\n      pop\n      jump\t// out\n        /* \"#utility.yul\":4703:4811   */\n    tag_65:\n        /* \"#utility.yul\":4780:4804   */\n      tag_129\n        /* \"#utility.yul\":4798:4803   */\n      dup2\n        /* \"#utility.yul\":4780:4804   */\n      tag_54\n      jump\t// in\n    tag_129:\n        /* \"#utility.yul\":4775:4778   */\n      dup3\n        /* \"#utility.yul\":4768:4805   */\n      mstore\n        /* \"#utility.yul\":4703:4811   */\n      pop\n      pop\n      jump\t// out\n        /* \"#utility.yul\":4817:4925   */\n    tag_66:\n        /* \"#utility.yul\":4894:4918   */\n      tag_131\n        /* \"#utility.yul\":4912:4917   */\n      dup2\n        /* \"#utility.yul\":4894:4918   */\n      tag_45\n      jump\t// in\n    tag_131:\n        /* \"#utility.yul\":4889:4892   */\n      dup3\n        /* \"#utility.yul\":4882:4919   */\n      mstore\n        /* \"#utility.yul\":4817:4925   */\n      pop\n      pop\n      jump\t// out\n        /* \"#utility.yul\":5025:6646   */\n    tag_67:\n        /* \"#utility.yul\":5198:5204   */\n      0x0100\n        /* \"#utility.yul\":5193:5196   */\n      dup3\n        /* \"#utility.yul\":5189:5205   */\n      add\n        /* \"#utility.yul\":5290:5294   */\n      0x00\n        /* \"#utility.yul\":5283:5288   */\n      dup3\n        /* \"#utility.yul\":5279:5295   */\n      add\n        /* \"#utility.yul\":5273:5296   */\n      mload\n        /* \"#utility.yul\":5309:5372   */\n      tag_133\n        /* \"#utility.yul\":5366:5370   */\n      0x00\n        /* \"#utility.yul\":5361:5364   */\n      dup6\n        /* \"#utility.yul\":5357:5371   */\n      add\n        /* \"#utility.yul\":5343:5355   */\n      dup3\n        /* \"#utility.yul\":5309:5372   */\n      tag_63\n      jump\t// in\n    tag_133:\n        /* \"#utility.yul\":5215:5382   */\n      pop\n        /* \"#utility.yul\":5468:5472   */\n      0x20\n        /* \"#utility.yul\":5461:5466   */\n      dup3\n        /* \"#utility.yul\":5457:5473   */\n      add\n        /* \"#utility.yul\":5451:5474   */\n      mload\n        /* \"#utility.yul\":5487:5550   */\n      tag_134\n        /* \"#utility.yul\":5544:5548   */\n      0x20\n        /* \"#utility.yul\":5539:5542   */\n      dup6\n        /* \"#utility.yul\":5535:5549   */\n      add\n        /* \"#utility.yul\":5521:5533   */\n      dup3\n        /* \"#utility.yul\":5487:5550   */\n      tag_63\n      jump\t// in\n    tag_134:\n        /* \"#utility.yul\":5392:5560   */\n      pop\n        /* \"#utility.yul\":5641:5645   */\n      0x40\n        /* \"#utility.yul\":5634:5639   */\n      dup3\n        /* \"#utility.yul\":5630:5646   */\n      add\n        /* \"#utility.yul\":5624:5647   */\n      mload\n        /* \"#utility.yul\":5660:5721   */\n      tag_135\n        /* \"#utility.yul\":5715:5719   */\n      0x40\n        /* \"#utility.yul\":5710:5713   */\n      dup6\n        /* \"#utility.yul\":5706:5720   */\n      add\n        /* \"#utility.yul\":5692:5704   */\n      dup3\n        /* \"#utility.yul\":5660:5721   */\n      tag_64\n      jump\t// in\n    tag_135:\n        /* \"#utility.yul\":5570:5731   */\n      pop\n        /* \"#utility.yul\":5818:5822   */\n      0x60\n        /* \"#utility.yul\":5811:5816   */\n      dup3\n        /* \"#utility.yul\":5807:5823   */\n      add\n        /* \"#utility.yul\":5801:5824   */\n      mload\n        /* \"#utility.yul\":5837:5900   */\n      tag_136\n        /* \"#utility.yul\":5894:5898   */\n      0x60\n        /* \"#utility.yul\":5889:5892   */\n      dup6\n        /* \"#utility.yul\":5885:5899   */\n      add\n        /* \"#utility.yul\":5871:5883   */\n      dup3\n        /* \"#utility.yul\":5837:5900   */\n      tag_63\n      jump\t// in\n    tag_136:\n        /* \"#utility.yul\":5741:5910   */\n      pop\n        /* \"#utility.yul\":5996:6000   */\n      0x80\n        /* \"#utility.yul\":5989:5994   */\n      dup3\n        /* \"#utility.yul\":5985:6001   */\n      add\n        /* \"#utility.yul\":5979:6002   */\n      mload\n        /* \"#utility.yul\":6015:6078   */\n      tag_137\n        /* \"#utility.yul\":6072:6076   */\n      0x80\n        /* \"#utility.yul\":6067:6070   */\n      dup6\n        /* \"#utility.yul\":6063:6077   */\n      add\n        /* \"#utility.yul\":6049:6061   */\n      dup3\n        /* \"#utility.yul\":6015:6078   */\n      tag_65\n      jump\t// in\n    tag_137:\n        /* \"#utility.yul\":5920:6088   */\n      pop\n        /* \"#utility.yul\":6174:6178   */\n      0xa0\n        /* \"#utility.yul\":6167:6172   */\n      dup3\n        /* \"#utility.yul\":6163:6179   */\n      add\n        /* \"#utility.yul\":6157:6180   */\n      mload\n        /* \"#utility.yul\":6193:6256   */\n      tag_138\n        /* \"#utility.yul\":6250:6254   */\n      0xa0\n        /* \"#utility.yul\":6245:6248   */\n      dup6\n        /* \"#utility.yul\":6241:6255   */\n      add\n        /* \"#utility.yul\":6227:6239   */\n      dup3\n        /* \"#utility.yul\":6193:6256   */\n      tag_65\n      jump\t// in\n    tag_138:\n        /* \"#utility.yul\":6098:6266   */\n      pop\n        /* \"#utility.yul\":6360:6364   */\n      0xc0\n        /* \"#utility.yul\":6353:6358   */\n      dup3\n        /* \"#utility.yul\":6349:6365   */\n      add\n        /* \"#utility.yul\":6343:6366   */\n      mload\n        /* \"#utility.yul\":6379:6442   */\n      tag_139\n        /* \"#utility.yul\":6436:6440   */\n      0xc0\n        /* \"#utility.yul\":6431:6434   */\n      dup6\n        /* \"#utility.yul\":6427:6441   */\n      add\n        /* \"#utility.yul\":6413:6425   */\n      dup3\n        /* \"#utility.yul\":6379:6442   */\n      tag_65\n      jump\t// in\n    tag_139:\n        /* \"#utility.yul\":6276:6452   */\n      pop\n        /* \"#utility.yul\":6547:6551   */\n      0xe0\n        /* \"#utility.yul\":6540:6545   */\n      dup3\n        /* \"#utility.yul\":6536:6552   */\n      add\n        /* \"#utility.yul\":6530:6553   */\n      mload\n        /* \"#utility.yul\":6566:6629   */\n      tag_140\n        /* \"#utility.yul\":6623:6627   */\n      0xe0\n        /* \"#utility.yul\":6618:6621   */\n      dup6\n        /* \"#utility.yul\":6614:6628   */\n      add\n        /* \"#utility.yul\":6600:6612   */\n      dup3\n        /* \"#utility.yul\":6566:6629   */\n      tag_66\n      jump\t// in\n    tag_140:\n        /* \"#utility.yul\":6462:6639   */\n      pop\n        /* \"#utility.yul\":5167:6646   */\n      pop\n        /* \"#utility.yul\":5025:6646   */\n      pop\n      pop\n      jump\t// out\n        /* \"#utility.yul\":6652:7027   */\n    tag_38:\n        /* \"#utility.yul\":6821:6825   */\n      0x00\n        /* \"#utility.yul\":6859:6862   */\n      0x0100\n        /* \"#utility.yul\":6848:6857   */\n      dup3\n        /* \"#utility.yul\":6844:6863   */\n      add\n        /* \"#utility.yul\":6836:6863   */\n      swap1\n      pop\n        /* \"#utility.yul\":6873:7020   */\n      tag_142\n        /* \"#utility.yul\":7017:7018   */\n      0x00\n        /* \"#utility.yul\":7006:7015   */\n      dup4\n        /* \"#utility.yul\":7002:7019   */\n      add\n        /* \"#utility.yul\":6993:6999   */\n      dup5\n        /* \"#utility.yul\":6873:7020   */\n      tag_67\n      jump\t// in\n    tag_142:\n        /* \"#utility.yul\":6652:7027   */\n      swap3\n      swap2\n      pop\n      pop\n      jump\t// out\n        /* \"#utility.yul\":7033:7155   */\n    tag_68:\n        /* \"#utility.yul\":7106:7130   */\n      tag_144\n        /* \"#utility.yul\":7124:7129   */\n      dup2\n        /* \"#utility.yul\":7106:7130   */\n      tag_54\n      jump\t// in\n    tag_144:\n        /* \"#utility.yul\":7099:7104   */\n      dup2\n        /* \"#utility.yul\":7096:7131   */\n      eq\n        /* \"#utility.yul\":7086:7149   */\n      tag_145\n      jumpi\n        /* \"#utility.yul\":7145:7146   */\n      0x00\n        /* \"#utility.yul\":7142:7143   */\n      dup1\n        /* \"#utility.yul\":7135:7147   */\n      revert\n        /* \"#utility.yul\":7086:7149   */\n    tag_145:\n        /* \"#utility.yul\":7033:7155   */\n      pop\n      jump\t// out\n        /* \"#utility.yul\":7161:7304   */\n    tag_69:\n        /* \"#utility.yul\":7218:7223   */\n      0x00\n        /* \"#utility.yul\":7249:7255   */\n      dup2\n        /* \"#utility.yul\":7243:7256   */\n      mload\n        /* \"#utility.yul\":7234:7256   */\n      swap1\n      pop\n        /* \"#utility.yul\":7265:7298   */\n      tag_147\n        /* \"#utility.yul\":7292:7297   */\n      dup2\n        /* \"#utility.yul\":7265:7298   */\n      tag_68\n      jump\t// in\n    tag_147:\n        /* \"#utility.yul\":7161:7304   */\n      swap3\n      swap2\n      pop\n      pop\n      jump\t// out\n        /* \"#utility.yul\":7310:7661   */\n    tag_42:\n        /* \"#utility.yul\":7380:7386   */\n      0x00\n        /* \"#utility.yul\":7429:7431   */\n      0x20\n        /* \"#utility.yul\":7417:7426   */\n      dup3\n        /* \"#utility.yul\":7408:7415   */\n      dup5\n        /* \"#utility.yul\":7404:7427   */\n      sub\n        /* \"#utility.yul\":7400:7432   */\n      slt\n        /* \"#utility.yul\":7397:7516   */\n      iszero\n      tag_149\n      jumpi\n        /* \"#utility.yul\":7435:7514   */\n      tag_150\n      tag_58\n      jump\t// in\n    tag_150:\n        /* \"#utility.yul\":7397:7516   */\n    tag_149:\n        /* \"#utility.yul\":7555:7556   */\n      0x00\n        /* \"#utility.yul\":7580:7644   */\n      tag_151\n        /* \"#utility.yul\":7636:7643   */\n      dup5\n        /* \"#utility.yul\":7627:7633   */\n      dup3\n        /* \"#utility.yul\":7616:7625   */\n      dup6\n        /* \"#utility.yul\":7612:7634   */\n      add\n        /* \"#utility.yul\":7580:7644   */\n      tag_69\n      jump\t// in\n    tag_151:\n        /* \"#utility.yul\":7570:7644   */\n      swap2\n      pop\n        /* \"#utility.yul\":7526:7654   */\n      pop\n        /* \"#utility.yul\":7310:7661   */\n      swap3\n      swap2\n      pop\n      pop\n      jump\t// out\n\n    auxdata: 0xa2646970667358221220d52d53d36b1eb5d05790ec5a2a86446d7ba4ac363b51396fccf496616e5328af64736f6c63430008110033\n}\n",
				"bytecode": {
					"linkReferences": {},
					"object": "60a060405234801561001057600080fd5b506040516108dd3803806108dd833981810160405281019061003291906100e1565b8073ffffffffffffffffffffffffffffffffffffffff1660808173ffffffffffffffffffffffffffffffffffffffff16815250505061010e565b600080fd5b600073ffffffffffffffffffffffffffffffffffffffff82169050919050565b600061009c82610071565b9050919050565b60006100ae82610091565b9050919050565b6100be816100a3565b81146100c957600080fd5b50565b6000815190506100db816100b5565b92915050565b6000602082840312156100f7576100f661006c565b5b6000610105848285016100cc565b91505092915050565b6080516107a6610137600039600081816101cb0152818161032501526103c501526107a66000f3fe608060405234801561001057600080fd5b50600436106100575760003560e01c8063089fe6aa1461005c5780631b6b6d231461007a5780637ea47f8914610098578063c31c9c07146100a2578063e0bab4c4146100c0575b600080fd5b6100646100de565b604051610071919061041d565b60405180910390f35b6100826100e4565b60405161008f9190610479565b60405180910390f35b6100a06100fc565b005b6100aa6103c3565b6040516100b791906104f3565b60405180910390f35b6100c86103e7565b6040516100d59190610479565b60405180910390f35b610bb881565b73326c977e6efc84e512bb9c30f76e30c160ed06fb81565b73dc31ee1784292379fbb2964b3b9c4124d8f89c6073ffffffffffffffffffffffffffffffffffffffff166323b872dd3330670de0b6b3a76400006040518463ffffffff1660e01b815260040161015593929190610553565b6020604051808303816000875af1158015610174573d6000803e3d6000fd5b505050506040513d601f19601f8201168201806040525081019061019891906105c7565b5073dc31ee1784292379fbb2964b3b9c4124d8f89c6073ffffffffffffffffffffffffffffffffffffffff1663095ea7b37f0000000000000000000000000000000000000000000000000000000000000000670de0b6b3a76400006040518363ffffffff1660e01b81526004016102109291906105f4565b6020604051808303816000875af115801561022f573d6000803e3d6000fd5b505050506040513d601f19601f8201168201806040525081019061025391906105c7565b50600060405180610100016040528073b4fbf271143f4fbf7b91a5ded31805e42b2208d673ffffffffffffffffffffffffffffffffffffffff16815260200173dc31ee1784292379fbb2964b3b9c4124d8f89c6073ffffffffffffffffffffffffffffffffffffffff168152602001610bb862ffffff1681526020013373ffffffffffffffffffffffffffffffffffffffff168152602001428152602001670de0b6b3a7640000815260200160008152602001600073ffffffffffffffffffffffffffffffffffffffff1681525090507f000000000000000000000000000000000000000000000000000000000000000073ffffffffffffffffffffffffffffffffffffffff1663414bf389826040518263ffffffff1660e01b815260040161037c91906106fb565b6020604051808303816000875af115801561039b573d6000803e3d6000fd5b505050506040513d601f19601f820116820180604052508101906103bf9190610743565b5050565b7f000000000000000000000000000000000000000000000000000000000000000081565b73dc31ee1784292379fbb2964b3b9c4124d8f89c6081565b600062ffffff82169050919050565b610417816103ff565b82525050565b6000602082019050610432600083018461040e565b92915050565b600073ffffffffffffffffffffffffffffffffffffffff82169050919050565b600061046382610438565b9050919050565b61047381610458565b82525050565b600060208201905061048e600083018461046a565b92915050565b6000819050919050565b60006104b96104b46104af84610438565b610494565b610438565b9050919050565b60006104cb8261049e565b9050919050565b60006104dd826104c0565b9050919050565b6104ed816104d2565b82525050565b600060208201905061050860008301846104e4565b92915050565b6000819050919050565b6000819050919050565b600061053d6105386105338461050e565b610494565b610518565b9050919050565b61054d81610522565b82525050565b6000606082019050610568600083018661046a565b610575602083018561046a565b6105826040830184610544565b949350505050565b600080fd5b60008115159050919050565b6105a48161058f565b81146105af57600080fd5b50565b6000815190506105c18161059b565b92915050565b6000602082840312156105dd576105dc61058a565b5b60006105eb848285016105b2565b91505092915050565b6000604082019050610609600083018561046a565b6106166020830184610544565b9392505050565b61062681610458565b82525050565b610635816103ff565b82525050565b61064481610518565b82525050565b61065381610438565b82525050565b61010082016000820151610670600085018261061d565b506020820151610683602085018261061d565b506040820151610696604085018261062c565b5060608201516106a9606085018261061d565b5060808201516106bc608085018261063b565b5060a08201516106cf60a085018261063b565b5060c08201516106e260c085018261063b565b5060e08201516106f560e085018261064a565b50505050565b6000610100820190506107116000830184610659565b92915050565b61072081610518565b811461072b57600080fd5b50565b60008151905061073d81610717565b92915050565b6000602082840312156107595761075861058a565b5b60006107678482850161072e565b9150509291505056fea2646970667358221220d52d53d36b1eb5d05790ec5a2a86446d7ba4ac363b51396fccf496616e5328af64736f6c63430008110033",
					"opcodes": "PUSH1 0xA0 PUSH1 0x40 MSTORE CALLVALUE DUP1 ISZERO PUSH2 0x10 JUMPI PUSH1 0x0 DUP1 REVERT JUMPDEST POP PUSH1 0x40 MLOAD PUSH2 0x8DD CODESIZE SUB DUP1 PUSH2 0x8DD DUP4 CODECOPY DUP2 DUP2 ADD PUSH1 0x40 MSTORE DUP2 ADD SWAP1 PUSH2 0x32 SWAP2 SWAP1 PUSH2 0xE1 JUMP JUMPDEST DUP1 PUSH20 0xFFFFFFFFFFFFFFFFFFFFFFFFFFFFFFFFFFFFFFFF AND PUSH1 0x80 DUP2 PUSH20 0xFFFFFFFFFFFFFFFFFFFFFFFFFFFFFFFFFFFFFFFF AND DUP2 MSTORE POP POP POP PUSH2 0x10E JUMP JUMPDEST PUSH1 0x0 DUP1 REVERT JUMPDEST PUSH1 0x0 PUSH20 0xFFFFFFFFFFFFFFFFFFFFFFFFFFFFFFFFFFFFFFFF DUP3 AND SWAP1 POP SWAP2 SWAP1 POP JUMP JUMPDEST PUSH1 0x0 PUSH2 0x9C DUP3 PUSH2 0x71 JUMP JUMPDEST SWAP1 POP SWAP2 SWAP1 POP JUMP JUMPDEST PUSH1 0x0 PUSH2 0xAE DUP3 PUSH2 0x91 JUMP JUMPDEST SWAP1 POP SWAP2 SWAP1 POP JUMP JUMPDEST PUSH2 0xBE DUP2 PUSH2 0xA3 JUMP JUMPDEST DUP2 EQ PUSH2 0xC9 JUMPI PUSH1 0x0 DUP1 REVERT JUMPDEST POP JUMP JUMPDEST PUSH1 0x0 DUP2 MLOAD SWAP1 POP PUSH2 0xDB DUP2 PUSH2 0xB5 JUMP JUMPDEST SWAP3 SWAP2 POP POP JUMP JUMPDEST PUSH1 0x0 PUSH1 0x20 DUP3 DUP5 SUB SLT ISZERO PUSH2 0xF7 JUMPI PUSH2 0xF6 PUSH2 0x6C JUMP JUMPDEST JUMPDEST PUSH1 0x0 PUSH2 0x105 DUP5 DUP3 DUP6 ADD PUSH2 0xCC JUMP JUMPDEST SWAP2 POP POP SWAP3 SWAP2 POP POP JUMP JUMPDEST PUSH1 0x80 MLOAD PUSH2 0x7A6 PUSH2 0x137 PUSH1 0x0 CODECOPY PUSH1 0x0 DUP2 DUP2 PUSH2 0x1CB ADD MSTORE DUP2 DUP2 PUSH2 0x325 ADD MSTORE PUSH2 0x3C5 ADD MSTORE PUSH2 0x7A6 PUSH1 0x0 RETURN INVALID PUSH1 0x80 PUSH1 0x40 MSTORE CALLVALUE DUP1 ISZERO PUSH2 0x10 JUMPI PUSH1 0x0 DUP1 REVERT JUMPDEST POP PUSH1 0x4 CALLDATASIZE LT PUSH2 0x57 JUMPI PUSH1 0x0 CALLDATALOAD PUSH1 0xE0 SHR DUP1 PUSH4 0x89FE6AA EQ PUSH2 0x5C JUMPI DUP1 PUSH4 0x1B6B6D23 EQ PUSH2 0x7A JUMPI DUP1 PUSH4 0x7EA47F89 EQ PUSH2 0x98 JUMPI DUP1 PUSH4 0xC31C9C07 EQ PUSH2 0xA2 JUMPI DUP1 PUSH4 0xE0BAB4C4 EQ PUSH2 0xC0 JUMPI JUMPDEST PUSH1 0x0 DUP1 REVERT JUMPDEST PUSH2 0x64 PUSH2 0xDE JUMP JUMPDEST PUSH1 0x40 MLOAD PUSH2 0x71 SWAP2 SWAP1 PUSH2 0x41D JUMP JUMPDEST PUSH1 0x40 MLOAD DUP1 SWAP2 SUB SWAP1 RETURN JUMPDEST PUSH2 0x82 PUSH2 0xE4 JUMP JUMPDEST PUSH1 0x40 MLOAD PUSH2 0x8F SWAP2 SWAP1 PUSH2 0x479 JUMP JUMPDEST PUSH1 0x40 MLOAD DUP1 SWAP2 SUB SWAP1 RETURN JUMPDEST PUSH2 0xA0 PUSH2 0xFC JUMP JUMPDEST STOP JUMPDEST PUSH2 0xAA PUSH2 0x3C3 JUMP JUMPDEST PUSH1 0x40 MLOAD PUSH2 0xB7 SWAP2 SWAP1 PUSH2 0x4F3 JUMP JUMPDEST PUSH1 0x40 MLOAD DUP1 SWAP2 SUB SWAP1 RETURN JUMPDEST PUSH2 0xC8 PUSH2 0x3E7 JUMP JUMPDEST PUSH1 0x40 MLOAD PUSH2 0xD5 SWAP2 SWAP1 PUSH2 0x479 JUMP JUMPDEST PUSH1 0x40 MLOAD DUP1 SWAP2 SUB SWAP1 RETURN JUMPDEST PUSH2 0xBB8 DUP2 JUMP JUMPDEST PUSH20 0x326C977E6EFC84E512BB9C30F76E30C160ED06FB DUP2 JUMP JUMPDEST PUSH20 0xDC31EE1784292379FBB2964B3B9C4124D8F89C60 PUSH20 0xFFFFFFFFFFFFFFFFFFFFFFFFFFFFFFFFFFFFFFFF AND PUSH4 0x23B872DD CALLER ADDRESS PUSH8 0xDE0B6B3A7640000 PUSH1 0x40 MLOAD DUP5 PUSH4 0xFFFFFFFF AND PUSH1 0xE0 SHL DUP2 MSTORE PUSH1 0x4 ADD PUSH2 0x155 SWAP4 SWAP3 SWAP2 SWAP1 PUSH2 0x553 JUMP JUMPDEST PUSH1 0x20 PUSH1 0x40 MLOAD DUP1 DUP4 SUB DUP2 PUSH1 0x0 DUP8 GAS CALL ISZERO DUP1 ISZERO PUSH2 0x174 JUMPI RETURNDATASIZE PUSH1 0x0 DUP1 RETURNDATACOPY RETURNDATASIZE PUSH1 0x0 REVERT JUMPDEST POP POP POP POP PUSH1 0x40 MLOAD RETURNDATASIZE PUSH1 0x1F NOT PUSH1 0x1F DUP3 ADD AND DUP3 ADD DUP1 PUSH1 0x40 MSTORE POP DUP2 ADD SWAP1 PUSH2 0x198 SWAP2 SWAP1 PUSH2 0x5C7 JUMP JUMPDEST POP PUSH20 0xDC31EE1784292379FBB2964B3B9C4124D8F89C60 PUSH20 0xFFFFFFFFFFFFFFFFFFFFFFFFFFFFFFFFFFFFFFFF AND PUSH4 0x95EA7B3 PUSH32 0x0 PUSH8 0xDE0B6B3A7640000 PUSH1 0x40 MLOAD DUP4 PUSH4 0xFFFFFFFF AND PUSH1 0xE0 SHL DUP2 MSTORE PUSH1 0x4 ADD PUSH2 0x210 SWAP3 SWAP2 SWAP1 PUSH2 0x5F4 JUMP JUMPDEST PUSH1 0x20 PUSH1 0x40 MLOAD DUP1 DUP4 SUB DUP2 PUSH1 0x0 DUP8 GAS CALL ISZERO DUP1 ISZERO PUSH2 0x22F JUMPI RETURNDATASIZE PUSH1 0x0 DUP1 RETURNDATACOPY RETURNDATASIZE PUSH1 0x0 REVERT JUMPDEST POP POP POP POP PUSH1 0x40 MLOAD RETURNDATASIZE PUSH1 0x1F NOT PUSH1 0x1F DUP3 ADD AND DUP3 ADD DUP1 PUSH1 0x40 MSTORE POP DUP2 ADD SWAP1 PUSH2 0x253 SWAP2 SWAP1 PUSH2 0x5C7 JUMP JUMPDEST POP PUSH1 0x0 PUSH1 0x40 MLOAD DUP1 PUSH2 0x100 ADD PUSH1 0x40 MSTORE DUP1 PUSH20 0xB4FBF271143F4FBF7B91A5DED31805E42B2208D6 PUSH20 0xFFFFFFFFFFFFFFFFFFFFFFFFFFFFFFFFFFFFFFFF AND DUP2 MSTORE PUSH1 0x20 ADD PUSH20 0xDC31EE1784292379FBB2964B3B9C4124D8F89C60 PUSH20 0xFFFFFFFFFFFFFFFFFFFFFFFFFFFFFFFFFFFFFFFF AND DUP2 MSTORE PUSH1 0x20 ADD PUSH2 0xBB8 PUSH3 0xFFFFFF AND DUP2 MSTORE PUSH1 0x20 ADD CALLER PUSH20 0xFFFFFFFFFFFFFFFFFFFFFFFFFFFFFFFFFFFFFFFF AND DUP2 MSTORE PUSH1 0x20 ADD TIMESTAMP DUP2 MSTORE PUSH1 0x20 ADD PUSH8 0xDE0B6B3A7640000 DUP2 MSTORE PUSH1 0x20 ADD PUSH1 0x0 DUP2 MSTORE PUSH1 0x20 ADD PUSH1 0x0 PUSH20 0xFFFFFFFFFFFFFFFFFFFFFFFFFFFFFFFFFFFFFFFF AND DUP2 MSTORE POP SWAP1 POP PUSH32 0x0 PUSH20 0xFFFFFFFFFFFFFFFFFFFFFFFFFFFFFFFFFFFFFFFF AND PUSH4 0x414BF389 DUP3 PUSH1 0x40 MLOAD DUP3 PUSH4 0xFFFFFFFF AND PUSH1 0xE0 SHL DUP2 MSTORE PUSH1 0x4 ADD PUSH2 0x37C SWAP2 SWAP1 PUSH2 0x6FB JUMP JUMPDEST PUSH1 0x20 PUSH1 0x40 MLOAD DUP1 DUP4 SUB DUP2 PUSH1 0x0 DUP8 GAS CALL ISZERO DUP1 ISZERO PUSH2 0x39B JUMPI RETURNDATASIZE PUSH1 0x0 DUP1 RETURNDATACOPY RETURNDATASIZE PUSH1 0x0 REVERT JUMPDEST POP POP POP POP PUSH1 0x40 MLOAD RETURNDATASIZE PUSH1 0x1F NOT PUSH1 0x1F DUP3 ADD AND DUP3 ADD DUP1 PUSH1 0x40 MSTORE POP DUP2 ADD SWAP1 PUSH2 0x3BF SWAP2 SWAP1 PUSH2 0x743 JUMP JUMPDEST POP POP JUMP JUMPDEST PUSH32 0x0 DUP2 JUMP JUMPDEST PUSH20 0xDC31EE1784292379FBB2964B3B9C4124D8F89C60 DUP2 JUMP JUMPDEST PUSH1 0x0 PUSH3 0xFFFFFF DUP3 AND SWAP1 POP SWAP2 SWAP1 POP JUMP JUMPDEST PUSH2 0x417 DUP2 PUSH2 0x3FF JUMP JUMPDEST DUP3 MSTORE POP POP JUMP JUMPDEST PUSH1 0x0 PUSH1 0x20 DUP3 ADD SWAP1 POP PUSH2 0x432 PUSH1 0x0 DUP4 ADD DUP5 PUSH2 0x40E JUMP JUMPDEST SWAP3 SWAP2 POP POP JUMP JUMPDEST PUSH1 0x0 PUSH20 0xFFFFFFFFFFFFFFFFFFFFFFFFFFFFFFFFFFFFFFFF DUP3 AND SWAP1 POP SWAP2 SWAP1 POP JUMP JUMPDEST PUSH1 0x0 PUSH2 0x463 DUP3 PUSH2 0x438 JUMP JUMPDEST SWAP1 POP SWAP2 SWAP1 POP JUMP JUMPDEST PUSH2 0x473 DUP2 PUSH2 0x458 JUMP JUMPDEST DUP3 MSTORE POP POP JUMP JUMPDEST PUSH1 0x0 PUSH1 0x20 DUP3 ADD SWAP1 POP PUSH2 0x48E PUSH1 0x0 DUP4 ADD DUP5 PUSH2 0x46A JUMP JUMPDEST SWAP3 SWAP2 POP POP JUMP JUMPDEST PUSH1 0x0 DUP2 SWAP1 POP SWAP2 SWAP1 POP JUMP JUMPDEST PUSH1 0x0 PUSH2 0x4B9 PUSH2 0x4B4 PUSH2 0x4AF DUP5 PUSH2 0x438 JUMP JUMPDEST PUSH2 0x494 JUMP JUMPDEST PUSH2 0x438 JUMP JUMPDEST SWAP1 POP SWAP2 SWAP1 POP JUMP JUMPDEST PUSH1 0x0 PUSH2 0x4CB DUP3 PUSH2 0x49E JUMP JUMPDEST SWAP1 POP SWAP2 SWAP1 POP JUMP JUMPDEST PUSH1 0x0 PUSH2 0x4DD DUP3 PUSH2 0x4C0 JUMP JUMPDEST SWAP1 POP SWAP2 SWAP1 POP JUMP JUMPDEST PUSH2 0x4ED DUP2 PUSH2 0x4D2 JUMP JUMPDEST DUP3 MSTORE POP POP JUMP JUMPDEST PUSH1 0x0 PUSH1 0x20 DUP3 ADD SWAP1 POP PUSH2 0x508 PUSH1 0x0 DUP4 ADD DUP5 PUSH2 0x4E4 JUMP JUMPDEST SWAP3 SWAP2 POP POP JUMP JUMPDEST PUSH1 0x0 DUP2 SWAP1 POP SWAP2 SWAP1 POP JUMP JUMPDEST PUSH1 0x0 DUP2 SWAP1 POP SWAP2 SWAP1 POP JUMP JUMPDEST PUSH1 0x0 PUSH2 0x53D PUSH2 0x538 PUSH2 0x533 DUP5 PUSH2 0x50E JUMP JUMPDEST PUSH2 0x494 JUMP JUMPDEST PUSH2 0x518 JUMP JUMPDEST SWAP1 POP SWAP2 SWAP1 POP JUMP JUMPDEST PUSH2 0x54D DUP2 PUSH2 0x522 JUMP JUMPDEST DUP3 MSTORE POP POP JUMP JUMPDEST PUSH1 0x0 PUSH1 0x60 DUP3 ADD SWAP1 POP PUSH2 0x568 PUSH1 0x0 DUP4 ADD DUP7 PUSH2 0x46A JUMP JUMPDEST PUSH2 0x575 PUSH1 0x20 DUP4 ADD DUP6 PUSH2 0x46A JUMP JUMPDEST PUSH2 0x582 PUSH1 0x40 DUP4 ADD DUP5 PUSH2 0x544 JUMP JUMPDEST SWAP5 SWAP4 POP POP POP POP JUMP JUMPDEST PUSH1 0x0 DUP1 REVERT JUMPDEST PUSH1 0x0 DUP2 ISZERO ISZERO SWAP1 POP SWAP2 SWAP1 POP JUMP JUMPDEST PUSH2 0x5A4 DUP2 PUSH2 0x58F JUMP JUMPDEST DUP2 EQ PUSH2 0x5AF JUMPI PUSH1 0x0 DUP1 REVERT JUMPDEST POP JUMP JUMPDEST PUSH1 0x0 DUP2 MLOAD SWAP1 POP PUSH2 0x5C1 DUP2 PUSH2 0x59B JUMP JUMPDEST SWAP3 SWAP2 POP POP JUMP JUMPDEST PUSH1 0x0 PUSH1 0x20 DUP3 DUP5 SUB SLT ISZERO PUSH2 0x5DD JUMPI PUSH2 0x5DC PUSH2 0x58A JUMP JUMPDEST JUMPDEST PUSH1 0x0 PUSH2 0x5EB DUP5 DUP3 DUP6 ADD PUSH2 0x5B2 JUMP JUMPDEST SWAP2 POP POP SWAP3 SWAP2 POP POP JUMP JUMPDEST PUSH1 0x0 PUSH1 0x40 DUP3 ADD SWAP1 POP PUSH2 0x609 PUSH1 0x0 DUP4 ADD DUP6 PUSH2 0x46A JUMP JUMPDEST PUSH2 0x616 PUSH1 0x20 DUP4 ADD DUP5 PUSH2 0x544 JUMP JUMPDEST SWAP4 SWAP3 POP POP POP JUMP JUMPDEST PUSH2 0x626 DUP2 PUSH2 0x458 JUMP JUMPDEST DUP3 MSTORE POP POP JUMP JUMPDEST PUSH2 0x635 DUP2 PUSH2 0x3FF JUMP JUMPDEST DUP3 MSTORE POP POP JUMP JUMPDEST PUSH2 0x644 DUP2 PUSH2 0x518 JUMP JUMPDEST DUP3 MSTORE POP POP JUMP JUMPDEST PUSH2 0x653 DUP2 PUSH2 0x438 JUMP JUMPDEST DUP3 MSTORE POP POP JUMP JUMPDEST PUSH2 0x100 DUP3 ADD PUSH1 0x0 DUP3 ADD MLOAD PUSH2 0x670 PUSH1 0x0 DUP6 ADD DUP3 PUSH2 0x61D JUMP JUMPDEST POP PUSH1 0x20 DUP3 ADD MLOAD PUSH2 0x683 PUSH1 0x20 DUP6 ADD DUP3 PUSH2 0x61D JUMP JUMPDEST POP PUSH1 0x40 DUP3 ADD MLOAD PUSH2 0x696 PUSH1 0x40 DUP6 ADD DUP3 PUSH2 0x62C JUMP JUMPDEST POP PUSH1 0x60 DUP3 ADD MLOAD PUSH2 0x6A9 PUSH1 0x60 DUP6 ADD DUP3 PUSH2 0x61D JUMP JUMPDEST POP PUSH1 0x80 DUP3 ADD MLOAD PUSH2 0x6BC PUSH1 0x80 DUP6 ADD DUP3 PUSH2 0x63B JUMP JUMPDEST POP PUSH1 0xA0 DUP3 ADD MLOAD PUSH2 0x6CF PUSH1 0xA0 DUP6 ADD DUP3 PUSH2 0x63B JUMP JUMPDEST POP PUSH1 0xC0 DUP3 ADD MLOAD PUSH2 0x6E2 PUSH1 0xC0 DUP6 ADD DUP3 PUSH2 0x63B JUMP JUMPDEST POP PUSH1 0xE0 DUP3 ADD MLOAD PUSH2 0x6F5 PUSH1 0xE0 DUP6 ADD DUP3 PUSH2 0x64A JUMP JUMPDEST POP POP POP POP JUMP JUMPDEST PUSH1 0x0 PUSH2 0x100 DUP3 ADD SWAP1 POP PUSH2 0x711 PUSH1 0x0 DUP4 ADD DUP5 PUSH2 0x659 JUMP JUMPDEST SWAP3 SWAP2 POP POP JUMP JUMPDEST PUSH2 0x720 DUP2 PUSH2 0x518 JUMP JUMPDEST DUP2 EQ PUSH2 0x72B JUMPI PUSH1 0x0 DUP1 REVERT JUMPDEST POP JUMP JUMPDEST PUSH1 0x0 DUP2 MLOAD SWAP1 POP PUSH2 0x73D DUP2 PUSH2 0x717 JUMP JUMPDEST SWAP3 SWAP2 POP POP JUMP JUMPDEST PUSH1 0x0 PUSH1 0x20 DUP3 DUP5 SUB SLT ISZERO PUSH2 0x759 JUMPI PUSH2 0x758 PUSH2 0x58A JUMP JUMPDEST JUMPDEST PUSH1 0x0 PUSH2 0x767 DUP5 DUP3 DUP6 ADD PUSH2 0x72E JUMP JUMPDEST SWAP2 POP POP SWAP3 SWAP2 POP POP JUMP INVALID LOG2 PUSH5 0x6970667358 0x22 SLT KECCAK256 0xD5 0x2D MSTORE8 0xD3 PUSH12 0x1EB5D05790EC5A2A86446D7B LOG4 0xAC CALLDATASIZE EXTCODESIZE MLOAD CODECOPY PUSH16 0xCCF496616E5328AF64736F6C63430008 GT STOP CALLER "
				},
				"gasEstimates": {
					"creation": {
						"codeDepositCost": "391600",
						"executionCost": "infinite",
						"totalCost": "infinite"
					},
					"external": {
						"DAI()": "444",
						"LINK()": "378",
						"poolFee()": "313",
						"swapExactInputSingle()": "infinite",
						"swapRouter()": "infinite"
					}
				},
				"methodIdentifiers": {
					"DAI()": "e0bab4c4",
					"LINK()": "1b6b6d23",
					"poolFee()": "089fe6aa",
					"swapExactInputSingle()": "7ea47f89",
					"swapRouter()": "c31c9c07"
				}
			},
			"storageLayout": {
				"storage": [],
				"types": null
			},
			"userdoc": {
				"kind": "user",
				"methods": {},
				"version": 1
			}
		}
	}
}