{
	"contracts/Alyra/Exceptions.sol": {
		"Bob": {
			"abi": [
				{
					"inputs": [
						{
							"internalType": "contract Alice",
							"name": "c",
							"type": "address"
						}
					],
					"name": "pong",
					"outputs": [],
					"stateMutability": "nonpayable",
					"type": "function"
				},
				{
					"inputs": [],
					"name": "x",
					"outputs": [
						{
							"internalType": "uint256",
							"name": "",
							"type": "uint256"
						}
					],
					"stateMutability": "view",
					"type": "function"
				}
			],
			"devdoc": {
				"kind": "dev",
				"methods": {},
				"version": 1
			},
			"evm": {
				"assembly": "    /* \"contracts/Alyra/Exceptions.sol\":133:266  contract Bob   {... */\n  mstore(0x40, 0x80)\n    /* \"contracts/Alyra/Exceptions.sol\":170:171  0 */\n  0x00\n    /* \"contracts/Alyra/Exceptions.sol\":154:171  uint public x = 0 */\n  dup1\n  sstore\n    /* \"contracts/Alyra/Exceptions.sol\":133:266  contract Bob   {... */\n  callvalue\n  dup1\n  iszero\n  tag_1\n  jumpi\n  0x00\n  dup1\n  revert\ntag_1:\n  pop\n  dataSize(sub_0)\n  dup1\n  dataOffset(sub_0)\n  0x00\n  codecopy\n  0x00\n  return\nstop\n\nsub_0: assembly {\n        /* \"contracts/Alyra/Exceptions.sol\":133:266  contract Bob   {... */\n      mstore(0x40, 0x80)\n      callvalue\n      dup1\n      iszero\n      tag_1\n      jumpi\n      0x00\n      dup1\n      revert\n    tag_1:\n      pop\n      jumpi(tag_2, lt(calldatasize, 0x04))\n      shr(0xe0, calldataload(0x00))\n      dup1\n      0x0c55699c\n      eq\n      tag_3\n      jumpi\n      dup1\n      0xa0145f1d\n      eq\n      tag_4\n      jumpi\n    tag_2:\n      0x00\n      dup1\n      revert\n        /* \"contracts/Alyra/Exceptions.sol\":154:171  uint public x = 0 */\n    tag_3:\n      tag_5\n      tag_6\n      jump\t// in\n    tag_5:\n      mload(0x40)\n      tag_7\n      swap2\n      swap1\n      tag_8\n      jump\t// in\n    tag_7:\n      mload(0x40)\n      dup1\n      swap2\n      sub\n      swap1\n      return\n        /* \"contracts/Alyra/Exceptions.sol\":177:263  function pong(Alice c) public{... */\n    tag_4:\n      tag_9\n      0x04\n      dup1\n      calldatasize\n      sub\n      dup2\n      add\n      swap1\n      tag_10\n      swap2\n      swap1\n      tag_11\n      jump\t// in\n    tag_10:\n      tag_12\n      jump\t// in\n    tag_9:\n      stop\n        /* \"contracts/Alyra/Exceptions.sol\":154:171  uint public x = 0 */\n    tag_6:\n      sload(0x00)\n      dup2\n      jump\t// out\n        /* \"contracts/Alyra/Exceptions.sol\":177:263  function pong(Alice c) public{... */\n    tag_12:\n        /* \"contracts/Alyra/Exceptions.sol\":220:221  1 */\n      0x01\n        /* \"contracts/Alyra/Exceptions.sol\":216:217  x */\n      0x00\n        /* \"contracts/Alyra/Exceptions.sol\":216:221  x = 1 */\n      dup2\n      swap1\n      sstore\n      pop\n        /* \"contracts/Alyra/Exceptions.sol\":231:232  c */\n      dup1\n        /* \"contracts/Alyra/Exceptions.sol\":231:237  c.ping */\n      0xffffffffffffffffffffffffffffffffffffffff\n      and\n      0x773acdef\n        /* \"contracts/Alyra/Exceptions.sol\":238:240  42 */\n      0x2a\n        /* \"contracts/Alyra/Exceptions.sol\":231:241  c.ping(42) */\n      mload(0x40)\n      dup3\n      0xffffffff\n      and\n      0xe0\n      shl\n      dup2\n      mstore\n      0x04\n      add\n      tag_14\n      swap2\n      swap1\n      tag_15\n      jump\t// in\n    tag_14:\n      0x20\n      mload(0x40)\n      dup1\n      dup4\n      sub\n      dup2\n      0x00\n      dup8\n      gas\n      call\n      iszero\n      dup1\n      iszero\n      tag_17\n      jumpi\n      returndatasize\n      0x00\n      dup1\n      returndatacopy\n      revert(0x00, returndatasize)\n    tag_17:\n      pop\n      pop\n      pop\n      pop\n      mload(0x40)\n      returndatasize\n      not(0x1f)\n      0x1f\n      dup3\n      add\n      and\n      dup3\n      add\n      dup1\n      0x40\n      mstore\n      pop\n      dup2\n      add\n      swap1\n      tag_18\n      swap2\n      swap1\n      tag_19\n      jump\t// in\n    tag_18:\n      pop\n        /* \"contracts/Alyra/Exceptions.sol\":255:256  2 */\n      0x02\n        /* \"contracts/Alyra/Exceptions.sol\":251:252  x */\n      0x00\n        /* \"contracts/Alyra/Exceptions.sol\":251:256  x = 2 */\n      dup2\n      swap1\n      sstore\n      pop\n        /* \"contracts/Alyra/Exceptions.sol\":177:263  function pong(Alice c) public{... */\n      pop\n      jump\t// out\n        /* \"#utility.yul\":7:84   */\n    tag_20:\n        /* \"#utility.yul\":44:51   */\n      0x00\n        /* \"#utility.yul\":73:78   */\n      dup2\n        /* \"#utility.yul\":62:78   */\n      swap1\n      pop\n        /* \"#utility.yul\":7:84   */\n      swap2\n      swap1\n      pop\n      jump\t// out\n        /* \"#utility.yul\":90:208   */\n    tag_21:\n        /* \"#utility.yul\":177:201   */\n      tag_39\n        /* \"#utility.yul\":195:200   */\n      dup2\n        /* \"#utility.yul\":177:201   */\n      tag_20\n      jump\t// in\n    tag_39:\n        /* \"#utility.yul\":172:175   */\n      dup3\n        /* \"#utility.yul\":165:202   */\n      mstore\n        /* \"#utility.yul\":90:208   */\n      pop\n      pop\n      jump\t// out\n        /* \"#utility.yul\":214:436   */\n    tag_8:\n        /* \"#utility.yul\":307:311   */\n      0x00\n        /* \"#utility.yul\":345:347   */\n      0x20\n        /* \"#utility.yul\":334:343   */\n      dup3\n        /* \"#utility.yul\":330:348   */\n      add\n        /* \"#utility.yul\":322:348   */\n      swap1\n      pop\n        /* \"#utility.yul\":358:429   */\n      tag_41\n        /* \"#utility.yul\":426:427   */\n      0x00\n        /* \"#utility.yul\":415:424   */\n      dup4\n        /* \"#utility.yul\":411:428   */\n      add\n        /* \"#utility.yul\":402:408   */\n      dup5\n        /* \"#utility.yul\":358:429   */\n      tag_21\n      jump\t// in\n    tag_41:\n        /* \"#utility.yul\":214:436   */\n      swap3\n      swap2\n      pop\n      pop\n      jump\t// out\n        /* \"#utility.yul\":523:640   */\n    tag_23:\n        /* \"#utility.yul\":632:633   */\n      0x00\n        /* \"#utility.yul\":629:630   */\n      dup1\n        /* \"#utility.yul\":622:634   */\n      revert\n        /* \"#utility.yul\":769:895   */\n    tag_25:\n        /* \"#utility.yul\":806:813   */\n      0x00\n        /* \"#utility.yul\":846:888   */\n      0xffffffffffffffffffffffffffffffffffffffff\n        /* \"#utility.yul\":839:844   */\n      dup3\n        /* \"#utility.yul\":835:889   */\n      and\n        /* \"#utility.yul\":824:889   */\n      swap1\n      pop\n        /* \"#utility.yul\":769:895   */\n      swap2\n      swap1\n      pop\n      jump\t// out\n        /* \"#utility.yul\":901:997   */\n    tag_26:\n        /* \"#utility.yul\":938:945   */\n      0x00\n        /* \"#utility.yul\":967:991   */\n      tag_47\n        /* \"#utility.yul\":985:990   */\n      dup3\n        /* \"#utility.yul\":967:991   */\n      tag_25\n      jump\t// in\n    tag_47:\n        /* \"#utility.yul\":956:991   */\n      swap1\n      pop\n        /* \"#utility.yul\":901:997   */\n      swap2\n      swap1\n      pop\n      jump\t// out\n        /* \"#utility.yul\":1003:1111   */\n    tag_27:\n        /* \"#utility.yul\":1052:1059   */\n      0x00\n        /* \"#utility.yul\":1081:1105   */\n      tag_49\n        /* \"#utility.yul\":1099:1104   */\n      dup3\n        /* \"#utility.yul\":1081:1105   */\n      tag_26\n      jump\t// in\n    tag_49:\n        /* \"#utility.yul\":1070:1105   */\n      swap1\n      pop\n        /* \"#utility.yul\":1003:1111   */\n      swap2\n      swap1\n      pop\n      jump\t// out\n        /* \"#utility.yul\":1117:1263   */\n    tag_28:\n        /* \"#utility.yul\":1202:1238   */\n      tag_51\n        /* \"#utility.yul\":1232:1237   */\n      dup2\n        /* \"#utility.yul\":1202:1238   */\n      tag_27\n      jump\t// in\n    tag_51:\n        /* \"#utility.yul\":1195:1200   */\n      dup2\n        /* \"#utility.yul\":1192:1239   */\n      eq\n        /* \"#utility.yul\":1182:1257   */\n      tag_52\n      jumpi\n        /* \"#utility.yul\":1253:1254   */\n      0x00\n        /* \"#utility.yul\":1250:1251   */\n      dup1\n        /* \"#utility.yul\":1243:1255   */\n      revert\n        /* \"#utility.yul\":1182:1257   */\n    tag_52:\n        /* \"#utility.yul\":1117:1263   */\n      pop\n      jump\t// out\n        /* \"#utility.yul\":1269:1432   */\n    tag_29:\n        /* \"#utility.yul\":1327:1332   */\n      0x00\n        /* \"#utility.yul\":1365:1371   */\n      dup2\n        /* \"#utility.yul\":1352:1372   */\n      calldataload\n        /* \"#utility.yul\":1343:1372   */\n      swap1\n      pop\n        /* \"#utility.yul\":1381:1426   */\n      tag_54\n        /* \"#utility.yul\":1420:1425   */\n      dup2\n        /* \"#utility.yul\":1381:1426   */\n      tag_28\n      jump\t// in\n    tag_54:\n        /* \"#utility.yul\":1269:1432   */\n      swap3\n      swap2\n      pop\n      pop\n      jump\t// out\n        /* \"#utility.yul\":1438:1791   */\n    tag_11:\n        /* \"#utility.yul\":1509:1515   */\n      0x00\n        /* \"#utility.yul\":1558:1560   */\n      0x20\n        /* \"#utility.yul\":1546:1555   */\n      dup3\n        /* \"#utility.yul\":1537:1544   */\n      dup5\n        /* \"#utility.yul\":1533:1556   */\n      sub\n        /* \"#utility.yul\":1529:1561   */\n      slt\n        /* \"#utility.yul\":1526:1645   */\n      iszero\n      tag_56\n      jumpi\n        /* \"#utility.yul\":1564:1643   */\n      tag_57\n      tag_23\n      jump\t// in\n    tag_57:\n        /* \"#utility.yul\":1526:1645   */\n    tag_56:\n        /* \"#utility.yul\":1684:1685   */\n      0x00\n        /* \"#utility.yul\":1709:1774   */\n      tag_58\n        /* \"#utility.yul\":1766:1773   */\n      dup5\n        /* \"#utility.yul\":1757:1763   */\n      dup3\n        /* \"#utility.yul\":1746:1755   */\n      dup6\n        /* \"#utility.yul\":1742:1764   */\n      add\n        /* \"#utility.yul\":1709:1774   */\n      tag_29\n      jump\t// in\n    tag_58:\n        /* \"#utility.yul\":1699:1774   */\n      swap2\n      pop\n        /* \"#utility.yul\":1655:1784   */\n      pop\n        /* \"#utility.yul\":1438:1791   */\n      swap3\n      swap2\n      pop\n      pop\n      jump\t// out\n        /* \"#utility.yul\":1797:1883   */\n    tag_30:\n        /* \"#utility.yul\":1843:1850   */\n      0x00\n        /* \"#utility.yul\":1872:1877   */\n      dup2\n        /* \"#utility.yul\":1861:1877   */\n      swap1\n      pop\n        /* \"#utility.yul\":1797:1883   */\n      swap2\n      swap1\n      pop\n      jump\t// out\n        /* \"#utility.yul\":1889:1949   */\n    tag_31:\n        /* \"#utility.yul\":1917:1920   */\n      0x00\n        /* \"#utility.yul\":1938:1943   */\n      dup2\n        /* \"#utility.yul\":1931:1943   */\n      swap1\n      pop\n        /* \"#utility.yul\":1889:1949   */\n      swap2\n      swap1\n      pop\n      jump\t// out\n        /* \"#utility.yul\":1955:2115   */\n    tag_32:\n        /* \"#utility.yul\":2014:2023   */\n      0x00\n        /* \"#utility.yul\":2047:2109   */\n      tag_62\n        /* \"#utility.yul\":2065:2108   */\n      tag_63\n        /* \"#utility.yul\":2074:2107   */\n      tag_64\n        /* \"#utility.yul\":2101:2106   */\n      dup5\n        /* \"#utility.yul\":2074:2107   */\n      tag_30\n      jump\t// in\n    tag_64:\n        /* \"#utility.yul\":2065:2108   */\n      tag_31\n      jump\t// in\n    tag_63:\n        /* \"#utility.yul\":2047:2109   */\n      tag_20\n      jump\t// in\n    tag_62:\n        /* \"#utility.yul\":2034:2109   */\n      swap1\n      pop\n        /* \"#utility.yul\":1955:2115   */\n      swap2\n      swap1\n      pop\n      jump\t// out\n        /* \"#utility.yul\":2121:2270   */\n    tag_33:\n        /* \"#utility.yul\":2217:2263   */\n      tag_66\n        /* \"#utility.yul\":2257:2262   */\n      dup2\n        /* \"#utility.yul\":2217:2263   */\n      tag_32\n      jump\t// in\n    tag_66:\n        /* \"#utility.yul\":2212:2215   */\n      dup3\n        /* \"#utility.yul\":2205:2264   */\n      mstore\n        /* \"#utility.yul\":2121:2270   */\n      pop\n      pop\n      jump\t// out\n        /* \"#utility.yul\":2276:2516   */\n    tag_15:\n        /* \"#utility.yul\":2378:2382   */\n      0x00\n        /* \"#utility.yul\":2416:2418   */\n      0x20\n        /* \"#utility.yul\":2405:2414   */\n      dup3\n        /* \"#utility.yul\":2401:2419   */\n      add\n        /* \"#utility.yul\":2393:2419   */\n      swap1\n      pop\n        /* \"#utility.yul\":2429:2509   */\n      tag_68\n        /* \"#utility.yul\":2506:2507   */\n      0x00\n        /* \"#utility.yul\":2495:2504   */\n      dup4\n        /* \"#utility.yul\":2491:2508   */\n      add\n        /* \"#utility.yul\":2482:2488   */\n      dup5\n        /* \"#utility.yul\":2429:2509   */\n      tag_33\n      jump\t// in\n    tag_68:\n        /* \"#utility.yul\":2276:2516   */\n      swap3\n      swap2\n      pop\n      pop\n      jump\t// out\n        /* \"#utility.yul\":2522:2644   */\n    tag_34:\n        /* \"#utility.yul\":2595:2619   */\n      tag_70\n        /* \"#utility.yul\":2613:2618   */\n      dup2\n        /* \"#utility.yul\":2595:2619   */\n      tag_20\n      jump\t// in\n    tag_70:\n        /* \"#utility.yul\":2588:2593   */\n      dup2\n        /* \"#utility.yul\":2585:2620   */\n      eq\n        /* \"#utility.yul\":2575:2638   */\n      tag_71\n      jumpi\n        /* \"#utility.yul\":2634:2635   */\n      0x00\n        /* \"#utility.yul\":2631:2632   */\n      dup1\n        /* \"#utility.yul\":2624:2636   */\n      revert\n        /* \"#utility.yul\":2575:2638   */\n    tag_71:\n        /* \"#utility.yul\":2522:2644   */\n      pop\n      jump\t// out\n        /* \"#utility.yul\":2650:2793   */\n    tag_35:\n        /* \"#utility.yul\":2707:2712   */\n      0x00\n        /* \"#utility.yul\":2738:2744   */\n      dup2\n        /* \"#utility.yul\":2732:2745   */\n      mload\n        /* \"#utility.yul\":2723:2745   */\n      swap1\n      pop\n        /* \"#utility.yul\":2754:2787   */\n      tag_73\n        /* \"#utility.yul\":2781:2786   */\n      dup2\n        /* \"#utility.yul\":2754:2787   */\n      tag_34\n      jump\t// in\n    tag_73:\n        /* \"#utility.yul\":2650:2793   */\n      swap3\n      swap2\n      pop\n      pop\n      jump\t// out\n        /* \"#utility.yul\":2799:3150   */\n    tag_19:\n        /* \"#utility.yul\":2869:2875   */\n      0x00\n        /* \"#utility.yul\":2918:2920   */\n      0x20\n        /* \"#utility.yul\":2906:2915   */\n      dup3\n        /* \"#utility.yul\":2897:2904   */\n      dup5\n        /* \"#utility.yul\":2893:2916   */\n      sub\n        /* \"#utility.yul\":2889:2921   */\n      slt\n        /* \"#utility.yul\":2886:3005   */\n      iszero\n      tag_75\n      jumpi\n        /* \"#utility.yul\":2924:3003   */\n      tag_76\n      tag_23\n      jump\t// in\n    tag_76:\n        /* \"#utility.yul\":2886:3005   */\n    tag_75:\n        /* \"#utility.yul\":3044:3045   */\n      0x00\n        /* \"#utility.yul\":3069:3133   */\n      tag_77\n        /* \"#utility.yul\":3125:3132   */\n      dup5\n        /* \"#utility.yul\":3116:3122   */\n      dup3\n        /* \"#utility.yul\":3105:3114   */\n      dup6\n        /* \"#utility.yul\":3101:3123   */\n      add\n        /* \"#utility.yul\":3069:3133   */\n      tag_35\n      jump\t// in\n    tag_77:\n        /* \"#utility.yul\":3059:3133   */\n      swap2\n      pop\n        /* \"#utility.yul\":3015:3143   */\n      pop\n        /* \"#utility.yul\":2799:3150   */\n      swap3\n      swap2\n      pop\n      pop\n      jump\t// out\n\n    auxdata: 0xa26469706673582212204ba49c4ed3fd35d4a9627b4ba1aefd1d36a3dee2d013f82b81e9000e40eaa57064736f6c634300080c0033\n}\n",
				"bytecode": {
					"linkReferences": {},
					"object": "60806040526000805534801561001457600080fd5b506102d1806100246000396000f3fe608060405234801561001057600080fd5b50600436106100365760003560e01c80630c55699c1461003b578063a0145f1d14610059575b600080fd5b610043610075565b6040516100509190610125565b60405180910390f35b610073600480360381019061006e91906101b5565b61007b565b005b60005481565b60016000819055508073ffffffffffffffffffffffffffffffffffffffff1663773acdef602a6040518263ffffffff1660e01b81526004016100bd9190610227565b6020604051808303816000875af11580156100dc573d6000803e3d6000fd5b505050506040513d601f19601f82011682018060405250810190610100919061026e565b50600260008190555050565b6000819050919050565b61011f8161010c565b82525050565b600060208201905061013a6000830184610116565b92915050565b600080fd5b600073ffffffffffffffffffffffffffffffffffffffff82169050919050565b600061017082610145565b9050919050565b600061018282610165565b9050919050565b61019281610177565b811461019d57600080fd5b50565b6000813590506101af81610189565b92915050565b6000602082840312156101cb576101ca610140565b5b60006101d9848285016101a0565b91505092915050565b6000819050919050565b6000819050919050565b600061021161020c610207846101e2565b6101ec565b61010c565b9050919050565b610221816101f6565b82525050565b600060208201905061023c6000830184610218565b92915050565b61024b8161010c565b811461025657600080fd5b50565b60008151905061026881610242565b92915050565b60006020828403121561028457610283610140565b5b600061029284828501610259565b9150509291505056fea26469706673582212204ba49c4ed3fd35d4a9627b4ba1aefd1d36a3dee2d013f82b81e9000e40eaa57064736f6c634300080c0033",
					"opcodes": "PUSH1 0x80 PUSH1 0x40 MSTORE PUSH1 0x0 DUP1 SSTORE CALLVALUE DUP1 ISZERO PUSH2 0x14 JUMPI PUSH1 0x0 DUP1 REVERT JUMPDEST POP PUSH2 0x2D1 DUP1 PUSH2 0x24 PUSH1 0x0 CODECOPY PUSH1 0x0 RETURN INVALID PUSH1 0x80 PUSH1 0x40 MSTORE CALLVALUE DUP1 ISZERO PUSH2 0x10 JUMPI PUSH1 0x0 DUP1 REVERT JUMPDEST POP PUSH1 0x4 CALLDATASIZE LT PUSH2 0x36 JUMPI PUSH1 0x0 CALLDATALOAD PUSH1 0xE0 SHR DUP1 PUSH4 0xC55699C EQ PUSH2 0x3B JUMPI DUP1 PUSH4 0xA0145F1D EQ PUSH2 0x59 JUMPI JUMPDEST PUSH1 0x0 DUP1 REVERT JUMPDEST PUSH2 0x43 PUSH2 0x75 JUMP JUMPDEST PUSH1 0x40 MLOAD PUSH2 0x50 SWAP2 SWAP1 PUSH2 0x125 JUMP JUMPDEST PUSH1 0x40 MLOAD DUP1 SWAP2 SUB SWAP1 RETURN JUMPDEST PUSH2 0x73 PUSH1 0x4 DUP1 CALLDATASIZE SUB DUP2 ADD SWAP1 PUSH2 0x6E SWAP2 SWAP1 PUSH2 0x1B5 JUMP JUMPDEST PUSH2 0x7B JUMP JUMPDEST STOP JUMPDEST PUSH1 0x0 SLOAD DUP2 JUMP JUMPDEST PUSH1 0x1 PUSH1 0x0 DUP2 SWAP1 SSTORE POP DUP1 PUSH20 0xFFFFFFFFFFFFFFFFFFFFFFFFFFFFFFFFFFFFFFFF AND PUSH4 0x773ACDEF PUSH1 0x2A PUSH1 0x40 MLOAD DUP3 PUSH4 0xFFFFFFFF AND PUSH1 0xE0 SHL DUP2 MSTORE PUSH1 0x4 ADD PUSH2 0xBD SWAP2 SWAP1 PUSH2 0x227 JUMP JUMPDEST PUSH1 0x20 PUSH1 0x40 MLOAD DUP1 DUP4 SUB DUP2 PUSH1 0x0 DUP8 GAS CALL ISZERO DUP1 ISZERO PUSH2 0xDC JUMPI RETURNDATASIZE PUSH1 0x0 DUP1 RETURNDATACOPY RETURNDATASIZE PUSH1 0x0 REVERT JUMPDEST POP POP POP POP PUSH1 0x40 MLOAD RETURNDATASIZE PUSH1 0x1F NOT PUSH1 0x1F DUP3 ADD AND DUP3 ADD DUP1 PUSH1 0x40 MSTORE POP DUP2 ADD SWAP1 PUSH2 0x100 SWAP2 SWAP1 PUSH2 0x26E JUMP JUMPDEST POP PUSH1 0x2 PUSH1 0x0 DUP2 SWAP1 SSTORE POP POP JUMP JUMPDEST PUSH1 0x0 DUP2 SWAP1 POP SWAP2 SWAP1 POP JUMP JUMPDEST PUSH2 0x11F DUP2 PUSH2 0x10C JUMP JUMPDEST DUP3 MSTORE POP POP JUMP JUMPDEST PUSH1 0x0 PUSH1 0x20 DUP3 ADD SWAP1 POP PUSH2 0x13A PUSH1 0x0 DUP4 ADD DUP5 PUSH2 0x116 JUMP JUMPDEST SWAP3 SWAP2 POP POP JUMP JUMPDEST PUSH1 0x0 DUP1 REVERT JUMPDEST PUSH1 0x0 PUSH20 0xFFFFFFFFFFFFFFFFFFFFFFFFFFFFFFFFFFFFFFFF DUP3 AND SWAP1 POP SWAP2 SWAP1 POP JUMP JUMPDEST PUSH1 0x0 PUSH2 0x170 DUP3 PUSH2 0x145 JUMP JUMPDEST SWAP1 POP SWAP2 SWAP1 POP JUMP JUMPDEST PUSH1 0x0 PUSH2 0x182 DUP3 PUSH2 0x165 JUMP JUMPDEST SWAP1 POP SWAP2 SWAP1 POP JUMP JUMPDEST PUSH2 0x192 DUP2 PUSH2 0x177 JUMP JUMPDEST DUP2 EQ PUSH2 0x19D JUMPI PUSH1 0x0 DUP1 REVERT JUMPDEST POP JUMP JUMPDEST PUSH1 0x0 DUP2 CALLDATALOAD SWAP1 POP PUSH2 0x1AF DUP2 PUSH2 0x189 JUMP JUMPDEST SWAP3 SWAP2 POP POP JUMP JUMPDEST PUSH1 0x0 PUSH1 0x20 DUP3 DUP5 SUB SLT ISZERO PUSH2 0x1CB JUMPI PUSH2 0x1CA PUSH2 0x140 JUMP JUMPDEST JUMPDEST PUSH1 0x0 PUSH2 0x1D9 DUP5 DUP3 DUP6 ADD PUSH2 0x1A0 JUMP JUMPDEST SWAP2 POP POP SWAP3 SWAP2 POP POP JUMP JUMPDEST PUSH1 0x0 DUP2 SWAP1 POP SWAP2 SWAP1 POP JUMP JUMPDEST PUSH1 0x0 DUP2 SWAP1 POP SWAP2 SWAP1 POP JUMP JUMPDEST PUSH1 0x0 PUSH2 0x211 PUSH2 0x20C PUSH2 0x207 DUP5 PUSH2 0x1E2 JUMP JUMPDEST PUSH2 0x1EC JUMP JUMPDEST PUSH2 0x10C JUMP JUMPDEST SWAP1 POP SWAP2 SWAP1 POP JUMP JUMPDEST PUSH2 0x221 DUP2 PUSH2 0x1F6 JUMP JUMPDEST DUP3 MSTORE POP POP JUMP JUMPDEST PUSH1 0x0 PUSH1 0x20 DUP3 ADD SWAP1 POP PUSH2 0x23C PUSH1 0x0 DUP4 ADD DUP5 PUSH2 0x218 JUMP JUMPDEST SWAP3 SWAP2 POP POP JUMP JUMPDEST PUSH2 0x24B DUP2 PUSH2 0x10C JUMP JUMPDEST DUP2 EQ PUSH2 0x256 JUMPI PUSH1 0x0 DUP1 REVERT JUMPDEST POP JUMP JUMPDEST PUSH1 0x0 DUP2 MLOAD SWAP1 POP PUSH2 0x268 DUP2 PUSH2 0x242 JUMP JUMPDEST SWAP3 SWAP2 POP POP JUMP JUMPDEST PUSH1 0x0 PUSH1 0x20 DUP3 DUP5 SUB SLT ISZERO PUSH2 0x284 JUMPI PUSH2 0x283 PUSH2 0x140 JUMP JUMPDEST JUMPDEST PUSH1 0x0 PUSH2 0x292 DUP5 DUP3 DUP6 ADD PUSH2 0x259 JUMP JUMPDEST SWAP2 POP POP SWAP3 SWAP2 POP POP JUMP INVALID LOG2 PUSH5 0x6970667358 0x22 SLT KECCAK256 0x4B LOG4 SWAP13 0x4E 0xD3 REVERT CALLDATALOAD 0xD4 0xA9 PUSH3 0x7B4BA1 0xAE REVERT SAR CALLDATASIZE LOG3 0xDE 0xE2 0xD0 SGT 0xF8 0x2B DUP2 0xE9 STOP 0xE BLOCKHASH 0xEA 0xA5 PUSH17 0x64736F6C634300080C0033000000000000 "
				},
				"gasEstimates": {
					"creation": {
						"codeDepositCost": "144200",
						"executionCost": "5196",
						"totalCost": "149396"
					},
					"external": {
						"pong(address)": "infinite",
						"x()": "2407"
					}
				},
				"methodIdentifiers": {
					"pong(address)": "a0145f1d",
					"x()": "0c55699c"
				}
			},
			"storageLayout": {
				"storage": [
					{
						"astId": 13,
						"contract": "contracts/Alyra/Exceptions.sol:Bob",
						"label": "x",
						"offset": 0,
						"slot": "0",
						"type": "t_uint256"
					}
				],
				"types": {
					"t_uint256": {
						"encoding": "inplace",
						"label": "uint256",
						"numberOfBytes": "32"
					}
				}
			},
			"userdoc": {
				"kind": "user",
				"methods": {},
				"version": 1
			}
		}
	}
}