{
	"contracts/Alyra/UniswapTest.sol": {
		"UniswapTest": {
			"abi": [
				{
					"inputs": [],
					"stateMutability": "nonpayable",
					"type": "constructor"
				},
				{
					"inputs": [],
					"name": "DAI",
					"outputs": [
						{
							"internalType": "address",
							"name": "",
							"type": "address"
						}
					],
					"stateMutability": "view",
					"type": "function"
				},
				{
					"inputs": [],
					"name": "LINK",
					"outputs": [
						{
							"internalType": "address",
							"name": "",
							"type": "address"
						}
					],
					"stateMutability": "view",
					"type": "function"
				},
				{
					"inputs": [],
					"name": "linkToken",
					"outputs": [
						{
							"internalType": "contract IERC20",
							"name": "",
							"type": "address"
						}
					],
					"stateMutability": "view",
					"type": "function"
				},
				{
					"inputs": [],
					"name": "poolFee",
					"outputs": [
						{
							"internalType": "uint24",
							"name": "",
							"type": "uint24"
						}
					],
					"stateMutability": "view",
					"type": "function"
				},
				{
					"inputs": [],
					"name": "routerAddress",
					"outputs": [
						{
							"internalType": "address",
							"name": "",
							"type": "address"
						}
					],
					"stateMutability": "view",
					"type": "function"
				},
				{
					"inputs": [
						{
							"internalType": "uint256",
							"name": "amountIn",
							"type": "uint256"
						}
					],
					"name": "swapExactInputSingle",
					"outputs": [
						{
							"internalType": "uint256",
							"name": "amountOut",
							"type": "uint256"
						}
					],
					"stateMutability": "nonpayable",
					"type": "function"
				},
				{
					"inputs": [
						{
							"internalType": "uint256",
							"name": "amountOut",
							"type": "uint256"
						},
						{
							"internalType": "uint256",
							"name": "amountInMaximum",
							"type": "uint256"
						}
					],
					"name": "swapExactOutputSingle",
					"outputs": [
						{
							"internalType": "uint256",
							"name": "amountIn",
							"type": "uint256"
						}
					],
					"stateMutability": "nonpayable",
					"type": "function"
				},
				{
					"inputs": [],
					"name": "swapRouter",
					"outputs": [
						{
							"internalType": "contract ISwapRouter",
							"name": "",
							"type": "address"
						}
					],
					"stateMutability": "view",
					"type": "function"
				}
			],
			"devdoc": {
				"kind": "dev",
				"methods": {},
				"version": 1
			},
			"evm": {
				"assembly": "    /* \"contracts/Alyra/UniswapTest.sol\":475:3237  contract UniswapTest {... */\n  mstore(0x40, 0xa0)\n    /* \"contracts/Alyra/UniswapTest.sol\":542:584  0xE592427A0AEce92De3Edee1F18E0157C05861564 */\n  0xe592427a0aece92de3edee1f18e0157c05861564\n    /* \"contracts/Alyra/UniswapTest.sol\":591:660  ISwapRouter public immutable swapRouter =  ISwapRouter(routerAddress) */\n  0xffffffffffffffffffffffffffffffffffffffff\n  and\n  0x80\n  swap1\n  0xffffffffffffffffffffffffffffffffffffffff\n  and\n  dup2\n  mstore\n  pop\n    /* \"contracts/Alyra/UniswapTest.sol\":696:738  0xdc31Ee1784292379Fbb2964b3B9C4124D8F89C60 */\n  0xdc31ee1784292379fbb2964b3b9c4124d8f89c60\n    /* \"contracts/Alyra/UniswapTest.sol\":823:860  IERC20 public linkToken = IERC20(DAI) */\n  0x00\n  dup1\n  0x0100\n  exp\n  dup2\n  sload\n  dup2\n  0xffffffffffffffffffffffffffffffffffffffff\n  mul\n  not\n  and\n  swap1\n  dup4\n  0xffffffffffffffffffffffffffffffffffffffff\n  and\n  mul\n  or\n  swap1\n  sstore\n  pop\n    /* \"contracts/Alyra/UniswapTest.sol\":1069:1085  constructor() {} */\n  callvalue\n  dup1\n  iszero\n  tag_1\n  jumpi\n  0x00\n  dup1\n  revert\ntag_1:\n  pop\n    /* \"contracts/Alyra/UniswapTest.sol\":475:3237  contract UniswapTest {... */\n  mload(0x80)\n  codecopy(0x00, dataOffset(sub_0), dataSize(sub_0))\n  0x00\n  assignImmutable(\"0xc5bf1d490d2f4e87cc1d5184cd59114bcef0e857ac09f6d840a1caed5b52d973\")\n  return(0x00, dataSize(sub_0))\nstop\n\nsub_0: assembly {\n        /* \"contracts/Alyra/UniswapTest.sol\":475:3237  contract UniswapTest {... */\n      mstore(0x40, 0x80)\n      callvalue\n      dup1\n      iszero\n      tag_1\n      jumpi\n      0x00\n      dup1\n      revert\n    tag_1:\n      pop\n      jumpi(tag_2, lt(calldatasize, 0x04))\n      shr(0xe0, calldataload(0x00))\n      dup1\n      0x73bd43ad\n      gt\n      tag_11\n      jumpi\n      dup1\n      0x73bd43ad\n      eq\n      tag_7\n      jumpi\n      dup1\n      0xc31c9c07\n      eq\n      tag_8\n      jumpi\n      dup1\n      0xc4b69a18\n      eq\n      tag_9\n      jumpi\n      dup1\n      0xe0bab4c4\n      eq\n      tag_10\n      jumpi\n      jump(tag_2)\n    tag_11:\n      dup1\n      0x089fe6aa\n      eq\n      tag_3\n      jumpi\n      dup1\n      0x1b6b6d23\n      eq\n      tag_4\n      jumpi\n      dup1\n      0x3268cc56\n      eq\n      tag_5\n      jumpi\n      dup1\n      0x57970e93\n      eq\n      tag_6\n      jumpi\n    tag_2:\n      0x00\n      dup1\n      revert\n        /* \"contracts/Alyra/UniswapTest.sol\":1025:1062  uint24 public constant poolFee = 3000 */\n    tag_3:\n      tag_12\n      tag_13\n      jump\t// in\n    tag_12:\n      mload(0x40)\n      tag_14\n      swap2\n      swap1\n      tag_15\n      jump\t// in\n    tag_14:\n      mload(0x40)\n      dup1\n      swap2\n      sub\n      swap1\n      return\n        /* \"contracts/Alyra/UniswapTest.sol\":744:817  address public constant LINK = 0x326C977E6efc84E512bB9C30f76E30c160eD06FB */\n    tag_4:\n      tag_16\n      tag_17\n      jump\t// in\n    tag_16:\n      mload(0x40)\n      tag_18\n      swap2\n      swap1\n      tag_19\n      jump\t// in\n    tag_18:\n      mload(0x40)\n      dup1\n      swap2\n      sub\n      swap1\n      return\n        /* \"contracts/Alyra/UniswapTest.sol\":502:584  address public constant routerAddress = 0xE592427A0AEce92De3Edee1F18E0157C05861564 */\n    tag_5:\n      tag_20\n      tag_21\n      jump\t// in\n    tag_20:\n      mload(0x40)\n      tag_22\n      swap2\n      swap1\n      tag_19\n      jump\t// in\n    tag_22:\n      mload(0x40)\n      dup1\n      swap2\n      sub\n      swap1\n      return\n        /* \"contracts/Alyra/UniswapTest.sol\":823:860  IERC20 public linkToken = IERC20(DAI) */\n    tag_6:\n      tag_23\n      tag_24\n      jump\t// in\n    tag_23:\n      mload(0x40)\n      tag_25\n      swap2\n      swap1\n      tag_26\n      jump\t// in\n    tag_25:\n      mload(0x40)\n      dup1\n      swap2\n      sub\n      swap1\n      return\n        /* \"contracts/Alyra/UniswapTest.sol\":1091:1793  function swapExactInputSingle(uint256 amountIn)... */\n    tag_7:\n      tag_27\n      0x04\n      dup1\n      calldatasize\n      sub\n      dup2\n      add\n      swap1\n      tag_28\n      swap2\n      swap1\n      tag_29\n      jump\t// in\n    tag_28:\n      tag_30\n      jump\t// in\n    tag_27:\n      mload(0x40)\n      tag_31\n      swap2\n      swap1\n      tag_32\n      jump\t// in\n    tag_31:\n      mload(0x40)\n      dup1\n      swap2\n      sub\n      swap1\n      return\n        /* \"contracts/Alyra/UniswapTest.sol\":591:660  ISwapRouter public immutable swapRouter =  ISwapRouter(routerAddress) */\n    tag_8:\n      tag_33\n      tag_34\n      jump\t// in\n    tag_33:\n      mload(0x40)\n      tag_35\n      swap2\n      swap1\n      tag_36\n      jump\t// in\n    tag_35:\n      mload(0x40)\n      dup1\n      swap2\n      sub\n      swap1\n      return\n        /* \"contracts/Alyra/UniswapTest.sol\":1799:3235  function swapExactOutputSingle(uint256 amountOut, uint256 amountInMaximum)... */\n    tag_9:\n      tag_37\n      0x04\n      dup1\n      calldatasize\n      sub\n      dup2\n      add\n      swap1\n      tag_38\n      swap2\n      swap1\n      tag_39\n      jump\t// in\n    tag_38:\n      tag_40\n      jump\t// in\n    tag_37:\n      mload(0x40)\n      tag_41\n      swap2\n      swap1\n      tag_32\n      jump\t// in\n    tag_41:\n      mload(0x40)\n      dup1\n      swap2\n      sub\n      swap1\n      return\n        /* \"contracts/Alyra/UniswapTest.sol\":666:738  address public constant DAI = 0xdc31Ee1784292379Fbb2964b3B9C4124D8F89C60 */\n    tag_10:\n      tag_42\n      tag_43\n      jump\t// in\n    tag_42:\n      mload(0x40)\n      tag_44\n      swap2\n      swap1\n      tag_19\n      jump\t// in\n    tag_44:\n      mload(0x40)\n      dup1\n      swap2\n      sub\n      swap1\n      return\n        /* \"contracts/Alyra/UniswapTest.sol\":1025:1062  uint24 public constant poolFee = 3000 */\n    tag_13:\n        /* \"contracts/Alyra/UniswapTest.sol\":1058:1062  3000 */\n      0x0bb8\n        /* \"contracts/Alyra/UniswapTest.sol\":1025:1062  uint24 public constant poolFee = 3000 */\n      dup2\n      jump\t// out\n        /* \"contracts/Alyra/UniswapTest.sol\":744:817  address public constant LINK = 0x326C977E6efc84E512bB9C30f76E30c160eD06FB */\n    tag_17:\n        /* \"contracts/Alyra/UniswapTest.sol\":775:817  0x326C977E6efc84E512bB9C30f76E30c160eD06FB */\n      0x326c977e6efc84e512bb9c30f76e30c160ed06fb\n        /* \"contracts/Alyra/UniswapTest.sol\":744:817  address public constant LINK = 0x326C977E6efc84E512bB9C30f76E30c160eD06FB */\n      dup2\n      jump\t// out\n        /* \"contracts/Alyra/UniswapTest.sol\":502:584  address public constant routerAddress = 0xE592427A0AEce92De3Edee1F18E0157C05861564 */\n    tag_21:\n        /* \"contracts/Alyra/UniswapTest.sol\":542:584  0xE592427A0AEce92De3Edee1F18E0157C05861564 */\n      0xe592427a0aece92de3edee1f18e0157c05861564\n        /* \"contracts/Alyra/UniswapTest.sol\":502:584  address public constant routerAddress = 0xE592427A0AEce92De3Edee1F18E0157C05861564 */\n      dup2\n      jump\t// out\n        /* \"contracts/Alyra/UniswapTest.sol\":823:860  IERC20 public linkToken = IERC20(DAI) */\n    tag_24:\n      0x00\n      dup1\n      sload\n      swap1\n      0x0100\n      exp\n      swap1\n      div\n      0xffffffffffffffffffffffffffffffffffffffff\n      and\n      dup2\n      jump\t// out\n        /* \"contracts/Alyra/UniswapTest.sol\":1091:1793  function swapExactInputSingle(uint256 amountIn)... */\n    tag_30:\n        /* \"contracts/Alyra/UniswapTest.sol\":1173:1190  uint256 amountOut */\n      0x00\n        /* \"contracts/Alyra/UniswapTest.sol\":1206:1215  linkToken */\n      dup1\n      0x00\n      swap1\n      sload\n      swap1\n      0x0100\n      exp\n      swap1\n      div\n      0xffffffffffffffffffffffffffffffffffffffff\n      and\n        /* \"contracts/Alyra/UniswapTest.sol\":1206:1223  linkToken.approve */\n      0xffffffffffffffffffffffffffffffffffffffff\n      and\n      0x095ea7b3\n        /* \"contracts/Alyra/UniswapTest.sol\":1232:1242  swapRouter */\n      immutable(\"0xc5bf1d490d2f4e87cc1d5184cd59114bcef0e857ac09f6d840a1caed5b52d973\")\n        /* \"contracts/Alyra/UniswapTest.sol\":1245:1253  amountIn */\n      dup5\n        /* \"contracts/Alyra/UniswapTest.sol\":1206:1254  linkToken.approve(address(swapRouter), amountIn) */\n      mload(0x40)\n      dup4\n      0xffffffff\n      and\n      0xe0\n      shl\n      dup2\n      mstore\n      0x04\n      add\n      tag_46\n      swap3\n      swap2\n      swap1\n      tag_47\n      jump\t// in\n    tag_46:\n      0x20\n      mload(0x40)\n      dup1\n      dup4\n      sub\n      dup2\n      0x00\n      dup8\n      gas\n      call\n      iszero\n      dup1\n      iszero\n      tag_49\n      jumpi\n      returndatasize\n      0x00\n      dup1\n      returndatacopy\n      revert(0x00, returndatasize)\n    tag_49:\n      pop\n      pop\n      pop\n      pop\n      mload(0x40)\n      returndatasize\n      not(0x1f)\n      0x1f\n      dup3\n      add\n      and\n      dup3\n      add\n      dup1\n      0x40\n      mstore\n      pop\n      dup2\n      add\n      swap1\n      tag_50\n      swap2\n      swap1\n      tag_51\n      jump\t// in\n    tag_50:\n      pop\n        /* \"contracts/Alyra/UniswapTest.sol\":1265:1313  ISwapRouter.ExactInputSingleParams memory params */\n      0x00\n        /* \"contracts/Alyra/UniswapTest.sol\":1316:1667  ISwapRouter... */\n      mload(0x40)\n      dup1\n      0x0100\n      add\n      0x40\n      mstore\n      dup1\n        /* \"contracts/Alyra/UniswapTest.sol\":696:738  0xdc31Ee1784292379Fbb2964b3B9C4124D8F89C60 */\n      0xdc31ee1784292379fbb2964b3b9c4124d8f89c60\n        /* \"contracts/Alyra/UniswapTest.sol\":1316:1667  ISwapRouter... */\n      0xffffffffffffffffffffffffffffffffffffffff\n      and\n      dup2\n      mstore\n      0x20\n      add\n        /* \"contracts/Alyra/UniswapTest.sol\":775:817  0x326C977E6efc84E512bB9C30f76E30c160eD06FB */\n      0x326c977e6efc84e512bb9c30f76e30c160ed06fb\n        /* \"contracts/Alyra/UniswapTest.sol\":1316:1667  ISwapRouter... */\n      0xffffffffffffffffffffffffffffffffffffffff\n      and\n      dup2\n      mstore\n      0x20\n      add\n        /* \"contracts/Alyra/UniswapTest.sol\":1058:1062  3000 */\n      0x0bb8\n        /* \"contracts/Alyra/UniswapTest.sol\":1316:1667  ISwapRouter... */\n      0xffffff\n      and\n      dup2\n      mstore\n      0x20\n      add\n        /* \"contracts/Alyra/UniswapTest.sol\":1493:1497  this */\n      address\n        /* \"contracts/Alyra/UniswapTest.sol\":1316:1667  ISwapRouter... */\n      0xffffffffffffffffffffffffffffffffffffffff\n      and\n      dup2\n      mstore\n      0x20\n      add\n        /* \"contracts/Alyra/UniswapTest.sol\":1526:1541  block.timestamp */\n      timestamp\n        /* \"contracts/Alyra/UniswapTest.sol\":1316:1667  ISwapRouter... */\n      dup2\n      mstore\n      0x20\n      add\n        /* \"contracts/Alyra/UniswapTest.sol\":1569:1577  amountIn */\n      dup5\n        /* \"contracts/Alyra/UniswapTest.sol\":1316:1667  ISwapRouter... */\n      dup2\n      mstore\n      0x20\n      add\n        /* \"contracts/Alyra/UniswapTest.sol\":1613:1614  0 */\n      0x00\n        /* \"contracts/Alyra/UniswapTest.sol\":1316:1667  ISwapRouter... */\n      dup2\n      mstore\n      0x20\n      add\n        /* \"contracts/Alyra/UniswapTest.sol\":1651:1652  0 */\n      0x00\n        /* \"contracts/Alyra/UniswapTest.sol\":1316:1667  ISwapRouter... */\n      0xffffffffffffffffffffffffffffffffffffffff\n      and\n      dup2\n      mstore\n      pop\n        /* \"contracts/Alyra/UniswapTest.sol\":1265:1667  ISwapRouter.ExactInputSingleParams memory params = ISwapRouter... */\n      swap1\n      pop\n        /* \"contracts/Alyra/UniswapTest.sol\":1751:1761  swapRouter */\n      immutable(\"0xc5bf1d490d2f4e87cc1d5184cd59114bcef0e857ac09f6d840a1caed5b52d973\")\n        /* \"contracts/Alyra/UniswapTest.sol\":1751:1778  swapRouter.exactInputSingle */\n      0xffffffffffffffffffffffffffffffffffffffff\n      and\n      0x414bf389\n        /* \"contracts/Alyra/UniswapTest.sol\":1779:1785  params */\n      dup3\n        /* \"contracts/Alyra/UniswapTest.sol\":1751:1786  swapRouter.exactInputSingle(params) */\n      mload(0x40)\n      dup3\n      0xffffffff\n      and\n      0xe0\n      shl\n      dup2\n      mstore\n      0x04\n      add\n      tag_52\n      swap2\n      swap1\n      tag_53\n      jump\t// in\n    tag_52:\n      0x20\n      mload(0x40)\n      dup1\n      dup4\n      sub\n      dup2\n      0x00\n      dup8\n      gas\n      call\n      iszero\n      dup1\n      iszero\n      tag_55\n      jumpi\n      returndatasize\n      0x00\n      dup1\n      returndatacopy\n      revert(0x00, returndatasize)\n    tag_55:\n      pop\n      pop\n      pop\n      pop\n      mload(0x40)\n      returndatasize\n      not(0x1f)\n      0x1f\n      dup3\n      add\n      and\n      dup3\n      add\n      dup1\n      0x40\n      mstore\n      pop\n      dup2\n      add\n      swap1\n      tag_56\n      swap2\n      swap1\n      tag_57\n      jump\t// in\n    tag_56:\n        /* \"contracts/Alyra/UniswapTest.sol\":1739:1786  amountOut = swapRouter.exactInputSingle(params) */\n      swap2\n      pop\n        /* \"contracts/Alyra/UniswapTest.sol\":1196:1793  {... */\n      pop\n        /* \"contracts/Alyra/UniswapTest.sol\":1091:1793  function swapExactInputSingle(uint256 amountIn)... */\n      swap2\n      swap1\n      pop\n      jump\t// out\n        /* \"contracts/Alyra/UniswapTest.sol\":591:660  ISwapRouter public immutable swapRouter =  ISwapRouter(routerAddress) */\n    tag_34:\n      immutable(\"0xc5bf1d490d2f4e87cc1d5184cd59114bcef0e857ac09f6d840a1caed5b52d973\")\n      dup2\n      jump\t// out\n        /* \"contracts/Alyra/UniswapTest.sol\":1799:3235  function swapExactOutputSingle(uint256 amountOut, uint256 amountInMaximum)... */\n    tag_40:\n        /* \"contracts/Alyra/UniswapTest.sol\":1908:1924  uint256 amountIn */\n      0x00\n        /* \"contracts/Alyra/UniswapTest.sol\":2155:2164  linkToken */\n      dup1\n      0x00\n      swap1\n      sload\n      swap1\n      0x0100\n      exp\n      swap1\n      div\n      0xffffffffffffffffffffffffffffffffffffffff\n      and\n        /* \"contracts/Alyra/UniswapTest.sol\":2155:2172  linkToken.approve */\n      0xffffffffffffffffffffffffffffffffffffffff\n      and\n      0x095ea7b3\n        /* \"contracts/Alyra/UniswapTest.sol\":2181:2191  swapRouter */\n      immutable(\"0xc5bf1d490d2f4e87cc1d5184cd59114bcef0e857ac09f6d840a1caed5b52d973\")\n        /* \"contracts/Alyra/UniswapTest.sol\":2194:2209  amountInMaximum */\n      dup5\n        /* \"contracts/Alyra/UniswapTest.sol\":2155:2210  linkToken.approve(address(swapRouter), amountInMaximum) */\n      mload(0x40)\n      dup4\n      0xffffffff\n      and\n      0xe0\n      shl\n      dup2\n      mstore\n      0x04\n      add\n      tag_59\n      swap3\n      swap2\n      swap1\n      tag_47\n      jump\t// in\n    tag_59:\n      0x20\n      mload(0x40)\n      dup1\n      dup4\n      sub\n      dup2\n      0x00\n      dup8\n      gas\n      call\n      iszero\n      dup1\n      iszero\n      tag_61\n      jumpi\n      returndatasize\n      0x00\n      dup1\n      returndatacopy\n      revert(0x00, returndatasize)\n    tag_61:\n      pop\n      pop\n      pop\n      pop\n      mload(0x40)\n      returndatasize\n      not(0x1f)\n      0x1f\n      dup3\n      add\n      and\n      dup3\n      add\n      dup1\n      0x40\n      mstore\n      pop\n      dup2\n      add\n      swap1\n      tag_62\n      swap2\n      swap1\n      tag_51\n      jump\t// in\n    tag_62:\n      pop\n        /* \"contracts/Alyra/UniswapTest.sol\":2221:2270  ISwapRouter.ExactOutputSingleParams memory params */\n      0x00\n        /* \"contracts/Alyra/UniswapTest.sol\":2273:2640  ISwapRouter... */\n      mload(0x40)\n      dup1\n      0x0100\n      add\n      0x40\n      mstore\n      dup1\n        /* \"contracts/Alyra/UniswapTest.sol\":696:738  0xdc31Ee1784292379Fbb2964b3B9C4124D8F89C60 */\n      0xdc31ee1784292379fbb2964b3b9c4124d8f89c60\n        /* \"contracts/Alyra/UniswapTest.sol\":2273:2640  ISwapRouter... */\n      0xffffffffffffffffffffffffffffffffffffffff\n      and\n      dup2\n      mstore\n      0x20\n      add\n        /* \"contracts/Alyra/UniswapTest.sol\":775:817  0x326C977E6efc84E512bB9C30f76E30c160eD06FB */\n      0x326c977e6efc84e512bb9c30f76e30c160ed06fb\n        /* \"contracts/Alyra/UniswapTest.sol\":2273:2640  ISwapRouter... */\n      0xffffffffffffffffffffffffffffffffffffffff\n      and\n      dup2\n      mstore\n      0x20\n      add\n        /* \"contracts/Alyra/UniswapTest.sol\":1058:1062  3000 */\n      0x0bb8\n        /* \"contracts/Alyra/UniswapTest.sol\":2273:2640  ISwapRouter... */\n      0xffffff\n      and\n      dup2\n      mstore\n      0x20\n      add\n        /* \"contracts/Alyra/UniswapTest.sol\":2451:2455  this */\n      address\n        /* \"contracts/Alyra/UniswapTest.sol\":2273:2640  ISwapRouter... */\n      0xffffffffffffffffffffffffffffffffffffffff\n      and\n      dup2\n      mstore\n      0x20\n      add\n        /* \"contracts/Alyra/UniswapTest.sol\":2484:2499  block.timestamp */\n      timestamp\n        /* \"contracts/Alyra/UniswapTest.sol\":2273:2640  ISwapRouter... */\n      dup2\n      mstore\n      0x20\n      add\n        /* \"contracts/Alyra/UniswapTest.sol\":2528:2537  amountOut */\n      dup6\n        /* \"contracts/Alyra/UniswapTest.sol\":2273:2640  ISwapRouter... */\n      dup2\n      mstore\n      0x20\n      add\n        /* \"contracts/Alyra/UniswapTest.sol\":2572:2587  amountInMaximum */\n      dup5\n        /* \"contracts/Alyra/UniswapTest.sol\":2273:2640  ISwapRouter... */\n      dup2\n      mstore\n      0x20\n      add\n        /* \"contracts/Alyra/UniswapTest.sol\":2624:2625  0 */\n      0x00\n        /* \"contracts/Alyra/UniswapTest.sol\":2273:2640  ISwapRouter... */\n      0xffffffffffffffffffffffffffffffffffffffff\n      and\n      dup2\n      mstore\n      pop\n        /* \"contracts/Alyra/UniswapTest.sol\":2221:2640  ISwapRouter.ExactOutputSingleParams memory params = ISwapRouter... */\n      swap1\n      pop\n        /* \"contracts/Alyra/UniswapTest.sol\":2764:2774  swapRouter */\n      immutable(\"0xc5bf1d490d2f4e87cc1d5184cd59114bcef0e857ac09f6d840a1caed5b52d973\")\n        /* \"contracts/Alyra/UniswapTest.sol\":2764:2792  swapRouter.exactOutputSingle */\n      0xffffffffffffffffffffffffffffffffffffffff\n      and\n      0xdb3e2198\n        /* \"contracts/Alyra/UniswapTest.sol\":2793:2799  params */\n      dup3\n        /* \"contracts/Alyra/UniswapTest.sol\":2764:2800  swapRouter.exactOutputSingle(params) */\n      mload(0x40)\n      dup3\n      0xffffffff\n      and\n      0xe0\n      shl\n      dup2\n      mstore\n      0x04\n      add\n      tag_63\n      swap2\n      swap1\n      tag_64\n      jump\t// in\n    tag_63:\n      0x20\n      mload(0x40)\n      dup1\n      dup4\n      sub\n      dup2\n      0x00\n      dup8\n      gas\n      call\n      iszero\n      dup1\n      iszero\n      tag_66\n      jumpi\n      returndatasize\n      0x00\n      dup1\n      returndatacopy\n      revert(0x00, returndatasize)\n    tag_66:\n      pop\n      pop\n      pop\n      pop\n      mload(0x40)\n      returndatasize\n      not(0x1f)\n      0x1f\n      dup3\n      add\n      and\n      dup3\n      add\n      dup1\n      0x40\n      mstore\n      pop\n      dup2\n      add\n      swap1\n      tag_67\n      swap2\n      swap1\n      tag_57\n      jump\t// in\n    tag_67:\n        /* \"contracts/Alyra/UniswapTest.sol\":2753:2800  amountIn = swapRouter.exactOutputSingle(params) */\n      swap2\n      pop\n        /* \"contracts/Alyra/UniswapTest.sol\":3071:3086  amountInMaximum */\n      dup3\n        /* \"contracts/Alyra/UniswapTest.sol\":3060:3068  amountIn */\n      dup3\n        /* \"contracts/Alyra/UniswapTest.sol\":3060:3086  amountIn < amountInMaximum */\n      lt\n        /* \"contracts/Alyra/UniswapTest.sol\":3056:3229  if (amountIn < amountInMaximum) {... */\n      iszero\n      tag_68\n      jumpi\n        /* \"contracts/Alyra/UniswapTest.sol\":3102:3111  linkToken */\n      0x00\n      dup1\n      sload\n      swap1\n      0x0100\n      exp\n      swap1\n      div\n      0xffffffffffffffffffffffffffffffffffffffff\n      and\n        /* \"contracts/Alyra/UniswapTest.sol\":3102:3119  linkToken.approve */\n      0xffffffffffffffffffffffffffffffffffffffff\n      and\n      0x095ea7b3\n        /* \"contracts/Alyra/UniswapTest.sol\":3128:3138  swapRouter */\n      immutable(\"0xc5bf1d490d2f4e87cc1d5184cd59114bcef0e857ac09f6d840a1caed5b52d973\")\n        /* \"contracts/Alyra/UniswapTest.sol\":3141:3142  0 */\n      0x00\n        /* \"contracts/Alyra/UniswapTest.sol\":3102:3143  linkToken.approve(address(swapRouter), 0) */\n      mload(0x40)\n      dup4\n      0xffffffff\n      and\n      0xe0\n      shl\n      dup2\n      mstore\n      0x04\n      add\n      tag_69\n      swap3\n      swap2\n      swap1\n      tag_70\n      jump\t// in\n    tag_69:\n      0x20\n      mload(0x40)\n      dup1\n      dup4\n      sub\n      dup2\n      0x00\n      dup8\n      gas\n      call\n      iszero\n      dup1\n      iszero\n      tag_72\n      jumpi\n      returndatasize\n      0x00\n      dup1\n      returndatacopy\n      revert(0x00, returndatasize)\n    tag_72:\n      pop\n      pop\n      pop\n      pop\n      mload(0x40)\n      returndatasize\n      not(0x1f)\n      0x1f\n      dup3\n      add\n      and\n      dup3\n      add\n      dup1\n      0x40\n      mstore\n      pop\n      dup2\n      add\n      swap1\n      tag_73\n      swap2\n      swap1\n      tag_51\n      jump\t// in\n    tag_73:\n      pop\n        /* \"contracts/Alyra/UniswapTest.sol\":3157:3166  linkToken */\n      0x00\n      dup1\n      sload\n      swap1\n      0x0100\n      exp\n      swap1\n      div\n      0xffffffffffffffffffffffffffffffffffffffff\n      and\n        /* \"contracts/Alyra/UniswapTest.sol\":3157:3175  linkToken.transfer */\n      0xffffffffffffffffffffffffffffffffffffffff\n      and\n      0xa9059cbb\n        /* \"contracts/Alyra/UniswapTest.sol\":3184:3188  this */\n      address\n        /* \"contracts/Alyra/UniswapTest.sol\":3209:3217  amountIn */\n      dup5\n        /* \"contracts/Alyra/UniswapTest.sol\":3191:3206  amountInMaximum */\n      dup7\n        /* \"contracts/Alyra/UniswapTest.sol\":3191:3217  amountInMaximum - amountIn */\n      tag_74\n      swap2\n      swap1\n      tag_75\n      jump\t// in\n    tag_74:\n        /* \"contracts/Alyra/UniswapTest.sol\":3157:3218  linkToken.transfer(address(this), amountInMaximum - amountIn) */\n      mload(0x40)\n      dup4\n      0xffffffff\n      and\n      0xe0\n      shl\n      dup2\n      mstore\n      0x04\n      add\n      tag_76\n      swap3\n      swap2\n      swap1\n      tag_47\n      jump\t// in\n    tag_76:\n      0x20\n      mload(0x40)\n      dup1\n      dup4\n      sub\n      dup2\n      0x00\n      dup8\n      gas\n      call\n      iszero\n      dup1\n      iszero\n      tag_78\n      jumpi\n      returndatasize\n      0x00\n      dup1\n      returndatacopy\n      revert(0x00, returndatasize)\n    tag_78:\n      pop\n      pop\n      pop\n      pop\n      mload(0x40)\n      returndatasize\n      not(0x1f)\n      0x1f\n      dup3\n      add\n      and\n      dup3\n      add\n      dup1\n      0x40\n      mstore\n      pop\n      dup2\n      add\n      swap1\n      tag_79\n      swap2\n      swap1\n      tag_51\n      jump\t// in\n    tag_79:\n      pop\n        /* \"contracts/Alyra/UniswapTest.sol\":3056:3229  if (amountIn < amountInMaximum) {... */\n    tag_68:\n        /* \"contracts/Alyra/UniswapTest.sol\":1930:3235  {... */\n      pop\n        /* \"contracts/Alyra/UniswapTest.sol\":1799:3235  function swapExactOutputSingle(uint256 amountOut, uint256 amountInMaximum)... */\n      swap3\n      swap2\n      pop\n      pop\n      jump\t// out\n        /* \"contracts/Alyra/UniswapTest.sol\":666:738  address public constant DAI = 0xdc31Ee1784292379Fbb2964b3B9C4124D8F89C60 */\n    tag_43:\n        /* \"contracts/Alyra/UniswapTest.sol\":696:738  0xdc31Ee1784292379Fbb2964b3B9C4124D8F89C60 */\n      0xdc31ee1784292379fbb2964b3b9c4124d8f89c60\n        /* \"contracts/Alyra/UniswapTest.sol\":666:738  address public constant DAI = 0xdc31Ee1784292379Fbb2964b3B9C4124D8F89C60 */\n      dup2\n      jump\t// out\n        /* \"#utility.yul\":7:98   */\n    tag_80:\n        /* \"#utility.yul\":43:50   */\n      0x00\n        /* \"#utility.yul\":83:91   */\n      0xffffff\n        /* \"#utility.yul\":76:81   */\n      dup3\n        /* \"#utility.yul\":72:92   */\n      and\n        /* \"#utility.yul\":61:92   */\n      swap1\n      pop\n        /* \"#utility.yul\":7:98   */\n      swap2\n      swap1\n      pop\n      jump\t// out\n        /* \"#utility.yul\":104:219   */\n    tag_81:\n        /* \"#utility.yul\":189:212   */\n      tag_116\n        /* \"#utility.yul\":206:211   */\n      dup2\n        /* \"#utility.yul\":189:212   */\n      tag_80\n      jump\t// in\n    tag_116:\n        /* \"#utility.yul\":184:187   */\n      dup3\n        /* \"#utility.yul\":177:213   */\n      mstore\n        /* \"#utility.yul\":104:219   */\n      pop\n      pop\n      jump\t// out\n        /* \"#utility.yul\":225:443   */\n    tag_15:\n        /* \"#utility.yul\":316:320   */\n      0x00\n        /* \"#utility.yul\":354:356   */\n      0x20\n        /* \"#utility.yul\":343:352   */\n      dup3\n        /* \"#utility.yul\":339:357   */\n      add\n        /* \"#utility.yul\":331:357   */\n      swap1\n      pop\n        /* \"#utility.yul\":367:436   */\n      tag_118\n        /* \"#utility.yul\":433:434   */\n      0x00\n        /* \"#utility.yul\":422:431   */\n      dup4\n        /* \"#utility.yul\":418:435   */\n      add\n        /* \"#utility.yul\":409:415   */\n      dup5\n        /* \"#utility.yul\":367:436   */\n      tag_81\n      jump\t// in\n    tag_118:\n        /* \"#utility.yul\":225:443   */\n      swap3\n      swap2\n      pop\n      pop\n      jump\t// out\n        /* \"#utility.yul\":449:575   */\n    tag_82:\n        /* \"#utility.yul\":486:493   */\n      0x00\n        /* \"#utility.yul\":526:568   */\n      0xffffffffffffffffffffffffffffffffffffffff\n        /* \"#utility.yul\":519:524   */\n      dup3\n        /* \"#utility.yul\":515:569   */\n      and\n        /* \"#utility.yul\":504:569   */\n      swap1\n      pop\n        /* \"#utility.yul\":449:575   */\n      swap2\n      swap1\n      pop\n      jump\t// out\n        /* \"#utility.yul\":581:677   */\n    tag_83:\n        /* \"#utility.yul\":618:625   */\n      0x00\n        /* \"#utility.yul\":647:671   */\n      tag_121\n        /* \"#utility.yul\":665:670   */\n      dup3\n        /* \"#utility.yul\":647:671   */\n      tag_82\n      jump\t// in\n    tag_121:\n        /* \"#utility.yul\":636:671   */\n      swap1\n      pop\n        /* \"#utility.yul\":581:677   */\n      swap2\n      swap1\n      pop\n      jump\t// out\n        /* \"#utility.yul\":683:801   */\n    tag_84:\n        /* \"#utility.yul\":770:794   */\n      tag_123\n        /* \"#utility.yul\":788:793   */\n      dup2\n        /* \"#utility.yul\":770:794   */\n      tag_83\n      jump\t// in\n    tag_123:\n        /* \"#utility.yul\":765:768   */\n      dup3\n        /* \"#utility.yul\":758:795   */\n      mstore\n        /* \"#utility.yul\":683:801   */\n      pop\n      pop\n      jump\t// out\n        /* \"#utility.yul\":807:1029   */\n    tag_19:\n        /* \"#utility.yul\":900:904   */\n      0x00\n        /* \"#utility.yul\":938:940   */\n      0x20\n        /* \"#utility.yul\":927:936   */\n      dup3\n        /* \"#utility.yul\":923:941   */\n      add\n        /* \"#utility.yul\":915:941   */\n      swap1\n      pop\n        /* \"#utility.yul\":951:1022   */\n      tag_125\n        /* \"#utility.yul\":1019:1020   */\n      0x00\n        /* \"#utility.yul\":1008:1017   */\n      dup4\n        /* \"#utility.yul\":1004:1021   */\n      add\n        /* \"#utility.yul\":995:1001   */\n      dup5\n        /* \"#utility.yul\":951:1022   */\n      tag_84\n      jump\t// in\n    tag_125:\n        /* \"#utility.yul\":807:1029   */\n      swap3\n      swap2\n      pop\n      pop\n      jump\t// out\n        /* \"#utility.yul\":1035:1095   */\n    tag_85:\n        /* \"#utility.yul\":1063:1066   */\n      0x00\n        /* \"#utility.yul\":1084:1089   */\n      dup2\n        /* \"#utility.yul\":1077:1089   */\n      swap1\n      pop\n        /* \"#utility.yul\":1035:1095   */\n      swap2\n      swap1\n      pop\n      jump\t// out\n        /* \"#utility.yul\":1101:1243   */\n    tag_86:\n        /* \"#utility.yul\":1151:1160   */\n      0x00\n        /* \"#utility.yul\":1184:1237   */\n      tag_128\n        /* \"#utility.yul\":1202:1236   */\n      tag_129\n        /* \"#utility.yul\":1211:1235   */\n      tag_130\n        /* \"#utility.yul\":1229:1234   */\n      dup5\n        /* \"#utility.yul\":1211:1235   */\n      tag_82\n      jump\t// in\n    tag_130:\n        /* \"#utility.yul\":1202:1236   */\n      tag_85\n      jump\t// in\n    tag_129:\n        /* \"#utility.yul\":1184:1237   */\n      tag_82\n      jump\t// in\n    tag_128:\n        /* \"#utility.yul\":1171:1237   */\n      swap1\n      pop\n        /* \"#utility.yul\":1101:1243   */\n      swap2\n      swap1\n      pop\n      jump\t// out\n        /* \"#utility.yul\":1249:1375   */\n    tag_87:\n        /* \"#utility.yul\":1299:1308   */\n      0x00\n        /* \"#utility.yul\":1332:1369   */\n      tag_132\n        /* \"#utility.yul\":1363:1368   */\n      dup3\n        /* \"#utility.yul\":1332:1369   */\n      tag_86\n      jump\t// in\n    tag_132:\n        /* \"#utility.yul\":1319:1369   */\n      swap1\n      pop\n        /* \"#utility.yul\":1249:1375   */\n      swap2\n      swap1\n      pop\n      jump\t// out\n        /* \"#utility.yul\":1381:1521   */\n    tag_88:\n        /* \"#utility.yul\":1445:1454   */\n      0x00\n        /* \"#utility.yul\":1478:1515   */\n      tag_134\n        /* \"#utility.yul\":1509:1514   */\n      dup3\n        /* \"#utility.yul\":1478:1515   */\n      tag_87\n      jump\t// in\n    tag_134:\n        /* \"#utility.yul\":1465:1515   */\n      swap1\n      pop\n        /* \"#utility.yul\":1381:1521   */\n      swap2\n      swap1\n      pop\n      jump\t// out\n        /* \"#utility.yul\":1527:1686   */\n    tag_89:\n        /* \"#utility.yul\":1628:1679   */\n      tag_136\n        /* \"#utility.yul\":1673:1678   */\n      dup2\n        /* \"#utility.yul\":1628:1679   */\n      tag_88\n      jump\t// in\n    tag_136:\n        /* \"#utility.yul\":1623:1626   */\n      dup3\n        /* \"#utility.yul\":1616:1680   */\n      mstore\n        /* \"#utility.yul\":1527:1686   */\n      pop\n      pop\n      jump\t// out\n        /* \"#utility.yul\":1692:1942   */\n    tag_26:\n        /* \"#utility.yul\":1799:1803   */\n      0x00\n        /* \"#utility.yul\":1837:1839   */\n      0x20\n        /* \"#utility.yul\":1826:1835   */\n      dup3\n        /* \"#utility.yul\":1822:1840   */\n      add\n        /* \"#utility.yul\":1814:1840   */\n      swap1\n      pop\n        /* \"#utility.yul\":1850:1935   */\n      tag_138\n        /* \"#utility.yul\":1932:1933   */\n      0x00\n        /* \"#utility.yul\":1921:1930   */\n      dup4\n        /* \"#utility.yul\":1917:1934   */\n      add\n        /* \"#utility.yul\":1908:1914   */\n      dup5\n        /* \"#utility.yul\":1850:1935   */\n      tag_89\n      jump\t// in\n    tag_138:\n        /* \"#utility.yul\":1692:1942   */\n      swap3\n      swap2\n      pop\n      pop\n      jump\t// out\n        /* \"#utility.yul\":2029:2146   */\n    tag_91:\n        /* \"#utility.yul\":2138:2139   */\n      0x00\n        /* \"#utility.yul\":2135:2136   */\n      dup1\n        /* \"#utility.yul\":2128:2140   */\n      revert\n        /* \"#utility.yul\":2275:2352   */\n    tag_93:\n        /* \"#utility.yul\":2312:2319   */\n      0x00\n        /* \"#utility.yul\":2341:2346   */\n      dup2\n        /* \"#utility.yul\":2330:2346   */\n      swap1\n      pop\n        /* \"#utility.yul\":2275:2352   */\n      swap2\n      swap1\n      pop\n      jump\t// out\n        /* \"#utility.yul\":2358:2480   */\n    tag_94:\n        /* \"#utility.yul\":2431:2455   */\n      tag_144\n        /* \"#utility.yul\":2449:2454   */\n      dup2\n        /* \"#utility.yul\":2431:2455   */\n      tag_93\n      jump\t// in\n    tag_144:\n        /* \"#utility.yul\":2424:2429   */\n      dup2\n        /* \"#utility.yul\":2421:2456   */\n      eq\n        /* \"#utility.yul\":2411:2474   */\n      tag_145\n      jumpi\n        /* \"#utility.yul\":2470:2471   */\n      0x00\n        /* \"#utility.yul\":2467:2468   */\n      dup1\n        /* \"#utility.yul\":2460:2472   */\n      revert\n        /* \"#utility.yul\":2411:2474   */\n    tag_145:\n        /* \"#utility.yul\":2358:2480   */\n      pop\n      jump\t// out\n        /* \"#utility.yul\":2486:2625   */\n    tag_95:\n        /* \"#utility.yul\":2532:2537   */\n      0x00\n        /* \"#utility.yul\":2570:2576   */\n      dup2\n        /* \"#utility.yul\":2557:2577   */\n      calldataload\n        /* \"#utility.yul\":2548:2577   */\n      swap1\n      pop\n        /* \"#utility.yul\":2586:2619   */\n      tag_147\n        /* \"#utility.yul\":2613:2618   */\n      dup2\n        /* \"#utility.yul\":2586:2619   */\n      tag_94\n      jump\t// in\n    tag_147:\n        /* \"#utility.yul\":2486:2625   */\n      swap3\n      swap2\n      pop\n      pop\n      jump\t// out\n        /* \"#utility.yul\":2631:2960   */\n    tag_29:\n        /* \"#utility.yul\":2690:2696   */\n      0x00\n        /* \"#utility.yul\":2739:2741   */\n      0x20\n        /* \"#utility.yul\":2727:2736   */\n      dup3\n        /* \"#utility.yul\":2718:2725   */\n      dup5\n        /* \"#utility.yul\":2714:2737   */\n      sub\n        /* \"#utility.yul\":2710:2742   */\n      slt\n        /* \"#utility.yul\":2707:2826   */\n      iszero\n      tag_149\n      jumpi\n        /* \"#utility.yul\":2745:2824   */\n      tag_150\n      tag_91\n      jump\t// in\n    tag_150:\n        /* \"#utility.yul\":2707:2826   */\n    tag_149:\n        /* \"#utility.yul\":2865:2866   */\n      0x00\n        /* \"#utility.yul\":2890:2943   */\n      tag_151\n        /* \"#utility.yul\":2935:2942   */\n      dup5\n        /* \"#utility.yul\":2926:2932   */\n      dup3\n        /* \"#utility.yul\":2915:2924   */\n      dup6\n        /* \"#utility.yul\":2911:2933   */\n      add\n        /* \"#utility.yul\":2890:2943   */\n      tag_95\n      jump\t// in\n    tag_151:\n        /* \"#utility.yul\":2880:2943   */\n      swap2\n      pop\n        /* \"#utility.yul\":2836:2953   */\n      pop\n        /* \"#utility.yul\":2631:2960   */\n      swap3\n      swap2\n      pop\n      pop\n      jump\t// out\n        /* \"#utility.yul\":2966:3084   */\n    tag_96:\n        /* \"#utility.yul\":3053:3077   */\n      tag_153\n        /* \"#utility.yul\":3071:3076   */\n      dup2\n        /* \"#utility.yul\":3053:3077   */\n      tag_93\n      jump\t// in\n    tag_153:\n        /* \"#utility.yul\":3048:3051   */\n      dup3\n        /* \"#utility.yul\":3041:3078   */\n      mstore\n        /* \"#utility.yul\":2966:3084   */\n      pop\n      pop\n      jump\t// out\n        /* \"#utility.yul\":3090:3312   */\n    tag_32:\n        /* \"#utility.yul\":3183:3187   */\n      0x00\n        /* \"#utility.yul\":3221:3223   */\n      0x20\n        /* \"#utility.yul\":3210:3219   */\n      dup3\n        /* \"#utility.yul\":3206:3224   */\n      add\n        /* \"#utility.yul\":3198:3224   */\n      swap1\n      pop\n        /* \"#utility.yul\":3234:3305   */\n      tag_155\n        /* \"#utility.yul\":3302:3303   */\n      0x00\n        /* \"#utility.yul\":3291:3300   */\n      dup4\n        /* \"#utility.yul\":3287:3304   */\n      add\n        /* \"#utility.yul\":3278:3284   */\n      dup5\n        /* \"#utility.yul\":3234:3305   */\n      tag_96\n      jump\t// in\n    tag_155:\n        /* \"#utility.yul\":3090:3312   */\n      swap3\n      swap2\n      pop\n      pop\n      jump\t// out\n        /* \"#utility.yul\":3318:3463   */\n    tag_97:\n        /* \"#utility.yul\":3387:3396   */\n      0x00\n        /* \"#utility.yul\":3420:3457   */\n      tag_157\n        /* \"#utility.yul\":3451:3456   */\n      dup3\n        /* \"#utility.yul\":3420:3457   */\n      tag_87\n      jump\t// in\n    tag_157:\n        /* \"#utility.yul\":3407:3457   */\n      swap1\n      pop\n        /* \"#utility.yul\":3318:3463   */\n      swap2\n      swap1\n      pop\n      jump\t// out\n        /* \"#utility.yul\":3469:3638   */\n    tag_98:\n        /* \"#utility.yul\":3575:3631   */\n      tag_159\n        /* \"#utility.yul\":3625:3630   */\n      dup2\n        /* \"#utility.yul\":3575:3631   */\n      tag_97\n      jump\t// in\n    tag_159:\n        /* \"#utility.yul\":3570:3573   */\n      dup3\n        /* \"#utility.yul\":3563:3632   */\n      mstore\n        /* \"#utility.yul\":3469:3638   */\n      pop\n      pop\n      jump\t// out\n        /* \"#utility.yul\":3644:3904   */\n    tag_36:\n        /* \"#utility.yul\":3756:3760   */\n      0x00\n        /* \"#utility.yul\":3794:3796   */\n      0x20\n        /* \"#utility.yul\":3783:3792   */\n      dup3\n        /* \"#utility.yul\":3779:3797   */\n      add\n        /* \"#utility.yul\":3771:3797   */\n      swap1\n      pop\n        /* \"#utility.yul\":3807:3897   */\n      tag_161\n        /* \"#utility.yul\":3894:3895   */\n      0x00\n        /* \"#utility.yul\":3883:3892   */\n      dup4\n        /* \"#utility.yul\":3879:3896   */\n      add\n        /* \"#utility.yul\":3870:3876   */\n      dup5\n        /* \"#utility.yul\":3807:3897   */\n      tag_98\n      jump\t// in\n    tag_161:\n        /* \"#utility.yul\":3644:3904   */\n      swap3\n      swap2\n      pop\n      pop\n      jump\t// out\n        /* \"#utility.yul\":3910:4384   */\n    tag_39:\n        /* \"#utility.yul\":3978:3984   */\n      0x00\n        /* \"#utility.yul\":3986:3992   */\n      dup1\n        /* \"#utility.yul\":4035:4037   */\n      0x40\n        /* \"#utility.yul\":4023:4032   */\n      dup4\n        /* \"#utility.yul\":4014:4021   */\n      dup6\n        /* \"#utility.yul\":4010:4033   */\n      sub\n        /* \"#utility.yul\":4006:4038   */\n      slt\n        /* \"#utility.yul\":4003:4122   */\n      iszero\n      tag_163\n      jumpi\n        /* \"#utility.yul\":4041:4120   */\n      tag_164\n      tag_91\n      jump\t// in\n    tag_164:\n        /* \"#utility.yul\":4003:4122   */\n    tag_163:\n        /* \"#utility.yul\":4161:4162   */\n      0x00\n        /* \"#utility.yul\":4186:4239   */\n      tag_165\n        /* \"#utility.yul\":4231:4238   */\n      dup6\n        /* \"#utility.yul\":4222:4228   */\n      dup3\n        /* \"#utility.yul\":4211:4220   */\n      dup7\n        /* \"#utility.yul\":4207:4229   */\n      add\n        /* \"#utility.yul\":4186:4239   */\n      tag_95\n      jump\t// in\n    tag_165:\n        /* \"#utility.yul\":4176:4239   */\n      swap3\n      pop\n        /* \"#utility.yul\":4132:4249   */\n      pop\n        /* \"#utility.yul\":4288:4290   */\n      0x20\n        /* \"#utility.yul\":4314:4367   */\n      tag_166\n        /* \"#utility.yul\":4359:4366   */\n      dup6\n        /* \"#utility.yul\":4350:4356   */\n      dup3\n        /* \"#utility.yul\":4339:4348   */\n      dup7\n        /* \"#utility.yul\":4335:4357   */\n      add\n        /* \"#utility.yul\":4314:4367   */\n      tag_95\n      jump\t// in\n    tag_166:\n        /* \"#utility.yul\":4304:4367   */\n      swap2\n      pop\n        /* \"#utility.yul\":4259:4377   */\n      pop\n        /* \"#utility.yul\":3910:4384   */\n      swap3\n      pop\n      swap3\n      swap1\n      pop\n      jump\t// out\n        /* \"#utility.yul\":4390:4722   */\n    tag_47:\n        /* \"#utility.yul\":4511:4515   */\n      0x00\n        /* \"#utility.yul\":4549:4551   */\n      0x40\n        /* \"#utility.yul\":4538:4547   */\n      dup3\n        /* \"#utility.yul\":4534:4552   */\n      add\n        /* \"#utility.yul\":4526:4552   */\n      swap1\n      pop\n        /* \"#utility.yul\":4562:4633   */\n      tag_168\n        /* \"#utility.yul\":4630:4631   */\n      0x00\n        /* \"#utility.yul\":4619:4628   */\n      dup4\n        /* \"#utility.yul\":4615:4632   */\n      add\n        /* \"#utility.yul\":4606:4612   */\n      dup6\n        /* \"#utility.yul\":4562:4633   */\n      tag_84\n      jump\t// in\n    tag_168:\n        /* \"#utility.yul\":4643:4715   */\n      tag_169\n        /* \"#utility.yul\":4711:4713   */\n      0x20\n        /* \"#utility.yul\":4700:4709   */\n      dup4\n        /* \"#utility.yul\":4696:4714   */\n      add\n        /* \"#utility.yul\":4687:4693   */\n      dup5\n        /* \"#utility.yul\":4643:4715   */\n      tag_96\n      jump\t// in\n    tag_169:\n        /* \"#utility.yul\":4390:4722   */\n      swap4\n      swap3\n      pop\n      pop\n      pop\n      jump\t// out\n        /* \"#utility.yul\":4728:4818   */\n    tag_99:\n        /* \"#utility.yul\":4762:4769   */\n      0x00\n        /* \"#utility.yul\":4805:4810   */\n      dup2\n        /* \"#utility.yul\":4798:4811   */\n      iszero\n        /* \"#utility.yul\":4791:4812   */\n      iszero\n        /* \"#utility.yul\":4780:4812   */\n      swap1\n      pop\n        /* \"#utility.yul\":4728:4818   */\n      swap2\n      swap1\n      pop\n      jump\t// out\n        /* \"#utility.yul\":4824:4940   */\n    tag_100:\n        /* \"#utility.yul\":4894:4915   */\n      tag_172\n        /* \"#utility.yul\":4909:4914   */\n      dup2\n        /* \"#utility.yul\":4894:4915   */\n      tag_99\n      jump\t// in\n    tag_172:\n        /* \"#utility.yul\":4887:4892   */\n      dup2\n        /* \"#utility.yul\":4884:4916   */\n      eq\n        /* \"#utility.yul\":4874:4934   */\n      tag_173\n      jumpi\n        /* \"#utility.yul\":4930:4931   */\n      0x00\n        /* \"#utility.yul\":4927:4928   */\n      dup1\n        /* \"#utility.yul\":4920:4932   */\n      revert\n        /* \"#utility.yul\":4874:4934   */\n    tag_173:\n        /* \"#utility.yul\":4824:4940   */\n      pop\n      jump\t// out\n        /* \"#utility.yul\":4946:5083   */\n    tag_101:\n        /* \"#utility.yul\":5000:5005   */\n      0x00\n        /* \"#utility.yul\":5031:5037   */\n      dup2\n        /* \"#utility.yul\":5025:5038   */\n      mload\n        /* \"#utility.yul\":5016:5038   */\n      swap1\n      pop\n        /* \"#utility.yul\":5047:5077   */\n      tag_175\n        /* \"#utility.yul\":5071:5076   */\n      dup2\n        /* \"#utility.yul\":5047:5077   */\n      tag_100\n      jump\t// in\n    tag_175:\n        /* \"#utility.yul\":4946:5083   */\n      swap3\n      swap2\n      pop\n      pop\n      jump\t// out\n        /* \"#utility.yul\":5089:5434   */\n    tag_51:\n        /* \"#utility.yul\":5156:5162   */\n      0x00\n        /* \"#utility.yul\":5205:5207   */\n      0x20\n        /* \"#utility.yul\":5193:5202   */\n      dup3\n        /* \"#utility.yul\":5184:5191   */\n      dup5\n        /* \"#utility.yul\":5180:5203   */\n      sub\n        /* \"#utility.yul\":5176:5208   */\n      slt\n        /* \"#utility.yul\":5173:5292   */\n      iszero\n      tag_177\n      jumpi\n        /* \"#utility.yul\":5211:5290   */\n      tag_178\n      tag_91\n      jump\t// in\n    tag_178:\n        /* \"#utility.yul\":5173:5292   */\n    tag_177:\n        /* \"#utility.yul\":5331:5332   */\n      0x00\n        /* \"#utility.yul\":5356:5417   */\n      tag_179\n        /* \"#utility.yul\":5409:5416   */\n      dup5\n        /* \"#utility.yul\":5400:5406   */\n      dup3\n        /* \"#utility.yul\":5389:5398   */\n      dup6\n        /* \"#utility.yul\":5385:5407   */\n      add\n        /* \"#utility.yul\":5356:5417   */\n      tag_101\n      jump\t// in\n    tag_179:\n        /* \"#utility.yul\":5346:5417   */\n      swap2\n      pop\n        /* \"#utility.yul\":5302:5427   */\n      pop\n        /* \"#utility.yul\":5089:5434   */\n      swap3\n      swap2\n      pop\n      pop\n      jump\t// out\n        /* \"#utility.yul\":5440:5548   */\n    tag_102:\n        /* \"#utility.yul\":5517:5541   */\n      tag_181\n        /* \"#utility.yul\":5535:5540   */\n      dup2\n        /* \"#utility.yul\":5517:5541   */\n      tag_83\n      jump\t// in\n    tag_181:\n        /* \"#utility.yul\":5512:5515   */\n      dup3\n        /* \"#utility.yul\":5505:5542   */\n      mstore\n        /* \"#utility.yul\":5440:5548   */\n      pop\n      pop\n      jump\t// out\n        /* \"#utility.yul\":5554:5659   */\n    tag_103:\n        /* \"#utility.yul\":5629:5652   */\n      tag_183\n        /* \"#utility.yul\":5646:5651   */\n      dup2\n        /* \"#utility.yul\":5629:5652   */\n      tag_80\n      jump\t// in\n    tag_183:\n        /* \"#utility.yul\":5624:5627   */\n      dup3\n        /* \"#utility.yul\":5617:5653   */\n      mstore\n        /* \"#utility.yul\":5554:5659   */\n      pop\n      pop\n      jump\t// out\n        /* \"#utility.yul\":5665:5773   */\n    tag_104:\n        /* \"#utility.yul\":5742:5766   */\n      tag_185\n        /* \"#utility.yul\":5760:5765   */\n      dup2\n        /* \"#utility.yul\":5742:5766   */\n      tag_93\n      jump\t// in\n    tag_185:\n        /* \"#utility.yul\":5737:5740   */\n      dup3\n        /* \"#utility.yul\":5730:5767   */\n      mstore\n        /* \"#utility.yul\":5665:5773   */\n      pop\n      pop\n      jump\t// out\n        /* \"#utility.yul\":5779:5887   */\n    tag_105:\n        /* \"#utility.yul\":5856:5880   */\n      tag_187\n        /* \"#utility.yul\":5874:5879   */\n      dup2\n        /* \"#utility.yul\":5856:5880   */\n      tag_82\n      jump\t// in\n    tag_187:\n        /* \"#utility.yul\":5851:5854   */\n      dup3\n        /* \"#utility.yul\":5844:5881   */\n      mstore\n        /* \"#utility.yul\":5779:5887   */\n      pop\n      pop\n      jump\t// out\n        /* \"#utility.yul\":5987:7608   */\n    tag_106:\n        /* \"#utility.yul\":6160:6166   */\n      0x0100\n        /* \"#utility.yul\":6155:6158   */\n      dup3\n        /* \"#utility.yul\":6151:6167   */\n      add\n        /* \"#utility.yul\":6252:6256   */\n      0x00\n        /* \"#utility.yul\":6245:6250   */\n      dup3\n        /* \"#utility.yul\":6241:6257   */\n      add\n        /* \"#utility.yul\":6235:6258   */\n      mload\n        /* \"#utility.yul\":6271:6334   */\n      tag_189\n        /* \"#utility.yul\":6328:6332   */\n      0x00\n        /* \"#utility.yul\":6323:6326   */\n      dup6\n        /* \"#utility.yul\":6319:6333   */\n      add\n        /* \"#utility.yul\":6305:6317   */\n      dup3\n        /* \"#utility.yul\":6271:6334   */\n      tag_102\n      jump\t// in\n    tag_189:\n        /* \"#utility.yul\":6177:6344   */\n      pop\n        /* \"#utility.yul\":6430:6434   */\n      0x20\n        /* \"#utility.yul\":6423:6428   */\n      dup3\n        /* \"#utility.yul\":6419:6435   */\n      add\n        /* \"#utility.yul\":6413:6436   */\n      mload\n        /* \"#utility.yul\":6449:6512   */\n      tag_190\n        /* \"#utility.yul\":6506:6510   */\n      0x20\n        /* \"#utility.yul\":6501:6504   */\n      dup6\n        /* \"#utility.yul\":6497:6511   */\n      add\n        /* \"#utility.yul\":6483:6495   */\n      dup3\n        /* \"#utility.yul\":6449:6512   */\n      tag_102\n      jump\t// in\n    tag_190:\n        /* \"#utility.yul\":6354:6522   */\n      pop\n        /* \"#utility.yul\":6603:6607   */\n      0x40\n        /* \"#utility.yul\":6596:6601   */\n      dup3\n        /* \"#utility.yul\":6592:6608   */\n      add\n        /* \"#utility.yul\":6586:6609   */\n      mload\n        /* \"#utility.yul\":6622:6683   */\n      tag_191\n        /* \"#utility.yul\":6677:6681   */\n      0x40\n        /* \"#utility.yul\":6672:6675   */\n      dup6\n        /* \"#utility.yul\":6668:6682   */\n      add\n        /* \"#utility.yul\":6654:6666   */\n      dup3\n        /* \"#utility.yul\":6622:6683   */\n      tag_103\n      jump\t// in\n    tag_191:\n        /* \"#utility.yul\":6532:6693   */\n      pop\n        /* \"#utility.yul\":6780:6784   */\n      0x60\n        /* \"#utility.yul\":6773:6778   */\n      dup3\n        /* \"#utility.yul\":6769:6785   */\n      add\n        /* \"#utility.yul\":6763:6786   */\n      mload\n        /* \"#utility.yul\":6799:6862   */\n      tag_192\n        /* \"#utility.yul\":6856:6860   */\n      0x60\n        /* \"#utility.yul\":6851:6854   */\n      dup6\n        /* \"#utility.yul\":6847:6861   */\n      add\n        /* \"#utility.yul\":6833:6845   */\n      dup3\n        /* \"#utility.yul\":6799:6862   */\n      tag_102\n      jump\t// in\n    tag_192:\n        /* \"#utility.yul\":6703:6872   */\n      pop\n        /* \"#utility.yul\":6958:6962   */\n      0x80\n        /* \"#utility.yul\":6951:6956   */\n      dup3\n        /* \"#utility.yul\":6947:6963   */\n      add\n        /* \"#utility.yul\":6941:6964   */\n      mload\n        /* \"#utility.yul\":6977:7040   */\n      tag_193\n        /* \"#utility.yul\":7034:7038   */\n      0x80\n        /* \"#utility.yul\":7029:7032   */\n      dup6\n        /* \"#utility.yul\":7025:7039   */\n      add\n        /* \"#utility.yul\":7011:7023   */\n      dup3\n        /* \"#utility.yul\":6977:7040   */\n      tag_104\n      jump\t// in\n    tag_193:\n        /* \"#utility.yul\":6882:7050   */\n      pop\n        /* \"#utility.yul\":7136:7140   */\n      0xa0\n        /* \"#utility.yul\":7129:7134   */\n      dup3\n        /* \"#utility.yul\":7125:7141   */\n      add\n        /* \"#utility.yul\":7119:7142   */\n      mload\n        /* \"#utility.yul\":7155:7218   */\n      tag_194\n        /* \"#utility.yul\":7212:7216   */\n      0xa0\n        /* \"#utility.yul\":7207:7210   */\n      dup6\n        /* \"#utility.yul\":7203:7217   */\n      add\n        /* \"#utility.yul\":7189:7201   */\n      dup3\n        /* \"#utility.yul\":7155:7218   */\n      tag_104\n      jump\t// in\n    tag_194:\n        /* \"#utility.yul\":7060:7228   */\n      pop\n        /* \"#utility.yul\":7322:7326   */\n      0xc0\n        /* \"#utility.yul\":7315:7320   */\n      dup3\n        /* \"#utility.yul\":7311:7327   */\n      add\n        /* \"#utility.yul\":7305:7328   */\n      mload\n        /* \"#utility.yul\":7341:7404   */\n      tag_195\n        /* \"#utility.yul\":7398:7402   */\n      0xc0\n        /* \"#utility.yul\":7393:7396   */\n      dup6\n        /* \"#utility.yul\":7389:7403   */\n      add\n        /* \"#utility.yul\":7375:7387   */\n      dup3\n        /* \"#utility.yul\":7341:7404   */\n      tag_104\n      jump\t// in\n    tag_195:\n        /* \"#utility.yul\":7238:7414   */\n      pop\n        /* \"#utility.yul\":7509:7513   */\n      0xe0\n        /* \"#utility.yul\":7502:7507   */\n      dup3\n        /* \"#utility.yul\":7498:7514   */\n      add\n        /* \"#utility.yul\":7492:7515   */\n      mload\n        /* \"#utility.yul\":7528:7591   */\n      tag_196\n        /* \"#utility.yul\":7585:7589   */\n      0xe0\n        /* \"#utility.yul\":7580:7583   */\n      dup6\n        /* \"#utility.yul\":7576:7590   */\n      add\n        /* \"#utility.yul\":7562:7574   */\n      dup3\n        /* \"#utility.yul\":7528:7591   */\n      tag_105\n      jump\t// in\n    tag_196:\n        /* \"#utility.yul\":7424:7601   */\n      pop\n        /* \"#utility.yul\":6129:7608   */\n      pop\n        /* \"#utility.yul\":5987:7608   */\n      pop\n      pop\n      jump\t// out\n        /* \"#utility.yul\":7614:7989   */\n    tag_53:\n        /* \"#utility.yul\":7783:7787   */\n      0x00\n        /* \"#utility.yul\":7821:7824   */\n      0x0100\n        /* \"#utility.yul\":7810:7819   */\n      dup3\n        /* \"#utility.yul\":7806:7825   */\n      add\n        /* \"#utility.yul\":7798:7825   */\n      swap1\n      pop\n        /* \"#utility.yul\":7835:7982   */\n      tag_198\n        /* \"#utility.yul\":7979:7980   */\n      0x00\n        /* \"#utility.yul\":7968:7977   */\n      dup4\n        /* \"#utility.yul\":7964:7981   */\n      add\n        /* \"#utility.yul\":7955:7961   */\n      dup5\n        /* \"#utility.yul\":7835:7982   */\n      tag_106\n      jump\t// in\n    tag_198:\n        /* \"#utility.yul\":7614:7989   */\n      swap3\n      swap2\n      pop\n      pop\n      jump\t// out\n        /* \"#utility.yul\":7995:8138   */\n    tag_107:\n        /* \"#utility.yul\":8052:8057   */\n      0x00\n        /* \"#utility.yul\":8083:8089   */\n      dup2\n        /* \"#utility.yul\":8077:8090   */\n      mload\n        /* \"#utility.yul\":8068:8090   */\n      swap1\n      pop\n        /* \"#utility.yul\":8099:8132   */\n      tag_200\n        /* \"#utility.yul\":8126:8131   */\n      dup2\n        /* \"#utility.yul\":8099:8132   */\n      tag_94\n      jump\t// in\n    tag_200:\n        /* \"#utility.yul\":7995:8138   */\n      swap3\n      swap2\n      pop\n      pop\n      jump\t// out\n        /* \"#utility.yul\":8144:8495   */\n    tag_57:\n        /* \"#utility.yul\":8214:8220   */\n      0x00\n        /* \"#utility.yul\":8263:8265   */\n      0x20\n        /* \"#utility.yul\":8251:8260   */\n      dup3\n        /* \"#utility.yul\":8242:8249   */\n      dup5\n        /* \"#utility.yul\":8238:8261   */\n      sub\n        /* \"#utility.yul\":8234:8266   */\n      slt\n        /* \"#utility.yul\":8231:8350   */\n      iszero\n      tag_202\n      jumpi\n        /* \"#utility.yul\":8269:8348   */\n      tag_203\n      tag_91\n      jump\t// in\n    tag_203:\n        /* \"#utility.yul\":8231:8350   */\n    tag_202:\n        /* \"#utility.yul\":8389:8390   */\n      0x00\n        /* \"#utility.yul\":8414:8478   */\n      tag_204\n        /* \"#utility.yul\":8470:8477   */\n      dup5\n        /* \"#utility.yul\":8461:8467   */\n      dup3\n        /* \"#utility.yul\":8450:8459   */\n      dup6\n        /* \"#utility.yul\":8446:8468   */\n      add\n        /* \"#utility.yul\":8414:8478   */\n      tag_107\n      jump\t// in\n    tag_204:\n        /* \"#utility.yul\":8404:8478   */\n      swap2\n      pop\n        /* \"#utility.yul\":8360:8488   */\n      pop\n        /* \"#utility.yul\":8144:8495   */\n      swap3\n      swap2\n      pop\n      pop\n      jump\t// out\n        /* \"#utility.yul\":8597:10220   */\n    tag_108:\n        /* \"#utility.yul\":8772:8778   */\n      0x0100\n        /* \"#utility.yul\":8767:8770   */\n      dup3\n        /* \"#utility.yul\":8763:8779   */\n      add\n        /* \"#utility.yul\":8864:8868   */\n      0x00\n        /* \"#utility.yul\":8857:8862   */\n      dup3\n        /* \"#utility.yul\":8853:8869   */\n      add\n        /* \"#utility.yul\":8847:8870   */\n      mload\n        /* \"#utility.yul\":8883:8946   */\n      tag_206\n        /* \"#utility.yul\":8940:8944   */\n      0x00\n        /* \"#utility.yul\":8935:8938   */\n      dup6\n        /* \"#utility.yul\":8931:8945   */\n      add\n        /* \"#utility.yul\":8917:8929   */\n      dup3\n        /* \"#utility.yul\":8883:8946   */\n      tag_102\n      jump\t// in\n    tag_206:\n        /* \"#utility.yul\":8789:8956   */\n      pop\n        /* \"#utility.yul\":9042:9046   */\n      0x20\n        /* \"#utility.yul\":9035:9040   */\n      dup3\n        /* \"#utility.yul\":9031:9047   */\n      add\n        /* \"#utility.yul\":9025:9048   */\n      mload\n        /* \"#utility.yul\":9061:9124   */\n      tag_207\n        /* \"#utility.yul\":9118:9122   */\n      0x20\n        /* \"#utility.yul\":9113:9116   */\n      dup6\n        /* \"#utility.yul\":9109:9123   */\n      add\n        /* \"#utility.yul\":9095:9107   */\n      dup3\n        /* \"#utility.yul\":9061:9124   */\n      tag_102\n      jump\t// in\n    tag_207:\n        /* \"#utility.yul\":8966:9134   */\n      pop\n        /* \"#utility.yul\":9215:9219   */\n      0x40\n        /* \"#utility.yul\":9208:9213   */\n      dup3\n        /* \"#utility.yul\":9204:9220   */\n      add\n        /* \"#utility.yul\":9198:9221   */\n      mload\n        /* \"#utility.yul\":9234:9295   */\n      tag_208\n        /* \"#utility.yul\":9289:9293   */\n      0x40\n        /* \"#utility.yul\":9284:9287   */\n      dup6\n        /* \"#utility.yul\":9280:9294   */\n      add\n        /* \"#utility.yul\":9266:9278   */\n      dup3\n        /* \"#utility.yul\":9234:9295   */\n      tag_103\n      jump\t// in\n    tag_208:\n        /* \"#utility.yul\":9144:9305   */\n      pop\n        /* \"#utility.yul\":9392:9396   */\n      0x60\n        /* \"#utility.yul\":9385:9390   */\n      dup3\n        /* \"#utility.yul\":9381:9397   */\n      add\n        /* \"#utility.yul\":9375:9398   */\n      mload\n        /* \"#utility.yul\":9411:9474   */\n      tag_209\n        /* \"#utility.yul\":9468:9472   */\n      0x60\n        /* \"#utility.yul\":9463:9466   */\n      dup6\n        /* \"#utility.yul\":9459:9473   */\n      add\n        /* \"#utility.yul\":9445:9457   */\n      dup3\n        /* \"#utility.yul\":9411:9474   */\n      tag_102\n      jump\t// in\n    tag_209:\n        /* \"#utility.yul\":9315:9484   */\n      pop\n        /* \"#utility.yul\":9570:9574   */\n      0x80\n        /* \"#utility.yul\":9563:9568   */\n      dup3\n        /* \"#utility.yul\":9559:9575   */\n      add\n        /* \"#utility.yul\":9553:9576   */\n      mload\n        /* \"#utility.yul\":9589:9652   */\n      tag_210\n        /* \"#utility.yul\":9646:9650   */\n      0x80\n        /* \"#utility.yul\":9641:9644   */\n      dup6\n        /* \"#utility.yul\":9637:9651   */\n      add\n        /* \"#utility.yul\":9623:9635   */\n      dup3\n        /* \"#utility.yul\":9589:9652   */\n      tag_104\n      jump\t// in\n    tag_210:\n        /* \"#utility.yul\":9494:9662   */\n      pop\n        /* \"#utility.yul\":9749:9753   */\n      0xa0\n        /* \"#utility.yul\":9742:9747   */\n      dup3\n        /* \"#utility.yul\":9738:9754   */\n      add\n        /* \"#utility.yul\":9732:9755   */\n      mload\n        /* \"#utility.yul\":9768:9831   */\n      tag_211\n        /* \"#utility.yul\":9825:9829   */\n      0xa0\n        /* \"#utility.yul\":9820:9823   */\n      dup6\n        /* \"#utility.yul\":9816:9830   */\n      add\n        /* \"#utility.yul\":9802:9814   */\n      dup3\n        /* \"#utility.yul\":9768:9831   */\n      tag_104\n      jump\t// in\n    tag_211:\n        /* \"#utility.yul\":9672:9841   */\n      pop\n        /* \"#utility.yul\":9934:9938   */\n      0xc0\n        /* \"#utility.yul\":9927:9932   */\n      dup3\n        /* \"#utility.yul\":9923:9939   */\n      add\n        /* \"#utility.yul\":9917:9940   */\n      mload\n        /* \"#utility.yul\":9953:10016   */\n      tag_212\n        /* \"#utility.yul\":10010:10014   */\n      0xc0\n        /* \"#utility.yul\":10005:10008   */\n      dup6\n        /* \"#utility.yul\":10001:10015   */\n      add\n        /* \"#utility.yul\":9987:9999   */\n      dup3\n        /* \"#utility.yul\":9953:10016   */\n      tag_104\n      jump\t// in\n    tag_212:\n        /* \"#utility.yul\":9851:10026   */\n      pop\n        /* \"#utility.yul\":10121:10125   */\n      0xe0\n        /* \"#utility.yul\":10114:10119   */\n      dup3\n        /* \"#utility.yul\":10110:10126   */\n      add\n        /* \"#utility.yul\":10104:10127   */\n      mload\n        /* \"#utility.yul\":10140:10203   */\n      tag_213\n        /* \"#utility.yul\":10197:10201   */\n      0xe0\n        /* \"#utility.yul\":10192:10195   */\n      dup6\n        /* \"#utility.yul\":10188:10202   */\n      add\n        /* \"#utility.yul\":10174:10186   */\n      dup3\n        /* \"#utility.yul\":10140:10203   */\n      tag_105\n      jump\t// in\n    tag_213:\n        /* \"#utility.yul\":10036:10213   */\n      pop\n        /* \"#utility.yul\":8741:10220   */\n      pop\n        /* \"#utility.yul\":8597:10220   */\n      pop\n      pop\n      jump\t// out\n        /* \"#utility.yul\":10226:10605   */\n    tag_64:\n        /* \"#utility.yul\":10397:10401   */\n      0x00\n        /* \"#utility.yul\":10435:10438   */\n      0x0100\n        /* \"#utility.yul\":10424:10433   */\n      dup3\n        /* \"#utility.yul\":10420:10439   */\n      add\n        /* \"#utility.yul\":10412:10439   */\n      swap1\n      pop\n        /* \"#utility.yul\":10449:10598   */\n      tag_215\n        /* \"#utility.yul\":10595:10596   */\n      0x00\n        /* \"#utility.yul\":10584:10593   */\n      dup4\n        /* \"#utility.yul\":10580:10597   */\n      add\n        /* \"#utility.yul\":10571:10577   */\n      dup5\n        /* \"#utility.yul\":10449:10598   */\n      tag_108\n      jump\t// in\n    tag_215:\n        /* \"#utility.yul\":10226:10605   */\n      swap3\n      swap2\n      pop\n      pop\n      jump\t// out\n        /* \"#utility.yul\":10611:10696   */\n    tag_109:\n        /* \"#utility.yul\":10656:10663   */\n      0x00\n        /* \"#utility.yul\":10685:10690   */\n      dup2\n        /* \"#utility.yul\":10674:10690   */\n      swap1\n      pop\n        /* \"#utility.yul\":10611:10696   */\n      swap2\n      swap1\n      pop\n      jump\t// out\n        /* \"#utility.yul\":10702:10860   */\n    tag_110:\n        /* \"#utility.yul\":10760:10769   */\n      0x00\n        /* \"#utility.yul\":10793:10854   */\n      tag_218\n        /* \"#utility.yul\":10811:10853   */\n      tag_219\n        /* \"#utility.yul\":10820:10852   */\n      tag_220\n        /* \"#utility.yul\":10846:10851   */\n      dup5\n        /* \"#utility.yul\":10820:10852   */\n      tag_109\n      jump\t// in\n    tag_220:\n        /* \"#utility.yul\":10811:10853   */\n      tag_85\n      jump\t// in\n    tag_219:\n        /* \"#utility.yul\":10793:10854   */\n      tag_93\n      jump\t// in\n    tag_218:\n        /* \"#utility.yul\":10780:10854   */\n      swap1\n      pop\n        /* \"#utility.yul\":10702:10860   */\n      swap2\n      swap1\n      pop\n      jump\t// out\n        /* \"#utility.yul\":10866:11013   */\n    tag_111:\n        /* \"#utility.yul\":10961:11006   */\n      tag_222\n        /* \"#utility.yul\":11000:11005   */\n      dup2\n        /* \"#utility.yul\":10961:11006   */\n      tag_110\n      jump\t// in\n    tag_222:\n        /* \"#utility.yul\":10956:10959   */\n      dup3\n        /* \"#utility.yul\":10949:11007   */\n      mstore\n        /* \"#utility.yul\":10866:11013   */\n      pop\n      pop\n      jump\t// out\n        /* \"#utility.yul\":11019:11367   */\n    tag_70:\n        /* \"#utility.yul\":11148:11152   */\n      0x00\n        /* \"#utility.yul\":11186:11188   */\n      0x40\n        /* \"#utility.yul\":11175:11184   */\n      dup3\n        /* \"#utility.yul\":11171:11189   */\n      add\n        /* \"#utility.yul\":11163:11189   */\n      swap1\n      pop\n        /* \"#utility.yul\":11199:11270   */\n      tag_224\n        /* \"#utility.yul\":11267:11268   */\n      0x00\n        /* \"#utility.yul\":11256:11265   */\n      dup4\n        /* \"#utility.yul\":11252:11269   */\n      add\n        /* \"#utility.yul\":11243:11249   */\n      dup6\n        /* \"#utility.yul\":11199:11270   */\n      tag_84\n      jump\t// in\n    tag_224:\n        /* \"#utility.yul\":11280:11360   */\n      tag_225\n        /* \"#utility.yul\":11356:11358   */\n      0x20\n        /* \"#utility.yul\":11345:11354   */\n      dup4\n        /* \"#utility.yul\":11341:11359   */\n      add\n        /* \"#utility.yul\":11332:11338   */\n      dup5\n        /* \"#utility.yul\":11280:11360   */\n      tag_111\n      jump\t// in\n    tag_225:\n        /* \"#utility.yul\":11019:11367   */\n      swap4\n      swap3\n      pop\n      pop\n      pop\n      jump\t// out\n        /* \"#utility.yul\":11373:11553   */\n    tag_112:\n        /* \"#utility.yul\":11421:11498   */\n      0x4e487b7100000000000000000000000000000000000000000000000000000000\n        /* \"#utility.yul\":11418:11419   */\n      0x00\n        /* \"#utility.yul\":11411:11499   */\n      mstore\n        /* \"#utility.yul\":11518:11522   */\n      0x11\n        /* \"#utility.yul\":11515:11516   */\n      0x04\n        /* \"#utility.yul\":11508:11523   */\n      mstore\n        /* \"#utility.yul\":11542:11546   */\n      0x24\n        /* \"#utility.yul\":11539:11540   */\n      0x00\n        /* \"#utility.yul\":11532:11547   */\n      revert\n        /* \"#utility.yul\":11559:11753   */\n    tag_75:\n        /* \"#utility.yul\":11599:11603   */\n      0x00\n        /* \"#utility.yul\":11619:11639   */\n      tag_228\n        /* \"#utility.yul\":11637:11638   */\n      dup3\n        /* \"#utility.yul\":11619:11639   */\n      tag_93\n      jump\t// in\n    tag_228:\n        /* \"#utility.yul\":11614:11639   */\n      swap2\n      pop\n        /* \"#utility.yul\":11653:11673   */\n      tag_229\n        /* \"#utility.yul\":11671:11672   */\n      dup4\n        /* \"#utility.yul\":11653:11673   */\n      tag_93\n      jump\t// in\n    tag_229:\n        /* \"#utility.yul\":11648:11673   */\n      swap3\n      pop\n        /* \"#utility.yul\":11697:11698   */\n      dup3\n        /* \"#utility.yul\":11694:11695   */\n      dup3\n        /* \"#utility.yul\":11690:11699   */\n      sub\n        /* \"#utility.yul\":11682:11699   */\n      swap1\n      pop\n        /* \"#utility.yul\":11721:11722   */\n      dup2\n        /* \"#utility.yul\":11715:11719   */\n      dup2\n        /* \"#utility.yul\":11712:11723   */\n      gt\n        /* \"#utility.yul\":11709:11746   */\n      iszero\n      tag_230\n      jumpi\n        /* \"#utility.yul\":11726:11744   */\n      tag_231\n      tag_112\n      jump\t// in\n    tag_231:\n        /* \"#utility.yul\":11709:11746   */\n    tag_230:\n        /* \"#utility.yul\":11559:11753   */\n      swap3\n      swap2\n      pop\n      pop\n      jump\t// out\n\n    auxdata: 0xa26469706673582212201925f4b1fd345b7d2bcc404287dd2526ad6604eeb17a88deda7422409d86a48164736f6c63430008110033\n}\n",
				"bytecode": {
					"linkReferences": {},
					"object": "60a060405273e592427a0aece92de3edee1f18e0157c0586156473ffffffffffffffffffffffffffffffffffffffff1660809073ffffffffffffffffffffffffffffffffffffffff1681525073dc31ee1784292379fbb2964b3b9c4124d8f89c606000806101000a81548173ffffffffffffffffffffffffffffffffffffffff021916908373ffffffffffffffffffffffffffffffffffffffff1602179055503480156100ab57600080fd5b50608051610da66100ea6000396000818161023c015281816103860152818161042a0152818161048d015281816105d601526106b80152610da66000f3fe608060405234801561001057600080fd5b50600436106100885760003560e01c806373bd43ad1161005b57806373bd43ad14610105578063c31c9c0714610135578063c4b69a1814610153578063e0bab4c41461018357610088565b8063089fe6aa1461008d5780631b6b6d23146100ab5780633268cc56146100c957806357970e93146100e7575b600080fd5b6100956101a1565b6040516100a29190610822565b60405180910390f35b6100b36101a7565b6040516100c0919061087e565b60405180910390f35b6100d16101bf565b6040516100de919061087e565b60405180910390f35b6100ef6101d7565b6040516100fc91906108f8565b60405180910390f35b61011f600480360381019061011a919061094e565b6101fb565b60405161012c919061098a565b60405180910390f35b61013d610428565b60405161014a91906109c6565b60405180910390f35b61016d600480360381019061016891906109e1565b61044c565b60405161017a919061098a565b60405180910390f35b61018b6107ec565b604051610198919061087e565b60405180910390f35b610bb881565b73326c977e6efc84e512bb9c30f76e30c160ed06fb81565b73e592427a0aece92de3edee1f18e0157c0586156481565b60008054906101000a900473ffffffffffffffffffffffffffffffffffffffff1681565b60008060009054906101000a900473ffffffffffffffffffffffffffffffffffffffff1673ffffffffffffffffffffffffffffffffffffffff1663095ea7b37f0000000000000000000000000000000000000000000000000000000000000000846040518363ffffffff1660e01b8152600401610279929190610a21565b6020604051808303816000875af1158015610298573d6000803e3d6000fd5b505050506040513d601f19601f820116820180604052508101906102bc9190610a82565b50600060405180610100016040528073dc31ee1784292379fbb2964b3b9c4124d8f89c6073ffffffffffffffffffffffffffffffffffffffff16815260200173326c977e6efc84e512bb9c30f76e30c160ed06fb73ffffffffffffffffffffffffffffffffffffffff168152602001610bb862ffffff1681526020013073ffffffffffffffffffffffffffffffffffffffff16815260200142815260200184815260200160008152602001600073ffffffffffffffffffffffffffffffffffffffff1681525090507f000000000000000000000000000000000000000000000000000000000000000073ffffffffffffffffffffffffffffffffffffffff1663414bf389826040518263ffffffff1660e01b81526004016103dd9190610b8d565b6020604051808303816000875af11580156103fc573d6000803e3d6000fd5b505050506040513d601f19601f820116820180604052508101906104209190610bbe565b915050919050565b7f000000000000000000000000000000000000000000000000000000000000000081565b60008060009054906101000a900473ffffffffffffffffffffffffffffffffffffffff1673ffffffffffffffffffffffffffffffffffffffff1663095ea7b37f0000000000000000000000000000000000000000000000000000000000000000846040518363ffffffff1660e01b81526004016104ca929190610a21565b6020604051808303816000875af11580156104e9573d6000803e3d6000fd5b505050506040513d601f19601f8201168201806040525081019061050d9190610a82565b50600060405180610100016040528073dc31ee1784292379fbb2964b3b9c4124d8f89c6073ffffffffffffffffffffffffffffffffffffffff16815260200173326c977e6efc84e512bb9c30f76e30c160ed06fb73ffffffffffffffffffffffffffffffffffffffff168152602001610bb862ffffff1681526020013073ffffffffffffffffffffffffffffffffffffffff168152602001428152602001858152602001848152602001600073ffffffffffffffffffffffffffffffffffffffff1681525090507f000000000000000000000000000000000000000000000000000000000000000073ffffffffffffffffffffffffffffffffffffffff1663db3e2198826040518263ffffffff1660e01b815260040161062d9190610c8d565b6020604051808303816000875af115801561064c573d6000803e3d6000fd5b505050506040513d601f19601f820116820180604052508101906106709190610bbe565b9150828210156107e55760008054906101000a900473ffffffffffffffffffffffffffffffffffffffff1673ffffffffffffffffffffffffffffffffffffffff1663095ea7b37f000000000000000000000000000000000000000000000000000000000000000060006040518363ffffffff1660e01b81526004016106f6929190610ce4565b6020604051808303816000875af1158015610715573d6000803e3d6000fd5b505050506040513d601f19601f820116820180604052508101906107399190610a82565b5060008054906101000a900473ffffffffffffffffffffffffffffffffffffffff1673ffffffffffffffffffffffffffffffffffffffff1663a9059cbb3084866107839190610d3c565b6040518363ffffffff1660e01b81526004016107a0929190610a21565b6020604051808303816000875af11580156107bf573d6000803e3d6000fd5b505050506040513d601f19601f820116820180604052508101906107e39190610a82565b505b5092915050565b73dc31ee1784292379fbb2964b3b9c4124d8f89c6081565b600062ffffff82169050919050565b61081c81610804565b82525050565b60006020820190506108376000830184610813565b92915050565b600073ffffffffffffffffffffffffffffffffffffffff82169050919050565b60006108688261083d565b9050919050565b6108788161085d565b82525050565b6000602082019050610893600083018461086f565b92915050565b6000819050919050565b60006108be6108b96108b48461083d565b610899565b61083d565b9050919050565b60006108d0826108a3565b9050919050565b60006108e2826108c5565b9050919050565b6108f2816108d7565b82525050565b600060208201905061090d60008301846108e9565b92915050565b600080fd5b6000819050919050565b61092b81610918565b811461093657600080fd5b50565b60008135905061094881610922565b92915050565b60006020828403121561096457610963610913565b5b600061097284828501610939565b91505092915050565b61098481610918565b82525050565b600060208201905061099f600083018461097b565b92915050565b60006109b0826108c5565b9050919050565b6109c0816109a5565b82525050565b60006020820190506109db60008301846109b7565b92915050565b600080604083850312156109f8576109f7610913565b5b6000610a0685828601610939565b9250506020610a1785828601610939565b9150509250929050565b6000604082019050610a36600083018561086f565b610a43602083018461097b565b9392505050565b60008115159050919050565b610a5f81610a4a565b8114610a6a57600080fd5b50565b600081519050610a7c81610a56565b92915050565b600060208284031215610a9857610a97610913565b5b6000610aa684828501610a6d565b91505092915050565b610ab88161085d565b82525050565b610ac781610804565b82525050565b610ad681610918565b82525050565b610ae58161083d565b82525050565b61010082016000820151610b026000850182610aaf565b506020820151610b156020850182610aaf565b506040820151610b286040850182610abe565b506060820151610b3b6060850182610aaf565b506080820151610b4e6080850182610acd565b5060a0820151610b6160a0850182610acd565b5060c0820151610b7460c0850182610acd565b5060e0820151610b8760e0850182610adc565b50505050565b600061010082019050610ba36000830184610aeb565b92915050565b600081519050610bb881610922565b92915050565b600060208284031215610bd457610bd3610913565b5b6000610be284828501610ba9565b91505092915050565b61010082016000820151610c026000850182610aaf565b506020820151610c156020850182610aaf565b506040820151610c286040850182610abe565b506060820151610c3b6060850182610aaf565b506080820151610c4e6080850182610acd565b5060a0820151610c6160a0850182610acd565b5060c0820151610c7460c0850182610acd565b5060e0820151610c8760e0850182610adc565b50505050565b600061010082019050610ca36000830184610beb565b92915050565b6000819050919050565b6000610cce610cc9610cc484610ca9565b610899565b610918565b9050919050565b610cde81610cb3565b82525050565b6000604082019050610cf9600083018561086f565b610d066020830184610cd5565b9392505050565b7f4e487b7100000000000000000000000000000000000000000000000000000000600052601160045260246000fd5b6000610d4782610918565b9150610d5283610918565b9250828203905081811115610d6a57610d69610d0d565b5b9291505056fea26469706673582212201925f4b1fd345b7d2bcc404287dd2526ad6604eeb17a88deda7422409d86a48164736f6c63430008110033",
					"opcodes": "PUSH1 0xA0 PUSH1 0x40 MSTORE PUSH20 0xE592427A0AECE92DE3EDEE1F18E0157C05861564 PUSH20 0xFFFFFFFFFFFFFFFFFFFFFFFFFFFFFFFFFFFFFFFF AND PUSH1 0x80 SWAP1 PUSH20 0xFFFFFFFFFFFFFFFFFFFFFFFFFFFFFFFFFFFFFFFF AND DUP2 MSTORE POP PUSH20 0xDC31EE1784292379FBB2964B3B9C4124D8F89C60 PUSH1 0x0 DUP1 PUSH2 0x100 EXP DUP2 SLOAD DUP2 PUSH20 0xFFFFFFFFFFFFFFFFFFFFFFFFFFFFFFFFFFFFFFFF MUL NOT AND SWAP1 DUP4 PUSH20 0xFFFFFFFFFFFFFFFFFFFFFFFFFFFFFFFFFFFFFFFF AND MUL OR SWAP1 SSTORE POP CALLVALUE DUP1 ISZERO PUSH2 0xAB JUMPI PUSH1 0x0 DUP1 REVERT JUMPDEST POP PUSH1 0x80 MLOAD PUSH2 0xDA6 PUSH2 0xEA PUSH1 0x0 CODECOPY PUSH1 0x0 DUP2 DUP2 PUSH2 0x23C ADD MSTORE DUP2 DUP2 PUSH2 0x386 ADD MSTORE DUP2 DUP2 PUSH2 0x42A ADD MSTORE DUP2 DUP2 PUSH2 0x48D ADD MSTORE DUP2 DUP2 PUSH2 0x5D6 ADD MSTORE PUSH2 0x6B8 ADD MSTORE PUSH2 0xDA6 PUSH1 0x0 RETURN INVALID PUSH1 0x80 PUSH1 0x40 MSTORE CALLVALUE DUP1 ISZERO PUSH2 0x10 JUMPI PUSH1 0x0 DUP1 REVERT JUMPDEST POP PUSH1 0x4 CALLDATASIZE LT PUSH2 0x88 JUMPI PUSH1 0x0 CALLDATALOAD PUSH1 0xE0 SHR DUP1 PUSH4 0x73BD43AD GT PUSH2 0x5B JUMPI DUP1 PUSH4 0x73BD43AD EQ PUSH2 0x105 JUMPI DUP1 PUSH4 0xC31C9C07 EQ PUSH2 0x135 JUMPI DUP1 PUSH4 0xC4B69A18 EQ PUSH2 0x153 JUMPI DUP1 PUSH4 0xE0BAB4C4 EQ PUSH2 0x183 JUMPI PUSH2 0x88 JUMP JUMPDEST DUP1 PUSH4 0x89FE6AA EQ PUSH2 0x8D JUMPI DUP1 PUSH4 0x1B6B6D23 EQ PUSH2 0xAB JUMPI DUP1 PUSH4 0x3268CC56 EQ PUSH2 0xC9 JUMPI DUP1 PUSH4 0x57970E93 EQ PUSH2 0xE7 JUMPI JUMPDEST PUSH1 0x0 DUP1 REVERT JUMPDEST PUSH2 0x95 PUSH2 0x1A1 JUMP JUMPDEST PUSH1 0x40 MLOAD PUSH2 0xA2 SWAP2 SWAP1 PUSH2 0x822 JUMP JUMPDEST PUSH1 0x40 MLOAD DUP1 SWAP2 SUB SWAP1 RETURN JUMPDEST PUSH2 0xB3 PUSH2 0x1A7 JUMP JUMPDEST PUSH1 0x40 MLOAD PUSH2 0xC0 SWAP2 SWAP1 PUSH2 0x87E JUMP JUMPDEST PUSH1 0x40 MLOAD DUP1 SWAP2 SUB SWAP1 RETURN JUMPDEST PUSH2 0xD1 PUSH2 0x1BF JUMP JUMPDEST PUSH1 0x40 MLOAD PUSH2 0xDE SWAP2 SWAP1 PUSH2 0x87E JUMP JUMPDEST PUSH1 0x40 MLOAD DUP1 SWAP2 SUB SWAP1 RETURN JUMPDEST PUSH2 0xEF PUSH2 0x1D7 JUMP JUMPDEST PUSH1 0x40 MLOAD PUSH2 0xFC SWAP2 SWAP1 PUSH2 0x8F8 JUMP JUMPDEST PUSH1 0x40 MLOAD DUP1 SWAP2 SUB SWAP1 RETURN JUMPDEST PUSH2 0x11F PUSH1 0x4 DUP1 CALLDATASIZE SUB DUP2 ADD SWAP1 PUSH2 0x11A SWAP2 SWAP1 PUSH2 0x94E JUMP JUMPDEST PUSH2 0x1FB JUMP JUMPDEST PUSH1 0x40 MLOAD PUSH2 0x12C SWAP2 SWAP1 PUSH2 0x98A JUMP JUMPDEST PUSH1 0x40 MLOAD DUP1 SWAP2 SUB SWAP1 RETURN JUMPDEST PUSH2 0x13D PUSH2 0x428 JUMP JUMPDEST PUSH1 0x40 MLOAD PUSH2 0x14A SWAP2 SWAP1 PUSH2 0x9C6 JUMP JUMPDEST PUSH1 0x40 MLOAD DUP1 SWAP2 SUB SWAP1 RETURN JUMPDEST PUSH2 0x16D PUSH1 0x4 DUP1 CALLDATASIZE SUB DUP2 ADD SWAP1 PUSH2 0x168 SWAP2 SWAP1 PUSH2 0x9E1 JUMP JUMPDEST PUSH2 0x44C JUMP JUMPDEST PUSH1 0x40 MLOAD PUSH2 0x17A SWAP2 SWAP1 PUSH2 0x98A JUMP JUMPDEST PUSH1 0x40 MLOAD DUP1 SWAP2 SUB SWAP1 RETURN JUMPDEST PUSH2 0x18B PUSH2 0x7EC JUMP JUMPDEST PUSH1 0x40 MLOAD PUSH2 0x198 SWAP2 SWAP1 PUSH2 0x87E JUMP JUMPDEST PUSH1 0x40 MLOAD DUP1 SWAP2 SUB SWAP1 RETURN JUMPDEST PUSH2 0xBB8 DUP2 JUMP JUMPDEST PUSH20 0x326C977E6EFC84E512BB9C30F76E30C160ED06FB DUP2 JUMP JUMPDEST PUSH20 0xE592427A0AECE92DE3EDEE1F18E0157C05861564 DUP2 JUMP JUMPDEST PUSH1 0x0 DUP1 SLOAD SWAP1 PUSH2 0x100 EXP SWAP1 DIV PUSH20 0xFFFFFFFFFFFFFFFFFFFFFFFFFFFFFFFFFFFFFFFF AND DUP2 JUMP JUMPDEST PUSH1 0x0 DUP1 PUSH1 0x0 SWAP1 SLOAD SWAP1 PUSH2 0x100 EXP SWAP1 DIV PUSH20 0xFFFFFFFFFFFFFFFFFFFFFFFFFFFFFFFFFFFFFFFF AND PUSH20 0xFFFFFFFFFFFFFFFFFFFFFFFFFFFFFFFFFFFFFFFF AND PUSH4 0x95EA7B3 PUSH32 0x0 DUP5 PUSH1 0x40 MLOAD DUP4 PUSH4 0xFFFFFFFF AND PUSH1 0xE0 SHL DUP2 MSTORE PUSH1 0x4 ADD PUSH2 0x279 SWAP3 SWAP2 SWAP1 PUSH2 0xA21 JUMP JUMPDEST PUSH1 0x20 PUSH1 0x40 MLOAD DUP1 DUP4 SUB DUP2 PUSH1 0x0 DUP8 GAS CALL ISZERO DUP1 ISZERO PUSH2 0x298 JUMPI RETURNDATASIZE PUSH1 0x0 DUP1 RETURNDATACOPY RETURNDATASIZE PUSH1 0x0 REVERT JUMPDEST POP POP POP POP PUSH1 0x40 MLOAD RETURNDATASIZE PUSH1 0x1F NOT PUSH1 0x1F DUP3 ADD AND DUP3 ADD DUP1 PUSH1 0x40 MSTORE POP DUP2 ADD SWAP1 PUSH2 0x2BC SWAP2 SWAP1 PUSH2 0xA82 JUMP JUMPDEST POP PUSH1 0x0 PUSH1 0x40 MLOAD DUP1 PUSH2 0x100 ADD PUSH1 0x40 MSTORE DUP1 PUSH20 0xDC31EE1784292379FBB2964B3B9C4124D8F89C60 PUSH20 0xFFFFFFFFFFFFFFFFFFFFFFFFFFFFFFFFFFFFFFFF AND DUP2 MSTORE PUSH1 0x20 ADD PUSH20 0x326C977E6EFC84E512BB9C30F76E30C160ED06FB PUSH20 0xFFFFFFFFFFFFFFFFFFFFFFFFFFFFFFFFFFFFFFFF AND DUP2 MSTORE PUSH1 0x20 ADD PUSH2 0xBB8 PUSH3 0xFFFFFF AND DUP2 MSTORE PUSH1 0x20 ADD ADDRESS PUSH20 0xFFFFFFFFFFFFFFFFFFFFFFFFFFFFFFFFFFFFFFFF AND DUP2 MSTORE PUSH1 0x20 ADD TIMESTAMP DUP2 MSTORE PUSH1 0x20 ADD DUP5 DUP2 MSTORE PUSH1 0x20 ADD PUSH1 0x0 DUP2 MSTORE PUSH1 0x20 ADD PUSH1 0x0 PUSH20 0xFFFFFFFFFFFFFFFFFFFFFFFFFFFFFFFFFFFFFFFF AND DUP2 MSTORE POP SWAP1 POP PUSH32 0x0 PUSH20 0xFFFFFFFFFFFFFFFFFFFFFFFFFFFFFFFFFFFFFFFF AND PUSH4 0x414BF389 DUP3 PUSH1 0x40 MLOAD DUP3 PUSH4 0xFFFFFFFF AND PUSH1 0xE0 SHL DUP2 MSTORE PUSH1 0x4 ADD PUSH2 0x3DD SWAP2 SWAP1 PUSH2 0xB8D JUMP JUMPDEST PUSH1 0x20 PUSH1 0x40 MLOAD DUP1 DUP4 SUB DUP2 PUSH1 0x0 DUP8 GAS CALL ISZERO DUP1 ISZERO PUSH2 0x3FC JUMPI RETURNDATASIZE PUSH1 0x0 DUP1 RETURNDATACOPY RETURNDATASIZE PUSH1 0x0 REVERT JUMPDEST POP POP POP POP PUSH1 0x40 MLOAD RETURNDATASIZE PUSH1 0x1F NOT PUSH1 0x1F DUP3 ADD AND DUP3 ADD DUP1 PUSH1 0x40 MSTORE POP DUP2 ADD SWAP1 PUSH2 0x420 SWAP2 SWAP1 PUSH2 0xBBE JUMP JUMPDEST SWAP2 POP POP SWAP2 SWAP1 POP JUMP JUMPDEST PUSH32 0x0 DUP2 JUMP JUMPDEST PUSH1 0x0 DUP1 PUSH1 0x0 SWAP1 SLOAD SWAP1 PUSH2 0x100 EXP SWAP1 DIV PUSH20 0xFFFFFFFFFFFFFFFFFFFFFFFFFFFFFFFFFFFFFFFF AND PUSH20 0xFFFFFFFFFFFFFFFFFFFFFFFFFFFFFFFFFFFFFFFF AND PUSH4 0x95EA7B3 PUSH32 0x0 DUP5 PUSH1 0x40 MLOAD DUP4 PUSH4 0xFFFFFFFF AND PUSH1 0xE0 SHL DUP2 MSTORE PUSH1 0x4 ADD PUSH2 0x4CA SWAP3 SWAP2 SWAP1 PUSH2 0xA21 JUMP JUMPDEST PUSH1 0x20 PUSH1 0x40 MLOAD DUP1 DUP4 SUB DUP2 PUSH1 0x0 DUP8 GAS CALL ISZERO DUP1 ISZERO PUSH2 0x4E9 JUMPI RETURNDATASIZE PUSH1 0x0 DUP1 RETURNDATACOPY RETURNDATASIZE PUSH1 0x0 REVERT JUMPDEST POP POP POP POP PUSH1 0x40 MLOAD RETURNDATASIZE PUSH1 0x1F NOT PUSH1 0x1F DUP3 ADD AND DUP3 ADD DUP1 PUSH1 0x40 MSTORE POP DUP2 ADD SWAP1 PUSH2 0x50D SWAP2 SWAP1 PUSH2 0xA82 JUMP JUMPDEST POP PUSH1 0x0 PUSH1 0x40 MLOAD DUP1 PUSH2 0x100 ADD PUSH1 0x40 MSTORE DUP1 PUSH20 0xDC31EE1784292379FBB2964B3B9C4124D8F89C60 PUSH20 0xFFFFFFFFFFFFFFFFFFFFFFFFFFFFFFFFFFFFFFFF AND DUP2 MSTORE PUSH1 0x20 ADD PUSH20 0x326C977E6EFC84E512BB9C30F76E30C160ED06FB PUSH20 0xFFFFFFFFFFFFFFFFFFFFFFFFFFFFFFFFFFFFFFFF AND DUP2 MSTORE PUSH1 0x20 ADD PUSH2 0xBB8 PUSH3 0xFFFFFF AND DUP2 MSTORE PUSH1 0x20 ADD ADDRESS PUSH20 0xFFFFFFFFFFFFFFFFFFFFFFFFFFFFFFFFFFFFFFFF AND DUP2 MSTORE PUSH1 0x20 ADD TIMESTAMP DUP2 MSTORE PUSH1 0x20 ADD DUP6 DUP2 MSTORE PUSH1 0x20 ADD DUP5 DUP2 MSTORE PUSH1 0x20 ADD PUSH1 0x0 PUSH20 0xFFFFFFFFFFFFFFFFFFFFFFFFFFFFFFFFFFFFFFFF AND DUP2 MSTORE POP SWAP1 POP PUSH32 0x0 PUSH20 0xFFFFFFFFFFFFFFFFFFFFFFFFFFFFFFFFFFFFFFFF AND PUSH4 0xDB3E2198 DUP3 PUSH1 0x40 MLOAD DUP3 PUSH4 0xFFFFFFFF AND PUSH1 0xE0 SHL DUP2 MSTORE PUSH1 0x4 ADD PUSH2 0x62D SWAP2 SWAP1 PUSH2 0xC8D JUMP JUMPDEST PUSH1 0x20 PUSH1 0x40 MLOAD DUP1 DUP4 SUB DUP2 PUSH1 0x0 DUP8 GAS CALL ISZERO DUP1 ISZERO PUSH2 0x64C JUMPI RETURNDATASIZE PUSH1 0x0 DUP1 RETURNDATACOPY RETURNDATASIZE PUSH1 0x0 REVERT JUMPDEST POP POP POP POP PUSH1 0x40 MLOAD RETURNDATASIZE PUSH1 0x1F NOT PUSH1 0x1F DUP3 ADD AND DUP3 ADD DUP1 PUSH1 0x40 MSTORE POP DUP2 ADD SWAP1 PUSH2 0x670 SWAP2 SWAP1 PUSH2 0xBBE JUMP JUMPDEST SWAP2 POP DUP3 DUP3 LT ISZERO PUSH2 0x7E5 JUMPI PUSH1 0x0 DUP1 SLOAD SWAP1 PUSH2 0x100 EXP SWAP1 DIV PUSH20 0xFFFFFFFFFFFFFFFFFFFFFFFFFFFFFFFFFFFFFFFF AND PUSH20 0xFFFFFFFFFFFFFFFFFFFFFFFFFFFFFFFFFFFFFFFF AND PUSH4 0x95EA7B3 PUSH32 0x0 PUSH1 0x0 PUSH1 0x40 MLOAD DUP4 PUSH4 0xFFFFFFFF AND PUSH1 0xE0 SHL DUP2 MSTORE PUSH1 0x4 ADD PUSH2 0x6F6 SWAP3 SWAP2 SWAP1 PUSH2 0xCE4 JUMP JUMPDEST PUSH1 0x20 PUSH1 0x40 MLOAD DUP1 DUP4 SUB DUP2 PUSH1 0x0 DUP8 GAS CALL ISZERO DUP1 ISZERO PUSH2 0x715 JUMPI RETURNDATASIZE PUSH1 0x0 DUP1 RETURNDATACOPY RETURNDATASIZE PUSH1 0x0 REVERT JUMPDEST POP POP POP POP PUSH1 0x40 MLOAD RETURNDATASIZE PUSH1 0x1F NOT PUSH1 0x1F DUP3 ADD AND DUP3 ADD DUP1 PUSH1 0x40 MSTORE POP DUP2 ADD SWAP1 PUSH2 0x739 SWAP2 SWAP1 PUSH2 0xA82 JUMP JUMPDEST POP PUSH1 0x0 DUP1 SLOAD SWAP1 PUSH2 0x100 EXP SWAP1 DIV PUSH20 0xFFFFFFFFFFFFFFFFFFFFFFFFFFFFFFFFFFFFFFFF AND PUSH20 0xFFFFFFFFFFFFFFFFFFFFFFFFFFFFFFFFFFFFFFFF AND PUSH4 0xA9059CBB ADDRESS DUP5 DUP7 PUSH2 0x783 SWAP2 SWAP1 PUSH2 0xD3C JUMP JUMPDEST PUSH1 0x40 MLOAD DUP4 PUSH4 0xFFFFFFFF AND PUSH1 0xE0 SHL DUP2 MSTORE PUSH1 0x4 ADD PUSH2 0x7A0 SWAP3 SWAP2 SWAP1 PUSH2 0xA21 JUMP JUMPDEST PUSH1 0x20 PUSH1 0x40 MLOAD DUP1 DUP4 SUB DUP2 PUSH1 0x0 DUP8 GAS CALL ISZERO DUP1 ISZERO PUSH2 0x7BF JUMPI RETURNDATASIZE PUSH1 0x0 DUP1 RETURNDATACOPY RETURNDATASIZE PUSH1 0x0 REVERT JUMPDEST POP POP POP POP PUSH1 0x40 MLOAD RETURNDATASIZE PUSH1 0x1F NOT PUSH1 0x1F DUP3 ADD AND DUP3 ADD DUP1 PUSH1 0x40 MSTORE POP DUP2 ADD SWAP1 PUSH2 0x7E3 SWAP2 SWAP1 PUSH2 0xA82 JUMP JUMPDEST POP JUMPDEST POP SWAP3 SWAP2 POP POP JUMP JUMPDEST PUSH20 0xDC31EE1784292379FBB2964B3B9C4124D8F89C60 DUP2 JUMP JUMPDEST PUSH1 0x0 PUSH3 0xFFFFFF DUP3 AND SWAP1 POP SWAP2 SWAP1 POP JUMP JUMPDEST PUSH2 0x81C DUP2 PUSH2 0x804 JUMP JUMPDEST DUP3 MSTORE POP POP JUMP JUMPDEST PUSH1 0x0 PUSH1 0x20 DUP3 ADD SWAP1 POP PUSH2 0x837 PUSH1 0x0 DUP4 ADD DUP5 PUSH2 0x813 JUMP JUMPDEST SWAP3 SWAP2 POP POP JUMP JUMPDEST PUSH1 0x0 PUSH20 0xFFFFFFFFFFFFFFFFFFFFFFFFFFFFFFFFFFFFFFFF DUP3 AND SWAP1 POP SWAP2 SWAP1 POP JUMP JUMPDEST PUSH1 0x0 PUSH2 0x868 DUP3 PUSH2 0x83D JUMP JUMPDEST SWAP1 POP SWAP2 SWAP1 POP JUMP JUMPDEST PUSH2 0x878 DUP2 PUSH2 0x85D JUMP JUMPDEST DUP3 MSTORE POP POP JUMP JUMPDEST PUSH1 0x0 PUSH1 0x20 DUP3 ADD SWAP1 POP PUSH2 0x893 PUSH1 0x0 DUP4 ADD DUP5 PUSH2 0x86F JUMP JUMPDEST SWAP3 SWAP2 POP POP JUMP JUMPDEST PUSH1 0x0 DUP2 SWAP1 POP SWAP2 SWAP1 POP JUMP JUMPDEST PUSH1 0x0 PUSH2 0x8BE PUSH2 0x8B9 PUSH2 0x8B4 DUP5 PUSH2 0x83D JUMP JUMPDEST PUSH2 0x899 JUMP JUMPDEST PUSH2 0x83D JUMP JUMPDEST SWAP1 POP SWAP2 SWAP1 POP JUMP JUMPDEST PUSH1 0x0 PUSH2 0x8D0 DUP3 PUSH2 0x8A3 JUMP JUMPDEST SWAP1 POP SWAP2 SWAP1 POP JUMP JUMPDEST PUSH1 0x0 PUSH2 0x8E2 DUP3 PUSH2 0x8C5 JUMP JUMPDEST SWAP1 POP SWAP2 SWAP1 POP JUMP JUMPDEST PUSH2 0x8F2 DUP2 PUSH2 0x8D7 JUMP JUMPDEST DUP3 MSTORE POP POP JUMP JUMPDEST PUSH1 0x0 PUSH1 0x20 DUP3 ADD SWAP1 POP PUSH2 0x90D PUSH1 0x0 DUP4 ADD DUP5 PUSH2 0x8E9 JUMP JUMPDEST SWAP3 SWAP2 POP POP JUMP JUMPDEST PUSH1 0x0 DUP1 REVERT JUMPDEST PUSH1 0x0 DUP2 SWAP1 POP SWAP2 SWAP1 POP JUMP JUMPDEST PUSH2 0x92B DUP2 PUSH2 0x918 JUMP JUMPDEST DUP2 EQ PUSH2 0x936 JUMPI PUSH1 0x0 DUP1 REVERT JUMPDEST POP JUMP JUMPDEST PUSH1 0x0 DUP2 CALLDATALOAD SWAP1 POP PUSH2 0x948 DUP2 PUSH2 0x922 JUMP JUMPDEST SWAP3 SWAP2 POP POP JUMP JUMPDEST PUSH1 0x0 PUSH1 0x20 DUP3 DUP5 SUB SLT ISZERO PUSH2 0x964 JUMPI PUSH2 0x963 PUSH2 0x913 JUMP JUMPDEST JUMPDEST PUSH1 0x0 PUSH2 0x972 DUP5 DUP3 DUP6 ADD PUSH2 0x939 JUMP JUMPDEST SWAP2 POP POP SWAP3 SWAP2 POP POP JUMP JUMPDEST PUSH2 0x984 DUP2 PUSH2 0x918 JUMP JUMPDEST DUP3 MSTORE POP POP JUMP JUMPDEST PUSH1 0x0 PUSH1 0x20 DUP3 ADD SWAP1 POP PUSH2 0x99F PUSH1 0x0 DUP4 ADD DUP5 PUSH2 0x97B JUMP JUMPDEST SWAP3 SWAP2 POP POP JUMP JUMPDEST PUSH1 0x0 PUSH2 0x9B0 DUP3 PUSH2 0x8C5 JUMP JUMPDEST SWAP1 POP SWAP2 SWAP1 POP JUMP JUMPDEST PUSH2 0x9C0 DUP2 PUSH2 0x9A5 JUMP JUMPDEST DUP3 MSTORE POP POP JUMP JUMPDEST PUSH1 0x0 PUSH1 0x20 DUP3 ADD SWAP1 POP PUSH2 0x9DB PUSH1 0x0 DUP4 ADD DUP5 PUSH2 0x9B7 JUMP JUMPDEST SWAP3 SWAP2 POP POP JUMP JUMPDEST PUSH1 0x0 DUP1 PUSH1 0x40 DUP4 DUP6 SUB SLT ISZERO PUSH2 0x9F8 JUMPI PUSH2 0x9F7 PUSH2 0x913 JUMP JUMPDEST JUMPDEST PUSH1 0x0 PUSH2 0xA06 DUP6 DUP3 DUP7 ADD PUSH2 0x939 JUMP JUMPDEST SWAP3 POP POP PUSH1 0x20 PUSH2 0xA17 DUP6 DUP3 DUP7 ADD PUSH2 0x939 JUMP JUMPDEST SWAP2 POP POP SWAP3 POP SWAP3 SWAP1 POP JUMP JUMPDEST PUSH1 0x0 PUSH1 0x40 DUP3 ADD SWAP1 POP PUSH2 0xA36 PUSH1 0x0 DUP4 ADD DUP6 PUSH2 0x86F JUMP JUMPDEST PUSH2 0xA43 PUSH1 0x20 DUP4 ADD DUP5 PUSH2 0x97B JUMP JUMPDEST SWAP4 SWAP3 POP POP POP JUMP JUMPDEST PUSH1 0x0 DUP2 ISZERO ISZERO SWAP1 POP SWAP2 SWAP1 POP JUMP JUMPDEST PUSH2 0xA5F DUP2 PUSH2 0xA4A JUMP JUMPDEST DUP2 EQ PUSH2 0xA6A JUMPI PUSH1 0x0 DUP1 REVERT JUMPDEST POP JUMP JUMPDEST PUSH1 0x0 DUP2 MLOAD SWAP1 POP PUSH2 0xA7C DUP2 PUSH2 0xA56 JUMP JUMPDEST SWAP3 SWAP2 POP POP JUMP JUMPDEST PUSH1 0x0 PUSH1 0x20 DUP3 DUP5 SUB SLT ISZERO PUSH2 0xA98 JUMPI PUSH2 0xA97 PUSH2 0x913 JUMP JUMPDEST JUMPDEST PUSH1 0x0 PUSH2 0xAA6 DUP5 DUP3 DUP6 ADD PUSH2 0xA6D JUMP JUMPDEST SWAP2 POP POP SWAP3 SWAP2 POP POP JUMP JUMPDEST PUSH2 0xAB8 DUP2 PUSH2 0x85D JUMP JUMPDEST DUP3 MSTORE POP POP JUMP JUMPDEST PUSH2 0xAC7 DUP2 PUSH2 0x804 JUMP JUMPDEST DUP3 MSTORE POP POP JUMP JUMPDEST PUSH2 0xAD6 DUP2 PUSH2 0x918 JUMP JUMPDEST DUP3 MSTORE POP POP JUMP JUMPDEST PUSH2 0xAE5 DUP2 PUSH2 0x83D JUMP JUMPDEST DUP3 MSTORE POP POP JUMP JUMPDEST PUSH2 0x100 DUP3 ADD PUSH1 0x0 DUP3 ADD MLOAD PUSH2 0xB02 PUSH1 0x0 DUP6 ADD DUP3 PUSH2 0xAAF JUMP JUMPDEST POP PUSH1 0x20 DUP3 ADD MLOAD PUSH2 0xB15 PUSH1 0x20 DUP6 ADD DUP3 PUSH2 0xAAF JUMP JUMPDEST POP PUSH1 0x40 DUP3 ADD MLOAD PUSH2 0xB28 PUSH1 0x40 DUP6 ADD DUP3 PUSH2 0xABE JUMP JUMPDEST POP PUSH1 0x60 DUP3 ADD MLOAD PUSH2 0xB3B PUSH1 0x60 DUP6 ADD DUP3 PUSH2 0xAAF JUMP JUMPDEST POP PUSH1 0x80 DUP3 ADD MLOAD PUSH2 0xB4E PUSH1 0x80 DUP6 ADD DUP3 PUSH2 0xACD JUMP JUMPDEST POP PUSH1 0xA0 DUP3 ADD MLOAD PUSH2 0xB61 PUSH1 0xA0 DUP6 ADD DUP3 PUSH2 0xACD JUMP JUMPDEST POP PUSH1 0xC0 DUP3 ADD MLOAD PUSH2 0xB74 PUSH1 0xC0 DUP6 ADD DUP3 PUSH2 0xACD JUMP JUMPDEST POP PUSH1 0xE0 DUP3 ADD MLOAD PUSH2 0xB87 PUSH1 0xE0 DUP6 ADD DUP3 PUSH2 0xADC JUMP JUMPDEST POP POP POP POP JUMP JUMPDEST PUSH1 0x0 PUSH2 0x100 DUP3 ADD SWAP1 POP PUSH2 0xBA3 PUSH1 0x0 DUP4 ADD DUP5 PUSH2 0xAEB JUMP JUMPDEST SWAP3 SWAP2 POP POP JUMP JUMPDEST PUSH1 0x0 DUP2 MLOAD SWAP1 POP PUSH2 0xBB8 DUP2 PUSH2 0x922 JUMP JUMPDEST SWAP3 SWAP2 POP POP JUMP JUMPDEST PUSH1 0x0 PUSH1 0x20 DUP3 DUP5 SUB SLT ISZERO PUSH2 0xBD4 JUMPI PUSH2 0xBD3 PUSH2 0x913 JUMP JUMPDEST JUMPDEST PUSH1 0x0 PUSH2 0xBE2 DUP5 DUP3 DUP6 ADD PUSH2 0xBA9 JUMP JUMPDEST SWAP2 POP POP SWAP3 SWAP2 POP POP JUMP JUMPDEST PUSH2 0x100 DUP3 ADD PUSH1 0x0 DUP3 ADD MLOAD PUSH2 0xC02 PUSH1 0x0 DUP6 ADD DUP3 PUSH2 0xAAF JUMP JUMPDEST POP PUSH1 0x20 DUP3 ADD MLOAD PUSH2 0xC15 PUSH1 0x20 DUP6 ADD DUP3 PUSH2 0xAAF JUMP JUMPDEST POP PUSH1 0x40 DUP3 ADD MLOAD PUSH2 0xC28 PUSH1 0x40 DUP6 ADD DUP3 PUSH2 0xABE JUMP JUMPDEST POP PUSH1 0x60 DUP3 ADD MLOAD PUSH2 0xC3B PUSH1 0x60 DUP6 ADD DUP3 PUSH2 0xAAF JUMP JUMPDEST POP PUSH1 0x80 DUP3 ADD MLOAD PUSH2 0xC4E PUSH1 0x80 DUP6 ADD DUP3 PUSH2 0xACD JUMP JUMPDEST POP PUSH1 0xA0 DUP3 ADD MLOAD PUSH2 0xC61 PUSH1 0xA0 DUP6 ADD DUP3 PUSH2 0xACD JUMP JUMPDEST POP PUSH1 0xC0 DUP3 ADD MLOAD PUSH2 0xC74 PUSH1 0xC0 DUP6 ADD DUP3 PUSH2 0xACD JUMP JUMPDEST POP PUSH1 0xE0 DUP3 ADD MLOAD PUSH2 0xC87 PUSH1 0xE0 DUP6 ADD DUP3 PUSH2 0xADC JUMP JUMPDEST POP POP POP POP JUMP JUMPDEST PUSH1 0x0 PUSH2 0x100 DUP3 ADD SWAP1 POP PUSH2 0xCA3 PUSH1 0x0 DUP4 ADD DUP5 PUSH2 0xBEB JUMP JUMPDEST SWAP3 SWAP2 POP POP JUMP JUMPDEST PUSH1 0x0 DUP2 SWAP1 POP SWAP2 SWAP1 POP JUMP JUMPDEST PUSH1 0x0 PUSH2 0xCCE PUSH2 0xCC9 PUSH2 0xCC4 DUP5 PUSH2 0xCA9 JUMP JUMPDEST PUSH2 0x899 JUMP JUMPDEST PUSH2 0x918 JUMP JUMPDEST SWAP1 POP SWAP2 SWAP1 POP JUMP JUMPDEST PUSH2 0xCDE DUP2 PUSH2 0xCB3 JUMP JUMPDEST DUP3 MSTORE POP POP JUMP JUMPDEST PUSH1 0x0 PUSH1 0x40 DUP3 ADD SWAP1 POP PUSH2 0xCF9 PUSH1 0x0 DUP4 ADD DUP6 PUSH2 0x86F JUMP JUMPDEST PUSH2 0xD06 PUSH1 0x20 DUP4 ADD DUP5 PUSH2 0xCD5 JUMP JUMPDEST SWAP4 SWAP3 POP POP POP JUMP JUMPDEST PUSH32 0x4E487B7100000000000000000000000000000000000000000000000000000000 PUSH1 0x0 MSTORE PUSH1 0x11 PUSH1 0x4 MSTORE PUSH1 0x24 PUSH1 0x0 REVERT JUMPDEST PUSH1 0x0 PUSH2 0xD47 DUP3 PUSH2 0x918 JUMP JUMPDEST SWAP2 POP PUSH2 0xD52 DUP4 PUSH2 0x918 JUMP JUMPDEST SWAP3 POP DUP3 DUP3 SUB SWAP1 POP DUP2 DUP2 GT ISZERO PUSH2 0xD6A JUMPI PUSH2 0xD69 PUSH2 0xD0D JUMP JUMPDEST JUMPDEST SWAP3 SWAP2 POP POP JUMP INVALID LOG2 PUSH5 0x6970667358 0x22 SLT KECCAK256 NOT 0x25 DELEGATECALL 0xB1 REVERT CALLVALUE JUMPDEST PUSH30 0x2BCC404287DD2526AD6604EEB17A88DEDA7422409D86A48164736F6C6343 STOP ADDMOD GT STOP CALLER "
				},
				"gasEstimates": {
					"creation": {
						"codeDepositCost": "698800",
						"executionCost": "infinite",
						"totalCost": "infinite"
					},
					"external": {
						"DAI()": "444",
						"LINK()": "401",
						"linkToken()": "infinite",
						"poolFee()": "336",
						"routerAddress()": "423",
						"swapExactInputSingle(uint256)": "infinite",
						"swapExactOutputSingle(uint256,uint256)": "infinite",
						"swapRouter()": "infinite"
					}
				},
				"methodIdentifiers": {
					"DAI()": "e0bab4c4",
					"LINK()": "1b6b6d23",
					"linkToken()": "57970e93",
					"poolFee()": "089fe6aa",
					"routerAddress()": "3268cc56",
					"swapExactInputSingle(uint256)": "73bd43ad",
					"swapExactOutputSingle(uint256,uint256)": "c4b69a18",
					"swapRouter()": "c31c9c07"
				}
			},
			"storageLayout": {
				"storage": [
					{
						"astId": 164,
						"contract": "contracts/Alyra/UniswapTest.sol:UniswapTest",
						"label": "linkToken",
						"offset": 0,
						"slot": "0",
						"type": "t_contract(IERC20)143"
					}
				],
				"types": {
					"t_contract(IERC20)143": {
						"encoding": "inplace",
						"label": "contract IERC20",
						"numberOfBytes": "20"
					}
				}
			},
			"userdoc": {
				"kind": "user",
				"methods": {},
				"version": 1
			}
		}
	}
}