{
	"contracts/Alyra/Exceptions.sol": {
		"Bob": {
			"abi": [
				{
					"inputs": [
						{
							"internalType": "contract Alice",
							"name": "c",
							"type": "address"
						}
					],
					"name": "pong",
					"outputs": [],
					"stateMutability": "nonpayable",
					"type": "function"
				}
			],
			"devdoc": {
				"kind": "dev",
				"methods": {},
				"version": 1
			},
			"evm": {
				"assembly": "    /* \"contracts/Alyra/Exceptions.sol\":69:195  contract Bob   {... */\n  mstore(0x40, 0x80)\n    /* \"contracts/Alyra/Exceptions.sol\":99:100  0 */\n  0x00\n    /* \"contracts/Alyra/Exceptions.sol\":90:100  uint x = 0 */\n  dup1\n  sstore\n    /* \"contracts/Alyra/Exceptions.sol\":69:195  contract Bob   {... */\n  callvalue\n  dup1\n  iszero\n  tag_1\n  jumpi\n  0x00\n  dup1\n  revert\ntag_1:\n  pop\n  dataSize(sub_0)\n  dup1\n  dataOffset(sub_0)\n  0x00\n  codecopy\n  0x00\n  return\nstop\n\nsub_0: assembly {\n        /* \"contracts/Alyra/Exceptions.sol\":69:195  contract Bob   {... */\n      mstore(0x40, 0x80)\n      callvalue\n      dup1\n      iszero\n      tag_1\n      jumpi\n      0x00\n      dup1\n      revert\n    tag_1:\n      pop\n      jumpi(tag_2, lt(calldatasize, 0x04))\n      shr(0xe0, calldataload(0x00))\n      dup1\n      0xa0145f1d\n      eq\n      tag_3\n      jumpi\n    tag_2:\n      0x00\n      dup1\n      revert\n        /* \"contracts/Alyra/Exceptions.sol\":106:192  function pong(Alice c) public{... */\n    tag_3:\n      tag_4\n      0x04\n      dup1\n      calldatasize\n      sub\n      dup2\n      add\n      swap1\n      tag_5\n      swap2\n      swap1\n      tag_6\n      jump\t// in\n    tag_5:\n      tag_7\n      jump\t// in\n    tag_4:\n      stop\n    tag_7:\n        /* \"contracts/Alyra/Exceptions.sol\":149:150  1 */\n      0x01\n        /* \"contracts/Alyra/Exceptions.sol\":145:146  x */\n      0x00\n        /* \"contracts/Alyra/Exceptions.sol\":145:150  x = 1 */\n      dup2\n      swap1\n      sstore\n      pop\n        /* \"contracts/Alyra/Exceptions.sol\":160:161  c */\n      dup1\n        /* \"contracts/Alyra/Exceptions.sol\":160:166  c.ping */\n      0xffffffffffffffffffffffffffffffffffffffff\n      and\n      0x773acdef\n        /* \"contracts/Alyra/Exceptions.sol\":167:169  42 */\n      0x2a\n        /* \"contracts/Alyra/Exceptions.sol\":160:170  c.ping(42) */\n      mload(0x40)\n      dup3\n      0xffffffff\n      and\n      0xe0\n      shl\n      dup2\n      mstore\n      0x04\n      add\n      tag_9\n      swap2\n      swap1\n      tag_10\n      jump\t// in\n    tag_9:\n      0x20\n      mload(0x40)\n      dup1\n      dup4\n      sub\n      dup2\n      0x00\n      dup8\n      gas\n      call\n      iszero\n      dup1\n      iszero\n      tag_12\n      jumpi\n      returndatasize\n      0x00\n      dup1\n      returndatacopy\n      revert(0x00, returndatasize)\n    tag_12:\n      pop\n      pop\n      pop\n      pop\n      mload(0x40)\n      returndatasize\n      not(0x1f)\n      0x1f\n      dup3\n      add\n      and\n      dup3\n      add\n      dup1\n      0x40\n      mstore\n      pop\n      dup2\n      add\n      swap1\n      tag_13\n      swap2\n      swap1\n      tag_14\n      jump\t// in\n    tag_13:\n      pop\n        /* \"contracts/Alyra/Exceptions.sol\":184:185  2 */\n      0x02\n        /* \"contracts/Alyra/Exceptions.sol\":180:181  x */\n      0x00\n        /* \"contracts/Alyra/Exceptions.sol\":180:185  x = 2 */\n      dup2\n      swap1\n      sstore\n      pop\n        /* \"contracts/Alyra/Exceptions.sol\":106:192  function pong(Alice c) public{... */\n      pop\n      jump\t// out\n        /* \"#utility.yul\":88:205   */\n    tag_16:\n        /* \"#utility.yul\":197:198   */\n      0x00\n        /* \"#utility.yul\":194:195   */\n      dup1\n        /* \"#utility.yul\":187:199   */\n      revert\n        /* \"#utility.yul\":334:460   */\n    tag_18:\n        /* \"#utility.yul\":371:378   */\n      0x00\n        /* \"#utility.yul\":411:453   */\n      0xffffffffffffffffffffffffffffffffffffffff\n        /* \"#utility.yul\":404:409   */\n      dup3\n        /* \"#utility.yul\":400:454   */\n      and\n        /* \"#utility.yul\":389:454   */\n      swap1\n      pop\n        /* \"#utility.yul\":334:460   */\n      swap2\n      swap1\n      pop\n      jump\t// out\n        /* \"#utility.yul\":466:562   */\n    tag_19:\n        /* \"#utility.yul\":503:510   */\n      0x00\n        /* \"#utility.yul\":532:556   */\n      tag_36\n        /* \"#utility.yul\":550:555   */\n      dup3\n        /* \"#utility.yul\":532:556   */\n      tag_18\n      jump\t// in\n    tag_36:\n        /* \"#utility.yul\":521:556   */\n      swap1\n      pop\n        /* \"#utility.yul\":466:562   */\n      swap2\n      swap1\n      pop\n      jump\t// out\n        /* \"#utility.yul\":568:675   */\n    tag_20:\n        /* \"#utility.yul\":616:623   */\n      0x00\n        /* \"#utility.yul\":645:669   */\n      tag_38\n        /* \"#utility.yul\":663:668   */\n      dup3\n        /* \"#utility.yul\":645:669   */\n      tag_19\n      jump\t// in\n    tag_38:\n        /* \"#utility.yul\":634:669   */\n      swap1\n      pop\n        /* \"#utility.yul\":568:675   */\n      swap2\n      swap1\n      pop\n      jump\t// out\n        /* \"#utility.yul\":681:825   */\n    tag_21:\n        /* \"#utility.yul\":765:800   */\n      tag_40\n        /* \"#utility.yul\":794:799   */\n      dup2\n        /* \"#utility.yul\":765:800   */\n      tag_20\n      jump\t// in\n    tag_40:\n        /* \"#utility.yul\":758:763   */\n      dup2\n        /* \"#utility.yul\":755:801   */\n      eq\n        /* \"#utility.yul\":745:819   */\n      tag_41\n      jumpi\n        /* \"#utility.yul\":815:816   */\n      0x00\n        /* \"#utility.yul\":812:813   */\n      dup1\n        /* \"#utility.yul\":805:817   */\n      revert\n        /* \"#utility.yul\":745:819   */\n    tag_41:\n        /* \"#utility.yul\":681:825   */\n      pop\n      jump\t// out\n        /* \"#utility.yul\":831:992   */\n    tag_22:\n        /* \"#utility.yul\":888:893   */\n      0x00\n        /* \"#utility.yul\":926:932   */\n      dup2\n        /* \"#utility.yul\":913:933   */\n      calldataload\n        /* \"#utility.yul\":904:933   */\n      swap1\n      pop\n        /* \"#utility.yul\":942:986   */\n      tag_43\n        /* \"#utility.yul\":980:985   */\n      dup2\n        /* \"#utility.yul\":942:986   */\n      tag_21\n      jump\t// in\n    tag_43:\n        /* \"#utility.yul\":831:992   */\n      swap3\n      swap2\n      pop\n      pop\n      jump\t// out\n        /* \"#utility.yul\":998:1349   */\n    tag_6:\n        /* \"#utility.yul\":1068:1074   */\n      0x00\n        /* \"#utility.yul\":1117:1119   */\n      0x20\n        /* \"#utility.yul\":1105:1114   */\n      dup3\n        /* \"#utility.yul\":1096:1103   */\n      dup5\n        /* \"#utility.yul\":1092:1115   */\n      sub\n        /* \"#utility.yul\":1088:1120   */\n      slt\n        /* \"#utility.yul\":1085:1204   */\n      iszero\n      tag_45\n      jumpi\n        /* \"#utility.yul\":1123:1202   */\n      tag_46\n      tag_16\n      jump\t// in\n    tag_46:\n        /* \"#utility.yul\":1085:1204   */\n    tag_45:\n        /* \"#utility.yul\":1243:1244   */\n      0x00\n        /* \"#utility.yul\":1268:1332   */\n      tag_47\n        /* \"#utility.yul\":1324:1331   */\n      dup5\n        /* \"#utility.yul\":1315:1321   */\n      dup3\n        /* \"#utility.yul\":1304:1313   */\n      dup6\n        /* \"#utility.yul\":1300:1322   */\n      add\n        /* \"#utility.yul\":1268:1332   */\n      tag_22\n      jump\t// in\n    tag_47:\n        /* \"#utility.yul\":1258:1332   */\n      swap2\n      pop\n        /* \"#utility.yul\":1214:1342   */\n      pop\n        /* \"#utility.yul\":998:1349   */\n      swap3\n      swap2\n      pop\n      pop\n      jump\t// out\n        /* \"#utility.yul\":1355:1441   */\n    tag_23:\n        /* \"#utility.yul\":1401:1408   */\n      0x00\n        /* \"#utility.yul\":1430:1435   */\n      dup2\n        /* \"#utility.yul\":1419:1435   */\n      swap1\n      pop\n        /* \"#utility.yul\":1355:1441   */\n      swap2\n      swap1\n      pop\n      jump\t// out\n        /* \"#utility.yul\":1447:1524   */\n    tag_24:\n        /* \"#utility.yul\":1484:1491   */\n      0x00\n        /* \"#utility.yul\":1513:1518   */\n      dup2\n        /* \"#utility.yul\":1502:1518   */\n      swap1\n      pop\n        /* \"#utility.yul\":1447:1524   */\n      swap2\n      swap1\n      pop\n      jump\t// out\n        /* \"#utility.yul\":1530:1590   */\n    tag_25:\n        /* \"#utility.yul\":1558:1561   */\n      0x00\n        /* \"#utility.yul\":1579:1584   */\n      dup2\n        /* \"#utility.yul\":1572:1584   */\n      swap1\n      pop\n        /* \"#utility.yul\":1530:1590   */\n      swap2\n      swap1\n      pop\n      jump\t// out\n        /* \"#utility.yul\":1596:1756   */\n    tag_26:\n        /* \"#utility.yul\":1655:1664   */\n      0x00\n        /* \"#utility.yul\":1688:1750   */\n      tag_52\n        /* \"#utility.yul\":1706:1749   */\n      tag_53\n        /* \"#utility.yul\":1715:1748   */\n      tag_54\n        /* \"#utility.yul\":1742:1747   */\n      dup5\n        /* \"#utility.yul\":1715:1748   */\n      tag_23\n      jump\t// in\n    tag_54:\n        /* \"#utility.yul\":1706:1749   */\n      tag_25\n      jump\t// in\n    tag_53:\n        /* \"#utility.yul\":1688:1750   */\n      tag_24\n      jump\t// in\n    tag_52:\n        /* \"#utility.yul\":1675:1750   */\n      swap1\n      pop\n        /* \"#utility.yul\":1596:1756   */\n      swap2\n      swap1\n      pop\n      jump\t// out\n        /* \"#utility.yul\":1762:1911   */\n    tag_27:\n        /* \"#utility.yul\":1858:1904   */\n      tag_56\n        /* \"#utility.yul\":1898:1903   */\n      dup2\n        /* \"#utility.yul\":1858:1904   */\n      tag_26\n      jump\t// in\n    tag_56:\n        /* \"#utility.yul\":1853:1856   */\n      dup3\n        /* \"#utility.yul\":1846:1905   */\n      mstore\n        /* \"#utility.yul\":1762:1911   */\n      pop\n      pop\n      jump\t// out\n        /* \"#utility.yul\":1917:2157   */\n    tag_10:\n        /* \"#utility.yul\":2019:2023   */\n      0x00\n        /* \"#utility.yul\":2057:2059   */\n      0x20\n        /* \"#utility.yul\":2046:2055   */\n      dup3\n        /* \"#utility.yul\":2042:2060   */\n      add\n        /* \"#utility.yul\":2034:2060   */\n      swap1\n      pop\n        /* \"#utility.yul\":2070:2150   */\n      tag_58\n        /* \"#utility.yul\":2147:2148   */\n      0x00\n        /* \"#utility.yul\":2136:2145   */\n      dup4\n        /* \"#utility.yul\":2132:2149   */\n      add\n        /* \"#utility.yul\":2123:2129   */\n      dup5\n        /* \"#utility.yul\":2070:2150   */\n      tag_27\n      jump\t// in\n    tag_58:\n        /* \"#utility.yul\":1917:2157   */\n      swap3\n      swap2\n      pop\n      pop\n      jump\t// out\n        /* \"#utility.yul\":2163:2285   */\n    tag_28:\n        /* \"#utility.yul\":2236:2260   */\n      tag_60\n        /* \"#utility.yul\":2254:2259   */\n      dup2\n        /* \"#utility.yul\":2236:2260   */\n      tag_24\n      jump\t// in\n    tag_60:\n        /* \"#utility.yul\":2229:2234   */\n      dup2\n        /* \"#utility.yul\":2226:2261   */\n      eq\n        /* \"#utility.yul\":2216:2279   */\n      tag_61\n      jumpi\n        /* \"#utility.yul\":2275:2276   */\n      0x00\n        /* \"#utility.yul\":2272:2273   */\n      dup1\n        /* \"#utility.yul\":2265:2277   */\n      revert\n        /* \"#utility.yul\":2216:2279   */\n    tag_61:\n        /* \"#utility.yul\":2163:2285   */\n      pop\n      jump\t// out\n        /* \"#utility.yul\":2291:2434   */\n    tag_29:\n        /* \"#utility.yul\":2348:2353   */\n      0x00\n        /* \"#utility.yul\":2379:2385   */\n      dup2\n        /* \"#utility.yul\":2373:2386   */\n      mload\n        /* \"#utility.yul\":2364:2386   */\n      swap1\n      pop\n        /* \"#utility.yul\":2395:2428   */\n      tag_63\n        /* \"#utility.yul\":2422:2427   */\n      dup2\n        /* \"#utility.yul\":2395:2428   */\n      tag_28\n      jump\t// in\n    tag_63:\n        /* \"#utility.yul\":2291:2434   */\n      swap3\n      swap2\n      pop\n      pop\n      jump\t// out\n        /* \"#utility.yul\":2440:2791   */\n    tag_14:\n        /* \"#utility.yul\":2510:2516   */\n      0x00\n        /* \"#utility.yul\":2559:2561   */\n      0x20\n        /* \"#utility.yul\":2547:2556   */\n      dup3\n        /* \"#utility.yul\":2538:2545   */\n      dup5\n        /* \"#utility.yul\":2534:2557   */\n      sub\n        /* \"#utility.yul\":2530:2562   */\n      slt\n        /* \"#utility.yul\":2527:2646   */\n      iszero\n      tag_65\n      jumpi\n        /* \"#utility.yul\":2565:2644   */\n      tag_66\n      tag_16\n      jump\t// in\n    tag_66:\n        /* \"#utility.yul\":2527:2646   */\n    tag_65:\n        /* \"#utility.yul\":2685:2686   */\n      0x00\n        /* \"#utility.yul\":2710:2774   */\n      tag_67\n        /* \"#utility.yul\":2766:2773   */\n      dup5\n        /* \"#utility.yul\":2757:2763   */\n      dup3\n        /* \"#utility.yul\":2746:2755   */\n      dup6\n        /* \"#utility.yul\":2742:2764   */\n      add\n        /* \"#utility.yul\":2710:2774   */\n      tag_29\n      jump\t// in\n    tag_67:\n        /* \"#utility.yul\":2700:2774   */\n      swap2\n      pop\n        /* \"#utility.yul\":2656:2784   */\n      pop\n        /* \"#utility.yul\":2440:2791   */\n      swap3\n      swap2\n      pop\n      pop\n      jump\t// out\n\n    auxdata: 0xa2646970667358221220266cfba4ac10d253b61f5806dca059219abf79d152933d471d56645b93ba63fd64736f6c634300080c0033\n}\n",
				"bytecode": {
					"linkReferences": {},
					"object": "60806040526000805534801561001457600080fd5b50610278806100246000396000f3fe608060405234801561001057600080fd5b506004361061002b5760003560e01c8063a0145f1d14610030575b600080fd5b61004a60048036038101906100459190610152565b61004c565b005b60016000819055508073ffffffffffffffffffffffffffffffffffffffff1663773acdef602a6040518263ffffffff1660e01b815260040161008e91906101ce565b6020604051808303816000875af11580156100ad573d6000803e3d6000fd5b505050506040513d601f19601f820116820180604052508101906100d19190610215565b50600260008190555050565b600080fd5b600073ffffffffffffffffffffffffffffffffffffffff82169050919050565b600061010d826100e2565b9050919050565b600061011f82610102565b9050919050565b61012f81610114565b811461013a57600080fd5b50565b60008135905061014c81610126565b92915050565b600060208284031215610168576101676100dd565b5b60006101768482850161013d565b91505092915050565b6000819050919050565b6000819050919050565b6000819050919050565b60006101b86101b36101ae8461017f565b610193565b610189565b9050919050565b6101c88161019d565b82525050565b60006020820190506101e360008301846101bf565b92915050565b6101f281610189565b81146101fd57600080fd5b50565b60008151905061020f816101e9565b92915050565b60006020828403121561022b5761022a6100dd565b5b600061023984828501610200565b9150509291505056fea2646970667358221220266cfba4ac10d253b61f5806dca059219abf79d152933d471d56645b93ba63fd64736f6c634300080c0033",
					"opcodes": "PUSH1 0x80 PUSH1 0x40 MSTORE PUSH1 0x0 DUP1 SSTORE CALLVALUE DUP1 ISZERO PUSH2 0x14 JUMPI PUSH1 0x0 DUP1 REVERT JUMPDEST POP PUSH2 0x278 DUP1 PUSH2 0x24 PUSH1 0x0 CODECOPY PUSH1 0x0 RETURN INVALID PUSH1 0x80 PUSH1 0x40 MSTORE CALLVALUE DUP1 ISZERO PUSH2 0x10 JUMPI PUSH1 0x0 DUP1 REVERT JUMPDEST POP PUSH1 0x4 CALLDATASIZE LT PUSH2 0x2B JUMPI PUSH1 0x0 CALLDATALOAD PUSH1 0xE0 SHR DUP1 PUSH4 0xA0145F1D EQ PUSH2 0x30 JUMPI JUMPDEST PUSH1 0x0 DUP1 REVERT JUMPDEST PUSH2 0x4A PUSH1 0x4 DUP1 CALLDATASIZE SUB DUP2 ADD SWAP1 PUSH2 0x45 SWAP2 SWAP1 PUSH2 0x152 JUMP JUMPDEST PUSH2 0x4C JUMP JUMPDEST STOP JUMPDEST PUSH1 0x1 PUSH1 0x0 DUP2 SWAP1 SSTORE POP DUP1 PUSH20 0xFFFFFFFFFFFFFFFFFFFFFFFFFFFFFFFFFFFFFFFF AND PUSH4 0x773ACDEF PUSH1 0x2A PUSH1 0x40 MLOAD DUP3 PUSH4 0xFFFFFFFF AND PUSH1 0xE0 SHL DUP2 MSTORE PUSH1 0x4 ADD PUSH2 0x8E SWAP2 SWAP1 PUSH2 0x1CE JUMP JUMPDEST PUSH1 0x20 PUSH1 0x40 MLOAD DUP1 DUP4 SUB DUP2 PUSH1 0x0 DUP8 GAS CALL ISZERO DUP1 ISZERO PUSH2 0xAD JUMPI RETURNDATASIZE PUSH1 0x0 DUP1 RETURNDATACOPY RETURNDATASIZE PUSH1 0x0 REVERT JUMPDEST POP POP POP POP PUSH1 0x40 MLOAD RETURNDATASIZE PUSH1 0x1F NOT PUSH1 0x1F DUP3 ADD AND DUP3 ADD DUP1 PUSH1 0x40 MSTORE POP DUP2 ADD SWAP1 PUSH2 0xD1 SWAP2 SWAP1 PUSH2 0x215 JUMP JUMPDEST POP PUSH1 0x2 PUSH1 0x0 DUP2 SWAP1 SSTORE POP POP JUMP JUMPDEST PUSH1 0x0 DUP1 REVERT JUMPDEST PUSH1 0x0 PUSH20 0xFFFFFFFFFFFFFFFFFFFFFFFFFFFFFFFFFFFFFFFF DUP3 AND SWAP1 POP SWAP2 SWAP1 POP JUMP JUMPDEST PUSH1 0x0 PUSH2 0x10D DUP3 PUSH2 0xE2 JUMP JUMPDEST SWAP1 POP SWAP2 SWAP1 POP JUMP JUMPDEST PUSH1 0x0 PUSH2 0x11F DUP3 PUSH2 0x102 JUMP JUMPDEST SWAP1 POP SWAP2 SWAP1 POP JUMP JUMPDEST PUSH2 0x12F DUP2 PUSH2 0x114 JUMP JUMPDEST DUP2 EQ PUSH2 0x13A JUMPI PUSH1 0x0 DUP1 REVERT JUMPDEST POP JUMP JUMPDEST PUSH1 0x0 DUP2 CALLDATALOAD SWAP1 POP PUSH2 0x14C DUP2 PUSH2 0x126 JUMP JUMPDEST SWAP3 SWAP2 POP POP JUMP JUMPDEST PUSH1 0x0 PUSH1 0x20 DUP3 DUP5 SUB SLT ISZERO PUSH2 0x168 JUMPI PUSH2 0x167 PUSH2 0xDD JUMP JUMPDEST JUMPDEST PUSH1 0x0 PUSH2 0x176 DUP5 DUP3 DUP6 ADD PUSH2 0x13D JUMP JUMPDEST SWAP2 POP POP SWAP3 SWAP2 POP POP JUMP JUMPDEST PUSH1 0x0 DUP2 SWAP1 POP SWAP2 SWAP1 POP JUMP JUMPDEST PUSH1 0x0 DUP2 SWAP1 POP SWAP2 SWAP1 POP JUMP JUMPDEST PUSH1 0x0 DUP2 SWAP1 POP SWAP2 SWAP1 POP JUMP JUMPDEST PUSH1 0x0 PUSH2 0x1B8 PUSH2 0x1B3 PUSH2 0x1AE DUP5 PUSH2 0x17F JUMP JUMPDEST PUSH2 0x193 JUMP JUMPDEST PUSH2 0x189 JUMP JUMPDEST SWAP1 POP SWAP2 SWAP1 POP JUMP JUMPDEST PUSH2 0x1C8 DUP2 PUSH2 0x19D JUMP JUMPDEST DUP3 MSTORE POP POP JUMP JUMPDEST PUSH1 0x0 PUSH1 0x20 DUP3 ADD SWAP1 POP PUSH2 0x1E3 PUSH1 0x0 DUP4 ADD DUP5 PUSH2 0x1BF JUMP JUMPDEST SWAP3 SWAP2 POP POP JUMP JUMPDEST PUSH2 0x1F2 DUP2 PUSH2 0x189 JUMP JUMPDEST DUP2 EQ PUSH2 0x1FD JUMPI PUSH1 0x0 DUP1 REVERT JUMPDEST POP JUMP JUMPDEST PUSH1 0x0 DUP2 MLOAD SWAP1 POP PUSH2 0x20F DUP2 PUSH2 0x1E9 JUMP JUMPDEST SWAP3 SWAP2 POP POP JUMP JUMPDEST PUSH1 0x0 PUSH1 0x20 DUP3 DUP5 SUB SLT ISZERO PUSH2 0x22B JUMPI PUSH2 0x22A PUSH2 0xDD JUMP JUMPDEST JUMPDEST PUSH1 0x0 PUSH2 0x239 DUP5 DUP3 DUP6 ADD PUSH2 0x200 JUMP JUMPDEST SWAP2 POP POP SWAP3 SWAP2 POP POP JUMP INVALID LOG2 PUSH5 0x6970667358 0x22 SLT KECCAK256 0x26 PUSH13 0xFBA4AC10D253B61F5806DCA059 0x21 SWAP11 0xBF PUSH26 0xD152933D471D56645B93BA63FD64736F6C634300080C00330000 "
				},
				"gasEstimates": {
					"creation": {
						"codeDepositCost": "126400",
						"executionCost": "5177",
						"totalCost": "131577"
					},
					"external": {
						"pong(address)": "infinite"
					}
				},
				"methodIdentifiers": {
					"pong(address)": "a0145f1d"
				}
			},
			"storageLayout": {
				"storage": [
					{
						"astId": 12,
						"contract": "contracts/Alyra/Exceptions.sol:Bob",
						"label": "x",
						"offset": 0,
						"slot": "0",
						"type": "t_uint256"
					}
				],
				"types": {
					"t_uint256": {
						"encoding": "inplace",
						"label": "uint256",
						"numberOfBytes": "32"
					}
				}
			},
			"userdoc": {
				"kind": "user",
				"methods": {},
				"version": 1
			}
		}
	}
}