{
	"contracts/Alyra/Voting.sol": {
		"Voting": {
			"abi": [
				{
					"anonymous": false,
					"inputs": [
						{
							"indexed": true,
							"internalType": "address",
							"name": "previousOwner",
							"type": "address"
						},
						{
							"indexed": true,
							"internalType": "address",
							"name": "newOwner",
							"type": "address"
						}
					],
					"name": "OwnershipTransferred",
					"type": "event"
				},
				{
					"anonymous": false,
					"inputs": [
						{
							"indexed": false,
							"internalType": "uint256",
							"name": "proposalId",
							"type": "uint256"
						}
					],
					"name": "ProposalRegistered",
					"type": "event"
				},
				{
					"anonymous": false,
					"inputs": [
						{
							"indexed": false,
							"internalType": "address",
							"name": "voter",
							"type": "address"
						},
						{
							"indexed": false,
							"internalType": "uint256",
							"name": "proposalId",
							"type": "uint256"
						}
					],
					"name": "Voted",
					"type": "event"
				},
				{
					"anonymous": false,
					"inputs": [
						{
							"indexed": false,
							"internalType": "address",
							"name": "voterAddress",
							"type": "address"
						}
					],
					"name": "VoterRegistered",
					"type": "event"
				},
				{
					"anonymous": false,
					"inputs": [
						{
							"indexed": false,
							"internalType": "enum Voting.WorkflowStatus",
							"name": "previousStatus",
							"type": "uint8"
						},
						{
							"indexed": false,
							"internalType": "enum Voting.WorkflowStatus",
							"name": "newStatus",
							"type": "uint8"
						}
					],
					"name": "WorkflowStatusChange",
					"type": "event"
				},
				{
					"inputs": [],
					"name": "endProposalsRegistration",
					"outputs": [],
					"stateMutability": "nonpayable",
					"type": "function"
				},
				{
					"inputs": [],
					"name": "endVotingSession",
					"outputs": [],
					"stateMutability": "nonpayable",
					"type": "function"
				},
				{
					"inputs": [],
					"name": "getWinner",
					"outputs": [
						{
							"components": [
								{
									"internalType": "string",
									"name": "description",
									"type": "string"
								},
								{
									"internalType": "uint256",
									"name": "voteCount",
									"type": "uint256"
								}
							],
							"internalType": "struct Voting.Proposal",
							"name": "",
							"type": "tuple"
						}
					],
					"stateMutability": "view",
					"type": "function"
				},
				{
					"inputs": [],
					"name": "owner",
					"outputs": [
						{
							"internalType": "address",
							"name": "",
							"type": "address"
						}
					],
					"stateMutability": "view",
					"type": "function"
				},
				{
					"inputs": [
						{
							"internalType": "uint256",
							"name": "",
							"type": "uint256"
						}
					],
					"name": "proposals",
					"outputs": [
						{
							"internalType": "string",
							"name": "description",
							"type": "string"
						},
						{
							"internalType": "uint256",
							"name": "voteCount",
							"type": "uint256"
						}
					],
					"stateMutability": "view",
					"type": "function"
				},
				{
					"inputs": [
						{
							"internalType": "string",
							"name": "proposalDescription",
							"type": "string"
						}
					],
					"name": "registerProposals",
					"outputs": [],
					"stateMutability": "nonpayable",
					"type": "function"
				},
				{
					"inputs": [
						{
							"internalType": "address",
							"name": "_voterAddress",
							"type": "address"
						}
					],
					"name": "registerVoters",
					"outputs": [],
					"stateMutability": "nonpayable",
					"type": "function"
				},
				{
					"inputs": [],
					"name": "renounceOwnership",
					"outputs": [],
					"stateMutability": "nonpayable",
					"type": "function"
				},
				{
					"inputs": [],
					"name": "startProposalsRegistration",
					"outputs": [],
					"stateMutability": "nonpayable",
					"type": "function"
				},
				{
					"inputs": [],
					"name": "startVotingSession",
					"outputs": [],
					"stateMutability": "nonpayable",
					"type": "function"
				},
				{
					"inputs": [
						{
							"internalType": "address",
							"name": "newOwner",
							"type": "address"
						}
					],
					"name": "transferOwnership",
					"outputs": [],
					"stateMutability": "nonpayable",
					"type": "function"
				},
				{
					"inputs": [
						{
							"internalType": "uint256",
							"name": "proposalId",
							"type": "uint256"
						}
					],
					"name": "vote",
					"outputs": [],
					"stateMutability": "nonpayable",
					"type": "function"
				},
				{
					"inputs": [],
					"name": "votesTallied",
					"outputs": [],
					"stateMutability": "nonpayable",
					"type": "function"
				},
				{
					"inputs": [],
					"name": "workflowStatus",
					"outputs": [
						{
							"internalType": "enum Voting.WorkflowStatus",
							"name": "",
							"type": "uint8"
						}
					],
					"stateMutability": "view",
					"type": "function"
				}
			],
			"devdoc": {
				"kind": "dev",
				"methods": {
					"owner()": {
						"details": "Returns the address of the current owner."
					},
					"renounceOwnership()": {
						"details": "Leaves the contract without owner. It will not be possible to call `onlyOwner` functions anymore. Can only be called by the current owner. NOTE: Renouncing ownership will leave the contract without an owner, thereby removing any functionality that is only available to the owner."
					},
					"transferOwnership(address)": {
						"details": "Transfers ownership of the contract to a new account (`newOwner`). Can only be called by the current owner."
					}
				},
				"version": 1
			},
			"evm": {
				"assembly": "    /* \"contracts/Alyra/Voting.sol\":169:4213  contract Voting is Ownable {... */\n  mstore(0x40, 0x80)\n  callvalue\n  dup1\n  iszero\n  tag_1\n  jumpi\n  0x00\n  dup1\n  revert\ntag_1:\n  pop\n    /* \"https://github.com/OpenZeppelin/openzeppelin-contracts/blob/master/contracts/access/Ownable.sol\":936:968  _transferOwnership(_msgSender()) */\n  tag_4\n    /* \"https://github.com/OpenZeppelin/openzeppelin-contracts/blob/master/contracts/access/Ownable.sol\":955:967  _msgSender() */\n  tag_5\n    /* \"https://github.com/OpenZeppelin/openzeppelin-contracts/blob/master/contracts/access/Ownable.sol\":955:965  _msgSender */\n  shl(0x20, tag_6)\n    /* \"https://github.com/OpenZeppelin/openzeppelin-contracts/blob/master/contracts/access/Ownable.sol\":955:967  _msgSender() */\n  0x20\n  shr\n  jump\t// in\ntag_5:\n    /* \"https://github.com/OpenZeppelin/openzeppelin-contracts/blob/master/contracts/access/Ownable.sol\":936:954  _transferOwnership */\n  shl(0x20, tag_7)\n    /* \"https://github.com/OpenZeppelin/openzeppelin-contracts/blob/master/contracts/access/Ownable.sol\":936:968  _transferOwnership(_msgSender()) */\n  0x20\n  shr\n  jump\t// in\ntag_4:\n    /* \"contracts/Alyra/Voting.sol\":169:4213  contract Voting is Ownable {... */\n  jump(tag_8)\n    /* \"https://github.com/OpenZeppelin/openzeppelin-contracts/blob/master/contracts/utils/Context.sol\":640:736  function _msgSender() internal view virtual returns (address) {... */\ntag_6:\n    /* \"https://github.com/OpenZeppelin/openzeppelin-contracts/blob/master/contracts/utils/Context.sol\":693:700  address */\n  0x00\n    /* \"https://github.com/OpenZeppelin/openzeppelin-contracts/blob/master/contracts/utils/Context.sol\":719:729  msg.sender */\n  caller\n    /* \"https://github.com/OpenZeppelin/openzeppelin-contracts/blob/master/contracts/utils/Context.sol\":712:729  return msg.sender */\n  swap1\n  pop\n    /* \"https://github.com/OpenZeppelin/openzeppelin-contracts/blob/master/contracts/utils/Context.sol\":640:736  function _msgSender() internal view virtual returns (address) {... */\n  swap1\n  jump\t// out\n    /* \"https://github.com/OpenZeppelin/openzeppelin-contracts/blob/master/contracts/access/Ownable.sol\":2433:2620  function _transferOwnership(address newOwner) internal virtual {... */\ntag_7:\n    /* \"https://github.com/OpenZeppelin/openzeppelin-contracts/blob/master/contracts/access/Ownable.sol\":2506:2522  address oldOwner */\n  0x00\n    /* \"https://github.com/OpenZeppelin/openzeppelin-contracts/blob/master/contracts/access/Ownable.sol\":2525:2531  _owner */\n  dup1\n  0x00\n  swap1\n  sload\n  swap1\n  0x0100\n  exp\n  swap1\n  div\n  0xffffffffffffffffffffffffffffffffffffffff\n  and\n    /* \"https://github.com/OpenZeppelin/openzeppelin-contracts/blob/master/contracts/access/Ownable.sol\":2506:2531  address oldOwner = _owner */\n  swap1\n  pop\n    /* \"https://github.com/OpenZeppelin/openzeppelin-contracts/blob/master/contracts/access/Ownable.sol\":2550:2558  newOwner */\n  dup2\n    /* \"https://github.com/OpenZeppelin/openzeppelin-contracts/blob/master/contracts/access/Ownable.sol\":2541:2547  _owner */\n  0x00\n  dup1\n    /* \"https://github.com/OpenZeppelin/openzeppelin-contracts/blob/master/contracts/access/Ownable.sol\":2541:2558  _owner = newOwner */\n  0x0100\n  exp\n  dup2\n  sload\n  dup2\n  0xffffffffffffffffffffffffffffffffffffffff\n  mul\n  not\n  and\n  swap1\n  dup4\n  0xffffffffffffffffffffffffffffffffffffffff\n  and\n  mul\n  or\n  swap1\n  sstore\n  pop\n    /* \"https://github.com/OpenZeppelin/openzeppelin-contracts/blob/master/contracts/access/Ownable.sol\":2604:2612  newOwner */\n  dup2\n    /* \"https://github.com/OpenZeppelin/openzeppelin-contracts/blob/master/contracts/access/Ownable.sol\":2573:2613  OwnershipTransferred(oldOwner, newOwner) */\n  0xffffffffffffffffffffffffffffffffffffffff\n  and\n    /* \"https://github.com/OpenZeppelin/openzeppelin-contracts/blob/master/contracts/access/Ownable.sol\":2594:2602  oldOwner */\n  dup2\n    /* \"https://github.com/OpenZeppelin/openzeppelin-contracts/blob/master/contracts/access/Ownable.sol\":2573:2613  OwnershipTransferred(oldOwner, newOwner) */\n  0xffffffffffffffffffffffffffffffffffffffff\n  and\n  0x8be0079c531659141344cd1fd0a4f28419497f9722a3daafe3b4186f6b6457e0\n  mload(0x40)\n  mload(0x40)\n  dup1\n  swap2\n  sub\n  swap1\n  log3\n    /* \"https://github.com/OpenZeppelin/openzeppelin-contracts/blob/master/contracts/access/Ownable.sol\":2496:2620  {... */\n  pop\n    /* \"https://github.com/OpenZeppelin/openzeppelin-contracts/blob/master/contracts/access/Ownable.sol\":2433:2620  function _transferOwnership(address newOwner) internal virtual {... */\n  pop\n  jump\t// out\n    /* \"contracts/Alyra/Voting.sol\":169:4213  contract Voting is Ownable {... */\ntag_8:\n  dataSize(sub_0)\n  dup1\n  dataOffset(sub_0)\n  0x00\n  codecopy\n  0x00\n  return\nstop\n\nsub_0: assembly {\n        /* \"contracts/Alyra/Voting.sol\":169:4213  contract Voting is Ownable {... */\n      mstore(0x40, 0x80)\n      callvalue\n      dup1\n      iszero\n      tag_1\n      jumpi\n      0x00\n      dup1\n      revert\n    tag_1:\n      pop\n      jumpi(tag_2, lt(calldatasize, 0x04))\n      shr(0xe0, calldataload(0x00))\n      dup1\n      0xa7bfab16\n      gt\n      tag_17\n      jumpi\n      dup1\n      0xe2dd58c6\n      gt\n      tag_18\n      jumpi\n      dup1\n      0xe2dd58c6\n      eq\n      tag_13\n      jumpi\n      dup1\n      0xed8a1608\n      eq\n      tag_14\n      jumpi\n      dup1\n      0xee74c678\n      eq\n      tag_15\n      jumpi\n      dup1\n      0xf2fde38b\n      eq\n      tag_16\n      jumpi\n      jump(tag_2)\n    tag_18:\n      dup1\n      0xa7bfab16\n      eq\n      tag_10\n      jumpi\n      dup1\n      0xada7415f\n      eq\n      tag_11\n      jumpi\n      dup1\n      0xe09b8c79\n      eq\n      tag_12\n      jumpi\n      jump(tag_2)\n    tag_17:\n      dup1\n      0x715018a6\n      gt\n      tag_19\n      jumpi\n      dup1\n      0x715018a6\n      eq\n      tag_6\n      jumpi\n      dup1\n      0x8da5cb5b\n      eq\n      tag_7\n      jumpi\n      dup1\n      0x8e7ea5b2\n      eq\n      tag_8\n      jumpi\n      dup1\n      0xa1edffa2\n      eq\n      tag_9\n      jumpi\n      jump(tag_2)\n    tag_19:\n      dup1\n      0x0121b93f\n      eq\n      tag_3\n      jumpi\n      dup1\n      0x013cf08b\n      eq\n      tag_4\n      jumpi\n      dup1\n      0x6c297445\n      eq\n      tag_5\n      jumpi\n    tag_2:\n      0x00\n      dup1\n      revert\n        /* \"contracts/Alyra/Voting.sol\":2787:3234  function vote(uint proposalId) public flowStatus(WorkflowStatus.VotingSessionStarted) {... */\n    tag_3:\n      tag_20\n      0x04\n      dup1\n      calldatasize\n      sub\n      dup2\n      add\n      swap1\n      tag_21\n      swap2\n      swap1\n      tag_22\n      jump\t// in\n    tag_21:\n      tag_23\n      jump\t// in\n    tag_20:\n      stop\n        /* \"contracts/Alyra/Voting.sol\":744:771  Proposal[] public proposals */\n    tag_4:\n      tag_24\n      0x04\n      dup1\n      calldatasize\n      sub\n      dup2\n      add\n      swap1\n      tag_25\n      swap2\n      swap1\n      tag_22\n      jump\t// in\n    tag_25:\n      tag_26\n      jump\t// in\n    tag_24:\n      mload(0x40)\n      tag_27\n      swap3\n      swap2\n      swap1\n      tag_28\n      jump\t// in\n    tag_27:\n      mload(0x40)\n      dup1\n      swap2\n      sub\n      swap1\n      return\n        /* \"contracts/Alyra/Voting.sol\":2173:2483  function endProposalsRegistration() public flowStatus(WorkflowStatus.ProposalsRegistrationStarted) onlyOwner {... */\n    tag_5:\n      tag_29\n      tag_30\n      jump\t// in\n    tag_29:\n      stop\n        /* \"https://github.com/OpenZeppelin/openzeppelin-contracts/blob/master/contracts/access/Ownable.sol\":1831:1932  function renounceOwnership() public virtual onlyOwner {... */\n    tag_6:\n      tag_31\n      tag_32\n      jump\t// in\n    tag_31:\n      stop\n        /* \"https://github.com/OpenZeppelin/openzeppelin-contracts/blob/master/contracts/access/Ownable.sol\":1201:1286  function owner() public view virtual returns (address) {... */\n    tag_7:\n      tag_33\n      tag_34\n      jump\t// in\n    tag_33:\n      mload(0x40)\n      tag_35\n      swap2\n      swap1\n      tag_36\n      jump\t// in\n    tag_35:\n      mload(0x40)\n      dup1\n      swap2\n      sub\n      swap1\n      return\n        /* \"contracts/Alyra/Voting.sol\":4057:4210  function getWinner() public flowStatus(WorkflowStatus.VotesTallied) view returns (Proposal memory) {... */\n    tag_8:\n      tag_37\n      tag_38\n      jump\t// in\n    tag_37:\n      mload(0x40)\n      tag_39\n      swap2\n      swap1\n      tag_40\n      jump\t// in\n    tag_39:\n      mload(0x40)\n      dup1\n      swap2\n      sub\n      swap1\n      return\n        /* \"contracts/Alyra/Voting.sol\":621:657  WorkflowStatus public workflowStatus */\n    tag_9:\n      tag_41\n      tag_42\n      jump\t// in\n    tag_41:\n      mload(0x40)\n      tag_43\n      swap2\n      swap1\n      tag_44\n      jump\t// in\n    tag_43:\n      mload(0x40)\n      dup1\n      swap2\n      sub\n      swap1\n      return\n        /* \"contracts/Alyra/Voting.sol\":3242:3512  function endVotingSession() public flowStatus(WorkflowStatus.VotingSessionStarted) onlyOwner {... */\n    tag_10:\n      tag_45\n      tag_46\n      jump\t// in\n    tag_45:\n      stop\n        /* \"contracts/Alyra/Voting.sol\":3520:4049  function votesTallied() public flowStatus(WorkflowStatus.VotingSessionEnded) onlyOwner { ... */\n    tag_11:\n      tag_47\n      tag_48\n      jump\t// in\n    tag_47:\n      stop\n        /* \"contracts/Alyra/Voting.sol\":1505:1799  function startProposalsRegistration() public flowStatus(WorkflowStatus.RegisteringVoters) onlyOwner {... */\n    tag_12:\n      tag_49\n      tag_50\n      jump\t// in\n    tag_49:\n      stop\n        /* \"contracts/Alyra/Voting.sol\":1807:2162  function registerProposals(string memory proposalDescription) public flowStatus(WorkflowStatus.ProposalsRegistrationStarted) {... */\n    tag_13:\n      tag_51\n      0x04\n      dup1\n      calldatasize\n      sub\n      dup2\n      add\n      swap1\n      tag_52\n      swap2\n      swap1\n      tag_53\n      jump\t// in\n    tag_52:\n      tag_54\n      jump\t// in\n    tag_51:\n      stop\n        /* \"contracts/Alyra/Voting.sol\":1186:1497  function registerVoters(address _voterAddress) public flowStatus(WorkflowStatus.RegisteringVoters) onlyOwner {... */\n    tag_14:\n      tag_55\n      0x04\n      dup1\n      calldatasize\n      sub\n      dup2\n      add\n      swap1\n      tag_56\n      swap2\n      swap1\n      tag_57\n      jump\t// in\n    tag_56:\n      tag_58\n      jump\t// in\n    tag_55:\n      stop\n        /* \"contracts/Alyra/Voting.sol\":2491:2779  function startVotingSession() public flowStatus(WorkflowStatus.ProposalsRegistrationEnded) onlyOwner {... */\n    tag_15:\n      tag_59\n      tag_60\n      jump\t// in\n    tag_59:\n      stop\n        /* \"https://github.com/OpenZeppelin/openzeppelin-contracts/blob/master/contracts/access/Ownable.sol\":2081:2279  function transferOwnership(address newOwner) public virtual onlyOwner {... */\n    tag_16:\n      tag_61\n      0x04\n      dup1\n      calldatasize\n      sub\n      dup2\n      add\n      swap1\n      tag_62\n      swap2\n      swap1\n      tag_57\n      jump\t// in\n    tag_62:\n      tag_63\n      jump\t// in\n    tag_61:\n      stop\n        /* \"contracts/Alyra/Voting.sol\":2787:3234  function vote(uint proposalId) public flowStatus(WorkflowStatus.VotingSessionStarted) {... */\n    tag_23:\n        /* \"contracts/Alyra/Voting.sol\":2836:2871  WorkflowStatus.VotingSessionStarted */\n      0x03\n        /* \"contracts/Alyra/Voting.sol\":1102:1109  _status */\n      dup1\n        /* \"contracts/Alyra/Voting.sol\":1084:1109  workflowStatus == _status */\n      0x05\n      dup2\n      gt\n      iszero\n      tag_65\n      jumpi\n      tag_66\n      tag_67\n      jump\t// in\n    tag_66:\n    tag_65:\n        /* \"contracts/Alyra/Voting.sol\":1084:1098  workflowStatus */\n      0x00\n      0x14\n      swap1\n      sload\n      swap1\n      0x0100\n      exp\n      swap1\n      div\n      0xff\n      and\n        /* \"contracts/Alyra/Voting.sol\":1084:1109  workflowStatus == _status */\n      0x05\n      dup2\n      gt\n      iszero\n      tag_68\n      jumpi\n      tag_69\n      tag_67\n      jump\t// in\n    tag_69:\n    tag_68:\n      eq\n        /* \"contracts/Alyra/Voting.sol\":1076:1158  require(workflowStatus == _status, \"You are not able to do this action right now\") */\n      tag_70\n      jumpi\n      mload(0x40)\n      0x08c379a000000000000000000000000000000000000000000000000000000000\n      dup2\n      mstore\n      0x04\n      add\n      tag_71\n      swap1\n      tag_72\n      jump\t// in\n    tag_71:\n      mload(0x40)\n      dup1\n      swap2\n      sub\n      swap1\n      revert\n    tag_70:\n        /* \"contracts/Alyra/Voting.sol\":2892:2898  voters */\n      0x02\n        /* \"contracts/Alyra/Voting.sol\":2892:2910  voters[msg.sender] */\n      0x00\n        /* \"contracts/Alyra/Voting.sol\":2899:2909  msg.sender */\n      caller\n        /* \"contracts/Alyra/Voting.sol\":2892:2910  voters[msg.sender] */\n      0xffffffffffffffffffffffffffffffffffffffff\n      and\n      0xffffffffffffffffffffffffffffffffffffffff\n      and\n      dup2\n      mstore\n      0x20\n      add\n      swap1\n      dup2\n      mstore\n      0x20\n      add\n      0x00\n      keccak256\n        /* \"contracts/Alyra/Voting.sol\":2892:2923  voters[msg.sender].isRegistered */\n      0x00\n      add\n      0x00\n      swap1\n      sload\n      swap1\n      0x0100\n      exp\n      swap1\n      div\n      0xff\n      and\n        /* \"contracts/Alyra/Voting.sol\":2884:2955  require(voters[msg.sender].isRegistered, \"You are not allowed to vote\") */\n      tag_74\n      jumpi\n      mload(0x40)\n      0x08c379a000000000000000000000000000000000000000000000000000000000\n      dup2\n      mstore\n      0x04\n      add\n      tag_75\n      swap1\n      tag_76\n      jump\t// in\n    tag_75:\n      mload(0x40)\n      dup1\n      swap2\n      sub\n      swap1\n      revert\n    tag_74:\n        /* \"contracts/Alyra/Voting.sol\":2975:2981  voters */\n      0x02\n        /* \"contracts/Alyra/Voting.sol\":2975:2993  voters[msg.sender] */\n      0x00\n        /* \"contracts/Alyra/Voting.sol\":2982:2992  msg.sender */\n      caller\n        /* \"contracts/Alyra/Voting.sol\":2975:2993  voters[msg.sender] */\n      0xffffffffffffffffffffffffffffffffffffffff\n      and\n      0xffffffffffffffffffffffffffffffffffffffff\n      and\n      dup2\n      mstore\n      0x20\n      add\n      swap1\n      dup2\n      mstore\n      0x20\n      add\n      0x00\n      keccak256\n        /* \"contracts/Alyra/Voting.sol\":2975:3002  voters[msg.sender].hasVoted */\n      0x00\n      add\n      0x01\n      swap1\n      sload\n      swap1\n      0x0100\n      exp\n      swap1\n      div\n      0xff\n      and\n        /* \"contracts/Alyra/Voting.sol\":2974:3002  !voters[msg.sender].hasVoted */\n      iszero\n        /* \"contracts/Alyra/Voting.sol\":2966:3029  require(!voters[msg.sender].hasVoted, \"You have already voted\") */\n      tag_77\n      jumpi\n      mload(0x40)\n      0x08c379a000000000000000000000000000000000000000000000000000000000\n      dup2\n      mstore\n      0x04\n      add\n      tag_78\n      swap1\n      tag_79\n      jump\t// in\n    tag_78:\n      mload(0x40)\n      dup1\n      swap2\n      sub\n      swap1\n      revert\n    tag_77:\n        /* \"contracts/Alyra/Voting.sol\":3075:3076  1 */\n      0x01\n        /* \"contracts/Alyra/Voting.sol\":3040:3049  proposals */\n      0x03\n        /* \"contracts/Alyra/Voting.sol\":3050:3060  proposalId */\n      dup4\n        /* \"contracts/Alyra/Voting.sol\":3040:3061  proposals[proposalId] */\n      dup2\n      sload\n      dup2\n      lt\n      tag_80\n      jumpi\n      tag_81\n      tag_82\n      jump\t// in\n    tag_81:\n    tag_80:\n      swap1\n      0x00\n      mstore\n      keccak256(0x00, 0x20)\n      swap1\n      0x02\n      mul\n      add\n        /* \"contracts/Alyra/Voting.sol\":3040:3071  proposals[proposalId].voteCount */\n      0x01\n      add\n      0x00\n        /* \"contracts/Alyra/Voting.sol\":3040:3076  proposals[proposalId].voteCount += 1 */\n      dup3\n      dup3\n      sload\n      tag_84\n      swap2\n      swap1\n      tag_85\n      jump\t// in\n    tag_84:\n      swap3\n      pop\n      pop\n      dup2\n      swap1\n      sstore\n      pop\n        /* \"contracts/Alyra/Voting.sol\":3117:3121  true */\n      0x01\n        /* \"contracts/Alyra/Voting.sol\":3087:3093  voters */\n      0x02\n        /* \"contracts/Alyra/Voting.sol\":3087:3105  voters[msg.sender] */\n      0x00\n        /* \"contracts/Alyra/Voting.sol\":3094:3104  msg.sender */\n      caller\n        /* \"contracts/Alyra/Voting.sol\":3087:3105  voters[msg.sender] */\n      0xffffffffffffffffffffffffffffffffffffffff\n      and\n      0xffffffffffffffffffffffffffffffffffffffff\n      and\n      dup2\n      mstore\n      0x20\n      add\n      swap1\n      dup2\n      mstore\n      0x20\n      add\n      0x00\n      keccak256\n        /* \"contracts/Alyra/Voting.sol\":3087:3114  voters[msg.sender].hasVoted */\n      0x00\n      add\n      0x01\n        /* \"contracts/Alyra/Voting.sol\":3087:3121  voters[msg.sender].hasVoted = true */\n      0x0100\n      exp\n      dup2\n      sload\n      dup2\n      0xff\n      mul\n      not\n      and\n      swap1\n      dup4\n      iszero\n      iszero\n      mul\n      or\n      swap1\n      sstore\n      pop\n        /* \"contracts/Alyra/Voting.sol\":3169:3179  proposalId */\n      dup2\n        /* \"contracts/Alyra/Voting.sol\":3132:3138  voters */\n      0x02\n        /* \"contracts/Alyra/Voting.sol\":3132:3150  voters[msg.sender] */\n      0x00\n        /* \"contracts/Alyra/Voting.sol\":3139:3149  msg.sender */\n      caller\n        /* \"contracts/Alyra/Voting.sol\":3132:3150  voters[msg.sender] */\n      0xffffffffffffffffffffffffffffffffffffffff\n      and\n      0xffffffffffffffffffffffffffffffffffffffff\n      and\n      dup2\n      mstore\n      0x20\n      add\n      swap1\n      dup2\n      mstore\n      0x20\n      add\n      0x00\n      keccak256\n        /* \"contracts/Alyra/Voting.sol\":3132:3166  voters[msg.sender].votedProposalId */\n      0x01\n      add\n        /* \"contracts/Alyra/Voting.sol\":3132:3179  voters[msg.sender].votedProposalId = proposalId */\n      dup2\n      swap1\n      sstore\n      pop\n        /* \"contracts/Alyra/Voting.sol\":3197:3226  Voted(msg.sender, proposalId) */\n      0x4d99b957a2bc29a30ebd96a7be8e68fe50a3c701db28a91436490b7d53870ca4\n        /* \"contracts/Alyra/Voting.sol\":3203:3213  msg.sender */\n      caller\n        /* \"contracts/Alyra/Voting.sol\":3215:3225  proposalId */\n      dup4\n        /* \"contracts/Alyra/Voting.sol\":3197:3226  Voted(msg.sender, proposalId) */\n      mload(0x40)\n      tag_86\n      swap3\n      swap2\n      swap1\n      tag_87\n      jump\t// in\n    tag_86:\n      mload(0x40)\n      dup1\n      swap2\n      sub\n      swap1\n      log1\n        /* \"contracts/Alyra/Voting.sol\":2787:3234  function vote(uint proposalId) public flowStatus(WorkflowStatus.VotingSessionStarted) {... */\n      pop\n      pop\n      jump\t// out\n        /* \"contracts/Alyra/Voting.sol\":744:771  Proposal[] public proposals */\n    tag_26:\n      0x03\n      dup2\n      dup2\n      sload\n      dup2\n      lt\n      tag_88\n      jumpi\n      0x00\n      dup1\n      revert\n    tag_88:\n      swap1\n      0x00\n      mstore\n      keccak256(0x00, 0x20)\n      swap1\n      0x02\n      mul\n      add\n      0x00\n      swap2\n      pop\n      swap1\n      pop\n      dup1\n      0x00\n      add\n      dup1\n      sload\n      tag_90\n      swap1\n      tag_91\n      jump\t// in\n    tag_90:\n      dup1\n      0x1f\n      add\n      0x20\n      dup1\n      swap2\n      div\n      mul\n      0x20\n      add\n      mload(0x40)\n      swap1\n      dup2\n      add\n      0x40\n      mstore\n      dup1\n      swap3\n      swap2\n      swap1\n      dup2\n      dup2\n      mstore\n      0x20\n      add\n      dup3\n      dup1\n      sload\n      tag_92\n      swap1\n      tag_91\n      jump\t// in\n    tag_92:\n      dup1\n      iszero\n      tag_93\n      jumpi\n      dup1\n      0x1f\n      lt\n      tag_94\n      jumpi\n      0x0100\n      dup1\n      dup4\n      sload\n      div\n      mul\n      dup4\n      mstore\n      swap2\n      0x20\n      add\n      swap2\n      jump(tag_93)\n    tag_94:\n      dup3\n      add\n      swap2\n      swap1\n      0x00\n      mstore\n      keccak256(0x00, 0x20)\n      swap1\n    tag_95:\n      dup2\n      sload\n      dup2\n      mstore\n      swap1\n      0x01\n      add\n      swap1\n      0x20\n      add\n      dup1\n      dup4\n      gt\n      tag_95\n      jumpi\n      dup3\n      swap1\n      sub\n      0x1f\n      and\n      dup3\n      add\n      swap2\n    tag_93:\n      pop\n      pop\n      pop\n      pop\n      pop\n      swap1\n      dup1\n      0x01\n      add\n      sload\n      swap1\n      pop\n      dup3\n      jump\t// out\n        /* \"contracts/Alyra/Voting.sol\":2173:2483  function endProposalsRegistration() public flowStatus(WorkflowStatus.ProposalsRegistrationStarted) onlyOwner {... */\n    tag_30:\n        /* \"contracts/Alyra/Voting.sol\":2227:2270  WorkflowStatus.ProposalsRegistrationStarted */\n      0x01\n        /* \"contracts/Alyra/Voting.sol\":1102:1109  _status */\n      dup1\n        /* \"contracts/Alyra/Voting.sol\":1084:1109  workflowStatus == _status */\n      0x05\n      dup2\n      gt\n      iszero\n      tag_97\n      jumpi\n      tag_98\n      tag_67\n      jump\t// in\n    tag_98:\n    tag_97:\n        /* \"contracts/Alyra/Voting.sol\":1084:1098  workflowStatus */\n      0x00\n      0x14\n      swap1\n      sload\n      swap1\n      0x0100\n      exp\n      swap1\n      div\n      0xff\n      and\n        /* \"contracts/Alyra/Voting.sol\":1084:1109  workflowStatus == _status */\n      0x05\n      dup2\n      gt\n      iszero\n      tag_99\n      jumpi\n      tag_100\n      tag_67\n      jump\t// in\n    tag_100:\n    tag_99:\n      eq\n        /* \"contracts/Alyra/Voting.sol\":1076:1158  require(workflowStatus == _status, \"You are not able to do this action right now\") */\n      tag_101\n      jumpi\n      mload(0x40)\n      0x08c379a000000000000000000000000000000000000000000000000000000000\n      dup2\n      mstore\n      0x04\n      add\n      tag_102\n      swap1\n      tag_72\n      jump\t// in\n    tag_102:\n      mload(0x40)\n      dup1\n      swap2\n      sub\n      swap1\n      revert\n    tag_101:\n        /* \"https://github.com/OpenZeppelin/openzeppelin-contracts/blob/master/contracts/access/Ownable.sol\":1094:1107  _checkOwner() */\n      tag_104\n        /* \"https://github.com/OpenZeppelin/openzeppelin-contracts/blob/master/contracts/access/Ownable.sol\":1094:1105  _checkOwner */\n      tag_105\n        /* \"https://github.com/OpenZeppelin/openzeppelin-contracts/blob/master/contracts/access/Ownable.sol\":1094:1107  _checkOwner() */\n      jump\t// in\n    tag_104:\n        /* \"contracts/Alyra/Voting.sol\":2310:2351  WorkflowStatus.ProposalsRegistrationEnded */\n      0x02\n        /* \"contracts/Alyra/Voting.sol\":2293:2307  workflowStatus */\n      0x00\n      0x14\n        /* \"contracts/Alyra/Voting.sol\":2293:2351  workflowStatus = WorkflowStatus.ProposalsRegistrationEnded */\n      0x0100\n      exp\n      dup2\n      sload\n      dup2\n      0xff\n      mul\n      not\n      and\n      swap1\n      dup4\n      0x05\n      dup2\n      gt\n      iszero\n      tag_107\n      jumpi\n      tag_108\n      tag_67\n      jump\t// in\n    tag_108:\n    tag_107:\n      mul\n      or\n      swap1\n      sstore\n      pop\n        /* \"contracts/Alyra/Voting.sol\":2367:2475  WorkflowStatusChange(WorkflowStatus.ProposalsRegistrationStarted, WorkflowStatus.ProposalsRegistrationEnded) */\n      0x0a97a4ee45751e2abf3e4fc8946939630b11b371ea8ae39ccdc3056e98f5cc3f\n        /* \"contracts/Alyra/Voting.sol\":2388:2431  WorkflowStatus.ProposalsRegistrationStarted */\n      0x01\n        /* \"contracts/Alyra/Voting.sol\":2433:2474  WorkflowStatus.ProposalsRegistrationEnded */\n      0x02\n        /* \"contracts/Alyra/Voting.sol\":2367:2475  WorkflowStatusChange(WorkflowStatus.ProposalsRegistrationStarted, WorkflowStatus.ProposalsRegistrationEnded) */\n      mload(0x40)\n      tag_109\n      swap3\n      swap2\n      swap1\n      tag_110\n      jump\t// in\n    tag_109:\n      mload(0x40)\n      dup1\n      swap2\n      sub\n      swap1\n      log1\n        /* \"contracts/Alyra/Voting.sol\":2173:2483  function endProposalsRegistration() public flowStatus(WorkflowStatus.ProposalsRegistrationStarted) onlyOwner {... */\n      pop\n      jump\t// out\n        /* \"https://github.com/OpenZeppelin/openzeppelin-contracts/blob/master/contracts/access/Ownable.sol\":1831:1932  function renounceOwnership() public virtual onlyOwner {... */\n    tag_32:\n        /* \"https://github.com/OpenZeppelin/openzeppelin-contracts/blob/master/contracts/access/Ownable.sol\":1094:1107  _checkOwner() */\n      tag_112\n        /* \"https://github.com/OpenZeppelin/openzeppelin-contracts/blob/master/contracts/access/Ownable.sol\":1094:1105  _checkOwner */\n      tag_105\n        /* \"https://github.com/OpenZeppelin/openzeppelin-contracts/blob/master/contracts/access/Ownable.sol\":1094:1107  _checkOwner() */\n      jump\t// in\n    tag_112:\n        /* \"https://github.com/OpenZeppelin/openzeppelin-contracts/blob/master/contracts/access/Ownable.sol\":1895:1925  _transferOwnership(address(0)) */\n      tag_114\n        /* \"https://github.com/OpenZeppelin/openzeppelin-contracts/blob/master/contracts/access/Ownable.sol\":1922:1923  0 */\n      0x00\n        /* \"https://github.com/OpenZeppelin/openzeppelin-contracts/blob/master/contracts/access/Ownable.sol\":1895:1913  _transferOwnership */\n      tag_115\n        /* \"https://github.com/OpenZeppelin/openzeppelin-contracts/blob/master/contracts/access/Ownable.sol\":1895:1925  _transferOwnership(address(0)) */\n      jump\t// in\n    tag_114:\n        /* \"https://github.com/OpenZeppelin/openzeppelin-contracts/blob/master/contracts/access/Ownable.sol\":1831:1932  function renounceOwnership() public virtual onlyOwner {... */\n      jump\t// out\n        /* \"https://github.com/OpenZeppelin/openzeppelin-contracts/blob/master/contracts/access/Ownable.sol\":1201:1286  function owner() public view virtual returns (address) {... */\n    tag_34:\n        /* \"https://github.com/OpenZeppelin/openzeppelin-contracts/blob/master/contracts/access/Ownable.sol\":1247:1254  address */\n      0x00\n        /* \"https://github.com/OpenZeppelin/openzeppelin-contracts/blob/master/contracts/access/Ownable.sol\":1273:1279  _owner */\n      dup1\n      0x00\n      swap1\n      sload\n      swap1\n      0x0100\n      exp\n      swap1\n      div\n      0xffffffffffffffffffffffffffffffffffffffff\n      and\n        /* \"https://github.com/OpenZeppelin/openzeppelin-contracts/blob/master/contracts/access/Ownable.sol\":1266:1279  return _owner */\n      swap1\n      pop\n        /* \"https://github.com/OpenZeppelin/openzeppelin-contracts/blob/master/contracts/access/Ownable.sol\":1201:1286  function owner() public view virtual returns (address) {... */\n      swap1\n      jump\t// out\n        /* \"contracts/Alyra/Voting.sol\":4057:4210  function getWinner() public flowStatus(WorkflowStatus.VotesTallied) view returns (Proposal memory) {... */\n    tag_38:\n        /* \"contracts/Alyra/Voting.sol\":4139:4154  Proposal memory */\n      tag_117\n      tag_118\n      jump\t// in\n    tag_117:\n        /* \"contracts/Alyra/Voting.sol\":4096:4123  WorkflowStatus.VotesTallied */\n      0x05\n        /* \"contracts/Alyra/Voting.sol\":1102:1109  _status */\n      dup1\n        /* \"contracts/Alyra/Voting.sol\":1084:1109  workflowStatus == _status */\n      0x05\n      dup2\n      gt\n      iszero\n      tag_120\n      jumpi\n      tag_121\n      tag_67\n      jump\t// in\n    tag_121:\n    tag_120:\n        /* \"contracts/Alyra/Voting.sol\":1084:1098  workflowStatus */\n      0x00\n      0x14\n      swap1\n      sload\n      swap1\n      0x0100\n      exp\n      swap1\n      div\n      0xff\n      and\n        /* \"contracts/Alyra/Voting.sol\":1084:1109  workflowStatus == _status */\n      0x05\n      dup2\n      gt\n      iszero\n      tag_122\n      jumpi\n      tag_123\n      tag_67\n      jump\t// in\n    tag_123:\n    tag_122:\n      eq\n        /* \"contracts/Alyra/Voting.sol\":1076:1158  require(workflowStatus == _status, \"You are not able to do this action right now\") */\n      tag_124\n      jumpi\n      mload(0x40)\n      0x08c379a000000000000000000000000000000000000000000000000000000000\n      dup2\n      mstore\n      0x04\n      add\n      tag_125\n      swap1\n      tag_72\n      jump\t// in\n    tag_125:\n      mload(0x40)\n      dup1\n      swap2\n      sub\n      swap1\n      revert\n    tag_124:\n        /* \"contracts/Alyra/Voting.sol\":4174:4183  proposals */\n      0x03\n        /* \"contracts/Alyra/Voting.sol\":4184:4201  winningProposalId */\n      sload(0x01)\n        /* \"contracts/Alyra/Voting.sol\":4174:4202  proposals[winningProposalId] */\n      dup2\n      sload\n      dup2\n      lt\n      tag_127\n      jumpi\n      tag_128\n      tag_82\n      jump\t// in\n    tag_128:\n    tag_127:\n      swap1\n      0x00\n      mstore\n      keccak256(0x00, 0x20)\n      swap1\n      0x02\n      mul\n      add\n        /* \"contracts/Alyra/Voting.sol\":4167:4202  return proposals[winningProposalId] */\n      mload(0x40)\n      dup1\n      0x40\n      add\n      0x40\n      mstore\n      swap1\n      dup2\n      0x00\n      dup3\n      add\n      dup1\n      sload\n      tag_130\n      swap1\n      tag_91\n      jump\t// in\n    tag_130:\n      dup1\n      0x1f\n      add\n      0x20\n      dup1\n      swap2\n      div\n      mul\n      0x20\n      add\n      mload(0x40)\n      swap1\n      dup2\n      add\n      0x40\n      mstore\n      dup1\n      swap3\n      swap2\n      swap1\n      dup2\n      dup2\n      mstore\n      0x20\n      add\n      dup3\n      dup1\n      sload\n      tag_131\n      swap1\n      tag_91\n      jump\t// in\n    tag_131:\n      dup1\n      iszero\n      tag_132\n      jumpi\n      dup1\n      0x1f\n      lt\n      tag_133\n      jumpi\n      0x0100\n      dup1\n      dup4\n      sload\n      div\n      mul\n      dup4\n      mstore\n      swap2\n      0x20\n      add\n      swap2\n      jump(tag_132)\n    tag_133:\n      dup3\n      add\n      swap2\n      swap1\n      0x00\n      mstore\n      keccak256(0x00, 0x20)\n      swap1\n    tag_134:\n      dup2\n      sload\n      dup2\n      mstore\n      swap1\n      0x01\n      add\n      swap1\n      0x20\n      add\n      dup1\n      dup4\n      gt\n      tag_134\n      jumpi\n      dup3\n      swap1\n      sub\n      0x1f\n      and\n      dup3\n      add\n      swap2\n    tag_132:\n      pop\n      pop\n      pop\n      pop\n      pop\n      dup2\n      mstore\n      0x20\n      add\n      0x01\n      dup3\n      add\n      sload\n      dup2\n      mstore\n      pop\n      pop\n      swap2\n      pop\n        /* \"contracts/Alyra/Voting.sol\":4057:4210  function getWinner() public flowStatus(WorkflowStatus.VotesTallied) view returns (Proposal memory) {... */\n      pop\n      swap1\n      jump\t// out\n        /* \"contracts/Alyra/Voting.sol\":621:657  WorkflowStatus public workflowStatus */\n    tag_42:\n      0x00\n      0x14\n      swap1\n      sload\n      swap1\n      0x0100\n      exp\n      swap1\n      div\n      0xff\n      and\n      dup2\n      jump\t// out\n        /* \"contracts/Alyra/Voting.sol\":3242:3512  function endVotingSession() public flowStatus(WorkflowStatus.VotingSessionStarted) onlyOwner {... */\n    tag_46:\n        /* \"contracts/Alyra/Voting.sol\":3288:3323  WorkflowStatus.VotingSessionStarted */\n      0x03\n        /* \"contracts/Alyra/Voting.sol\":1102:1109  _status */\n      dup1\n        /* \"contracts/Alyra/Voting.sol\":1084:1109  workflowStatus == _status */\n      0x05\n      dup2\n      gt\n      iszero\n      tag_136\n      jumpi\n      tag_137\n      tag_67\n      jump\t// in\n    tag_137:\n    tag_136:\n        /* \"contracts/Alyra/Voting.sol\":1084:1098  workflowStatus */\n      0x00\n      0x14\n      swap1\n      sload\n      swap1\n      0x0100\n      exp\n      swap1\n      div\n      0xff\n      and\n        /* \"contracts/Alyra/Voting.sol\":1084:1109  workflowStatus == _status */\n      0x05\n      dup2\n      gt\n      iszero\n      tag_138\n      jumpi\n      tag_139\n      tag_67\n      jump\t// in\n    tag_139:\n    tag_138:\n      eq\n        /* \"contracts/Alyra/Voting.sol\":1076:1158  require(workflowStatus == _status, \"You are not able to do this action right now\") */\n      tag_140\n      jumpi\n      mload(0x40)\n      0x08c379a000000000000000000000000000000000000000000000000000000000\n      dup2\n      mstore\n      0x04\n      add\n      tag_141\n      swap1\n      tag_72\n      jump\t// in\n    tag_141:\n      mload(0x40)\n      dup1\n      swap2\n      sub\n      swap1\n      revert\n    tag_140:\n        /* \"https://github.com/OpenZeppelin/openzeppelin-contracts/blob/master/contracts/access/Ownable.sol\":1094:1107  _checkOwner() */\n      tag_143\n        /* \"https://github.com/OpenZeppelin/openzeppelin-contracts/blob/master/contracts/access/Ownable.sol\":1094:1105  _checkOwner */\n      tag_105\n        /* \"https://github.com/OpenZeppelin/openzeppelin-contracts/blob/master/contracts/access/Ownable.sol\":1094:1107  _checkOwner() */\n      jump\t// in\n    tag_143:\n        /* \"contracts/Alyra/Voting.sol\":3363:3396  WorkflowStatus.VotingSessionEnded */\n      0x04\n        /* \"contracts/Alyra/Voting.sol\":3346:3360  workflowStatus */\n      0x00\n      0x14\n        /* \"contracts/Alyra/Voting.sol\":3346:3396  workflowStatus = WorkflowStatus.VotingSessionEnded */\n      0x0100\n      exp\n      dup2\n      sload\n      dup2\n      0xff\n      mul\n      not\n      and\n      swap1\n      dup4\n      0x05\n      dup2\n      gt\n      iszero\n      tag_145\n      jumpi\n      tag_146\n      tag_67\n      jump\t// in\n    tag_146:\n    tag_145:\n      mul\n      or\n      swap1\n      sstore\n      pop\n        /* \"contracts/Alyra/Voting.sol\":3412:3504  WorkflowStatusChange(WorkflowStatus.VotingSessionStarted, WorkflowStatus.VotingSessionEnded) */\n      0x0a97a4ee45751e2abf3e4fc8946939630b11b371ea8ae39ccdc3056e98f5cc3f\n        /* \"contracts/Alyra/Voting.sol\":3433:3468  WorkflowStatus.VotingSessionStarted */\n      0x03\n        /* \"contracts/Alyra/Voting.sol\":3470:3503  WorkflowStatus.VotingSessionEnded */\n      0x04\n        /* \"contracts/Alyra/Voting.sol\":3412:3504  WorkflowStatusChange(WorkflowStatus.VotingSessionStarted, WorkflowStatus.VotingSessionEnded) */\n      mload(0x40)\n      tag_147\n      swap3\n      swap2\n      swap1\n      tag_110\n      jump\t// in\n    tag_147:\n      mload(0x40)\n      dup1\n      swap2\n      sub\n      swap1\n      log1\n        /* \"contracts/Alyra/Voting.sol\":3242:3512  function endVotingSession() public flowStatus(WorkflowStatus.VotingSessionStarted) onlyOwner {... */\n      pop\n      jump\t// out\n        /* \"contracts/Alyra/Voting.sol\":3520:4049  function votesTallied() public flowStatus(WorkflowStatus.VotingSessionEnded) onlyOwner { ... */\n    tag_48:\n        /* \"contracts/Alyra/Voting.sol\":3562:3595  WorkflowStatus.VotingSessionEnded */\n      0x04\n        /* \"contracts/Alyra/Voting.sol\":1102:1109  _status */\n      dup1\n        /* \"contracts/Alyra/Voting.sol\":1084:1109  workflowStatus == _status */\n      0x05\n      dup2\n      gt\n      iszero\n      tag_149\n      jumpi\n      tag_150\n      tag_67\n      jump\t// in\n    tag_150:\n    tag_149:\n        /* \"contracts/Alyra/Voting.sol\":1084:1098  workflowStatus */\n      0x00\n      0x14\n      swap1\n      sload\n      swap1\n      0x0100\n      exp\n      swap1\n      div\n      0xff\n      and\n        /* \"contracts/Alyra/Voting.sol\":1084:1109  workflowStatus == _status */\n      0x05\n      dup2\n      gt\n      iszero\n      tag_151\n      jumpi\n      tag_152\n      tag_67\n      jump\t// in\n    tag_152:\n    tag_151:\n      eq\n        /* \"contracts/Alyra/Voting.sol\":1076:1158  require(workflowStatus == _status, \"You are not able to do this action right now\") */\n      tag_153\n      jumpi\n      mload(0x40)\n      0x08c379a000000000000000000000000000000000000000000000000000000000\n      dup2\n      mstore\n      0x04\n      add\n      tag_154\n      swap1\n      tag_72\n      jump\t// in\n    tag_154:\n      mload(0x40)\n      dup1\n      swap2\n      sub\n      swap1\n      revert\n    tag_153:\n        /* \"https://github.com/OpenZeppelin/openzeppelin-contracts/blob/master/contracts/access/Ownable.sol\":1094:1107  _checkOwner() */\n      tag_156\n        /* \"https://github.com/OpenZeppelin/openzeppelin-contracts/blob/master/contracts/access/Ownable.sol\":1094:1105  _checkOwner */\n      tag_105\n        /* \"https://github.com/OpenZeppelin/openzeppelin-contracts/blob/master/contracts/access/Ownable.sol\":1094:1107  _checkOwner() */\n      jump\t// in\n    tag_156:\n        /* \"contracts/Alyra/Voting.sol\":3619:3640  uint winningVoteCount */\n      0x00\n        /* \"contracts/Alyra/Voting.sol\":3660:3666  uint p */\n      dup1\n        /* \"contracts/Alyra/Voting.sol\":3655:3887  for (uint p = 0; p <proposals.length; p++) {... */\n    tag_158:\n        /* \"contracts/Alyra/Voting.sol\":3675:3684  proposals */\n      0x03\n        /* \"contracts/Alyra/Voting.sol\":3675:3691  proposals.length */\n      dup1\n      sload\n      swap1\n      pop\n        /* \"contracts/Alyra/Voting.sol\":3672:3673  p */\n      dup2\n        /* \"contracts/Alyra/Voting.sol\":3672:3691  p <proposals.length */\n      lt\n        /* \"contracts/Alyra/Voting.sol\":3655:3887  for (uint p = 0; p <proposals.length; p++) {... */\n      iszero\n      tag_159\n      jumpi\n        /* \"contracts/Alyra/Voting.sol\":3742:3758  winningVoteCount */\n      dup2\n        /* \"contracts/Alyra/Voting.sol\":3717:3726  proposals */\n      0x03\n        /* \"contracts/Alyra/Voting.sol\":3727:3728  p */\n      dup3\n        /* \"contracts/Alyra/Voting.sol\":3717:3729  proposals[p] */\n      dup2\n      sload\n      dup2\n      lt\n      tag_161\n      jumpi\n      tag_162\n      tag_82\n      jump\t// in\n    tag_162:\n    tag_161:\n      swap1\n      0x00\n      mstore\n      keccak256(0x00, 0x20)\n      swap1\n      0x02\n      mul\n      add\n        /* \"contracts/Alyra/Voting.sol\":3717:3739  proposals[p].voteCount */\n      0x01\n      add\n      sload\n        /* \"contracts/Alyra/Voting.sol\":3717:3758  proposals[p].voteCount > winningVoteCount */\n      gt\n        /* \"contracts/Alyra/Voting.sol\":3713:3876  if (proposals[p].voteCount > winningVoteCount) {... */\n      iszero\n      tag_164\n      jumpi\n        /* \"contracts/Alyra/Voting.sol\":3798:3807  proposals */\n      0x03\n        /* \"contracts/Alyra/Voting.sol\":3808:3809  p */\n      dup2\n        /* \"contracts/Alyra/Voting.sol\":3798:3810  proposals[p] */\n      dup2\n      sload\n      dup2\n      lt\n      tag_165\n      jumpi\n      tag_166\n      tag_82\n      jump\t// in\n    tag_166:\n    tag_165:\n      swap1\n      0x00\n      mstore\n      keccak256(0x00, 0x20)\n      swap1\n      0x02\n      mul\n      add\n        /* \"contracts/Alyra/Voting.sol\":3798:3820  proposals[p].voteCount */\n      0x01\n      add\n      sload\n        /* \"contracts/Alyra/Voting.sol\":3779:3820  winningVoteCount = proposals[p].voteCount */\n      swap2\n      pop\n        /* \"contracts/Alyra/Voting.sol\":3859:3860  p */\n      dup1\n        /* \"contracts/Alyra/Voting.sol\":3839:3856  winningProposalId */\n      0x01\n        /* \"contracts/Alyra/Voting.sol\":3839:3860  winningProposalId = p */\n      dup2\n      swap1\n      sstore\n      pop\n        /* \"contracts/Alyra/Voting.sol\":3713:3876  if (proposals[p].voteCount > winningVoteCount) {... */\n    tag_164:\n        /* \"contracts/Alyra/Voting.sol\":3693:3696  p++ */\n      dup1\n      dup1\n      tag_168\n      swap1\n      tag_169\n      jump\t// in\n    tag_168:\n      swap2\n      pop\n      pop\n        /* \"contracts/Alyra/Voting.sol\":3655:3887  for (uint p = 0; p <proposals.length; p++) {... */\n      jump(tag_158)\n    tag_159:\n      pop\n        /* \"contracts/Alyra/Voting.sol\":3914:3941  WorkflowStatus.VotesTallied */\n      0x05\n        /* \"contracts/Alyra/Voting.sol\":3897:3911  workflowStatus */\n      0x00\n      0x14\n        /* \"contracts/Alyra/Voting.sol\":3897:3941  workflowStatus = WorkflowStatus.VotesTallied */\n      0x0100\n      exp\n      dup2\n      sload\n      dup2\n      0xff\n      mul\n      not\n      and\n      swap1\n      dup4\n      0x05\n      dup2\n      gt\n      iszero\n      tag_170\n      jumpi\n      tag_171\n      tag_67\n      jump\t// in\n    tag_171:\n    tag_170:\n      mul\n      or\n      swap1\n      sstore\n      pop\n        /* \"contracts/Alyra/Voting.sol\":3957:4041  WorkflowStatusChange(WorkflowStatus.VotingSessionEnded, WorkflowStatus.VotesTallied) */\n      0x0a97a4ee45751e2abf3e4fc8946939630b11b371ea8ae39ccdc3056e98f5cc3f\n        /* \"contracts/Alyra/Voting.sol\":3978:4011  WorkflowStatus.VotingSessionEnded */\n      0x04\n        /* \"contracts/Alyra/Voting.sol\":4013:4040  WorkflowStatus.VotesTallied */\n      0x05\n        /* \"contracts/Alyra/Voting.sol\":3957:4041  WorkflowStatusChange(WorkflowStatus.VotingSessionEnded, WorkflowStatus.VotesTallied) */\n      mload(0x40)\n      tag_172\n      swap3\n      swap2\n      swap1\n      tag_110\n      jump\t// in\n    tag_172:\n      mload(0x40)\n      dup1\n      swap2\n      sub\n      swap1\n      log1\n        /* \"contracts/Alyra/Voting.sol\":3607:4049  { ... */\n      pop\n        /* \"contracts/Alyra/Voting.sol\":3520:4049  function votesTallied() public flowStatus(WorkflowStatus.VotingSessionEnded) onlyOwner { ... */\n      pop\n      jump\t// out\n        /* \"contracts/Alyra/Voting.sol\":1505:1799  function startProposalsRegistration() public flowStatus(WorkflowStatus.RegisteringVoters) onlyOwner {... */\n    tag_50:\n        /* \"contracts/Alyra/Voting.sol\":1561:1593  WorkflowStatus.RegisteringVoters */\n      0x00\n        /* \"contracts/Alyra/Voting.sol\":1102:1109  _status */\n      dup1\n        /* \"contracts/Alyra/Voting.sol\":1084:1109  workflowStatus == _status */\n      0x05\n      dup2\n      gt\n      iszero\n      tag_174\n      jumpi\n      tag_175\n      tag_67\n      jump\t// in\n    tag_175:\n    tag_174:\n        /* \"contracts/Alyra/Voting.sol\":1084:1098  workflowStatus */\n      0x00\n      0x14\n      swap1\n      sload\n      swap1\n      0x0100\n      exp\n      swap1\n      div\n      0xff\n      and\n        /* \"contracts/Alyra/Voting.sol\":1084:1109  workflowStatus == _status */\n      0x05\n      dup2\n      gt\n      iszero\n      tag_176\n      jumpi\n      tag_177\n      tag_67\n      jump\t// in\n    tag_177:\n    tag_176:\n      eq\n        /* \"contracts/Alyra/Voting.sol\":1076:1158  require(workflowStatus == _status, \"You are not able to do this action right now\") */\n      tag_178\n      jumpi\n      mload(0x40)\n      0x08c379a000000000000000000000000000000000000000000000000000000000\n      dup2\n      mstore\n      0x04\n      add\n      tag_179\n      swap1\n      tag_72\n      jump\t// in\n    tag_179:\n      mload(0x40)\n      dup1\n      swap2\n      sub\n      swap1\n      revert\n    tag_178:\n        /* \"https://github.com/OpenZeppelin/openzeppelin-contracts/blob/master/contracts/access/Ownable.sol\":1094:1107  _checkOwner() */\n      tag_181\n        /* \"https://github.com/OpenZeppelin/openzeppelin-contracts/blob/master/contracts/access/Ownable.sol\":1094:1105  _checkOwner */\n      tag_105\n        /* \"https://github.com/OpenZeppelin/openzeppelin-contracts/blob/master/contracts/access/Ownable.sol\":1094:1107  _checkOwner() */\n      jump\t// in\n    tag_181:\n        /* \"contracts/Alyra/Voting.sol\":1633:1676  WorkflowStatus.ProposalsRegistrationStarted */\n      0x01\n        /* \"contracts/Alyra/Voting.sol\":1616:1630  workflowStatus */\n      0x00\n      0x14\n        /* \"contracts/Alyra/Voting.sol\":1616:1676  workflowStatus = WorkflowStatus.ProposalsRegistrationStarted */\n      0x0100\n      exp\n      dup2\n      sload\n      dup2\n      0xff\n      mul\n      not\n      and\n      swap1\n      dup4\n      0x05\n      dup2\n      gt\n      iszero\n      tag_183\n      jumpi\n      tag_184\n      tag_67\n      jump\t// in\n    tag_184:\n    tag_183:\n      mul\n      or\n      swap1\n      sstore\n      pop\n        /* \"contracts/Alyra/Voting.sol\":1692:1791  WorkflowStatusChange(WorkflowStatus.RegisteringVoters, WorkflowStatus.ProposalsRegistrationStarted) */\n      0x0a97a4ee45751e2abf3e4fc8946939630b11b371ea8ae39ccdc3056e98f5cc3f\n        /* \"contracts/Alyra/Voting.sol\":1713:1745  WorkflowStatus.RegisteringVoters */\n      0x00\n        /* \"contracts/Alyra/Voting.sol\":1747:1790  WorkflowStatus.ProposalsRegistrationStarted */\n      0x01\n        /* \"contracts/Alyra/Voting.sol\":1692:1791  WorkflowStatusChange(WorkflowStatus.RegisteringVoters, WorkflowStatus.ProposalsRegistrationStarted) */\n      mload(0x40)\n      tag_185\n      swap3\n      swap2\n      swap1\n      tag_110\n      jump\t// in\n    tag_185:\n      mload(0x40)\n      dup1\n      swap2\n      sub\n      swap1\n      log1\n        /* \"contracts/Alyra/Voting.sol\":1505:1799  function startProposalsRegistration() public flowStatus(WorkflowStatus.RegisteringVoters) onlyOwner {... */\n      pop\n      jump\t// out\n        /* \"contracts/Alyra/Voting.sol\":1807:2162  function registerProposals(string memory proposalDescription) public flowStatus(WorkflowStatus.ProposalsRegistrationStarted) {... */\n    tag_54:\n        /* \"contracts/Alyra/Voting.sol\":1887:1930  WorkflowStatus.ProposalsRegistrationStarted */\n      0x01\n        /* \"contracts/Alyra/Voting.sol\":1102:1109  _status */\n      dup1\n        /* \"contracts/Alyra/Voting.sol\":1084:1109  workflowStatus == _status */\n      0x05\n      dup2\n      gt\n      iszero\n      tag_187\n      jumpi\n      tag_188\n      tag_67\n      jump\t// in\n    tag_188:\n    tag_187:\n        /* \"contracts/Alyra/Voting.sol\":1084:1098  workflowStatus */\n      0x00\n      0x14\n      swap1\n      sload\n      swap1\n      0x0100\n      exp\n      swap1\n      div\n      0xff\n      and\n        /* \"contracts/Alyra/Voting.sol\":1084:1109  workflowStatus == _status */\n      0x05\n      dup2\n      gt\n      iszero\n      tag_189\n      jumpi\n      tag_190\n      tag_67\n      jump\t// in\n    tag_190:\n    tag_189:\n      eq\n        /* \"contracts/Alyra/Voting.sol\":1076:1158  require(workflowStatus == _status, \"You are not able to do this action right now\") */\n      tag_191\n      jumpi\n      mload(0x40)\n      0x08c379a000000000000000000000000000000000000000000000000000000000\n      dup2\n      mstore\n      0x04\n      add\n      tag_192\n      swap1\n      tag_72\n      jump\t// in\n    tag_192:\n      mload(0x40)\n      dup1\n      swap2\n      sub\n      swap1\n      revert\n    tag_191:\n        /* \"contracts/Alyra/Voting.sol\":1951:1957  voters */\n      0x02\n        /* \"contracts/Alyra/Voting.sol\":1951:1969  voters[msg.sender] */\n      0x00\n        /* \"contracts/Alyra/Voting.sol\":1958:1968  msg.sender */\n      caller\n        /* \"contracts/Alyra/Voting.sol\":1951:1969  voters[msg.sender] */\n      0xffffffffffffffffffffffffffffffffffffffff\n      and\n      0xffffffffffffffffffffffffffffffffffffffff\n      and\n      dup2\n      mstore\n      0x20\n      add\n      swap1\n      dup2\n      mstore\n      0x20\n      add\n      0x00\n      keccak256\n        /* \"contracts/Alyra/Voting.sol\":1951:1982  voters[msg.sender].isRegistered */\n      0x00\n      add\n      0x00\n      swap1\n      sload\n      swap1\n      0x0100\n      exp\n      swap1\n      div\n      0xff\n      and\n        /* \"contracts/Alyra/Voting.sol\":1943:2025  require(voters[msg.sender].isRegistered, \"You are not allowed to make a proposal\") */\n      tag_194\n      jumpi\n      mload(0x40)\n      0x08c379a000000000000000000000000000000000000000000000000000000000\n      dup2\n      mstore\n      0x04\n      add\n      tag_195\n      swap1\n      tag_196\n      jump\t// in\n    tag_195:\n      mload(0x40)\n      dup1\n      swap2\n      sub\n      swap1\n      revert\n    tag_194:\n        /* \"contracts/Alyra/Voting.sol\":2038:2047  proposals */\n      0x03\n        /* \"contracts/Alyra/Voting.sol\":2053:2085  Proposal(proposalDescription, 0) */\n      mload(0x40)\n      dup1\n      0x40\n      add\n      0x40\n      mstore\n      dup1\n        /* \"contracts/Alyra/Voting.sol\":2062:2081  proposalDescription */\n      dup5\n        /* \"contracts/Alyra/Voting.sol\":2053:2085  Proposal(proposalDescription, 0) */\n      dup2\n      mstore\n      0x20\n      add\n        /* \"contracts/Alyra/Voting.sol\":2083:2084  0 */\n      0x00\n        /* \"contracts/Alyra/Voting.sol\":2053:2085  Proposal(proposalDescription, 0) */\n      dup2\n      mstore\n      pop\n        /* \"contracts/Alyra/Voting.sol\":2038:2086  proposals.push(Proposal(proposalDescription, 0)) */\n      swap1\n      dup1\n      0x01\n      dup2\n      sload\n      add\n      dup1\n      dup3\n      sstore\n      dup1\n      swap2\n      pop\n      pop\n      0x01\n      swap1\n      sub\n      swap1\n      0x00\n      mstore\n      keccak256(0x00, 0x20)\n      swap1\n      0x02\n      mul\n      add\n      0x00\n      swap1\n      swap2\n      swap1\n      swap2\n      swap1\n      swap2\n      pop\n      0x00\n      dup3\n      add\n      mload\n      dup2\n      0x00\n      add\n      swap1\n      dup1\n      mload\n      swap1\n      0x20\n      add\n      swap1\n      tag_198\n      swap3\n      swap2\n      swap1\n      tag_199\n      jump\t// in\n    tag_198:\n      pop\n      0x20\n      dup3\n      add\n      mload\n      dup2\n      0x01\n      add\n      sstore\n      pop\n      pop\n        /* \"contracts/Alyra/Voting.sol\":2153:2154  1 */\n      0x01\n        /* \"contracts/Alyra/Voting.sol\":2134:2143  proposals */\n      0x03\n        /* \"contracts/Alyra/Voting.sol\":2134:2150  proposals.length */\n      dup1\n      sload\n      swap1\n      pop\n        /* \"contracts/Alyra/Voting.sol\":2134:2154  proposals.length + 1 */\n      tag_200\n      swap2\n      swap1\n      tag_85\n      jump\t// in\n    tag_200:\n        /* \"contracts/Alyra/Voting.sol\":2097:2103  voters */\n      0x02\n        /* \"contracts/Alyra/Voting.sol\":2097:2115  voters[msg.sender] */\n      0x00\n        /* \"contracts/Alyra/Voting.sol\":2104:2114  msg.sender */\n      caller\n        /* \"contracts/Alyra/Voting.sol\":2097:2115  voters[msg.sender] */\n      0xffffffffffffffffffffffffffffffffffffffff\n      and\n      0xffffffffffffffffffffffffffffffffffffffff\n      and\n      dup2\n      mstore\n      0x20\n      add\n      swap1\n      dup2\n      mstore\n      0x20\n      add\n      0x00\n      keccak256\n        /* \"contracts/Alyra/Voting.sol\":2097:2131  voters[msg.sender].votedProposalId */\n      0x01\n      add\n        /* \"contracts/Alyra/Voting.sol\":2097:2154  voters[msg.sender].votedProposalId = proposals.length + 1 */\n      dup2\n      swap1\n      sstore\n      pop\n        /* \"contracts/Alyra/Voting.sol\":1807:2162  function registerProposals(string memory proposalDescription) public flowStatus(WorkflowStatus.ProposalsRegistrationStarted) {... */\n      pop\n      pop\n      jump\t// out\n        /* \"contracts/Alyra/Voting.sol\":1186:1497  function registerVoters(address _voterAddress) public flowStatus(WorkflowStatus.RegisteringVoters) onlyOwner {... */\n    tag_58:\n        /* \"contracts/Alyra/Voting.sol\":1251:1283  WorkflowStatus.RegisteringVoters */\n      0x00\n        /* \"contracts/Alyra/Voting.sol\":1102:1109  _status */\n      dup1\n        /* \"contracts/Alyra/Voting.sol\":1084:1109  workflowStatus == _status */\n      0x05\n      dup2\n      gt\n      iszero\n      tag_202\n      jumpi\n      tag_203\n      tag_67\n      jump\t// in\n    tag_203:\n    tag_202:\n        /* \"contracts/Alyra/Voting.sol\":1084:1098  workflowStatus */\n      0x00\n      0x14\n      swap1\n      sload\n      swap1\n      0x0100\n      exp\n      swap1\n      div\n      0xff\n      and\n        /* \"contracts/Alyra/Voting.sol\":1084:1109  workflowStatus == _status */\n      0x05\n      dup2\n      gt\n      iszero\n      tag_204\n      jumpi\n      tag_205\n      tag_67\n      jump\t// in\n    tag_205:\n    tag_204:\n      eq\n        /* \"contracts/Alyra/Voting.sol\":1076:1158  require(workflowStatus == _status, \"You are not able to do this action right now\") */\n      tag_206\n      jumpi\n      mload(0x40)\n      0x08c379a000000000000000000000000000000000000000000000000000000000\n      dup2\n      mstore\n      0x04\n      add\n      tag_207\n      swap1\n      tag_72\n      jump\t// in\n    tag_207:\n      mload(0x40)\n      dup1\n      swap2\n      sub\n      swap1\n      revert\n    tag_206:\n        /* \"https://github.com/OpenZeppelin/openzeppelin-contracts/blob/master/contracts/access/Ownable.sol\":1094:1107  _checkOwner() */\n      tag_209\n        /* \"https://github.com/OpenZeppelin/openzeppelin-contracts/blob/master/contracts/access/Ownable.sol\":1094:1105  _checkOwner */\n      tag_105\n        /* \"https://github.com/OpenZeppelin/openzeppelin-contracts/blob/master/contracts/access/Ownable.sol\":1094:1107  _checkOwner() */\n      jump\t// in\n    tag_209:\n        /* \"contracts/Alyra/Voting.sol\":1315:1321  voters */\n      0x02\n        /* \"contracts/Alyra/Voting.sol\":1315:1336  voters[_voterAddress] */\n      0x00\n        /* \"contracts/Alyra/Voting.sol\":1322:1335  _voterAddress */\n      dup4\n        /* \"contracts/Alyra/Voting.sol\":1315:1336  voters[_voterAddress] */\n      0xffffffffffffffffffffffffffffffffffffffff\n      and\n      0xffffffffffffffffffffffffffffffffffffffff\n      and\n      dup2\n      mstore\n      0x20\n      add\n      swap1\n      dup2\n      mstore\n      0x20\n      add\n      0x00\n      keccak256\n        /* \"contracts/Alyra/Voting.sol\":1315:1349  voters[_voterAddress].isRegistered */\n      0x00\n      add\n      0x00\n      swap1\n      sload\n      swap1\n      0x0100\n      exp\n      swap1\n      div\n      0xff\n      and\n        /* \"contracts/Alyra/Voting.sol\":1314:1349  !voters[_voterAddress].isRegistered */\n      iszero\n        /* \"contracts/Alyra/Voting.sol\":1306:1387  require(!voters[_voterAddress].isRegistered, \"This address is already in voters\") */\n      tag_211\n      jumpi\n      mload(0x40)\n      0x08c379a000000000000000000000000000000000000000000000000000000000\n      dup2\n      mstore\n      0x04\n      add\n      tag_212\n      swap1\n      tag_213\n      jump\t// in\n    tag_212:\n      mload(0x40)\n      dup1\n      swap2\n      sub\n      swap1\n      revert\n    tag_211:\n        /* \"contracts/Alyra/Voting.sol\":1437:1441  true */\n      0x01\n        /* \"contracts/Alyra/Voting.sol\":1400:1406  voters */\n      0x02\n        /* \"contracts/Alyra/Voting.sol\":1400:1421  voters[_voterAddress] */\n      0x00\n        /* \"contracts/Alyra/Voting.sol\":1407:1420  _voterAddress */\n      dup5\n        /* \"contracts/Alyra/Voting.sol\":1400:1421  voters[_voterAddress] */\n      0xffffffffffffffffffffffffffffffffffffffff\n      and\n      0xffffffffffffffffffffffffffffffffffffffff\n      and\n      dup2\n      mstore\n      0x20\n      add\n      swap1\n      dup2\n      mstore\n      0x20\n      add\n      0x00\n      keccak256\n        /* \"contracts/Alyra/Voting.sol\":1400:1434  voters[_voterAddress].isRegistered */\n      0x00\n      add\n      0x00\n        /* \"contracts/Alyra/Voting.sol\":1400:1441  voters[_voterAddress].isRegistered = true */\n      0x0100\n      exp\n      dup2\n      sload\n      dup2\n      0xff\n      mul\n      not\n      and\n      swap1\n      dup4\n      iszero\n      iszero\n      mul\n      or\n      swap1\n      sstore\n      pop\n        /* \"contracts/Alyra/Voting.sol\":1459:1489  VoterRegistered(_voterAddress) */\n      0xb6be2187d059cc2a55fe29e0e503b566e1e0f8c8780096e185429350acffd3dd\n        /* \"contracts/Alyra/Voting.sol\":1475:1488  _voterAddress */\n      dup3\n        /* \"contracts/Alyra/Voting.sol\":1459:1489  VoterRegistered(_voterAddress) */\n      mload(0x40)\n      tag_214\n      swap2\n      swap1\n      tag_36\n      jump\t// in\n    tag_214:\n      mload(0x40)\n      dup1\n      swap2\n      sub\n      swap1\n      log1\n        /* \"contracts/Alyra/Voting.sol\":1186:1497  function registerVoters(address _voterAddress) public flowStatus(WorkflowStatus.RegisteringVoters) onlyOwner {... */\n      pop\n      pop\n      jump\t// out\n        /* \"contracts/Alyra/Voting.sol\":2491:2779  function startVotingSession() public flowStatus(WorkflowStatus.ProposalsRegistrationEnded) onlyOwner {... */\n    tag_60:\n        /* \"contracts/Alyra/Voting.sol\":2539:2580  WorkflowStatus.ProposalsRegistrationEnded */\n      0x02\n        /* \"contracts/Alyra/Voting.sol\":1102:1109  _status */\n      dup1\n        /* \"contracts/Alyra/Voting.sol\":1084:1109  workflowStatus == _status */\n      0x05\n      dup2\n      gt\n      iszero\n      tag_216\n      jumpi\n      tag_217\n      tag_67\n      jump\t// in\n    tag_217:\n    tag_216:\n        /* \"contracts/Alyra/Voting.sol\":1084:1098  workflowStatus */\n      0x00\n      0x14\n      swap1\n      sload\n      swap1\n      0x0100\n      exp\n      swap1\n      div\n      0xff\n      and\n        /* \"contracts/Alyra/Voting.sol\":1084:1109  workflowStatus == _status */\n      0x05\n      dup2\n      gt\n      iszero\n      tag_218\n      jumpi\n      tag_219\n      tag_67\n      jump\t// in\n    tag_219:\n    tag_218:\n      eq\n        /* \"contracts/Alyra/Voting.sol\":1076:1158  require(workflowStatus == _status, \"You are not able to do this action right now\") */\n      tag_220\n      jumpi\n      mload(0x40)\n      0x08c379a000000000000000000000000000000000000000000000000000000000\n      dup2\n      mstore\n      0x04\n      add\n      tag_221\n      swap1\n      tag_72\n      jump\t// in\n    tag_221:\n      mload(0x40)\n      dup1\n      swap2\n      sub\n      swap1\n      revert\n    tag_220:\n        /* \"https://github.com/OpenZeppelin/openzeppelin-contracts/blob/master/contracts/access/Ownable.sol\":1094:1107  _checkOwner() */\n      tag_223\n        /* \"https://github.com/OpenZeppelin/openzeppelin-contracts/blob/master/contracts/access/Ownable.sol\":1094:1105  _checkOwner */\n      tag_105\n        /* \"https://github.com/OpenZeppelin/openzeppelin-contracts/blob/master/contracts/access/Ownable.sol\":1094:1107  _checkOwner() */\n      jump\t// in\n    tag_223:\n        /* \"contracts/Alyra/Voting.sol\":2620:2655  WorkflowStatus.VotingSessionStarted */\n      0x03\n        /* \"contracts/Alyra/Voting.sol\":2603:2617  workflowStatus */\n      0x00\n      0x14\n        /* \"contracts/Alyra/Voting.sol\":2603:2655  workflowStatus = WorkflowStatus.VotingSessionStarted */\n      0x0100\n      exp\n      dup2\n      sload\n      dup2\n      0xff\n      mul\n      not\n      and\n      swap1\n      dup4\n      0x05\n      dup2\n      gt\n      iszero\n      tag_225\n      jumpi\n      tag_226\n      tag_67\n      jump\t// in\n    tag_226:\n    tag_225:\n      mul\n      or\n      swap1\n      sstore\n      pop\n        /* \"contracts/Alyra/Voting.sol\":2671:2771  WorkflowStatusChange(WorkflowStatus.ProposalsRegistrationEnded, WorkflowStatus.VotingSessionStarted) */\n      0x0a97a4ee45751e2abf3e4fc8946939630b11b371ea8ae39ccdc3056e98f5cc3f\n        /* \"contracts/Alyra/Voting.sol\":2692:2733  WorkflowStatus.ProposalsRegistrationEnded */\n      0x02\n        /* \"contracts/Alyra/Voting.sol\":2735:2770  WorkflowStatus.VotingSessionStarted */\n      0x03\n        /* \"contracts/Alyra/Voting.sol\":2671:2771  WorkflowStatusChange(WorkflowStatus.ProposalsRegistrationEnded, WorkflowStatus.VotingSessionStarted) */\n      mload(0x40)\n      tag_227\n      swap3\n      swap2\n      swap1\n      tag_110\n      jump\t// in\n    tag_227:\n      mload(0x40)\n      dup1\n      swap2\n      sub\n      swap1\n      log1\n        /* \"contracts/Alyra/Voting.sol\":2491:2779  function startVotingSession() public flowStatus(WorkflowStatus.ProposalsRegistrationEnded) onlyOwner {... */\n      pop\n      jump\t// out\n        /* \"https://github.com/OpenZeppelin/openzeppelin-contracts/blob/master/contracts/access/Ownable.sol\":2081:2279  function transferOwnership(address newOwner) public virtual onlyOwner {... */\n    tag_63:\n        /* \"https://github.com/OpenZeppelin/openzeppelin-contracts/blob/master/contracts/access/Ownable.sol\":1094:1107  _checkOwner() */\n      tag_229\n        /* \"https://github.com/OpenZeppelin/openzeppelin-contracts/blob/master/contracts/access/Ownable.sol\":1094:1105  _checkOwner */\n      tag_105\n        /* \"https://github.com/OpenZeppelin/openzeppelin-contracts/blob/master/contracts/access/Ownable.sol\":1094:1107  _checkOwner() */\n      jump\t// in\n    tag_229:\n        /* \"https://github.com/OpenZeppelin/openzeppelin-contracts/blob/master/contracts/access/Ownable.sol\":2189:2190  0 */\n      0x00\n        /* \"https://github.com/OpenZeppelin/openzeppelin-contracts/blob/master/contracts/access/Ownable.sol\":2169:2191  newOwner != address(0) */\n      0xffffffffffffffffffffffffffffffffffffffff\n      and\n        /* \"https://github.com/OpenZeppelin/openzeppelin-contracts/blob/master/contracts/access/Ownable.sol\":2169:2177  newOwner */\n      dup2\n        /* \"https://github.com/OpenZeppelin/openzeppelin-contracts/blob/master/contracts/access/Ownable.sol\":2169:2191  newOwner != address(0) */\n      0xffffffffffffffffffffffffffffffffffffffff\n      and\n      eq\n      iszero\n        /* \"https://github.com/OpenZeppelin/openzeppelin-contracts/blob/master/contracts/access/Ownable.sol\":2161:2234  require(newOwner != address(0), \"Ownable: new owner is the zero address\") */\n      tag_231\n      jumpi\n      mload(0x40)\n      0x08c379a000000000000000000000000000000000000000000000000000000000\n      dup2\n      mstore\n      0x04\n      add\n      tag_232\n      swap1\n      tag_233\n      jump\t// in\n    tag_232:\n      mload(0x40)\n      dup1\n      swap2\n      sub\n      swap1\n      revert\n    tag_231:\n        /* \"https://github.com/OpenZeppelin/openzeppelin-contracts/blob/master/contracts/access/Ownable.sol\":2244:2272  _transferOwnership(newOwner) */\n      tag_234\n        /* \"https://github.com/OpenZeppelin/openzeppelin-contracts/blob/master/contracts/access/Ownable.sol\":2263:2271  newOwner */\n      dup2\n        /* \"https://github.com/OpenZeppelin/openzeppelin-contracts/blob/master/contracts/access/Ownable.sol\":2244:2262  _transferOwnership */\n      tag_115\n        /* \"https://github.com/OpenZeppelin/openzeppelin-contracts/blob/master/contracts/access/Ownable.sol\":2244:2272  _transferOwnership(newOwner) */\n      jump\t// in\n    tag_234:\n        /* \"https://github.com/OpenZeppelin/openzeppelin-contracts/blob/master/contracts/access/Ownable.sol\":2081:2279  function transferOwnership(address newOwner) public virtual onlyOwner {... */\n      pop\n      jump\t// out\n        /* \"https://github.com/OpenZeppelin/openzeppelin-contracts/blob/master/contracts/access/Ownable.sol\":1359:1489  function _checkOwner() internal view virtual {... */\n    tag_105:\n        /* \"https://github.com/OpenZeppelin/openzeppelin-contracts/blob/master/contracts/access/Ownable.sol\":1433:1445  _msgSender() */\n      tag_236\n        /* \"https://github.com/OpenZeppelin/openzeppelin-contracts/blob/master/contracts/access/Ownable.sol\":1433:1443  _msgSender */\n      tag_237\n        /* \"https://github.com/OpenZeppelin/openzeppelin-contracts/blob/master/contracts/access/Ownable.sol\":1433:1445  _msgSender() */\n      jump\t// in\n    tag_236:\n        /* \"https://github.com/OpenZeppelin/openzeppelin-contracts/blob/master/contracts/access/Ownable.sol\":1422:1445  owner() == _msgSender() */\n      0xffffffffffffffffffffffffffffffffffffffff\n      and\n        /* \"https://github.com/OpenZeppelin/openzeppelin-contracts/blob/master/contracts/access/Ownable.sol\":1422:1429  owner() */\n      tag_238\n        /* \"https://github.com/OpenZeppelin/openzeppelin-contracts/blob/master/contracts/access/Ownable.sol\":1422:1427  owner */\n      tag_34\n        /* \"https://github.com/OpenZeppelin/openzeppelin-contracts/blob/master/contracts/access/Ownable.sol\":1422:1429  owner() */\n      jump\t// in\n    tag_238:\n        /* \"https://github.com/OpenZeppelin/openzeppelin-contracts/blob/master/contracts/access/Ownable.sol\":1422:1445  owner() == _msgSender() */\n      0xffffffffffffffffffffffffffffffffffffffff\n      and\n      eq\n        /* \"https://github.com/OpenZeppelin/openzeppelin-contracts/blob/master/contracts/access/Ownable.sol\":1414:1482  require(owner() == _msgSender(), \"Ownable: caller is not the owner\") */\n      tag_239\n      jumpi\n      mload(0x40)\n      0x08c379a000000000000000000000000000000000000000000000000000000000\n      dup2\n      mstore\n      0x04\n      add\n      tag_240\n      swap1\n      tag_241\n      jump\t// in\n    tag_240:\n      mload(0x40)\n      dup1\n      swap2\n      sub\n      swap1\n      revert\n    tag_239:\n        /* \"https://github.com/OpenZeppelin/openzeppelin-contracts/blob/master/contracts/access/Ownable.sol\":1359:1489  function _checkOwner() internal view virtual {... */\n      jump\t// out\n        /* \"https://github.com/OpenZeppelin/openzeppelin-contracts/blob/master/contracts/access/Ownable.sol\":2433:2620  function _transferOwnership(address newOwner) internal virtual {... */\n    tag_115:\n        /* \"https://github.com/OpenZeppelin/openzeppelin-contracts/blob/master/contracts/access/Ownable.sol\":2506:2522  address oldOwner */\n      0x00\n        /* \"https://github.com/OpenZeppelin/openzeppelin-contracts/blob/master/contracts/access/Ownable.sol\":2525:2531  _owner */\n      dup1\n      0x00\n      swap1\n      sload\n      swap1\n      0x0100\n      exp\n      swap1\n      div\n      0xffffffffffffffffffffffffffffffffffffffff\n      and\n        /* \"https://github.com/OpenZeppelin/openzeppelin-contracts/blob/master/contracts/access/Ownable.sol\":2506:2531  address oldOwner = _owner */\n      swap1\n      pop\n        /* \"https://github.com/OpenZeppelin/openzeppelin-contracts/blob/master/contracts/access/Ownable.sol\":2550:2558  newOwner */\n      dup2\n        /* \"https://github.com/OpenZeppelin/openzeppelin-contracts/blob/master/contracts/access/Ownable.sol\":2541:2547  _owner */\n      0x00\n      dup1\n        /* \"https://github.com/OpenZeppelin/openzeppelin-contracts/blob/master/contracts/access/Ownable.sol\":2541:2558  _owner = newOwner */\n      0x0100\n      exp\n      dup2\n      sload\n      dup2\n      0xffffffffffffffffffffffffffffffffffffffff\n      mul\n      not\n      and\n      swap1\n      dup4\n      0xffffffffffffffffffffffffffffffffffffffff\n      and\n      mul\n      or\n      swap1\n      sstore\n      pop\n        /* \"https://github.com/OpenZeppelin/openzeppelin-contracts/blob/master/contracts/access/Ownable.sol\":2604:2612  newOwner */\n      dup2\n        /* \"https://github.com/OpenZeppelin/openzeppelin-contracts/blob/master/contracts/access/Ownable.sol\":2573:2613  OwnershipTransferred(oldOwner, newOwner) */\n      0xffffffffffffffffffffffffffffffffffffffff\n      and\n        /* \"https://github.com/OpenZeppelin/openzeppelin-contracts/blob/master/contracts/access/Ownable.sol\":2594:2602  oldOwner */\n      dup2\n        /* \"https://github.com/OpenZeppelin/openzeppelin-contracts/blob/master/contracts/access/Ownable.sol\":2573:2613  OwnershipTransferred(oldOwner, newOwner) */\n      0xffffffffffffffffffffffffffffffffffffffff\n      and\n      0x8be0079c531659141344cd1fd0a4f28419497f9722a3daafe3b4186f6b6457e0\n      mload(0x40)\n      mload(0x40)\n      dup1\n      swap2\n      sub\n      swap1\n      log3\n        /* \"https://github.com/OpenZeppelin/openzeppelin-contracts/blob/master/contracts/access/Ownable.sol\":2496:2620  {... */\n      pop\n        /* \"https://github.com/OpenZeppelin/openzeppelin-contracts/blob/master/contracts/access/Ownable.sol\":2433:2620  function _transferOwnership(address newOwner) internal virtual {... */\n      pop\n      jump\t// out\n        /* \"https://github.com/OpenZeppelin/openzeppelin-contracts/blob/master/contracts/utils/Context.sol\":640:736  function _msgSender() internal view virtual returns (address) {... */\n    tag_237:\n        /* \"https://github.com/OpenZeppelin/openzeppelin-contracts/blob/master/contracts/utils/Context.sol\":693:700  address */\n      0x00\n        /* \"https://github.com/OpenZeppelin/openzeppelin-contracts/blob/master/contracts/utils/Context.sol\":719:729  msg.sender */\n      caller\n        /* \"https://github.com/OpenZeppelin/openzeppelin-contracts/blob/master/contracts/utils/Context.sol\":712:729  return msg.sender */\n      swap1\n      pop\n        /* \"https://github.com/OpenZeppelin/openzeppelin-contracts/blob/master/contracts/utils/Context.sol\":640:736  function _msgSender() internal view virtual returns (address) {... */\n      swap1\n      jump\t// out\n    tag_118:\n      mload(0x40)\n      dup1\n      0x40\n      add\n      0x40\n      mstore\n      dup1\n      0x60\n      dup2\n      mstore\n      0x20\n      add\n      0x00\n      dup2\n      mstore\n      pop\n      swap1\n      jump\t// out\n    tag_199:\n      dup3\n      dup1\n      sload\n      tag_244\n      swap1\n      tag_91\n      jump\t// in\n    tag_244:\n      swap1\n      0x00\n      mstore\n      keccak256(0x00, 0x20)\n      swap1\n      0x1f\n      add\n      0x20\n      swap1\n      div\n      dup2\n      add\n      swap3\n      dup3\n      tag_246\n      jumpi\n      0x00\n      dup6\n      sstore\n      jump(tag_245)\n    tag_246:\n      dup3\n      0x1f\n      lt\n      tag_247\n      jumpi\n      dup1\n      mload\n      not(0xff)\n      and\n      dup4\n      dup1\n      add\n      or\n      dup6\n      sstore\n      jump(tag_245)\n    tag_247:\n      dup3\n      dup1\n      add\n      0x01\n      add\n      dup6\n      sstore\n      dup3\n      iszero\n      tag_245\n      jumpi\n      swap2\n      dup3\n      add\n    tag_248:\n      dup3\n      dup2\n      gt\n      iszero\n      tag_249\n      jumpi\n      dup3\n      mload\n      dup3\n      sstore\n      swap2\n      0x20\n      add\n      swap2\n      swap1\n      0x01\n      add\n      swap1\n      jump(tag_248)\n    tag_249:\n    tag_245:\n      pop\n      swap1\n      pop\n      tag_250\n      swap2\n      swap1\n      tag_251\n      jump\t// in\n    tag_250:\n      pop\n      swap1\n      jump\t// out\n    tag_251:\n    tag_252:\n      dup1\n      dup3\n      gt\n      iszero\n      tag_253\n      jumpi\n      0x00\n      dup2\n      0x00\n      swap1\n      sstore\n      pop\n      0x01\n      add\n      jump(tag_252)\n    tag_253:\n      pop\n      swap1\n      jump\t// out\n        /* \"#utility.yul\":7:82   */\n    tag_254:\n        /* \"#utility.yul\":40:46   */\n      0x00\n        /* \"#utility.yul\":73:75   */\n      0x40\n        /* \"#utility.yul\":67:76   */\n      mload\n        /* \"#utility.yul\":57:76   */\n      swap1\n      pop\n        /* \"#utility.yul\":7:82   */\n      swap1\n      jump\t// out\n        /* \"#utility.yul\":88:205   */\n    tag_255:\n        /* \"#utility.yul\":197:198   */\n      0x00\n        /* \"#utility.yul\":194:195   */\n      dup1\n        /* \"#utility.yul\":187:199   */\n      revert\n        /* \"#utility.yul\":211:328   */\n    tag_256:\n        /* \"#utility.yul\":320:321   */\n      0x00\n        /* \"#utility.yul\":317:318   */\n      dup1\n        /* \"#utility.yul\":310:322   */\n      revert\n        /* \"#utility.yul\":334:411   */\n    tag_257:\n        /* \"#utility.yul\":371:378   */\n      0x00\n        /* \"#utility.yul\":400:405   */\n      dup2\n        /* \"#utility.yul\":389:405   */\n      swap1\n      pop\n        /* \"#utility.yul\":334:411   */\n      swap2\n      swap1\n      pop\n      jump\t// out\n        /* \"#utility.yul\":417:539   */\n    tag_258:\n        /* \"#utility.yul\":490:514   */\n      tag_310\n        /* \"#utility.yul\":508:513   */\n      dup2\n        /* \"#utility.yul\":490:514   */\n      tag_257\n      jump\t// in\n    tag_310:\n        /* \"#utility.yul\":483:488   */\n      dup2\n        /* \"#utility.yul\":480:515   */\n      eq\n        /* \"#utility.yul\":470:533   */\n      tag_311\n      jumpi\n        /* \"#utility.yul\":529:530   */\n      0x00\n        /* \"#utility.yul\":526:527   */\n      dup1\n        /* \"#utility.yul\":519:531   */\n      revert\n        /* \"#utility.yul\":470:533   */\n    tag_311:\n        /* \"#utility.yul\":417:539   */\n      pop\n      jump\t// out\n        /* \"#utility.yul\":545:684   */\n    tag_259:\n        /* \"#utility.yul\":591:596   */\n      0x00\n        /* \"#utility.yul\":629:635   */\n      dup2\n        /* \"#utility.yul\":616:636   */\n      calldataload\n        /* \"#utility.yul\":607:636   */\n      swap1\n      pop\n        /* \"#utility.yul\":645:678   */\n      tag_313\n        /* \"#utility.yul\":672:677   */\n      dup2\n        /* \"#utility.yul\":645:678   */\n      tag_258\n      jump\t// in\n    tag_313:\n        /* \"#utility.yul\":545:684   */\n      swap3\n      swap2\n      pop\n      pop\n      jump\t// out\n        /* \"#utility.yul\":690:1019   */\n    tag_22:\n        /* \"#utility.yul\":749:755   */\n      0x00\n        /* \"#utility.yul\":798:800   */\n      0x20\n        /* \"#utility.yul\":786:795   */\n      dup3\n        /* \"#utility.yul\":777:784   */\n      dup5\n        /* \"#utility.yul\":773:796   */\n      sub\n        /* \"#utility.yul\":769:801   */\n      slt\n        /* \"#utility.yul\":766:885   */\n      iszero\n      tag_315\n      jumpi\n        /* \"#utility.yul\":804:883   */\n      tag_316\n      tag_255\n      jump\t// in\n    tag_316:\n        /* \"#utility.yul\":766:885   */\n    tag_315:\n        /* \"#utility.yul\":924:925   */\n      0x00\n        /* \"#utility.yul\":949:1002   */\n      tag_317\n        /* \"#utility.yul\":994:1001   */\n      dup5\n        /* \"#utility.yul\":985:991   */\n      dup3\n        /* \"#utility.yul\":974:983   */\n      dup6\n        /* \"#utility.yul\":970:992   */\n      add\n        /* \"#utility.yul\":949:1002   */\n      tag_259\n      jump\t// in\n    tag_317:\n        /* \"#utility.yul\":939:1002   */\n      swap2\n      pop\n        /* \"#utility.yul\":895:1012   */\n      pop\n        /* \"#utility.yul\":690:1019   */\n      swap3\n      swap2\n      pop\n      pop\n      jump\t// out\n        /* \"#utility.yul\":1025:1124   */\n    tag_260:\n        /* \"#utility.yul\":1077:1083   */\n      0x00\n        /* \"#utility.yul\":1111:1116   */\n      dup2\n        /* \"#utility.yul\":1105:1117   */\n      mload\n        /* \"#utility.yul\":1095:1117   */\n      swap1\n      pop\n        /* \"#utility.yul\":1025:1124   */\n      swap2\n      swap1\n      pop\n      jump\t// out\n        /* \"#utility.yul\":1130:1299   */\n    tag_261:\n        /* \"#utility.yul\":1214:1225   */\n      0x00\n        /* \"#utility.yul\":1248:1254   */\n      dup3\n        /* \"#utility.yul\":1243:1246   */\n      dup3\n        /* \"#utility.yul\":1236:1255   */\n      mstore\n        /* \"#utility.yul\":1288:1292   */\n      0x20\n        /* \"#utility.yul\":1283:1286   */\n      dup3\n        /* \"#utility.yul\":1279:1293   */\n      add\n        /* \"#utility.yul\":1264:1293   */\n      swap1\n      pop\n        /* \"#utility.yul\":1130:1299   */\n      swap3\n      swap2\n      pop\n      pop\n      jump\t// out\n        /* \"#utility.yul\":1305:1612   */\n    tag_262:\n        /* \"#utility.yul\":1373:1374   */\n      0x00\n        /* \"#utility.yul\":1383:1496   */\n    tag_321:\n        /* \"#utility.yul\":1397:1403   */\n      dup4\n        /* \"#utility.yul\":1394:1395   */\n      dup2\n        /* \"#utility.yul\":1391:1404   */\n      lt\n        /* \"#utility.yul\":1383:1496   */\n      iszero\n      tag_323\n      jumpi\n        /* \"#utility.yul\":1482:1483   */\n      dup1\n        /* \"#utility.yul\":1477:1480   */\n      dup3\n        /* \"#utility.yul\":1473:1484   */\n      add\n        /* \"#utility.yul\":1467:1485   */\n      mload\n        /* \"#utility.yul\":1463:1464   */\n      dup2\n        /* \"#utility.yul\":1458:1461   */\n      dup5\n        /* \"#utility.yul\":1454:1465   */\n      add\n        /* \"#utility.yul\":1447:1486   */\n      mstore\n        /* \"#utility.yul\":1419:1421   */\n      0x20\n        /* \"#utility.yul\":1416:1417   */\n      dup2\n        /* \"#utility.yul\":1412:1422   */\n      add\n        /* \"#utility.yul\":1407:1422   */\n      swap1\n      pop\n        /* \"#utility.yul\":1383:1496   */\n      jump(tag_321)\n    tag_323:\n        /* \"#utility.yul\":1514:1520   */\n      dup4\n        /* \"#utility.yul\":1511:1512   */\n      dup2\n        /* \"#utility.yul\":1508:1521   */\n      gt\n        /* \"#utility.yul\":1505:1606   */\n      iszero\n      tag_324\n      jumpi\n        /* \"#utility.yul\":1594:1595   */\n      0x00\n        /* \"#utility.yul\":1585:1591   */\n      dup5\n        /* \"#utility.yul\":1580:1583   */\n      dup5\n        /* \"#utility.yul\":1576:1592   */\n      add\n        /* \"#utility.yul\":1569:1596   */\n      mstore\n        /* \"#utility.yul\":1505:1606   */\n    tag_324:\n        /* \"#utility.yul\":1354:1612   */\n      pop\n        /* \"#utility.yul\":1305:1612   */\n      pop\n      pop\n      pop\n      jump\t// out\n        /* \"#utility.yul\":1618:1720   */\n    tag_263:\n        /* \"#utility.yul\":1659:1665   */\n      0x00\n        /* \"#utility.yul\":1710:1712   */\n      0x1f\n        /* \"#utility.yul\":1706:1713   */\n      not\n        /* \"#utility.yul\":1701:1703   */\n      0x1f\n        /* \"#utility.yul\":1694:1699   */\n      dup4\n        /* \"#utility.yul\":1690:1704   */\n      add\n        /* \"#utility.yul\":1686:1714   */\n      and\n        /* \"#utility.yul\":1676:1714   */\n      swap1\n      pop\n        /* \"#utility.yul\":1618:1720   */\n      swap2\n      swap1\n      pop\n      jump\t// out\n        /* \"#utility.yul\":1726:2090   */\n    tag_264:\n        /* \"#utility.yul\":1814:1817   */\n      0x00\n        /* \"#utility.yul\":1842:1881   */\n      tag_327\n        /* \"#utility.yul\":1875:1880   */\n      dup3\n        /* \"#utility.yul\":1842:1881   */\n      tag_260\n      jump\t// in\n    tag_327:\n        /* \"#utility.yul\":1897:1968   */\n      tag_328\n        /* \"#utility.yul\":1961:1967   */\n      dup2\n        /* \"#utility.yul\":1956:1959   */\n      dup6\n        /* \"#utility.yul\":1897:1968   */\n      tag_261\n      jump\t// in\n    tag_328:\n        /* \"#utility.yul\":1890:1968   */\n      swap4\n      pop\n        /* \"#utility.yul\":1977:2029   */\n      tag_329\n        /* \"#utility.yul\":2022:2028   */\n      dup2\n        /* \"#utility.yul\":2017:2020   */\n      dup6\n        /* \"#utility.yul\":2010:2014   */\n      0x20\n        /* \"#utility.yul\":2003:2008   */\n      dup7\n        /* \"#utility.yul\":1999:2015   */\n      add\n        /* \"#utility.yul\":1977:2029   */\n      tag_262\n      jump\t// in\n    tag_329:\n        /* \"#utility.yul\":2054:2083   */\n      tag_330\n        /* \"#utility.yul\":2076:2082   */\n      dup2\n        /* \"#utility.yul\":2054:2083   */\n      tag_263\n      jump\t// in\n    tag_330:\n        /* \"#utility.yul\":2049:2052   */\n      dup5\n        /* \"#utility.yul\":2045:2084   */\n      add\n        /* \"#utility.yul\":2038:2084   */\n      swap2\n      pop\n        /* \"#utility.yul\":1818:2090   */\n      pop\n        /* \"#utility.yul\":1726:2090   */\n      swap3\n      swap2\n      pop\n      pop\n      jump\t// out\n        /* \"#utility.yul\":2096:2214   */\n    tag_265:\n        /* \"#utility.yul\":2183:2207   */\n      tag_332\n        /* \"#utility.yul\":2201:2206   */\n      dup2\n        /* \"#utility.yul\":2183:2207   */\n      tag_257\n      jump\t// in\n    tag_332:\n        /* \"#utility.yul\":2178:2181   */\n      dup3\n        /* \"#utility.yul\":2171:2208   */\n      mstore\n        /* \"#utility.yul\":2096:2214   */\n      pop\n      pop\n      jump\t// out\n        /* \"#utility.yul\":2220:2643   */\n    tag_28:\n        /* \"#utility.yul\":2361:2365   */\n      0x00\n        /* \"#utility.yul\":2399:2401   */\n      0x40\n        /* \"#utility.yul\":2388:2397   */\n      dup3\n        /* \"#utility.yul\":2384:2402   */\n      add\n        /* \"#utility.yul\":2376:2402   */\n      swap1\n      pop\n        /* \"#utility.yul\":2448:2457   */\n      dup2\n        /* \"#utility.yul\":2442:2446   */\n      dup2\n        /* \"#utility.yul\":2438:2458   */\n      sub\n        /* \"#utility.yul\":2434:2435   */\n      0x00\n        /* \"#utility.yul\":2423:2432   */\n      dup4\n        /* \"#utility.yul\":2419:2436   */\n      add\n        /* \"#utility.yul\":2412:2459   */\n      mstore\n        /* \"#utility.yul\":2476:2554   */\n      tag_334\n        /* \"#utility.yul\":2549:2553   */\n      dup2\n        /* \"#utility.yul\":2540:2546   */\n      dup6\n        /* \"#utility.yul\":2476:2554   */\n      tag_264\n      jump\t// in\n    tag_334:\n        /* \"#utility.yul\":2468:2554   */\n      swap1\n      pop\n        /* \"#utility.yul\":2564:2636   */\n      tag_335\n        /* \"#utility.yul\":2632:2634   */\n      0x20\n        /* \"#utility.yul\":2621:2630   */\n      dup4\n        /* \"#utility.yul\":2617:2635   */\n      add\n        /* \"#utility.yul\":2608:2614   */\n      dup5\n        /* \"#utility.yul\":2564:2636   */\n      tag_265\n      jump\t// in\n    tag_335:\n        /* \"#utility.yul\":2220:2643   */\n      swap4\n      swap3\n      pop\n      pop\n      pop\n      jump\t// out\n        /* \"#utility.yul\":2649:2775   */\n    tag_266:\n        /* \"#utility.yul\":2686:2693   */\n      0x00\n        /* \"#utility.yul\":2726:2768   */\n      0xffffffffffffffffffffffffffffffffffffffff\n        /* \"#utility.yul\":2719:2724   */\n      dup3\n        /* \"#utility.yul\":2715:2769   */\n      and\n        /* \"#utility.yul\":2704:2769   */\n      swap1\n      pop\n        /* \"#utility.yul\":2649:2775   */\n      swap2\n      swap1\n      pop\n      jump\t// out\n        /* \"#utility.yul\":2781:2877   */\n    tag_267:\n        /* \"#utility.yul\":2818:2825   */\n      0x00\n        /* \"#utility.yul\":2847:2871   */\n      tag_338\n        /* \"#utility.yul\":2865:2870   */\n      dup3\n        /* \"#utility.yul\":2847:2871   */\n      tag_266\n      jump\t// in\n    tag_338:\n        /* \"#utility.yul\":2836:2871   */\n      swap1\n      pop\n        /* \"#utility.yul\":2781:2877   */\n      swap2\n      swap1\n      pop\n      jump\t// out\n        /* \"#utility.yul\":2883:3001   */\n    tag_268:\n        /* \"#utility.yul\":2970:2994   */\n      tag_340\n        /* \"#utility.yul\":2988:2993   */\n      dup2\n        /* \"#utility.yul\":2970:2994   */\n      tag_267\n      jump\t// in\n    tag_340:\n        /* \"#utility.yul\":2965:2968   */\n      dup3\n        /* \"#utility.yul\":2958:2995   */\n      mstore\n        /* \"#utility.yul\":2883:3001   */\n      pop\n      pop\n      jump\t// out\n        /* \"#utility.yul\":3007:3229   */\n    tag_36:\n        /* \"#utility.yul\":3100:3104   */\n      0x00\n        /* \"#utility.yul\":3138:3140   */\n      0x20\n        /* \"#utility.yul\":3127:3136   */\n      dup3\n        /* \"#utility.yul\":3123:3141   */\n      add\n        /* \"#utility.yul\":3115:3141   */\n      swap1\n      pop\n        /* \"#utility.yul\":3151:3222   */\n      tag_342\n        /* \"#utility.yul\":3219:3220   */\n      0x00\n        /* \"#utility.yul\":3208:3217   */\n      dup4\n        /* \"#utility.yul\":3204:3221   */\n      add\n        /* \"#utility.yul\":3195:3201   */\n      dup5\n        /* \"#utility.yul\":3151:3222   */\n      tag_268\n      jump\t// in\n    tag_342:\n        /* \"#utility.yul\":3007:3229   */\n      swap3\n      swap2\n      pop\n      pop\n      jump\t// out\n        /* \"#utility.yul\":3235:3394   */\n    tag_269:\n        /* \"#utility.yul\":3309:3320   */\n      0x00\n        /* \"#utility.yul\":3343:3349   */\n      dup3\n        /* \"#utility.yul\":3338:3341   */\n      dup3\n        /* \"#utility.yul\":3331:3350   */\n      mstore\n        /* \"#utility.yul\":3383:3387   */\n      0x20\n        /* \"#utility.yul\":3378:3381   */\n      dup3\n        /* \"#utility.yul\":3374:3388   */\n      add\n        /* \"#utility.yul\":3359:3388   */\n      swap1\n      pop\n        /* \"#utility.yul\":3235:3394   */\n      swap3\n      swap2\n      pop\n      pop\n      jump\t// out\n        /* \"#utility.yul\":3400:3744   */\n    tag_270:\n        /* \"#utility.yul\":3478:3481   */\n      0x00\n        /* \"#utility.yul\":3506:3545   */\n      tag_345\n        /* \"#utility.yul\":3539:3544   */\n      dup3\n        /* \"#utility.yul\":3506:3545   */\n      tag_260\n      jump\t// in\n    tag_345:\n        /* \"#utility.yul\":3561:3622   */\n      tag_346\n        /* \"#utility.yul\":3615:3621   */\n      dup2\n        /* \"#utility.yul\":3610:3613   */\n      dup6\n        /* \"#utility.yul\":3561:3622   */\n      tag_269\n      jump\t// in\n    tag_346:\n        /* \"#utility.yul\":3554:3622   */\n      swap4\n      pop\n        /* \"#utility.yul\":3631:3683   */\n      tag_347\n        /* \"#utility.yul\":3676:3682   */\n      dup2\n        /* \"#utility.yul\":3671:3674   */\n      dup6\n        /* \"#utility.yul\":3664:3668   */\n      0x20\n        /* \"#utility.yul\":3657:3662   */\n      dup7\n        /* \"#utility.yul\":3653:3669   */\n      add\n        /* \"#utility.yul\":3631:3683   */\n      tag_262\n      jump\t// in\n    tag_347:\n        /* \"#utility.yul\":3708:3737   */\n      tag_348\n        /* \"#utility.yul\":3730:3736   */\n      dup2\n        /* \"#utility.yul\":3708:3737   */\n      tag_263\n      jump\t// in\n    tag_348:\n        /* \"#utility.yul\":3703:3706   */\n      dup5\n        /* \"#utility.yul\":3699:3738   */\n      add\n        /* \"#utility.yul\":3692:3738   */\n      swap2\n      pop\n        /* \"#utility.yul\":3482:3744   */\n      pop\n        /* \"#utility.yul\":3400:3744   */\n      swap3\n      swap2\n      pop\n      pop\n      jump\t// out\n        /* \"#utility.yul\":3750:3858   */\n    tag_271:\n        /* \"#utility.yul\":3827:3851   */\n      tag_350\n        /* \"#utility.yul\":3845:3850   */\n      dup2\n        /* \"#utility.yul\":3827:3851   */\n      tag_257\n      jump\t// in\n    tag_350:\n        /* \"#utility.yul\":3822:3825   */\n      dup3\n        /* \"#utility.yul\":3815:3852   */\n      mstore\n        /* \"#utility.yul\":3750:3858   */\n      pop\n      pop\n      jump\t// out\n        /* \"#utility.yul\":3920:4536   */\n    tag_272:\n        /* \"#utility.yul\":4037:4040   */\n      0x00\n        /* \"#utility.yul\":4073:4077   */\n      0x40\n        /* \"#utility.yul\":4068:4071   */\n      dup4\n        /* \"#utility.yul\":4064:4078   */\n      add\n        /* \"#utility.yul\":4167:4171   */\n      0x00\n        /* \"#utility.yul\":4160:4165   */\n      dup4\n        /* \"#utility.yul\":4156:4172   */\n      add\n        /* \"#utility.yul\":4150:4173   */\n      mload\n        /* \"#utility.yul\":4220:4223   */\n      dup5\n        /* \"#utility.yul\":4214:4218   */\n      dup3\n        /* \"#utility.yul\":4210:4224   */\n      sub\n        /* \"#utility.yul\":4203:4207   */\n      0x00\n        /* \"#utility.yul\":4198:4201   */\n      dup7\n        /* \"#utility.yul\":4194:4208   */\n      add\n        /* \"#utility.yul\":4187:4225   */\n      mstore\n        /* \"#utility.yul\":4246:4319   */\n      tag_352\n        /* \"#utility.yul\":4314:4318   */\n      dup3\n        /* \"#utility.yul\":4300:4312   */\n      dup3\n        /* \"#utility.yul\":4246:4319   */\n      tag_270\n      jump\t// in\n    tag_352:\n        /* \"#utility.yul\":4238:4319   */\n      swap2\n      pop\n        /* \"#utility.yul\":4088:4330   */\n      pop\n        /* \"#utility.yul\":4417:4421   */\n      0x20\n        /* \"#utility.yul\":4410:4415   */\n      dup4\n        /* \"#utility.yul\":4406:4422   */\n      add\n        /* \"#utility.yul\":4400:4423   */\n      mload\n        /* \"#utility.yul\":4436:4499   */\n      tag_353\n        /* \"#utility.yul\":4493:4497   */\n      0x20\n        /* \"#utility.yul\":4488:4491   */\n      dup7\n        /* \"#utility.yul\":4484:4498   */\n      add\n        /* \"#utility.yul\":4470:4482   */\n      dup3\n        /* \"#utility.yul\":4436:4499   */\n      tag_271\n      jump\t// in\n    tag_353:\n        /* \"#utility.yul\":4340:4509   */\n      pop\n        /* \"#utility.yul\":4526:4530   */\n      dup1\n        /* \"#utility.yul\":4519:4530   */\n      swap2\n      pop\n        /* \"#utility.yul\":4042:4536   */\n      pop\n        /* \"#utility.yul\":3920:4536   */\n      swap3\n      swap2\n      pop\n      pop\n      jump\t// out\n        /* \"#utility.yul\":4542:4911   */\n    tag_40:\n        /* \"#utility.yul\":4683:4687   */\n      0x00\n        /* \"#utility.yul\":4721:4723   */\n      0x20\n        /* \"#utility.yul\":4710:4719   */\n      dup3\n        /* \"#utility.yul\":4706:4724   */\n      add\n        /* \"#utility.yul\":4698:4724   */\n      swap1\n      pop\n        /* \"#utility.yul\":4770:4779   */\n      dup2\n        /* \"#utility.yul\":4764:4768   */\n      dup2\n        /* \"#utility.yul\":4760:4780   */\n      sub\n        /* \"#utility.yul\":4756:4757   */\n      0x00\n        /* \"#utility.yul\":4745:4754   */\n      dup4\n        /* \"#utility.yul\":4741:4758   */\n      add\n        /* \"#utility.yul\":4734:4781   */\n      mstore\n        /* \"#utility.yul\":4798:4904   */\n      tag_355\n        /* \"#utility.yul\":4899:4903   */\n      dup2\n        /* \"#utility.yul\":4890:4896   */\n      dup5\n        /* \"#utility.yul\":4798:4904   */\n      tag_272\n      jump\t// in\n    tag_355:\n        /* \"#utility.yul\":4790:4904   */\n      swap1\n      pop\n        /* \"#utility.yul\":4542:4911   */\n      swap3\n      swap2\n      pop\n      pop\n      jump\t// out\n        /* \"#utility.yul\":4917:5097   */\n    tag_67:\n        /* \"#utility.yul\":4965:5042   */\n      0x4e487b7100000000000000000000000000000000000000000000000000000000\n        /* \"#utility.yul\":4962:4963   */\n      0x00\n        /* \"#utility.yul\":4955:5043   */\n      mstore\n        /* \"#utility.yul\":5062:5066   */\n      0x21\n        /* \"#utility.yul\":5059:5060   */\n      0x04\n        /* \"#utility.yul\":5052:5067   */\n      mstore\n        /* \"#utility.yul\":5086:5090   */\n      0x24\n        /* \"#utility.yul\":5083:5084   */\n      0x00\n        /* \"#utility.yul\":5076:5091   */\n      revert\n        /* \"#utility.yul\":5103:5225   */\n    tag_273:\n        /* \"#utility.yul\":5193:5194   */\n      0x06\n        /* \"#utility.yul\":5186:5191   */\n      dup2\n        /* \"#utility.yul\":5183:5195   */\n      lt\n        /* \"#utility.yul\":5173:5219   */\n      tag_358\n      jumpi\n        /* \"#utility.yul\":5199:5217   */\n      tag_359\n      tag_67\n      jump\t// in\n    tag_359:\n        /* \"#utility.yul\":5173:5219   */\n    tag_358:\n        /* \"#utility.yul\":5103:5225   */\n      pop\n      jump\t// out\n        /* \"#utility.yul\":5231:5376   */\n    tag_274:\n        /* \"#utility.yul\":5285:5292   */\n      0x00\n        /* \"#utility.yul\":5314:5319   */\n      dup2\n        /* \"#utility.yul\":5303:5319   */\n      swap1\n      pop\n        /* \"#utility.yul\":5320:5370   */\n      tag_361\n        /* \"#utility.yul\":5364:5369   */\n      dup3\n        /* \"#utility.yul\":5320:5370   */\n      tag_273\n      jump\t// in\n    tag_361:\n        /* \"#utility.yul\":5231:5376   */\n      swap2\n      swap1\n      pop\n      jump\t// out\n        /* \"#utility.yul\":5382:5527   */\n    tag_275:\n        /* \"#utility.yul\":5447:5456   */\n      0x00\n        /* \"#utility.yul\":5480:5521   */\n      tag_363\n        /* \"#utility.yul\":5515:5520   */\n      dup3\n        /* \"#utility.yul\":5480:5521   */\n      tag_274\n      jump\t// in\n    tag_363:\n        /* \"#utility.yul\":5467:5521   */\n      swap1\n      pop\n        /* \"#utility.yul\":5382:5527   */\n      swap2\n      swap1\n      pop\n      jump\t// out\n        /* \"#utility.yul\":5533:5694   */\n    tag_276:\n        /* \"#utility.yul\":5635:5687   */\n      tag_365\n        /* \"#utility.yul\":5681:5686   */\n      dup2\n        /* \"#utility.yul\":5635:5687   */\n      tag_275\n      jump\t// in\n    tag_365:\n        /* \"#utility.yul\":5630:5633   */\n      dup3\n        /* \"#utility.yul\":5623:5688   */\n      mstore\n        /* \"#utility.yul\":5533:5694   */\n      pop\n      pop\n      jump\t// out\n        /* \"#utility.yul\":5700:5952   */\n    tag_44:\n        /* \"#utility.yul\":5808:5812   */\n      0x00\n        /* \"#utility.yul\":5846:5848   */\n      0x20\n        /* \"#utility.yul\":5835:5844   */\n      dup3\n        /* \"#utility.yul\":5831:5849   */\n      add\n        /* \"#utility.yul\":5823:5849   */\n      swap1\n      pop\n        /* \"#utility.yul\":5859:5945   */\n      tag_367\n        /* \"#utility.yul\":5942:5943   */\n      0x00\n        /* \"#utility.yul\":5931:5940   */\n      dup4\n        /* \"#utility.yul\":5927:5944   */\n      add\n        /* \"#utility.yul\":5918:5924   */\n      dup5\n        /* \"#utility.yul\":5859:5945   */\n      tag_276\n      jump\t// in\n    tag_367:\n        /* \"#utility.yul\":5700:5952   */\n      swap3\n      swap2\n      pop\n      pop\n      jump\t// out\n        /* \"#utility.yul\":5958:6075   */\n    tag_277:\n        /* \"#utility.yul\":6067:6068   */\n      0x00\n        /* \"#utility.yul\":6064:6065   */\n      dup1\n        /* \"#utility.yul\":6057:6069   */\n      revert\n        /* \"#utility.yul\":6081:6198   */\n    tag_278:\n        /* \"#utility.yul\":6190:6191   */\n      0x00\n        /* \"#utility.yul\":6187:6188   */\n      dup1\n        /* \"#utility.yul\":6180:6192   */\n      revert\n        /* \"#utility.yul\":6204:6384   */\n    tag_279:\n        /* \"#utility.yul\":6252:6329   */\n      0x4e487b7100000000000000000000000000000000000000000000000000000000\n        /* \"#utility.yul\":6249:6250   */\n      0x00\n        /* \"#utility.yul\":6242:6330   */\n      mstore\n        /* \"#utility.yul\":6349:6353   */\n      0x41\n        /* \"#utility.yul\":6346:6347   */\n      0x04\n        /* \"#utility.yul\":6339:6354   */\n      mstore\n        /* \"#utility.yul\":6373:6377   */\n      0x24\n        /* \"#utility.yul\":6370:6371   */\n      0x00\n        /* \"#utility.yul\":6363:6378   */\n      revert\n        /* \"#utility.yul\":6390:6671   */\n    tag_280:\n        /* \"#utility.yul\":6473:6500   */\n      tag_372\n        /* \"#utility.yul\":6495:6499   */\n      dup3\n        /* \"#utility.yul\":6473:6500   */\n      tag_263\n      jump\t// in\n    tag_372:\n        /* \"#utility.yul\":6465:6471   */\n      dup2\n        /* \"#utility.yul\":6461:6501   */\n      add\n        /* \"#utility.yul\":6603:6609   */\n      dup2\n        /* \"#utility.yul\":6591:6601   */\n      dup2\n        /* \"#utility.yul\":6588:6610   */\n      lt\n        /* \"#utility.yul\":6567:6585   */\n      0xffffffffffffffff\n        /* \"#utility.yul\":6555:6565   */\n      dup3\n        /* \"#utility.yul\":6552:6586   */\n      gt\n        /* \"#utility.yul\":6549:6611   */\n      or\n        /* \"#utility.yul\":6546:6634   */\n      iszero\n      tag_373\n      jumpi\n        /* \"#utility.yul\":6614:6632   */\n      tag_374\n      tag_279\n      jump\t// in\n    tag_374:\n        /* \"#utility.yul\":6546:6634   */\n    tag_373:\n        /* \"#utility.yul\":6654:6664   */\n      dup1\n        /* \"#utility.yul\":6650:6652   */\n      0x40\n        /* \"#utility.yul\":6643:6665   */\n      mstore\n        /* \"#utility.yul\":6433:6671   */\n      pop\n        /* \"#utility.yul\":6390:6671   */\n      pop\n      pop\n      jump\t// out\n        /* \"#utility.yul\":6677:6806   */\n    tag_281:\n        /* \"#utility.yul\":6711:6717   */\n      0x00\n        /* \"#utility.yul\":6738:6758   */\n      tag_376\n      tag_254\n      jump\t// in\n    tag_376:\n        /* \"#utility.yul\":6728:6758   */\n      swap1\n      pop\n        /* \"#utility.yul\":6767:6800   */\n      tag_377\n        /* \"#utility.yul\":6795:6799   */\n      dup3\n        /* \"#utility.yul\":6787:6793   */\n      dup3\n        /* \"#utility.yul\":6767:6800   */\n      tag_280\n      jump\t// in\n    tag_377:\n        /* \"#utility.yul\":6677:6806   */\n      swap2\n      swap1\n      pop\n      jump\t// out\n        /* \"#utility.yul\":6812:7120   */\n    tag_282:\n        /* \"#utility.yul\":6874:6878   */\n      0x00\n        /* \"#utility.yul\":6964:6982   */\n      0xffffffffffffffff\n        /* \"#utility.yul\":6956:6962   */\n      dup3\n        /* \"#utility.yul\":6953:6983   */\n      gt\n        /* \"#utility.yul\":6950:7006   */\n      iszero\n      tag_379\n      jumpi\n        /* \"#utility.yul\":6986:7004   */\n      tag_380\n      tag_279\n      jump\t// in\n    tag_380:\n        /* \"#utility.yul\":6950:7006   */\n    tag_379:\n        /* \"#utility.yul\":7024:7053   */\n      tag_381\n        /* \"#utility.yul\":7046:7052   */\n      dup3\n        /* \"#utility.yul\":7024:7053   */\n      tag_263\n      jump\t// in\n    tag_381:\n        /* \"#utility.yul\":7016:7053   */\n      swap1\n      pop\n        /* \"#utility.yul\":7108:7112   */\n      0x20\n        /* \"#utility.yul\":7102:7106   */\n      dup2\n        /* \"#utility.yul\":7098:7113   */\n      add\n        /* \"#utility.yul\":7090:7113   */\n      swap1\n      pop\n        /* \"#utility.yul\":6812:7120   */\n      swap2\n      swap1\n      pop\n      jump\t// out\n        /* \"#utility.yul\":7126:7280   */\n    tag_283:\n        /* \"#utility.yul\":7210:7216   */\n      dup3\n        /* \"#utility.yul\":7205:7208   */\n      dup2\n        /* \"#utility.yul\":7200:7203   */\n      dup4\n        /* \"#utility.yul\":7187:7217   */\n      calldatacopy\n        /* \"#utility.yul\":7272:7273   */\n      0x00\n        /* \"#utility.yul\":7263:7269   */\n      dup4\n        /* \"#utility.yul\":7258:7261   */\n      dup4\n        /* \"#utility.yul\":7254:7270   */\n      add\n        /* \"#utility.yul\":7247:7274   */\n      mstore\n        /* \"#utility.yul\":7126:7280   */\n      pop\n      pop\n      pop\n      jump\t// out\n        /* \"#utility.yul\":7286:7698   */\n    tag_284:\n        /* \"#utility.yul\":7364:7369   */\n      0x00\n        /* \"#utility.yul\":7389:7455   */\n      tag_384\n        /* \"#utility.yul\":7405:7454   */\n      tag_385\n        /* \"#utility.yul\":7447:7453   */\n      dup5\n        /* \"#utility.yul\":7405:7454   */\n      tag_282\n      jump\t// in\n    tag_385:\n        /* \"#utility.yul\":7389:7455   */\n      tag_281\n      jump\t// in\n    tag_384:\n        /* \"#utility.yul\":7380:7455   */\n      swap1\n      pop\n        /* \"#utility.yul\":7478:7484   */\n      dup3\n        /* \"#utility.yul\":7471:7476   */\n      dup2\n        /* \"#utility.yul\":7464:7485   */\n      mstore\n        /* \"#utility.yul\":7516:7520   */\n      0x20\n        /* \"#utility.yul\":7509:7514   */\n      dup2\n        /* \"#utility.yul\":7505:7521   */\n      add\n        /* \"#utility.yul\":7554:7557   */\n      dup5\n        /* \"#utility.yul\":7545:7551   */\n      dup5\n        /* \"#utility.yul\":7540:7543   */\n      dup5\n        /* \"#utility.yul\":7536:7552   */\n      add\n        /* \"#utility.yul\":7533:7558   */\n      gt\n        /* \"#utility.yul\":7530:7642   */\n      iszero\n      tag_386\n      jumpi\n        /* \"#utility.yul\":7561:7640   */\n      tag_387\n      tag_278\n      jump\t// in\n    tag_387:\n        /* \"#utility.yul\":7530:7642   */\n    tag_386:\n        /* \"#utility.yul\":7651:7692   */\n      tag_388\n        /* \"#utility.yul\":7685:7691   */\n      dup5\n        /* \"#utility.yul\":7680:7683   */\n      dup3\n        /* \"#utility.yul\":7675:7678   */\n      dup6\n        /* \"#utility.yul\":7651:7692   */\n      tag_283\n      jump\t// in\n    tag_388:\n        /* \"#utility.yul\":7370:7698   */\n      pop\n        /* \"#utility.yul\":7286:7698   */\n      swap4\n      swap3\n      pop\n      pop\n      pop\n      jump\t// out\n        /* \"#utility.yul\":7718:8058   */\n    tag_285:\n        /* \"#utility.yul\":7774:7779   */\n      0x00\n        /* \"#utility.yul\":7823:7826   */\n      dup3\n        /* \"#utility.yul\":7816:7820   */\n      0x1f\n        /* \"#utility.yul\":7808:7814   */\n      dup4\n        /* \"#utility.yul\":7804:7821   */\n      add\n        /* \"#utility.yul\":7800:7827   */\n      slt\n        /* \"#utility.yul\":7790:7912   */\n      tag_390\n      jumpi\n        /* \"#utility.yul\":7831:7910   */\n      tag_391\n      tag_277\n      jump\t// in\n    tag_391:\n        /* \"#utility.yul\":7790:7912   */\n    tag_390:\n        /* \"#utility.yul\":7948:7954   */\n      dup2\n        /* \"#utility.yul\":7935:7955   */\n      calldataload\n        /* \"#utility.yul\":7973:8052   */\n      tag_392\n        /* \"#utility.yul\":8048:8051   */\n      dup5\n        /* \"#utility.yul\":8040:8046   */\n      dup3\n        /* \"#utility.yul\":8033:8037   */\n      0x20\n        /* \"#utility.yul\":8025:8031   */\n      dup7\n        /* \"#utility.yul\":8021:8038   */\n      add\n        /* \"#utility.yul\":7973:8052   */\n      tag_284\n      jump\t// in\n    tag_392:\n        /* \"#utility.yul\":7964:8052   */\n      swap2\n      pop\n        /* \"#utility.yul\":7780:8058   */\n      pop\n        /* \"#utility.yul\":7718:8058   */\n      swap3\n      swap2\n      pop\n      pop\n      jump\t// out\n        /* \"#utility.yul\":8064:8573   */\n    tag_53:\n        /* \"#utility.yul\":8133:8139   */\n      0x00\n        /* \"#utility.yul\":8182:8184   */\n      0x20\n        /* \"#utility.yul\":8170:8179   */\n      dup3\n        /* \"#utility.yul\":8161:8168   */\n      dup5\n        /* \"#utility.yul\":8157:8180   */\n      sub\n        /* \"#utility.yul\":8153:8185   */\n      slt\n        /* \"#utility.yul\":8150:8269   */\n      iszero\n      tag_394\n      jumpi\n        /* \"#utility.yul\":8188:8267   */\n      tag_395\n      tag_255\n      jump\t// in\n    tag_395:\n        /* \"#utility.yul\":8150:8269   */\n    tag_394:\n        /* \"#utility.yul\":8336:8337   */\n      0x00\n        /* \"#utility.yul\":8325:8334   */\n      dup3\n        /* \"#utility.yul\":8321:8338   */\n      add\n        /* \"#utility.yul\":8308:8339   */\n      calldataload\n        /* \"#utility.yul\":8366:8384   */\n      0xffffffffffffffff\n        /* \"#utility.yul\":8358:8364   */\n      dup2\n        /* \"#utility.yul\":8355:8385   */\n      gt\n        /* \"#utility.yul\":8352:8469   */\n      iszero\n      tag_396\n      jumpi\n        /* \"#utility.yul\":8388:8467   */\n      tag_397\n      tag_256\n      jump\t// in\n    tag_397:\n        /* \"#utility.yul\":8352:8469   */\n    tag_396:\n        /* \"#utility.yul\":8493:8556   */\n      tag_398\n        /* \"#utility.yul\":8548:8555   */\n      dup5\n        /* \"#utility.yul\":8539:8545   */\n      dup3\n        /* \"#utility.yul\":8528:8537   */\n      dup6\n        /* \"#utility.yul\":8524:8546   */\n      add\n        /* \"#utility.yul\":8493:8556   */\n      tag_285\n      jump\t// in\n    tag_398:\n        /* \"#utility.yul\":8483:8556   */\n      swap2\n      pop\n        /* \"#utility.yul\":8279:8566   */\n      pop\n        /* \"#utility.yul\":8064:8573   */\n      swap3\n      swap2\n      pop\n      pop\n      jump\t// out\n        /* \"#utility.yul\":8579:8701   */\n    tag_286:\n        /* \"#utility.yul\":8652:8676   */\n      tag_400\n        /* \"#utility.yul\":8670:8675   */\n      dup2\n        /* \"#utility.yul\":8652:8676   */\n      tag_267\n      jump\t// in\n    tag_400:\n        /* \"#utility.yul\":8645:8650   */\n      dup2\n        /* \"#utility.yul\":8642:8677   */\n      eq\n        /* \"#utility.yul\":8632:8695   */\n      tag_401\n      jumpi\n        /* \"#utility.yul\":8691:8692   */\n      0x00\n        /* \"#utility.yul\":8688:8689   */\n      dup1\n        /* \"#utility.yul\":8681:8693   */\n      revert\n        /* \"#utility.yul\":8632:8695   */\n    tag_401:\n        /* \"#utility.yul\":8579:8701   */\n      pop\n      jump\t// out\n        /* \"#utility.yul\":8707:8846   */\n    tag_287:\n        /* \"#utility.yul\":8753:8758   */\n      0x00\n        /* \"#utility.yul\":8791:8797   */\n      dup2\n        /* \"#utility.yul\":8778:8798   */\n      calldataload\n        /* \"#utility.yul\":8769:8798   */\n      swap1\n      pop\n        /* \"#utility.yul\":8807:8840   */\n      tag_403\n        /* \"#utility.yul\":8834:8839   */\n      dup2\n        /* \"#utility.yul\":8807:8840   */\n      tag_286\n      jump\t// in\n    tag_403:\n        /* \"#utility.yul\":8707:8846   */\n      swap3\n      swap2\n      pop\n      pop\n      jump\t// out\n        /* \"#utility.yul\":8852:9181   */\n    tag_57:\n        /* \"#utility.yul\":8911:8917   */\n      0x00\n        /* \"#utility.yul\":8960:8962   */\n      0x20\n        /* \"#utility.yul\":8948:8957   */\n      dup3\n        /* \"#utility.yul\":8939:8946   */\n      dup5\n        /* \"#utility.yul\":8935:8958   */\n      sub\n        /* \"#utility.yul\":8931:8963   */\n      slt\n        /* \"#utility.yul\":8928:9047   */\n      iszero\n      tag_405\n      jumpi\n        /* \"#utility.yul\":8966:9045   */\n      tag_406\n      tag_255\n      jump\t// in\n    tag_406:\n        /* \"#utility.yul\":8928:9047   */\n    tag_405:\n        /* \"#utility.yul\":9086:9087   */\n      0x00\n        /* \"#utility.yul\":9111:9164   */\n      tag_407\n        /* \"#utility.yul\":9156:9163   */\n      dup5\n        /* \"#utility.yul\":9147:9153   */\n      dup3\n        /* \"#utility.yul\":9136:9145   */\n      dup6\n        /* \"#utility.yul\":9132:9154   */\n      add\n        /* \"#utility.yul\":9111:9164   */\n      tag_287\n      jump\t// in\n    tag_407:\n        /* \"#utility.yul\":9101:9164   */\n      swap2\n      pop\n        /* \"#utility.yul\":9057:9174   */\n      pop\n        /* \"#utility.yul\":8852:9181   */\n      swap3\n      swap2\n      pop\n      pop\n      jump\t// out\n        /* \"#utility.yul\":9187:9418   */\n    tag_288:\n        /* \"#utility.yul\":9327:9361   */\n      0x596f7520617265206e6f742061626c6520746f20646f20746869732061637469\n        /* \"#utility.yul\":9323:9324   */\n      0x00\n        /* \"#utility.yul\":9315:9321   */\n      dup3\n        /* \"#utility.yul\":9311:9325   */\n      add\n        /* \"#utility.yul\":9304:9362   */\n      mstore\n        /* \"#utility.yul\":9396:9410   */\n      0x6f6e207269676874206e6f770000000000000000000000000000000000000000\n        /* \"#utility.yul\":9391:9393   */\n      0x20\n        /* \"#utility.yul\":9383:9389   */\n      dup3\n        /* \"#utility.yul\":9379:9394   */\n      add\n        /* \"#utility.yul\":9372:9411   */\n      mstore\n        /* \"#utility.yul\":9187:9418   */\n      pop\n      jump\t// out\n        /* \"#utility.yul\":9424:9790   */\n    tag_289:\n        /* \"#utility.yul\":9566:9569   */\n      0x00\n        /* \"#utility.yul\":9587:9654   */\n      tag_410\n        /* \"#utility.yul\":9651:9653   */\n      0x2c\n        /* \"#utility.yul\":9646:9649   */\n      dup4\n        /* \"#utility.yul\":9587:9654   */\n      tag_261\n      jump\t// in\n    tag_410:\n        /* \"#utility.yul\":9580:9654   */\n      swap2\n      pop\n        /* \"#utility.yul\":9663:9756   */\n      tag_411\n        /* \"#utility.yul\":9752:9755   */\n      dup3\n        /* \"#utility.yul\":9663:9756   */\n      tag_288\n      jump\t// in\n    tag_411:\n        /* \"#utility.yul\":9781:9783   */\n      0x40\n        /* \"#utility.yul\":9776:9779   */\n      dup3\n        /* \"#utility.yul\":9772:9784   */\n      add\n        /* \"#utility.yul\":9765:9784   */\n      swap1\n      pop\n        /* \"#utility.yul\":9424:9790   */\n      swap2\n      swap1\n      pop\n      jump\t// out\n        /* \"#utility.yul\":9796:10215   */\n    tag_72:\n        /* \"#utility.yul\":9962:9966   */\n      0x00\n        /* \"#utility.yul\":10000:10002   */\n      0x20\n        /* \"#utility.yul\":9989:9998   */\n      dup3\n        /* \"#utility.yul\":9985:10003   */\n      add\n        /* \"#utility.yul\":9977:10003   */\n      swap1\n      pop\n        /* \"#utility.yul\":10049:10058   */\n      dup2\n        /* \"#utility.yul\":10043:10047   */\n      dup2\n        /* \"#utility.yul\":10039:10059   */\n      sub\n        /* \"#utility.yul\":10035:10036   */\n      0x00\n        /* \"#utility.yul\":10024:10033   */\n      dup4\n        /* \"#utility.yul\":10020:10037   */\n      add\n        /* \"#utility.yul\":10013:10060   */\n      mstore\n        /* \"#utility.yul\":10077:10208   */\n      tag_413\n        /* \"#utility.yul\":10203:10207   */\n      dup2\n        /* \"#utility.yul\":10077:10208   */\n      tag_289\n      jump\t// in\n    tag_413:\n        /* \"#utility.yul\":10069:10208   */\n      swap1\n      pop\n        /* \"#utility.yul\":9796:10215   */\n      swap2\n      swap1\n      pop\n      jump\t// out\n        /* \"#utility.yul\":10221:10398   */\n    tag_290:\n        /* \"#utility.yul\":10361:10390   */\n      0x596f7520617265206e6f7420616c6c6f77656420746f20766f74650000000000\n        /* \"#utility.yul\":10357:10358   */\n      0x00\n        /* \"#utility.yul\":10349:10355   */\n      dup3\n        /* \"#utility.yul\":10345:10359   */\n      add\n        /* \"#utility.yul\":10338:10391   */\n      mstore\n        /* \"#utility.yul\":10221:10398   */\n      pop\n      jump\t// out\n        /* \"#utility.yul\":10404:10770   */\n    tag_291:\n        /* \"#utility.yul\":10546:10549   */\n      0x00\n        /* \"#utility.yul\":10567:10634   */\n      tag_416\n        /* \"#utility.yul\":10631:10633   */\n      0x1b\n        /* \"#utility.yul\":10626:10629   */\n      dup4\n        /* \"#utility.yul\":10567:10634   */\n      tag_261\n      jump\t// in\n    tag_416:\n        /* \"#utility.yul\":10560:10634   */\n      swap2\n      pop\n        /* \"#utility.yul\":10643:10736   */\n      tag_417\n        /* \"#utility.yul\":10732:10735   */\n      dup3\n        /* \"#utility.yul\":10643:10736   */\n      tag_290\n      jump\t// in\n    tag_417:\n        /* \"#utility.yul\":10761:10763   */\n      0x20\n        /* \"#utility.yul\":10756:10759   */\n      dup3\n        /* \"#utility.yul\":10752:10764   */\n      add\n        /* \"#utility.yul\":10745:10764   */\n      swap1\n      pop\n        /* \"#utility.yul\":10404:10770   */\n      swap2\n      swap1\n      pop\n      jump\t// out\n        /* \"#utility.yul\":10776:11195   */\n    tag_76:\n        /* \"#utility.yul\":10942:10946   */\n      0x00\n        /* \"#utility.yul\":10980:10982   */\n      0x20\n        /* \"#utility.yul\":10969:10978   */\n      dup3\n        /* \"#utility.yul\":10965:10983   */\n      add\n        /* \"#utility.yul\":10957:10983   */\n      swap1\n      pop\n        /* \"#utility.yul\":11029:11038   */\n      dup2\n        /* \"#utility.yul\":11023:11027   */\n      dup2\n        /* \"#utility.yul\":11019:11039   */\n      sub\n        /* \"#utility.yul\":11015:11016   */\n      0x00\n        /* \"#utility.yul\":11004:11013   */\n      dup4\n        /* \"#utility.yul\":11000:11017   */\n      add\n        /* \"#utility.yul\":10993:11040   */\n      mstore\n        /* \"#utility.yul\":11057:11188   */\n      tag_419\n        /* \"#utility.yul\":11183:11187   */\n      dup2\n        /* \"#utility.yul\":11057:11188   */\n      tag_291\n      jump\t// in\n    tag_419:\n        /* \"#utility.yul\":11049:11188   */\n      swap1\n      pop\n        /* \"#utility.yul\":10776:11195   */\n      swap2\n      swap1\n      pop\n      jump\t// out\n        /* \"#utility.yul\":11201:11373   */\n    tag_292:\n        /* \"#utility.yul\":11341:11365   */\n      0x596f75206861766520616c726561647920766f74656400000000000000000000\n        /* \"#utility.yul\":11337:11338   */\n      0x00\n        /* \"#utility.yul\":11329:11335   */\n      dup3\n        /* \"#utility.yul\":11325:11339   */\n      add\n        /* \"#utility.yul\":11318:11366   */\n      mstore\n        /* \"#utility.yul\":11201:11373   */\n      pop\n      jump\t// out\n        /* \"#utility.yul\":11379:11745   */\n    tag_293:\n        /* \"#utility.yul\":11521:11524   */\n      0x00\n        /* \"#utility.yul\":11542:11609   */\n      tag_422\n        /* \"#utility.yul\":11606:11608   */\n      0x16\n        /* \"#utility.yul\":11601:11604   */\n      dup4\n        /* \"#utility.yul\":11542:11609   */\n      tag_261\n      jump\t// in\n    tag_422:\n        /* \"#utility.yul\":11535:11609   */\n      swap2\n      pop\n        /* \"#utility.yul\":11618:11711   */\n      tag_423\n        /* \"#utility.yul\":11707:11710   */\n      dup3\n        /* \"#utility.yul\":11618:11711   */\n      tag_292\n      jump\t// in\n    tag_423:\n        /* \"#utility.yul\":11736:11738   */\n      0x20\n        /* \"#utility.yul\":11731:11734   */\n      dup3\n        /* \"#utility.yul\":11727:11739   */\n      add\n        /* \"#utility.yul\":11720:11739   */\n      swap1\n      pop\n        /* \"#utility.yul\":11379:11745   */\n      swap2\n      swap1\n      pop\n      jump\t// out\n        /* \"#utility.yul\":11751:12170   */\n    tag_79:\n        /* \"#utility.yul\":11917:11921   */\n      0x00\n        /* \"#utility.yul\":11955:11957   */\n      0x20\n        /* \"#utility.yul\":11944:11953   */\n      dup3\n        /* \"#utility.yul\":11940:11958   */\n      add\n        /* \"#utility.yul\":11932:11958   */\n      swap1\n      pop\n        /* \"#utility.yul\":12004:12013   */\n      dup2\n        /* \"#utility.yul\":11998:12002   */\n      dup2\n        /* \"#utility.yul\":11994:12014   */\n      sub\n        /* \"#utility.yul\":11990:11991   */\n      0x00\n        /* \"#utility.yul\":11979:11988   */\n      dup4\n        /* \"#utility.yul\":11975:11992   */\n      add\n        /* \"#utility.yul\":11968:12015   */\n      mstore\n        /* \"#utility.yul\":12032:12163   */\n      tag_425\n        /* \"#utility.yul\":12158:12162   */\n      dup2\n        /* \"#utility.yul\":12032:12163   */\n      tag_293\n      jump\t// in\n    tag_425:\n        /* \"#utility.yul\":12024:12163   */\n      swap1\n      pop\n        /* \"#utility.yul\":11751:12170   */\n      swap2\n      swap1\n      pop\n      jump\t// out\n        /* \"#utility.yul\":12176:12356   */\n    tag_82:\n        /* \"#utility.yul\":12224:12301   */\n      0x4e487b7100000000000000000000000000000000000000000000000000000000\n        /* \"#utility.yul\":12221:12222   */\n      0x00\n        /* \"#utility.yul\":12214:12302   */\n      mstore\n        /* \"#utility.yul\":12321:12325   */\n      0x32\n        /* \"#utility.yul\":12318:12319   */\n      0x04\n        /* \"#utility.yul\":12311:12326   */\n      mstore\n        /* \"#utility.yul\":12345:12349   */\n      0x24\n        /* \"#utility.yul\":12342:12343   */\n      0x00\n        /* \"#utility.yul\":12335:12350   */\n      revert\n        /* \"#utility.yul\":12362:12542   */\n    tag_294:\n        /* \"#utility.yul\":12410:12487   */\n      0x4e487b7100000000000000000000000000000000000000000000000000000000\n        /* \"#utility.yul\":12407:12408   */\n      0x00\n        /* \"#utility.yul\":12400:12488   */\n      mstore\n        /* \"#utility.yul\":12507:12511   */\n      0x11\n        /* \"#utility.yul\":12504:12505   */\n      0x04\n        /* \"#utility.yul\":12497:12512   */\n      mstore\n        /* \"#utility.yul\":12531:12535   */\n      0x24\n        /* \"#utility.yul\":12528:12529   */\n      0x00\n        /* \"#utility.yul\":12521:12536   */\n      revert\n        /* \"#utility.yul\":12548:12853   */\n    tag_85:\n        /* \"#utility.yul\":12588:12591   */\n      0x00\n        /* \"#utility.yul\":12607:12627   */\n      tag_429\n        /* \"#utility.yul\":12625:12626   */\n      dup3\n        /* \"#utility.yul\":12607:12627   */\n      tag_257\n      jump\t// in\n    tag_429:\n        /* \"#utility.yul\":12602:12627   */\n      swap2\n      pop\n        /* \"#utility.yul\":12641:12661   */\n      tag_430\n        /* \"#utility.yul\":12659:12660   */\n      dup4\n        /* \"#utility.yul\":12641:12661   */\n      tag_257\n      jump\t// in\n    tag_430:\n        /* \"#utility.yul\":12636:12661   */\n      swap3\n      pop\n        /* \"#utility.yul\":12795:12796   */\n      dup3\n        /* \"#utility.yul\":12727:12793   */\n      0xffffffffffffffffffffffffffffffffffffffffffffffffffffffffffffffff\n        /* \"#utility.yul\":12723:12797   */\n      sub\n        /* \"#utility.yul\":12720:12721   */\n      dup3\n        /* \"#utility.yul\":12717:12798   */\n      gt\n        /* \"#utility.yul\":12714:12821   */\n      iszero\n      tag_431\n      jumpi\n        /* \"#utility.yul\":12801:12819   */\n      tag_432\n      tag_294\n      jump\t// in\n    tag_432:\n        /* \"#utility.yul\":12714:12821   */\n    tag_431:\n        /* \"#utility.yul\":12845:12846   */\n      dup3\n        /* \"#utility.yul\":12842:12843   */\n      dup3\n        /* \"#utility.yul\":12838:12847   */\n      add\n        /* \"#utility.yul\":12831:12847   */\n      swap1\n      pop\n        /* \"#utility.yul\":12548:12853   */\n      swap3\n      swap2\n      pop\n      pop\n      jump\t// out\n        /* \"#utility.yul\":12859:13191   */\n    tag_87:\n        /* \"#utility.yul\":12980:12984   */\n      0x00\n        /* \"#utility.yul\":13018:13020   */\n      0x40\n        /* \"#utility.yul\":13007:13016   */\n      dup3\n        /* \"#utility.yul\":13003:13021   */\n      add\n        /* \"#utility.yul\":12995:13021   */\n      swap1\n      pop\n        /* \"#utility.yul\":13031:13102   */\n      tag_434\n        /* \"#utility.yul\":13099:13100   */\n      0x00\n        /* \"#utility.yul\":13088:13097   */\n      dup4\n        /* \"#utility.yul\":13084:13101   */\n      add\n        /* \"#utility.yul\":13075:13081   */\n      dup6\n        /* \"#utility.yul\":13031:13102   */\n      tag_268\n      jump\t// in\n    tag_434:\n        /* \"#utility.yul\":13112:13184   */\n      tag_435\n        /* \"#utility.yul\":13180:13182   */\n      0x20\n        /* \"#utility.yul\":13169:13178   */\n      dup4\n        /* \"#utility.yul\":13165:13183   */\n      add\n        /* \"#utility.yul\":13156:13162   */\n      dup5\n        /* \"#utility.yul\":13112:13184   */\n      tag_265\n      jump\t// in\n    tag_435:\n        /* \"#utility.yul\":12859:13191   */\n      swap4\n      swap3\n      pop\n      pop\n      pop\n      jump\t// out\n        /* \"#utility.yul\":13197:13377   */\n    tag_295:\n        /* \"#utility.yul\":13245:13322   */\n      0x4e487b7100000000000000000000000000000000000000000000000000000000\n        /* \"#utility.yul\":13242:13243   */\n      0x00\n        /* \"#utility.yul\":13235:13323   */\n      mstore\n        /* \"#utility.yul\":13342:13346   */\n      0x22\n        /* \"#utility.yul\":13339:13340   */\n      0x04\n        /* \"#utility.yul\":13332:13347   */\n      mstore\n        /* \"#utility.yul\":13366:13370   */\n      0x24\n        /* \"#utility.yul\":13363:13364   */\n      0x00\n        /* \"#utility.yul\":13356:13371   */\n      revert\n        /* \"#utility.yul\":13383:13703   */\n    tag_91:\n        /* \"#utility.yul\":13427:13433   */\n      0x00\n        /* \"#utility.yul\":13464:13465   */\n      0x02\n        /* \"#utility.yul\":13458:13462   */\n      dup3\n        /* \"#utility.yul\":13454:13466   */\n      div\n        /* \"#utility.yul\":13444:13466   */\n      swap1\n      pop\n        /* \"#utility.yul\":13511:13512   */\n      0x01\n        /* \"#utility.yul\":13505:13509   */\n      dup3\n        /* \"#utility.yul\":13501:13513   */\n      and\n        /* \"#utility.yul\":13532:13550   */\n      dup1\n        /* \"#utility.yul\":13522:13603   */\n      tag_438\n      jumpi\n        /* \"#utility.yul\":13588:13592   */\n      0x7f\n        /* \"#utility.yul\":13580:13586   */\n      dup3\n        /* \"#utility.yul\":13576:13593   */\n      and\n        /* \"#utility.yul\":13566:13593   */\n      swap2\n      pop\n        /* \"#utility.yul\":13522:13603   */\n    tag_438:\n        /* \"#utility.yul\":13650:13652   */\n      0x20\n        /* \"#utility.yul\":13642:13648   */\n      dup3\n        /* \"#utility.yul\":13639:13653   */\n      lt\n        /* \"#utility.yul\":13619:13637   */\n      dup2\n        /* \"#utility.yul\":13616:13654   */\n      eq\n        /* \"#utility.yul\":13613:13697   */\n      iszero\n      tag_439\n      jumpi\n        /* \"#utility.yul\":13669:13687   */\n      tag_440\n      tag_295\n      jump\t// in\n    tag_440:\n        /* \"#utility.yul\":13613:13697   */\n    tag_439:\n        /* \"#utility.yul\":13434:13703   */\n      pop\n        /* \"#utility.yul\":13383:13703   */\n      swap2\n      swap1\n      pop\n      jump\t// out\n        /* \"#utility.yul\":13709:14101   */\n    tag_110:\n        /* \"#utility.yul\":13860:13864   */\n      0x00\n        /* \"#utility.yul\":13898:13900   */\n      0x40\n        /* \"#utility.yul\":13887:13896   */\n      dup3\n        /* \"#utility.yul\":13883:13901   */\n      add\n        /* \"#utility.yul\":13875:13901   */\n      swap1\n      pop\n        /* \"#utility.yul\":13911:13997   */\n      tag_442\n        /* \"#utility.yul\":13994:13995   */\n      0x00\n        /* \"#utility.yul\":13983:13992   */\n      dup4\n        /* \"#utility.yul\":13979:13996   */\n      add\n        /* \"#utility.yul\":13970:13976   */\n      dup6\n        /* \"#utility.yul\":13911:13997   */\n      tag_276\n      jump\t// in\n    tag_442:\n        /* \"#utility.yul\":14007:14094   */\n      tag_443\n        /* \"#utility.yul\":14090:14092   */\n      0x20\n        /* \"#utility.yul\":14079:14088   */\n      dup4\n        /* \"#utility.yul\":14075:14093   */\n      add\n        /* \"#utility.yul\":14066:14072   */\n      dup5\n        /* \"#utility.yul\":14007:14094   */\n      tag_276\n      jump\t// in\n    tag_443:\n        /* \"#utility.yul\":13709:14101   */\n      swap4\n      swap3\n      pop\n      pop\n      pop\n      jump\t// out\n        /* \"#utility.yul\":14107:14340   */\n    tag_169:\n        /* \"#utility.yul\":14146:14149   */\n      0x00\n        /* \"#utility.yul\":14169:14193   */\n      tag_445\n        /* \"#utility.yul\":14187:14192   */\n      dup3\n        /* \"#utility.yul\":14169:14193   */\n      tag_257\n      jump\t// in\n    tag_445:\n        /* \"#utility.yul\":14160:14193   */\n      swap2\n      pop\n        /* \"#utility.yul\":14215:14281   */\n      0xffffffffffffffffffffffffffffffffffffffffffffffffffffffffffffffff\n        /* \"#utility.yul\":14208:14213   */\n      dup3\n        /* \"#utility.yul\":14205:14282   */\n      eq\n        /* \"#utility.yul\":14202:14305   */\n      iszero\n      tag_446\n      jumpi\n        /* \"#utility.yul\":14285:14303   */\n      tag_447\n      tag_294\n      jump\t// in\n    tag_447:\n        /* \"#utility.yul\":14202:14305   */\n    tag_446:\n        /* \"#utility.yul\":14332:14333   */\n      0x01\n        /* \"#utility.yul\":14325:14330   */\n      dup3\n        /* \"#utility.yul\":14321:14334   */\n      add\n        /* \"#utility.yul\":14314:14334   */\n      swap1\n      pop\n        /* \"#utility.yul\":14107:14340   */\n      swap2\n      swap1\n      pop\n      jump\t// out\n        /* \"#utility.yul\":14346:14571   */\n    tag_296:\n        /* \"#utility.yul\":14486:14520   */\n      0x596f7520617265206e6f7420616c6c6f77656420746f206d616b652061207072\n        /* \"#utility.yul\":14482:14483   */\n      0x00\n        /* \"#utility.yul\":14474:14480   */\n      dup3\n        /* \"#utility.yul\":14470:14484   */\n      add\n        /* \"#utility.yul\":14463:14521   */\n      mstore\n        /* \"#utility.yul\":14555:14563   */\n      0x6f706f73616c0000000000000000000000000000000000000000000000000000\n        /* \"#utility.yul\":14550:14552   */\n      0x20\n        /* \"#utility.yul\":14542:14548   */\n      dup3\n        /* \"#utility.yul\":14538:14553   */\n      add\n        /* \"#utility.yul\":14531:14564   */\n      mstore\n        /* \"#utility.yul\":14346:14571   */\n      pop\n      jump\t// out\n        /* \"#utility.yul\":14577:14943   */\n    tag_297:\n        /* \"#utility.yul\":14719:14722   */\n      0x00\n        /* \"#utility.yul\":14740:14807   */\n      tag_450\n        /* \"#utility.yul\":14804:14806   */\n      0x26\n        /* \"#utility.yul\":14799:14802   */\n      dup4\n        /* \"#utility.yul\":14740:14807   */\n      tag_261\n      jump\t// in\n    tag_450:\n        /* \"#utility.yul\":14733:14807   */\n      swap2\n      pop\n        /* \"#utility.yul\":14816:14909   */\n      tag_451\n        /* \"#utility.yul\":14905:14908   */\n      dup3\n        /* \"#utility.yul\":14816:14909   */\n      tag_296\n      jump\t// in\n    tag_451:\n        /* \"#utility.yul\":14934:14936   */\n      0x40\n        /* \"#utility.yul\":14929:14932   */\n      dup3\n        /* \"#utility.yul\":14925:14937   */\n      add\n        /* \"#utility.yul\":14918:14937   */\n      swap1\n      pop\n        /* \"#utility.yul\":14577:14943   */\n      swap2\n      swap1\n      pop\n      jump\t// out\n        /* \"#utility.yul\":14949:15368   */\n    tag_196:\n        /* \"#utility.yul\":15115:15119   */\n      0x00\n        /* \"#utility.yul\":15153:15155   */\n      0x20\n        /* \"#utility.yul\":15142:15151   */\n      dup3\n        /* \"#utility.yul\":15138:15156   */\n      add\n        /* \"#utility.yul\":15130:15156   */\n      swap1\n      pop\n        /* \"#utility.yul\":15202:15211   */\n      dup2\n        /* \"#utility.yul\":15196:15200   */\n      dup2\n        /* \"#utility.yul\":15192:15212   */\n      sub\n        /* \"#utility.yul\":15188:15189   */\n      0x00\n        /* \"#utility.yul\":15177:15186   */\n      dup4\n        /* \"#utility.yul\":15173:15190   */\n      add\n        /* \"#utility.yul\":15166:15213   */\n      mstore\n        /* \"#utility.yul\":15230:15361   */\n      tag_453\n        /* \"#utility.yul\":15356:15360   */\n      dup2\n        /* \"#utility.yul\":15230:15361   */\n      tag_297\n      jump\t// in\n    tag_453:\n        /* \"#utility.yul\":15222:15361   */\n      swap1\n      pop\n        /* \"#utility.yul\":14949:15368   */\n      swap2\n      swap1\n      pop\n      jump\t// out\n        /* \"#utility.yul\":15374:15594   */\n    tag_298:\n        /* \"#utility.yul\":15514:15548   */\n      0x54686973206164647265737320697320616c726561647920696e20766f746572\n        /* \"#utility.yul\":15510:15511   */\n      0x00\n        /* \"#utility.yul\":15502:15508   */\n      dup3\n        /* \"#utility.yul\":15498:15512   */\n      add\n        /* \"#utility.yul\":15491:15549   */\n      mstore\n        /* \"#utility.yul\":15583:15586   */\n      0x7300000000000000000000000000000000000000000000000000000000000000\n        /* \"#utility.yul\":15578:15580   */\n      0x20\n        /* \"#utility.yul\":15570:15576   */\n      dup3\n        /* \"#utility.yul\":15566:15581   */\n      add\n        /* \"#utility.yul\":15559:15587   */\n      mstore\n        /* \"#utility.yul\":15374:15594   */\n      pop\n      jump\t// out\n        /* \"#utility.yul\":15600:15966   */\n    tag_299:\n        /* \"#utility.yul\":15742:15745   */\n      0x00\n        /* \"#utility.yul\":15763:15830   */\n      tag_456\n        /* \"#utility.yul\":15827:15829   */\n      0x21\n        /* \"#utility.yul\":15822:15825   */\n      dup4\n        /* \"#utility.yul\":15763:15830   */\n      tag_261\n      jump\t// in\n    tag_456:\n        /* \"#utility.yul\":15756:15830   */\n      swap2\n      pop\n        /* \"#utility.yul\":15839:15932   */\n      tag_457\n        /* \"#utility.yul\":15928:15931   */\n      dup3\n        /* \"#utility.yul\":15839:15932   */\n      tag_298\n      jump\t// in\n    tag_457:\n        /* \"#utility.yul\":15957:15959   */\n      0x40\n        /* \"#utility.yul\":15952:15955   */\n      dup3\n        /* \"#utility.yul\":15948:15960   */\n      add\n        /* \"#utility.yul\":15941:15960   */\n      swap1\n      pop\n        /* \"#utility.yul\":15600:15966   */\n      swap2\n      swap1\n      pop\n      jump\t// out\n        /* \"#utility.yul\":15972:16391   */\n    tag_213:\n        /* \"#utility.yul\":16138:16142   */\n      0x00\n        /* \"#utility.yul\":16176:16178   */\n      0x20\n        /* \"#utility.yul\":16165:16174   */\n      dup3\n        /* \"#utility.yul\":16161:16179   */\n      add\n        /* \"#utility.yul\":16153:16179   */\n      swap1\n      pop\n        /* \"#utility.yul\":16225:16234   */\n      dup2\n        /* \"#utility.yul\":16219:16223   */\n      dup2\n        /* \"#utility.yul\":16215:16235   */\n      sub\n        /* \"#utility.yul\":16211:16212   */\n      0x00\n        /* \"#utility.yul\":16200:16209   */\n      dup4\n        /* \"#utility.yul\":16196:16213   */\n      add\n        /* \"#utility.yul\":16189:16236   */\n      mstore\n        /* \"#utility.yul\":16253:16384   */\n      tag_459\n        /* \"#utility.yul\":16379:16383   */\n      dup2\n        /* \"#utility.yul\":16253:16384   */\n      tag_299\n      jump\t// in\n    tag_459:\n        /* \"#utility.yul\":16245:16384   */\n      swap1\n      pop\n        /* \"#utility.yul\":15972:16391   */\n      swap2\n      swap1\n      pop\n      jump\t// out\n        /* \"#utility.yul\":16397:16622   */\n    tag_300:\n        /* \"#utility.yul\":16537:16571   */\n      0x4f776e61626c653a206e6577206f776e657220697320746865207a65726f2061\n        /* \"#utility.yul\":16533:16534   */\n      0x00\n        /* \"#utility.yul\":16525:16531   */\n      dup3\n        /* \"#utility.yul\":16521:16535   */\n      add\n        /* \"#utility.yul\":16514:16572   */\n      mstore\n        /* \"#utility.yul\":16606:16614   */\n      0x6464726573730000000000000000000000000000000000000000000000000000\n        /* \"#utility.yul\":16601:16603   */\n      0x20\n        /* \"#utility.yul\":16593:16599   */\n      dup3\n        /* \"#utility.yul\":16589:16604   */\n      add\n        /* \"#utility.yul\":16582:16615   */\n      mstore\n        /* \"#utility.yul\":16397:16622   */\n      pop\n      jump\t// out\n        /* \"#utility.yul\":16628:16994   */\n    tag_301:\n        /* \"#utility.yul\":16770:16773   */\n      0x00\n        /* \"#utility.yul\":16791:16858   */\n      tag_462\n        /* \"#utility.yul\":16855:16857   */\n      0x26\n        /* \"#utility.yul\":16850:16853   */\n      dup4\n        /* \"#utility.yul\":16791:16858   */\n      tag_261\n      jump\t// in\n    tag_462:\n        /* \"#utility.yul\":16784:16858   */\n      swap2\n      pop\n        /* \"#utility.yul\":16867:16960   */\n      tag_463\n        /* \"#utility.yul\":16956:16959   */\n      dup3\n        /* \"#utility.yul\":16867:16960   */\n      tag_300\n      jump\t// in\n    tag_463:\n        /* \"#utility.yul\":16985:16987   */\n      0x40\n        /* \"#utility.yul\":16980:16983   */\n      dup3\n        /* \"#utility.yul\":16976:16988   */\n      add\n        /* \"#utility.yul\":16969:16988   */\n      swap1\n      pop\n        /* \"#utility.yul\":16628:16994   */\n      swap2\n      swap1\n      pop\n      jump\t// out\n        /* \"#utility.yul\":17000:17419   */\n    tag_233:\n        /* \"#utility.yul\":17166:17170   */\n      0x00\n        /* \"#utility.yul\":17204:17206   */\n      0x20\n        /* \"#utility.yul\":17193:17202   */\n      dup3\n        /* \"#utility.yul\":17189:17207   */\n      add\n        /* \"#utility.yul\":17181:17207   */\n      swap1\n      pop\n        /* \"#utility.yul\":17253:17262   */\n      dup2\n        /* \"#utility.yul\":17247:17251   */\n      dup2\n        /* \"#utility.yul\":17243:17263   */\n      sub\n        /* \"#utility.yul\":17239:17240   */\n      0x00\n        /* \"#utility.yul\":17228:17237   */\n      dup4\n        /* \"#utility.yul\":17224:17241   */\n      add\n        /* \"#utility.yul\":17217:17264   */\n      mstore\n        /* \"#utility.yul\":17281:17412   */\n      tag_465\n        /* \"#utility.yul\":17407:17411   */\n      dup2\n        /* \"#utility.yul\":17281:17412   */\n      tag_301\n      jump\t// in\n    tag_465:\n        /* \"#utility.yul\":17273:17412   */\n      swap1\n      pop\n        /* \"#utility.yul\":17000:17419   */\n      swap2\n      swap1\n      pop\n      jump\t// out\n        /* \"#utility.yul\":17425:17607   */\n    tag_302:\n        /* \"#utility.yul\":17565:17599   */\n      0x4f776e61626c653a2063616c6c6572206973206e6f7420746865206f776e6572\n        /* \"#utility.yul\":17561:17562   */\n      0x00\n        /* \"#utility.yul\":17553:17559   */\n      dup3\n        /* \"#utility.yul\":17549:17563   */\n      add\n        /* \"#utility.yul\":17542:17600   */\n      mstore\n        /* \"#utility.yul\":17425:17607   */\n      pop\n      jump\t// out\n        /* \"#utility.yul\":17613:17979   */\n    tag_303:\n        /* \"#utility.yul\":17755:17758   */\n      0x00\n        /* \"#utility.yul\":17776:17843   */\n      tag_468\n        /* \"#utility.yul\":17840:17842   */\n      0x20\n        /* \"#utility.yul\":17835:17838   */\n      dup4\n        /* \"#utility.yul\":17776:17843   */\n      tag_261\n      jump\t// in\n    tag_468:\n        /* \"#utility.yul\":17769:17843   */\n      swap2\n      pop\n        /* \"#utility.yul\":17852:17945   */\n      tag_469\n        /* \"#utility.yul\":17941:17944   */\n      dup3\n        /* \"#utility.yul\":17852:17945   */\n      tag_302\n      jump\t// in\n    tag_469:\n        /* \"#utility.yul\":17970:17972   */\n      0x20\n        /* \"#utility.yul\":17965:17968   */\n      dup3\n        /* \"#utility.yul\":17961:17973   */\n      add\n        /* \"#utility.yul\":17954:17973   */\n      swap1\n      pop\n        /* \"#utility.yul\":17613:17979   */\n      swap2\n      swap1\n      pop\n      jump\t// out\n        /* \"#utility.yul\":17985:18404   */\n    tag_241:\n        /* \"#utility.yul\":18151:18155   */\n      0x00\n        /* \"#utility.yul\":18189:18191   */\n      0x20\n        /* \"#utility.yul\":18178:18187   */\n      dup3\n        /* \"#utility.yul\":18174:18192   */\n      add\n        /* \"#utility.yul\":18166:18192   */\n      swap1\n      pop\n        /* \"#utility.yul\":18238:18247   */\n      dup2\n        /* \"#utility.yul\":18232:18236   */\n      dup2\n        /* \"#utility.yul\":18228:18248   */\n      sub\n        /* \"#utility.yul\":18224:18225   */\n      0x00\n        /* \"#utility.yul\":18213:18222   */\n      dup4\n        /* \"#utility.yul\":18209:18226   */\n      add\n        /* \"#utility.yul\":18202:18249   */\n      mstore\n        /* \"#utility.yul\":18266:18397   */\n      tag_471\n        /* \"#utility.yul\":18392:18396   */\n      dup2\n        /* \"#utility.yul\":18266:18397   */\n      tag_303\n      jump\t// in\n    tag_471:\n        /* \"#utility.yul\":18258:18397   */\n      swap1\n      pop\n        /* \"#utility.yul\":17985:18404   */\n      swap2\n      swap1\n      pop\n      jump\t// out\n\n    auxdata: 0xa2646970667358221220c7337f4377083fed61fab1ba724f1a174d9356b8fa0612fab3742ebad872f95564736f6c634300080c0033\n}\n",
				"bytecode": {
					"linkReferences": {},
					"object": "608060405234801561001057600080fd5b5061002d61002261003260201b60201c565b61003a60201b60201c565b6100fe565b600033905090565b60008060009054906101000a900473ffffffffffffffffffffffffffffffffffffffff169050816000806101000a81548173ffffffffffffffffffffffffffffffffffffffff021916908373ffffffffffffffffffffffffffffffffffffffff1602179055508173ffffffffffffffffffffffffffffffffffffffff168173ffffffffffffffffffffffffffffffffffffffff167f8be0079c531659141344cd1fd0a4f28419497f9722a3daafe3b4186f6b6457e060405160405180910390a35050565b611c798061010d6000396000f3fe608060405234801561001057600080fd5b50600436106100ea5760003560e01c8063a7bfab161161008c578063e2dd58c611610066578063e2dd58c6146101c8578063ed8a1608146101e4578063ee74c67814610200578063f2fde38b1461020a576100ea565b8063a7bfab16146101aa578063ada7415f146101b4578063e09b8c79146101be576100ea565b8063715018a6116100c8578063715018a6146101465780638da5cb5b146101505780638e7ea5b21461016e578063a1edffa21461018c576100ea565b80630121b93f146100ef578063013cf08b1461010b5780636c2974451461013c575b600080fd5b61010960048036038101906101049190611285565b610226565b005b61012560048036038101906101209190611285565b6104d8565b60405161013392919061135a565b60405180910390f35b610144610594565b005b61014e61067c565b005b610158610690565b60405161016591906113cb565b60405180910390f35b6101766106b9565b604051610183919061147c565b60405180910390f35b610194610809565b6040516101a19190611515565b60405180910390f35b6101b261081c565b005b6101bc610904565b005b6101c6610a6f565b005b6101e260048036038101906101dd9190611665565b610b57565b005b6101fe60048036038101906101f991906116da565b610d23565b005b610208610ec8565b005b610224600480360381019061021f91906116da565b610fb0565b005b600380600581111561023b5761023a61149e565b5b600060149054906101000a900460ff16600581111561025d5761025c61149e565b5b1461029d576040517f08c379a000000000000000000000000000000000000000000000000000000000815260040161029490611779565b60405180910390fd5b600260003373ffffffffffffffffffffffffffffffffffffffff1673ffffffffffffffffffffffffffffffffffffffff16815260200190815260200160002060000160009054906101000a900460ff1661032c576040517f08c379a0000000000000000000000000000000000000000000000000000000008152600401610323906117e5565b60405180910390fd5b600260003373ffffffffffffffffffffffffffffffffffffffff1673ffffffffffffffffffffffffffffffffffffffff16815260200190815260200160002060000160019054906101000a900460ff16156103bc576040517f08c379a00000000000000000000000000000000000000000000000000000000081526004016103b390611851565b60405180910390fd5b6001600383815481106103d2576103d1611871565b5b906000526020600020906002020160010160008282546103f291906118cf565b925050819055506001600260003373ffffffffffffffffffffffffffffffffffffffff1673ffffffffffffffffffffffffffffffffffffffff16815260200190815260200160002060000160016101000a81548160ff02191690831515021790555081600260003373ffffffffffffffffffffffffffffffffffffffff1673ffffffffffffffffffffffffffffffffffffffff168152602001908152602001600020600101819055507f4d99b957a2bc29a30ebd96a7be8e68fe50a3c701db28a91436490b7d53870ca433836040516104cc929190611925565b60405180910390a15050565b600381815481106104e857600080fd5b906000526020600020906002020160009150905080600001805461050b9061197d565b80601f01602080910402602001604051908101604052809291908181526020018280546105379061197d565b80156105845780601f1061055957610100808354040283529160200191610584565b820191906000526020600020905b81548152906001019060200180831161056757829003601f168201915b5050505050908060010154905082565b60018060058111156105a9576105a861149e565b5b600060149054906101000a900460ff1660058111156105cb576105ca61149e565b5b1461060b576040517f08c379a000000000000000000000000000000000000000000000000000000000815260040161060290611779565b60405180910390fd5b610613611034565b6002600060146101000a81548160ff021916908360058111156106395761063861149e565b5b02179055507f0a97a4ee45751e2abf3e4fc8946939630b11b371ea8ae39ccdc3056e98f5cc3f600160026040516106719291906119af565b60405180910390a150565b610684611034565b61068e60006110b2565b565b60008060009054906101000a900473ffffffffffffffffffffffffffffffffffffffff16905090565b6106c161117e565b60058060058111156106d6576106d561149e565b5b600060149054906101000a900460ff1660058111156106f8576106f761149e565b5b14610738576040517f08c379a000000000000000000000000000000000000000000000000000000000815260040161072f90611779565b60405180910390fd5b60036001548154811061074e5761074d611871565b5b90600052602060002090600202016040518060400160405290816000820180546107779061197d565b80601f01602080910402602001604051908101604052809291908181526020018280546107a39061197d565b80156107f05780601f106107c5576101008083540402835291602001916107f0565b820191906000526020600020905b8154815290600101906020018083116107d357829003601f168201915b5050505050815260200160018201548152505091505090565b600060149054906101000a900460ff1681565b60038060058111156108315761083061149e565b5b600060149054906101000a900460ff1660058111156108535761085261149e565b5b14610893576040517f08c379a000000000000000000000000000000000000000000000000000000000815260040161088a90611779565b60405180910390fd5b61089b611034565b6004600060146101000a81548160ff021916908360058111156108c1576108c061149e565b5b02179055507f0a97a4ee45751e2abf3e4fc8946939630b11b371ea8ae39ccdc3056e98f5cc3f600360046040516108f99291906119af565b60405180910390a150565b60048060058111156109195761091861149e565b5b600060149054906101000a900460ff16600581111561093b5761093a61149e565b5b1461097b576040517f08c379a000000000000000000000000000000000000000000000000000000000815260040161097290611779565b60405180910390fd5b610983611034565b6000805b600380549050811015610a045781600382815481106109a9576109a8611871565b5b90600052602060002090600202016001015411156109f157600381815481106109d5576109d4611871565b5b9060005260206000209060020201600101549150806001819055505b80806109fc906119d8565b915050610987565b506005600060146101000a81548160ff02191690836005811115610a2b57610a2a61149e565b5b02179055507f0a97a4ee45751e2abf3e4fc8946939630b11b371ea8ae39ccdc3056e98f5cc3f60046005604051610a639291906119af565b60405180910390a15050565b6000806005811115610a8457610a8361149e565b5b600060149054906101000a900460ff166005811115610aa657610aa561149e565b5b14610ae6576040517f08c379a0000000000000000000000000000000000000000000000000000000008152600401610add90611779565b60405180910390fd5b610aee611034565b6001600060146101000a81548160ff02191690836005811115610b1457610b1361149e565b5b02179055507f0a97a4ee45751e2abf3e4fc8946939630b11b371ea8ae39ccdc3056e98f5cc3f60006001604051610b4c9291906119af565b60405180910390a150565b6001806005811115610b6c57610b6b61149e565b5b600060149054906101000a900460ff166005811115610b8e57610b8d61149e565b5b14610bce576040517f08c379a0000000000000000000000000000000000000000000000000000000008152600401610bc590611779565b60405180910390fd5b600260003373ffffffffffffffffffffffffffffffffffffffff1673ffffffffffffffffffffffffffffffffffffffff16815260200190815260200160002060000160009054906101000a900460ff16610c5d576040517f08c379a0000000000000000000000000000000000000000000000000000000008152600401610c5490611a93565b60405180910390fd5b60036040518060400160405280848152602001600081525090806001815401808255809150506001900390600052602060002090600202016000909190919091506000820151816000019080519060200190610cba929190611198565b506020820151816001015550506001600380549050610cd991906118cf565b600260003373ffffffffffffffffffffffffffffffffffffffff1673ffffffffffffffffffffffffffffffffffffffff168152602001908152602001600020600101819055505050565b6000806005811115610d3857610d3761149e565b5b600060149054906101000a900460ff166005811115610d5a57610d5961149e565b5b14610d9a576040517f08c379a0000000000000000000000000000000000000000000000000000000008152600401610d9190611779565b60405180910390fd5b610da2611034565b600260008373ffffffffffffffffffffffffffffffffffffffff1673ffffffffffffffffffffffffffffffffffffffff16815260200190815260200160002060000160009054906101000a900460ff1615610e32576040517f08c379a0000000000000000000000000000000000000000000000000000000008152600401610e2990611b25565b60405180910390fd5b6001600260008473ffffffffffffffffffffffffffffffffffffffff1673ffffffffffffffffffffffffffffffffffffffff16815260200190815260200160002060000160006101000a81548160ff0219169083151502179055507fb6be2187d059cc2a55fe29e0e503b566e1e0f8c8780096e185429350acffd3dd82604051610ebc91906113cb565b60405180910390a15050565b6002806005811115610edd57610edc61149e565b5b600060149054906101000a900460ff166005811115610eff57610efe61149e565b5b14610f3f576040517f08c379a0000000000000000000000000000000000000000000000000000000008152600401610f3690611779565b60405180910390fd5b610f47611034565b6003600060146101000a81548160ff02191690836005811115610f6d57610f6c61149e565b5b02179055507f0a97a4ee45751e2abf3e4fc8946939630b11b371ea8ae39ccdc3056e98f5cc3f60026003604051610fa59291906119af565b60405180910390a150565b610fb8611034565b600073ffffffffffffffffffffffffffffffffffffffff168173ffffffffffffffffffffffffffffffffffffffff161415611028576040517f08c379a000000000000000000000000000000000000000000000000000000000815260040161101f90611bb7565b60405180910390fd5b611031816110b2565b50565b61103c611176565b73ffffffffffffffffffffffffffffffffffffffff1661105a610690565b73ffffffffffffffffffffffffffffffffffffffff16146110b0576040517f08c379a00000000000000000000000000000000000000000000000000000000081526004016110a790611c23565b60405180910390fd5b565b60008060009054906101000a900473ffffffffffffffffffffffffffffffffffffffff169050816000806101000a81548173ffffffffffffffffffffffffffffffffffffffff021916908373ffffffffffffffffffffffffffffffffffffffff1602179055508173ffffffffffffffffffffffffffffffffffffffff168173ffffffffffffffffffffffffffffffffffffffff167f8be0079c531659141344cd1fd0a4f28419497f9722a3daafe3b4186f6b6457e060405160405180910390a35050565b600033905090565b604051806040016040528060608152602001600081525090565b8280546111a49061197d565b90600052602060002090601f0160209004810192826111c6576000855561120d565b82601f106111df57805160ff191683800117855561120d565b8280016001018555821561120d579182015b8281111561120c5782518255916020019190600101906111f1565b5b50905061121a919061121e565b5090565b5b8082111561123757600081600090555060010161121f565b5090565b6000604051905090565b600080fd5b600080fd5b6000819050919050565b6112628161124f565b811461126d57600080fd5b50565b60008135905061127f81611259565b92915050565b60006020828403121561129b5761129a611245565b5b60006112a984828501611270565b91505092915050565b600081519050919050565b600082825260208201905092915050565b60005b838110156112ec5780820151818401526020810190506112d1565b838111156112fb576000848401525b50505050565b6000601f19601f8301169050919050565b600061131d826112b2565b61132781856112bd565b93506113378185602086016112ce565b61134081611301565b840191505092915050565b6113548161124f565b82525050565b600060408201905081810360008301526113748185611312565b9050611383602083018461134b565b9392505050565b600073ffffffffffffffffffffffffffffffffffffffff82169050919050565b60006113b58261138a565b9050919050565b6113c5816113aa565b82525050565b60006020820190506113e060008301846113bc565b92915050565b600082825260208201905092915050565b6000611402826112b2565b61140c81856113e6565b935061141c8185602086016112ce565b61142581611301565b840191505092915050565b6114398161124f565b82525050565b6000604083016000830151848203600086015261145c82826113f7565b91505060208301516114716020860182611430565b508091505092915050565b60006020820190508181036000830152611496818461143f565b905092915050565b7f4e487b7100000000000000000000000000000000000000000000000000000000600052602160045260246000fd5b600681106114de576114dd61149e565b5b50565b60008190506114ef826114cd565b919050565b60006114ff826114e1565b9050919050565b61150f816114f4565b82525050565b600060208201905061152a6000830184611506565b92915050565b600080fd5b600080fd5b7f4e487b7100000000000000000000000000000000000000000000000000000000600052604160045260246000fd5b61157282611301565b810181811067ffffffffffffffff821117156115915761159061153a565b5b80604052505050565b60006115a461123b565b90506115b08282611569565b919050565b600067ffffffffffffffff8211156115d0576115cf61153a565b5b6115d982611301565b9050602081019050919050565b82818337600083830152505050565b6000611608611603846115b5565b61159a565b90508281526020810184848401111561162457611623611535565b5b61162f8482856115e6565b509392505050565b600082601f83011261164c5761164b611530565b5b813561165c8482602086016115f5565b91505092915050565b60006020828403121561167b5761167a611245565b5b600082013567ffffffffffffffff8111156116995761169861124a565b5b6116a584828501611637565b91505092915050565b6116b7816113aa565b81146116c257600080fd5b50565b6000813590506116d4816116ae565b92915050565b6000602082840312156116f0576116ef611245565b5b60006116fe848285016116c5565b91505092915050565b7f596f7520617265206e6f742061626c6520746f20646f2074686973206163746960008201527f6f6e207269676874206e6f770000000000000000000000000000000000000000602082015250565b6000611763602c836112bd565b915061176e82611707565b604082019050919050565b6000602082019050818103600083015261179281611756565b9050919050565b7f596f7520617265206e6f7420616c6c6f77656420746f20766f74650000000000600082015250565b60006117cf601b836112bd565b91506117da82611799565b602082019050919050565b600060208201905081810360008301526117fe816117c2565b9050919050565b7f596f75206861766520616c726561647920766f74656400000000000000000000600082015250565b600061183b6016836112bd565b915061184682611805565b602082019050919050565b6000602082019050818103600083015261186a8161182e565b9050919050565b7f4e487b7100000000000000000000000000000000000000000000000000000000600052603260045260246000fd5b7f4e487b7100000000000000000000000000000000000000000000000000000000600052601160045260246000fd5b60006118da8261124f565b91506118e58361124f565b9250827fffffffffffffffffffffffffffffffffffffffffffffffffffffffffffffffff0382111561191a576119196118a0565b5b828201905092915050565b600060408201905061193a60008301856113bc565b611947602083018461134b565b9392505050565b7f4e487b7100000000000000000000000000000000000000000000000000000000600052602260045260246000fd5b6000600282049050600182168061199557607f821691505b602082108114156119a9576119a861194e565b5b50919050565b60006040820190506119c46000830185611506565b6119d16020830184611506565b9392505050565b60006119e38261124f565b91507fffffffffffffffffffffffffffffffffffffffffffffffffffffffffffffffff821415611a1657611a156118a0565b5b600182019050919050565b7f596f7520617265206e6f7420616c6c6f77656420746f206d616b65206120707260008201527f6f706f73616c0000000000000000000000000000000000000000000000000000602082015250565b6000611a7d6026836112bd565b9150611a8882611a21565b604082019050919050565b60006020820190508181036000830152611aac81611a70565b9050919050565b7f54686973206164647265737320697320616c726561647920696e20766f74657260008201527f7300000000000000000000000000000000000000000000000000000000000000602082015250565b6000611b0f6021836112bd565b9150611b1a82611ab3565b604082019050919050565b60006020820190508181036000830152611b3e81611b02565b9050919050565b7f4f776e61626c653a206e6577206f776e657220697320746865207a65726f206160008201527f6464726573730000000000000000000000000000000000000000000000000000602082015250565b6000611ba16026836112bd565b9150611bac82611b45565b604082019050919050565b60006020820190508181036000830152611bd081611b94565b9050919050565b7f4f776e61626c653a2063616c6c6572206973206e6f7420746865206f776e6572600082015250565b6000611c0d6020836112bd565b9150611c1882611bd7565b602082019050919050565b60006020820190508181036000830152611c3c81611c00565b905091905056fea2646970667358221220c7337f4377083fed61fab1ba724f1a174d9356b8fa0612fab3742ebad872f95564736f6c634300080c0033",
					"opcodes": "PUSH1 0x80 PUSH1 0x40 MSTORE CALLVALUE DUP1 ISZERO PUSH2 0x10 JUMPI PUSH1 0x0 DUP1 REVERT JUMPDEST POP PUSH2 0x2D PUSH2 0x22 PUSH2 0x32 PUSH1 0x20 SHL PUSH1 0x20 SHR JUMP JUMPDEST PUSH2 0x3A PUSH1 0x20 SHL PUSH1 0x20 SHR JUMP JUMPDEST PUSH2 0xFE JUMP JUMPDEST PUSH1 0x0 CALLER SWAP1 POP SWAP1 JUMP JUMPDEST PUSH1 0x0 DUP1 PUSH1 0x0 SWAP1 SLOAD SWAP1 PUSH2 0x100 EXP SWAP1 DIV PUSH20 0xFFFFFFFFFFFFFFFFFFFFFFFFFFFFFFFFFFFFFFFF AND SWAP1 POP DUP2 PUSH1 0x0 DUP1 PUSH2 0x100 EXP DUP2 SLOAD DUP2 PUSH20 0xFFFFFFFFFFFFFFFFFFFFFFFFFFFFFFFFFFFFFFFF MUL NOT AND SWAP1 DUP4 PUSH20 0xFFFFFFFFFFFFFFFFFFFFFFFFFFFFFFFFFFFFFFFF AND MUL OR SWAP1 SSTORE POP DUP2 PUSH20 0xFFFFFFFFFFFFFFFFFFFFFFFFFFFFFFFFFFFFFFFF AND DUP2 PUSH20 0xFFFFFFFFFFFFFFFFFFFFFFFFFFFFFFFFFFFFFFFF AND PUSH32 0x8BE0079C531659141344CD1FD0A4F28419497F9722A3DAAFE3B4186F6B6457E0 PUSH1 0x40 MLOAD PUSH1 0x40 MLOAD DUP1 SWAP2 SUB SWAP1 LOG3 POP POP JUMP JUMPDEST PUSH2 0x1C79 DUP1 PUSH2 0x10D PUSH1 0x0 CODECOPY PUSH1 0x0 RETURN INVALID PUSH1 0x80 PUSH1 0x40 MSTORE CALLVALUE DUP1 ISZERO PUSH2 0x10 JUMPI PUSH1 0x0 DUP1 REVERT JUMPDEST POP PUSH1 0x4 CALLDATASIZE LT PUSH2 0xEA JUMPI PUSH1 0x0 CALLDATALOAD PUSH1 0xE0 SHR DUP1 PUSH4 0xA7BFAB16 GT PUSH2 0x8C JUMPI DUP1 PUSH4 0xE2DD58C6 GT PUSH2 0x66 JUMPI DUP1 PUSH4 0xE2DD58C6 EQ PUSH2 0x1C8 JUMPI DUP1 PUSH4 0xED8A1608 EQ PUSH2 0x1E4 JUMPI DUP1 PUSH4 0xEE74C678 EQ PUSH2 0x200 JUMPI DUP1 PUSH4 0xF2FDE38B EQ PUSH2 0x20A JUMPI PUSH2 0xEA JUMP JUMPDEST DUP1 PUSH4 0xA7BFAB16 EQ PUSH2 0x1AA JUMPI DUP1 PUSH4 0xADA7415F EQ PUSH2 0x1B4 JUMPI DUP1 PUSH4 0xE09B8C79 EQ PUSH2 0x1BE JUMPI PUSH2 0xEA JUMP JUMPDEST DUP1 PUSH4 0x715018A6 GT PUSH2 0xC8 JUMPI DUP1 PUSH4 0x715018A6 EQ PUSH2 0x146 JUMPI DUP1 PUSH4 0x8DA5CB5B EQ PUSH2 0x150 JUMPI DUP1 PUSH4 0x8E7EA5B2 EQ PUSH2 0x16E JUMPI DUP1 PUSH4 0xA1EDFFA2 EQ PUSH2 0x18C JUMPI PUSH2 0xEA JUMP JUMPDEST DUP1 PUSH4 0x121B93F EQ PUSH2 0xEF JUMPI DUP1 PUSH4 0x13CF08B EQ PUSH2 0x10B JUMPI DUP1 PUSH4 0x6C297445 EQ PUSH2 0x13C JUMPI JUMPDEST PUSH1 0x0 DUP1 REVERT JUMPDEST PUSH2 0x109 PUSH1 0x4 DUP1 CALLDATASIZE SUB DUP2 ADD SWAP1 PUSH2 0x104 SWAP2 SWAP1 PUSH2 0x1285 JUMP JUMPDEST PUSH2 0x226 JUMP JUMPDEST STOP JUMPDEST PUSH2 0x125 PUSH1 0x4 DUP1 CALLDATASIZE SUB DUP2 ADD SWAP1 PUSH2 0x120 SWAP2 SWAP1 PUSH2 0x1285 JUMP JUMPDEST PUSH2 0x4D8 JUMP JUMPDEST PUSH1 0x40 MLOAD PUSH2 0x133 SWAP3 SWAP2 SWAP1 PUSH2 0x135A JUMP JUMPDEST PUSH1 0x40 MLOAD DUP1 SWAP2 SUB SWAP1 RETURN JUMPDEST PUSH2 0x144 PUSH2 0x594 JUMP JUMPDEST STOP JUMPDEST PUSH2 0x14E PUSH2 0x67C JUMP JUMPDEST STOP JUMPDEST PUSH2 0x158 PUSH2 0x690 JUMP JUMPDEST PUSH1 0x40 MLOAD PUSH2 0x165 SWAP2 SWAP1 PUSH2 0x13CB JUMP JUMPDEST PUSH1 0x40 MLOAD DUP1 SWAP2 SUB SWAP1 RETURN JUMPDEST PUSH2 0x176 PUSH2 0x6B9 JUMP JUMPDEST PUSH1 0x40 MLOAD PUSH2 0x183 SWAP2 SWAP1 PUSH2 0x147C JUMP JUMPDEST PUSH1 0x40 MLOAD DUP1 SWAP2 SUB SWAP1 RETURN JUMPDEST PUSH2 0x194 PUSH2 0x809 JUMP JUMPDEST PUSH1 0x40 MLOAD PUSH2 0x1A1 SWAP2 SWAP1 PUSH2 0x1515 JUMP JUMPDEST PUSH1 0x40 MLOAD DUP1 SWAP2 SUB SWAP1 RETURN JUMPDEST PUSH2 0x1B2 PUSH2 0x81C JUMP JUMPDEST STOP JUMPDEST PUSH2 0x1BC PUSH2 0x904 JUMP JUMPDEST STOP JUMPDEST PUSH2 0x1C6 PUSH2 0xA6F JUMP JUMPDEST STOP JUMPDEST PUSH2 0x1E2 PUSH1 0x4 DUP1 CALLDATASIZE SUB DUP2 ADD SWAP1 PUSH2 0x1DD SWAP2 SWAP1 PUSH2 0x1665 JUMP JUMPDEST PUSH2 0xB57 JUMP JUMPDEST STOP JUMPDEST PUSH2 0x1FE PUSH1 0x4 DUP1 CALLDATASIZE SUB DUP2 ADD SWAP1 PUSH2 0x1F9 SWAP2 SWAP1 PUSH2 0x16DA JUMP JUMPDEST PUSH2 0xD23 JUMP JUMPDEST STOP JUMPDEST PUSH2 0x208 PUSH2 0xEC8 JUMP JUMPDEST STOP JUMPDEST PUSH2 0x224 PUSH1 0x4 DUP1 CALLDATASIZE SUB DUP2 ADD SWAP1 PUSH2 0x21F SWAP2 SWAP1 PUSH2 0x16DA JUMP JUMPDEST PUSH2 0xFB0 JUMP JUMPDEST STOP JUMPDEST PUSH1 0x3 DUP1 PUSH1 0x5 DUP2 GT ISZERO PUSH2 0x23B JUMPI PUSH2 0x23A PUSH2 0x149E JUMP JUMPDEST JUMPDEST PUSH1 0x0 PUSH1 0x14 SWAP1 SLOAD SWAP1 PUSH2 0x100 EXP SWAP1 DIV PUSH1 0xFF AND PUSH1 0x5 DUP2 GT ISZERO PUSH2 0x25D JUMPI PUSH2 0x25C PUSH2 0x149E JUMP JUMPDEST JUMPDEST EQ PUSH2 0x29D JUMPI PUSH1 0x40 MLOAD PUSH32 0x8C379A000000000000000000000000000000000000000000000000000000000 DUP2 MSTORE PUSH1 0x4 ADD PUSH2 0x294 SWAP1 PUSH2 0x1779 JUMP JUMPDEST PUSH1 0x40 MLOAD DUP1 SWAP2 SUB SWAP1 REVERT JUMPDEST PUSH1 0x2 PUSH1 0x0 CALLER PUSH20 0xFFFFFFFFFFFFFFFFFFFFFFFFFFFFFFFFFFFFFFFF AND PUSH20 0xFFFFFFFFFFFFFFFFFFFFFFFFFFFFFFFFFFFFFFFF AND DUP2 MSTORE PUSH1 0x20 ADD SWAP1 DUP2 MSTORE PUSH1 0x20 ADD PUSH1 0x0 KECCAK256 PUSH1 0x0 ADD PUSH1 0x0 SWAP1 SLOAD SWAP1 PUSH2 0x100 EXP SWAP1 DIV PUSH1 0xFF AND PUSH2 0x32C JUMPI PUSH1 0x40 MLOAD PUSH32 0x8C379A000000000000000000000000000000000000000000000000000000000 DUP2 MSTORE PUSH1 0x4 ADD PUSH2 0x323 SWAP1 PUSH2 0x17E5 JUMP JUMPDEST PUSH1 0x40 MLOAD DUP1 SWAP2 SUB SWAP1 REVERT JUMPDEST PUSH1 0x2 PUSH1 0x0 CALLER PUSH20 0xFFFFFFFFFFFFFFFFFFFFFFFFFFFFFFFFFFFFFFFF AND PUSH20 0xFFFFFFFFFFFFFFFFFFFFFFFFFFFFFFFFFFFFFFFF AND DUP2 MSTORE PUSH1 0x20 ADD SWAP1 DUP2 MSTORE PUSH1 0x20 ADD PUSH1 0x0 KECCAK256 PUSH1 0x0 ADD PUSH1 0x1 SWAP1 SLOAD SWAP1 PUSH2 0x100 EXP SWAP1 DIV PUSH1 0xFF AND ISZERO PUSH2 0x3BC JUMPI PUSH1 0x40 MLOAD PUSH32 0x8C379A000000000000000000000000000000000000000000000000000000000 DUP2 MSTORE PUSH1 0x4 ADD PUSH2 0x3B3 SWAP1 PUSH2 0x1851 JUMP JUMPDEST PUSH1 0x40 MLOAD DUP1 SWAP2 SUB SWAP1 REVERT JUMPDEST PUSH1 0x1 PUSH1 0x3 DUP4 DUP2 SLOAD DUP2 LT PUSH2 0x3D2 JUMPI PUSH2 0x3D1 PUSH2 0x1871 JUMP JUMPDEST JUMPDEST SWAP1 PUSH1 0x0 MSTORE PUSH1 0x20 PUSH1 0x0 KECCAK256 SWAP1 PUSH1 0x2 MUL ADD PUSH1 0x1 ADD PUSH1 0x0 DUP3 DUP3 SLOAD PUSH2 0x3F2 SWAP2 SWAP1 PUSH2 0x18CF JUMP JUMPDEST SWAP3 POP POP DUP2 SWAP1 SSTORE POP PUSH1 0x1 PUSH1 0x2 PUSH1 0x0 CALLER PUSH20 0xFFFFFFFFFFFFFFFFFFFFFFFFFFFFFFFFFFFFFFFF AND PUSH20 0xFFFFFFFFFFFFFFFFFFFFFFFFFFFFFFFFFFFFFFFF AND DUP2 MSTORE PUSH1 0x20 ADD SWAP1 DUP2 MSTORE PUSH1 0x20 ADD PUSH1 0x0 KECCAK256 PUSH1 0x0 ADD PUSH1 0x1 PUSH2 0x100 EXP DUP2 SLOAD DUP2 PUSH1 0xFF MUL NOT AND SWAP1 DUP4 ISZERO ISZERO MUL OR SWAP1 SSTORE POP DUP2 PUSH1 0x2 PUSH1 0x0 CALLER PUSH20 0xFFFFFFFFFFFFFFFFFFFFFFFFFFFFFFFFFFFFFFFF AND PUSH20 0xFFFFFFFFFFFFFFFFFFFFFFFFFFFFFFFFFFFFFFFF AND DUP2 MSTORE PUSH1 0x20 ADD SWAP1 DUP2 MSTORE PUSH1 0x20 ADD PUSH1 0x0 KECCAK256 PUSH1 0x1 ADD DUP2 SWAP1 SSTORE POP PUSH32 0x4D99B957A2BC29A30EBD96A7BE8E68FE50A3C701DB28A91436490B7D53870CA4 CALLER DUP4 PUSH1 0x40 MLOAD PUSH2 0x4CC SWAP3 SWAP2 SWAP1 PUSH2 0x1925 JUMP JUMPDEST PUSH1 0x40 MLOAD DUP1 SWAP2 SUB SWAP1 LOG1 POP POP JUMP JUMPDEST PUSH1 0x3 DUP2 DUP2 SLOAD DUP2 LT PUSH2 0x4E8 JUMPI PUSH1 0x0 DUP1 REVERT JUMPDEST SWAP1 PUSH1 0x0 MSTORE PUSH1 0x20 PUSH1 0x0 KECCAK256 SWAP1 PUSH1 0x2 MUL ADD PUSH1 0x0 SWAP2 POP SWAP1 POP DUP1 PUSH1 0x0 ADD DUP1 SLOAD PUSH2 0x50B SWAP1 PUSH2 0x197D JUMP JUMPDEST DUP1 PUSH1 0x1F ADD PUSH1 0x20 DUP1 SWAP2 DIV MUL PUSH1 0x20 ADD PUSH1 0x40 MLOAD SWAP1 DUP2 ADD PUSH1 0x40 MSTORE DUP1 SWAP3 SWAP2 SWAP1 DUP2 DUP2 MSTORE PUSH1 0x20 ADD DUP3 DUP1 SLOAD PUSH2 0x537 SWAP1 PUSH2 0x197D JUMP JUMPDEST DUP1 ISZERO PUSH2 0x584 JUMPI DUP1 PUSH1 0x1F LT PUSH2 0x559 JUMPI PUSH2 0x100 DUP1 DUP4 SLOAD DIV MUL DUP4 MSTORE SWAP2 PUSH1 0x20 ADD SWAP2 PUSH2 0x584 JUMP JUMPDEST DUP3 ADD SWAP2 SWAP1 PUSH1 0x0 MSTORE PUSH1 0x20 PUSH1 0x0 KECCAK256 SWAP1 JUMPDEST DUP2 SLOAD DUP2 MSTORE SWAP1 PUSH1 0x1 ADD SWAP1 PUSH1 0x20 ADD DUP1 DUP4 GT PUSH2 0x567 JUMPI DUP3 SWAP1 SUB PUSH1 0x1F AND DUP3 ADD SWAP2 JUMPDEST POP POP POP POP POP SWAP1 DUP1 PUSH1 0x1 ADD SLOAD SWAP1 POP DUP3 JUMP JUMPDEST PUSH1 0x1 DUP1 PUSH1 0x5 DUP2 GT ISZERO PUSH2 0x5A9 JUMPI PUSH2 0x5A8 PUSH2 0x149E JUMP JUMPDEST JUMPDEST PUSH1 0x0 PUSH1 0x14 SWAP1 SLOAD SWAP1 PUSH2 0x100 EXP SWAP1 DIV PUSH1 0xFF AND PUSH1 0x5 DUP2 GT ISZERO PUSH2 0x5CB JUMPI PUSH2 0x5CA PUSH2 0x149E JUMP JUMPDEST JUMPDEST EQ PUSH2 0x60B JUMPI PUSH1 0x40 MLOAD PUSH32 0x8C379A000000000000000000000000000000000000000000000000000000000 DUP2 MSTORE PUSH1 0x4 ADD PUSH2 0x602 SWAP1 PUSH2 0x1779 JUMP JUMPDEST PUSH1 0x40 MLOAD DUP1 SWAP2 SUB SWAP1 REVERT JUMPDEST PUSH2 0x613 PUSH2 0x1034 JUMP JUMPDEST PUSH1 0x2 PUSH1 0x0 PUSH1 0x14 PUSH2 0x100 EXP DUP2 SLOAD DUP2 PUSH1 0xFF MUL NOT AND SWAP1 DUP4 PUSH1 0x5 DUP2 GT ISZERO PUSH2 0x639 JUMPI PUSH2 0x638 PUSH2 0x149E JUMP JUMPDEST JUMPDEST MUL OR SWAP1 SSTORE POP PUSH32 0xA97A4EE45751E2ABF3E4FC8946939630B11B371EA8AE39CCDC3056E98F5CC3F PUSH1 0x1 PUSH1 0x2 PUSH1 0x40 MLOAD PUSH2 0x671 SWAP3 SWAP2 SWAP1 PUSH2 0x19AF JUMP JUMPDEST PUSH1 0x40 MLOAD DUP1 SWAP2 SUB SWAP1 LOG1 POP JUMP JUMPDEST PUSH2 0x684 PUSH2 0x1034 JUMP JUMPDEST PUSH2 0x68E PUSH1 0x0 PUSH2 0x10B2 JUMP JUMPDEST JUMP JUMPDEST PUSH1 0x0 DUP1 PUSH1 0x0 SWAP1 SLOAD SWAP1 PUSH2 0x100 EXP SWAP1 DIV PUSH20 0xFFFFFFFFFFFFFFFFFFFFFFFFFFFFFFFFFFFFFFFF AND SWAP1 POP SWAP1 JUMP JUMPDEST PUSH2 0x6C1 PUSH2 0x117E JUMP JUMPDEST PUSH1 0x5 DUP1 PUSH1 0x5 DUP2 GT ISZERO PUSH2 0x6D6 JUMPI PUSH2 0x6D5 PUSH2 0x149E JUMP JUMPDEST JUMPDEST PUSH1 0x0 PUSH1 0x14 SWAP1 SLOAD SWAP1 PUSH2 0x100 EXP SWAP1 DIV PUSH1 0xFF AND PUSH1 0x5 DUP2 GT ISZERO PUSH2 0x6F8 JUMPI PUSH2 0x6F7 PUSH2 0x149E JUMP JUMPDEST JUMPDEST EQ PUSH2 0x738 JUMPI PUSH1 0x40 MLOAD PUSH32 0x8C379A000000000000000000000000000000000000000000000000000000000 DUP2 MSTORE PUSH1 0x4 ADD PUSH2 0x72F SWAP1 PUSH2 0x1779 JUMP JUMPDEST PUSH1 0x40 MLOAD DUP1 SWAP2 SUB SWAP1 REVERT JUMPDEST PUSH1 0x3 PUSH1 0x1 SLOAD DUP2 SLOAD DUP2 LT PUSH2 0x74E JUMPI PUSH2 0x74D PUSH2 0x1871 JUMP JUMPDEST JUMPDEST SWAP1 PUSH1 0x0 MSTORE PUSH1 0x20 PUSH1 0x0 KECCAK256 SWAP1 PUSH1 0x2 MUL ADD PUSH1 0x40 MLOAD DUP1 PUSH1 0x40 ADD PUSH1 0x40 MSTORE SWAP1 DUP2 PUSH1 0x0 DUP3 ADD DUP1 SLOAD PUSH2 0x777 SWAP1 PUSH2 0x197D JUMP JUMPDEST DUP1 PUSH1 0x1F ADD PUSH1 0x20 DUP1 SWAP2 DIV MUL PUSH1 0x20 ADD PUSH1 0x40 MLOAD SWAP1 DUP2 ADD PUSH1 0x40 MSTORE DUP1 SWAP3 SWAP2 SWAP1 DUP2 DUP2 MSTORE PUSH1 0x20 ADD DUP3 DUP1 SLOAD PUSH2 0x7A3 SWAP1 PUSH2 0x197D JUMP JUMPDEST DUP1 ISZERO PUSH2 0x7F0 JUMPI DUP1 PUSH1 0x1F LT PUSH2 0x7C5 JUMPI PUSH2 0x100 DUP1 DUP4 SLOAD DIV MUL DUP4 MSTORE SWAP2 PUSH1 0x20 ADD SWAP2 PUSH2 0x7F0 JUMP JUMPDEST DUP3 ADD SWAP2 SWAP1 PUSH1 0x0 MSTORE PUSH1 0x20 PUSH1 0x0 KECCAK256 SWAP1 JUMPDEST DUP2 SLOAD DUP2 MSTORE SWAP1 PUSH1 0x1 ADD SWAP1 PUSH1 0x20 ADD DUP1 DUP4 GT PUSH2 0x7D3 JUMPI DUP3 SWAP1 SUB PUSH1 0x1F AND DUP3 ADD SWAP2 JUMPDEST POP POP POP POP POP DUP2 MSTORE PUSH1 0x20 ADD PUSH1 0x1 DUP3 ADD SLOAD DUP2 MSTORE POP POP SWAP2 POP POP SWAP1 JUMP JUMPDEST PUSH1 0x0 PUSH1 0x14 SWAP1 SLOAD SWAP1 PUSH2 0x100 EXP SWAP1 DIV PUSH1 0xFF AND DUP2 JUMP JUMPDEST PUSH1 0x3 DUP1 PUSH1 0x5 DUP2 GT ISZERO PUSH2 0x831 JUMPI PUSH2 0x830 PUSH2 0x149E JUMP JUMPDEST JUMPDEST PUSH1 0x0 PUSH1 0x14 SWAP1 SLOAD SWAP1 PUSH2 0x100 EXP SWAP1 DIV PUSH1 0xFF AND PUSH1 0x5 DUP2 GT ISZERO PUSH2 0x853 JUMPI PUSH2 0x852 PUSH2 0x149E JUMP JUMPDEST JUMPDEST EQ PUSH2 0x893 JUMPI PUSH1 0x40 MLOAD PUSH32 0x8C379A000000000000000000000000000000000000000000000000000000000 DUP2 MSTORE PUSH1 0x4 ADD PUSH2 0x88A SWAP1 PUSH2 0x1779 JUMP JUMPDEST PUSH1 0x40 MLOAD DUP1 SWAP2 SUB SWAP1 REVERT JUMPDEST PUSH2 0x89B PUSH2 0x1034 JUMP JUMPDEST PUSH1 0x4 PUSH1 0x0 PUSH1 0x14 PUSH2 0x100 EXP DUP2 SLOAD DUP2 PUSH1 0xFF MUL NOT AND SWAP1 DUP4 PUSH1 0x5 DUP2 GT ISZERO PUSH2 0x8C1 JUMPI PUSH2 0x8C0 PUSH2 0x149E JUMP JUMPDEST JUMPDEST MUL OR SWAP1 SSTORE POP PUSH32 0xA97A4EE45751E2ABF3E4FC8946939630B11B371EA8AE39CCDC3056E98F5CC3F PUSH1 0x3 PUSH1 0x4 PUSH1 0x40 MLOAD PUSH2 0x8F9 SWAP3 SWAP2 SWAP1 PUSH2 0x19AF JUMP JUMPDEST PUSH1 0x40 MLOAD DUP1 SWAP2 SUB SWAP1 LOG1 POP JUMP JUMPDEST PUSH1 0x4 DUP1 PUSH1 0x5 DUP2 GT ISZERO PUSH2 0x919 JUMPI PUSH2 0x918 PUSH2 0x149E JUMP JUMPDEST JUMPDEST PUSH1 0x0 PUSH1 0x14 SWAP1 SLOAD SWAP1 PUSH2 0x100 EXP SWAP1 DIV PUSH1 0xFF AND PUSH1 0x5 DUP2 GT ISZERO PUSH2 0x93B JUMPI PUSH2 0x93A PUSH2 0x149E JUMP JUMPDEST JUMPDEST EQ PUSH2 0x97B JUMPI PUSH1 0x40 MLOAD PUSH32 0x8C379A000000000000000000000000000000000000000000000000000000000 DUP2 MSTORE PUSH1 0x4 ADD PUSH2 0x972 SWAP1 PUSH2 0x1779 JUMP JUMPDEST PUSH1 0x40 MLOAD DUP1 SWAP2 SUB SWAP1 REVERT JUMPDEST PUSH2 0x983 PUSH2 0x1034 JUMP JUMPDEST PUSH1 0x0 DUP1 JUMPDEST PUSH1 0x3 DUP1 SLOAD SWAP1 POP DUP2 LT ISZERO PUSH2 0xA04 JUMPI DUP2 PUSH1 0x3 DUP3 DUP2 SLOAD DUP2 LT PUSH2 0x9A9 JUMPI PUSH2 0x9A8 PUSH2 0x1871 JUMP JUMPDEST JUMPDEST SWAP1 PUSH1 0x0 MSTORE PUSH1 0x20 PUSH1 0x0 KECCAK256 SWAP1 PUSH1 0x2 MUL ADD PUSH1 0x1 ADD SLOAD GT ISZERO PUSH2 0x9F1 JUMPI PUSH1 0x3 DUP2 DUP2 SLOAD DUP2 LT PUSH2 0x9D5 JUMPI PUSH2 0x9D4 PUSH2 0x1871 JUMP JUMPDEST JUMPDEST SWAP1 PUSH1 0x0 MSTORE PUSH1 0x20 PUSH1 0x0 KECCAK256 SWAP1 PUSH1 0x2 MUL ADD PUSH1 0x1 ADD SLOAD SWAP2 POP DUP1 PUSH1 0x1 DUP2 SWAP1 SSTORE POP JUMPDEST DUP1 DUP1 PUSH2 0x9FC SWAP1 PUSH2 0x19D8 JUMP JUMPDEST SWAP2 POP POP PUSH2 0x987 JUMP JUMPDEST POP PUSH1 0x5 PUSH1 0x0 PUSH1 0x14 PUSH2 0x100 EXP DUP2 SLOAD DUP2 PUSH1 0xFF MUL NOT AND SWAP1 DUP4 PUSH1 0x5 DUP2 GT ISZERO PUSH2 0xA2B JUMPI PUSH2 0xA2A PUSH2 0x149E JUMP JUMPDEST JUMPDEST MUL OR SWAP1 SSTORE POP PUSH32 0xA97A4EE45751E2ABF3E4FC8946939630B11B371EA8AE39CCDC3056E98F5CC3F PUSH1 0x4 PUSH1 0x5 PUSH1 0x40 MLOAD PUSH2 0xA63 SWAP3 SWAP2 SWAP1 PUSH2 0x19AF JUMP JUMPDEST PUSH1 0x40 MLOAD DUP1 SWAP2 SUB SWAP1 LOG1 POP POP JUMP JUMPDEST PUSH1 0x0 DUP1 PUSH1 0x5 DUP2 GT ISZERO PUSH2 0xA84 JUMPI PUSH2 0xA83 PUSH2 0x149E JUMP JUMPDEST JUMPDEST PUSH1 0x0 PUSH1 0x14 SWAP1 SLOAD SWAP1 PUSH2 0x100 EXP SWAP1 DIV PUSH1 0xFF AND PUSH1 0x5 DUP2 GT ISZERO PUSH2 0xAA6 JUMPI PUSH2 0xAA5 PUSH2 0x149E JUMP JUMPDEST JUMPDEST EQ PUSH2 0xAE6 JUMPI PUSH1 0x40 MLOAD PUSH32 0x8C379A000000000000000000000000000000000000000000000000000000000 DUP2 MSTORE PUSH1 0x4 ADD PUSH2 0xADD SWAP1 PUSH2 0x1779 JUMP JUMPDEST PUSH1 0x40 MLOAD DUP1 SWAP2 SUB SWAP1 REVERT JUMPDEST PUSH2 0xAEE PUSH2 0x1034 JUMP JUMPDEST PUSH1 0x1 PUSH1 0x0 PUSH1 0x14 PUSH2 0x100 EXP DUP2 SLOAD DUP2 PUSH1 0xFF MUL NOT AND SWAP1 DUP4 PUSH1 0x5 DUP2 GT ISZERO PUSH2 0xB14 JUMPI PUSH2 0xB13 PUSH2 0x149E JUMP JUMPDEST JUMPDEST MUL OR SWAP1 SSTORE POP PUSH32 0xA97A4EE45751E2ABF3E4FC8946939630B11B371EA8AE39CCDC3056E98F5CC3F PUSH1 0x0 PUSH1 0x1 PUSH1 0x40 MLOAD PUSH2 0xB4C SWAP3 SWAP2 SWAP1 PUSH2 0x19AF JUMP JUMPDEST PUSH1 0x40 MLOAD DUP1 SWAP2 SUB SWAP1 LOG1 POP JUMP JUMPDEST PUSH1 0x1 DUP1 PUSH1 0x5 DUP2 GT ISZERO PUSH2 0xB6C JUMPI PUSH2 0xB6B PUSH2 0x149E JUMP JUMPDEST JUMPDEST PUSH1 0x0 PUSH1 0x14 SWAP1 SLOAD SWAP1 PUSH2 0x100 EXP SWAP1 DIV PUSH1 0xFF AND PUSH1 0x5 DUP2 GT ISZERO PUSH2 0xB8E JUMPI PUSH2 0xB8D PUSH2 0x149E JUMP JUMPDEST JUMPDEST EQ PUSH2 0xBCE JUMPI PUSH1 0x40 MLOAD PUSH32 0x8C379A000000000000000000000000000000000000000000000000000000000 DUP2 MSTORE PUSH1 0x4 ADD PUSH2 0xBC5 SWAP1 PUSH2 0x1779 JUMP JUMPDEST PUSH1 0x40 MLOAD DUP1 SWAP2 SUB SWAP1 REVERT JUMPDEST PUSH1 0x2 PUSH1 0x0 CALLER PUSH20 0xFFFFFFFFFFFFFFFFFFFFFFFFFFFFFFFFFFFFFFFF AND PUSH20 0xFFFFFFFFFFFFFFFFFFFFFFFFFFFFFFFFFFFFFFFF AND DUP2 MSTORE PUSH1 0x20 ADD SWAP1 DUP2 MSTORE PUSH1 0x20 ADD PUSH1 0x0 KECCAK256 PUSH1 0x0 ADD PUSH1 0x0 SWAP1 SLOAD SWAP1 PUSH2 0x100 EXP SWAP1 DIV PUSH1 0xFF AND PUSH2 0xC5D JUMPI PUSH1 0x40 MLOAD PUSH32 0x8C379A000000000000000000000000000000000000000000000000000000000 DUP2 MSTORE PUSH1 0x4 ADD PUSH2 0xC54 SWAP1 PUSH2 0x1A93 JUMP JUMPDEST PUSH1 0x40 MLOAD DUP1 SWAP2 SUB SWAP1 REVERT JUMPDEST PUSH1 0x3 PUSH1 0x40 MLOAD DUP1 PUSH1 0x40 ADD PUSH1 0x40 MSTORE DUP1 DUP5 DUP2 MSTORE PUSH1 0x20 ADD PUSH1 0x0 DUP2 MSTORE POP SWAP1 DUP1 PUSH1 0x1 DUP2 SLOAD ADD DUP1 DUP3 SSTORE DUP1 SWAP2 POP POP PUSH1 0x1 SWAP1 SUB SWAP1 PUSH1 0x0 MSTORE PUSH1 0x20 PUSH1 0x0 KECCAK256 SWAP1 PUSH1 0x2 MUL ADD PUSH1 0x0 SWAP1 SWAP2 SWAP1 SWAP2 SWAP1 SWAP2 POP PUSH1 0x0 DUP3 ADD MLOAD DUP2 PUSH1 0x0 ADD SWAP1 DUP1 MLOAD SWAP1 PUSH1 0x20 ADD SWAP1 PUSH2 0xCBA SWAP3 SWAP2 SWAP1 PUSH2 0x1198 JUMP JUMPDEST POP PUSH1 0x20 DUP3 ADD MLOAD DUP2 PUSH1 0x1 ADD SSTORE POP POP PUSH1 0x1 PUSH1 0x3 DUP1 SLOAD SWAP1 POP PUSH2 0xCD9 SWAP2 SWAP1 PUSH2 0x18CF JUMP JUMPDEST PUSH1 0x2 PUSH1 0x0 CALLER PUSH20 0xFFFFFFFFFFFFFFFFFFFFFFFFFFFFFFFFFFFFFFFF AND PUSH20 0xFFFFFFFFFFFFFFFFFFFFFFFFFFFFFFFFFFFFFFFF AND DUP2 MSTORE PUSH1 0x20 ADD SWAP1 DUP2 MSTORE PUSH1 0x20 ADD PUSH1 0x0 KECCAK256 PUSH1 0x1 ADD DUP2 SWAP1 SSTORE POP POP POP JUMP JUMPDEST PUSH1 0x0 DUP1 PUSH1 0x5 DUP2 GT ISZERO PUSH2 0xD38 JUMPI PUSH2 0xD37 PUSH2 0x149E JUMP JUMPDEST JUMPDEST PUSH1 0x0 PUSH1 0x14 SWAP1 SLOAD SWAP1 PUSH2 0x100 EXP SWAP1 DIV PUSH1 0xFF AND PUSH1 0x5 DUP2 GT ISZERO PUSH2 0xD5A JUMPI PUSH2 0xD59 PUSH2 0x149E JUMP JUMPDEST JUMPDEST EQ PUSH2 0xD9A JUMPI PUSH1 0x40 MLOAD PUSH32 0x8C379A000000000000000000000000000000000000000000000000000000000 DUP2 MSTORE PUSH1 0x4 ADD PUSH2 0xD91 SWAP1 PUSH2 0x1779 JUMP JUMPDEST PUSH1 0x40 MLOAD DUP1 SWAP2 SUB SWAP1 REVERT JUMPDEST PUSH2 0xDA2 PUSH2 0x1034 JUMP JUMPDEST PUSH1 0x2 PUSH1 0x0 DUP4 PUSH20 0xFFFFFFFFFFFFFFFFFFFFFFFFFFFFFFFFFFFFFFFF AND PUSH20 0xFFFFFFFFFFFFFFFFFFFFFFFFFFFFFFFFFFFFFFFF AND DUP2 MSTORE PUSH1 0x20 ADD SWAP1 DUP2 MSTORE PUSH1 0x20 ADD PUSH1 0x0 KECCAK256 PUSH1 0x0 ADD PUSH1 0x0 SWAP1 SLOAD SWAP1 PUSH2 0x100 EXP SWAP1 DIV PUSH1 0xFF AND ISZERO PUSH2 0xE32 JUMPI PUSH1 0x40 MLOAD PUSH32 0x8C379A000000000000000000000000000000000000000000000000000000000 DUP2 MSTORE PUSH1 0x4 ADD PUSH2 0xE29 SWAP1 PUSH2 0x1B25 JUMP JUMPDEST PUSH1 0x40 MLOAD DUP1 SWAP2 SUB SWAP1 REVERT JUMPDEST PUSH1 0x1 PUSH1 0x2 PUSH1 0x0 DUP5 PUSH20 0xFFFFFFFFFFFFFFFFFFFFFFFFFFFFFFFFFFFFFFFF AND PUSH20 0xFFFFFFFFFFFFFFFFFFFFFFFFFFFFFFFFFFFFFFFF AND DUP2 MSTORE PUSH1 0x20 ADD SWAP1 DUP2 MSTORE PUSH1 0x20 ADD PUSH1 0x0 KECCAK256 PUSH1 0x0 ADD PUSH1 0x0 PUSH2 0x100 EXP DUP2 SLOAD DUP2 PUSH1 0xFF MUL NOT AND SWAP1 DUP4 ISZERO ISZERO MUL OR SWAP1 SSTORE POP PUSH32 0xB6BE2187D059CC2A55FE29E0E503B566E1E0F8C8780096E185429350ACFFD3DD DUP3 PUSH1 0x40 MLOAD PUSH2 0xEBC SWAP2 SWAP1 PUSH2 0x13CB JUMP JUMPDEST PUSH1 0x40 MLOAD DUP1 SWAP2 SUB SWAP1 LOG1 POP POP JUMP JUMPDEST PUSH1 0x2 DUP1 PUSH1 0x5 DUP2 GT ISZERO PUSH2 0xEDD JUMPI PUSH2 0xEDC PUSH2 0x149E JUMP JUMPDEST JUMPDEST PUSH1 0x0 PUSH1 0x14 SWAP1 SLOAD SWAP1 PUSH2 0x100 EXP SWAP1 DIV PUSH1 0xFF AND PUSH1 0x5 DUP2 GT ISZERO PUSH2 0xEFF JUMPI PUSH2 0xEFE PUSH2 0x149E JUMP JUMPDEST JUMPDEST EQ PUSH2 0xF3F JUMPI PUSH1 0x40 MLOAD PUSH32 0x8C379A000000000000000000000000000000000000000000000000000000000 DUP2 MSTORE PUSH1 0x4 ADD PUSH2 0xF36 SWAP1 PUSH2 0x1779 JUMP JUMPDEST PUSH1 0x40 MLOAD DUP1 SWAP2 SUB SWAP1 REVERT JUMPDEST PUSH2 0xF47 PUSH2 0x1034 JUMP JUMPDEST PUSH1 0x3 PUSH1 0x0 PUSH1 0x14 PUSH2 0x100 EXP DUP2 SLOAD DUP2 PUSH1 0xFF MUL NOT AND SWAP1 DUP4 PUSH1 0x5 DUP2 GT ISZERO PUSH2 0xF6D JUMPI PUSH2 0xF6C PUSH2 0x149E JUMP JUMPDEST JUMPDEST MUL OR SWAP1 SSTORE POP PUSH32 0xA97A4EE45751E2ABF3E4FC8946939630B11B371EA8AE39CCDC3056E98F5CC3F PUSH1 0x2 PUSH1 0x3 PUSH1 0x40 MLOAD PUSH2 0xFA5 SWAP3 SWAP2 SWAP1 PUSH2 0x19AF JUMP JUMPDEST PUSH1 0x40 MLOAD DUP1 SWAP2 SUB SWAP1 LOG1 POP JUMP JUMPDEST PUSH2 0xFB8 PUSH2 0x1034 JUMP JUMPDEST PUSH1 0x0 PUSH20 0xFFFFFFFFFFFFFFFFFFFFFFFFFFFFFFFFFFFFFFFF AND DUP2 PUSH20 0xFFFFFFFFFFFFFFFFFFFFFFFFFFFFFFFFFFFFFFFF AND EQ ISZERO PUSH2 0x1028 JUMPI PUSH1 0x40 MLOAD PUSH32 0x8C379A000000000000000000000000000000000000000000000000000000000 DUP2 MSTORE PUSH1 0x4 ADD PUSH2 0x101F SWAP1 PUSH2 0x1BB7 JUMP JUMPDEST PUSH1 0x40 MLOAD DUP1 SWAP2 SUB SWAP1 REVERT JUMPDEST PUSH2 0x1031 DUP2 PUSH2 0x10B2 JUMP JUMPDEST POP JUMP JUMPDEST PUSH2 0x103C PUSH2 0x1176 JUMP JUMPDEST PUSH20 0xFFFFFFFFFFFFFFFFFFFFFFFFFFFFFFFFFFFFFFFF AND PUSH2 0x105A PUSH2 0x690 JUMP JUMPDEST PUSH20 0xFFFFFFFFFFFFFFFFFFFFFFFFFFFFFFFFFFFFFFFF AND EQ PUSH2 0x10B0 JUMPI PUSH1 0x40 MLOAD PUSH32 0x8C379A000000000000000000000000000000000000000000000000000000000 DUP2 MSTORE PUSH1 0x4 ADD PUSH2 0x10A7 SWAP1 PUSH2 0x1C23 JUMP JUMPDEST PUSH1 0x40 MLOAD DUP1 SWAP2 SUB SWAP1 REVERT JUMPDEST JUMP JUMPDEST PUSH1 0x0 DUP1 PUSH1 0x0 SWAP1 SLOAD SWAP1 PUSH2 0x100 EXP SWAP1 DIV PUSH20 0xFFFFFFFFFFFFFFFFFFFFFFFFFFFFFFFFFFFFFFFF AND SWAP1 POP DUP2 PUSH1 0x0 DUP1 PUSH2 0x100 EXP DUP2 SLOAD DUP2 PUSH20 0xFFFFFFFFFFFFFFFFFFFFFFFFFFFFFFFFFFFFFFFF MUL NOT AND SWAP1 DUP4 PUSH20 0xFFFFFFFFFFFFFFFFFFFFFFFFFFFFFFFFFFFFFFFF AND MUL OR SWAP1 SSTORE POP DUP2 PUSH20 0xFFFFFFFFFFFFFFFFFFFFFFFFFFFFFFFFFFFFFFFF AND DUP2 PUSH20 0xFFFFFFFFFFFFFFFFFFFFFFFFFFFFFFFFFFFFFFFF AND PUSH32 0x8BE0079C531659141344CD1FD0A4F28419497F9722A3DAAFE3B4186F6B6457E0 PUSH1 0x40 MLOAD PUSH1 0x40 MLOAD DUP1 SWAP2 SUB SWAP1 LOG3 POP POP JUMP JUMPDEST PUSH1 0x0 CALLER SWAP1 POP SWAP1 JUMP JUMPDEST PUSH1 0x40 MLOAD DUP1 PUSH1 0x40 ADD PUSH1 0x40 MSTORE DUP1 PUSH1 0x60 DUP2 MSTORE PUSH1 0x20 ADD PUSH1 0x0 DUP2 MSTORE POP SWAP1 JUMP JUMPDEST DUP3 DUP1 SLOAD PUSH2 0x11A4 SWAP1 PUSH2 0x197D JUMP JUMPDEST SWAP1 PUSH1 0x0 MSTORE PUSH1 0x20 PUSH1 0x0 KECCAK256 SWAP1 PUSH1 0x1F ADD PUSH1 0x20 SWAP1 DIV DUP2 ADD SWAP3 DUP3 PUSH2 0x11C6 JUMPI PUSH1 0x0 DUP6 SSTORE PUSH2 0x120D JUMP JUMPDEST DUP3 PUSH1 0x1F LT PUSH2 0x11DF JUMPI DUP1 MLOAD PUSH1 0xFF NOT AND DUP4 DUP1 ADD OR DUP6 SSTORE PUSH2 0x120D JUMP JUMPDEST DUP3 DUP1 ADD PUSH1 0x1 ADD DUP6 SSTORE DUP3 ISZERO PUSH2 0x120D JUMPI SWAP2 DUP3 ADD JUMPDEST DUP3 DUP2 GT ISZERO PUSH2 0x120C JUMPI DUP3 MLOAD DUP3 SSTORE SWAP2 PUSH1 0x20 ADD SWAP2 SWAP1 PUSH1 0x1 ADD SWAP1 PUSH2 0x11F1 JUMP JUMPDEST JUMPDEST POP SWAP1 POP PUSH2 0x121A SWAP2 SWAP1 PUSH2 0x121E JUMP JUMPDEST POP SWAP1 JUMP JUMPDEST JUMPDEST DUP1 DUP3 GT ISZERO PUSH2 0x1237 JUMPI PUSH1 0x0 DUP2 PUSH1 0x0 SWAP1 SSTORE POP PUSH1 0x1 ADD PUSH2 0x121F JUMP JUMPDEST POP SWAP1 JUMP JUMPDEST PUSH1 0x0 PUSH1 0x40 MLOAD SWAP1 POP SWAP1 JUMP JUMPDEST PUSH1 0x0 DUP1 REVERT JUMPDEST PUSH1 0x0 DUP1 REVERT JUMPDEST PUSH1 0x0 DUP2 SWAP1 POP SWAP2 SWAP1 POP JUMP JUMPDEST PUSH2 0x1262 DUP2 PUSH2 0x124F JUMP JUMPDEST DUP2 EQ PUSH2 0x126D JUMPI PUSH1 0x0 DUP1 REVERT JUMPDEST POP JUMP JUMPDEST PUSH1 0x0 DUP2 CALLDATALOAD SWAP1 POP PUSH2 0x127F DUP2 PUSH2 0x1259 JUMP JUMPDEST SWAP3 SWAP2 POP POP JUMP JUMPDEST PUSH1 0x0 PUSH1 0x20 DUP3 DUP5 SUB SLT ISZERO PUSH2 0x129B JUMPI PUSH2 0x129A PUSH2 0x1245 JUMP JUMPDEST JUMPDEST PUSH1 0x0 PUSH2 0x12A9 DUP5 DUP3 DUP6 ADD PUSH2 0x1270 JUMP JUMPDEST SWAP2 POP POP SWAP3 SWAP2 POP POP JUMP JUMPDEST PUSH1 0x0 DUP2 MLOAD SWAP1 POP SWAP2 SWAP1 POP JUMP JUMPDEST PUSH1 0x0 DUP3 DUP3 MSTORE PUSH1 0x20 DUP3 ADD SWAP1 POP SWAP3 SWAP2 POP POP JUMP JUMPDEST PUSH1 0x0 JUMPDEST DUP4 DUP2 LT ISZERO PUSH2 0x12EC JUMPI DUP1 DUP3 ADD MLOAD DUP2 DUP5 ADD MSTORE PUSH1 0x20 DUP2 ADD SWAP1 POP PUSH2 0x12D1 JUMP JUMPDEST DUP4 DUP2 GT ISZERO PUSH2 0x12FB JUMPI PUSH1 0x0 DUP5 DUP5 ADD MSTORE JUMPDEST POP POP POP POP JUMP JUMPDEST PUSH1 0x0 PUSH1 0x1F NOT PUSH1 0x1F DUP4 ADD AND SWAP1 POP SWAP2 SWAP1 POP JUMP JUMPDEST PUSH1 0x0 PUSH2 0x131D DUP3 PUSH2 0x12B2 JUMP JUMPDEST PUSH2 0x1327 DUP2 DUP6 PUSH2 0x12BD JUMP JUMPDEST SWAP4 POP PUSH2 0x1337 DUP2 DUP6 PUSH1 0x20 DUP7 ADD PUSH2 0x12CE JUMP JUMPDEST PUSH2 0x1340 DUP2 PUSH2 0x1301 JUMP JUMPDEST DUP5 ADD SWAP2 POP POP SWAP3 SWAP2 POP POP JUMP JUMPDEST PUSH2 0x1354 DUP2 PUSH2 0x124F JUMP JUMPDEST DUP3 MSTORE POP POP JUMP JUMPDEST PUSH1 0x0 PUSH1 0x40 DUP3 ADD SWAP1 POP DUP2 DUP2 SUB PUSH1 0x0 DUP4 ADD MSTORE PUSH2 0x1374 DUP2 DUP6 PUSH2 0x1312 JUMP JUMPDEST SWAP1 POP PUSH2 0x1383 PUSH1 0x20 DUP4 ADD DUP5 PUSH2 0x134B JUMP JUMPDEST SWAP4 SWAP3 POP POP POP JUMP JUMPDEST PUSH1 0x0 PUSH20 0xFFFFFFFFFFFFFFFFFFFFFFFFFFFFFFFFFFFFFFFF DUP3 AND SWAP1 POP SWAP2 SWAP1 POP JUMP JUMPDEST PUSH1 0x0 PUSH2 0x13B5 DUP3 PUSH2 0x138A JUMP JUMPDEST SWAP1 POP SWAP2 SWAP1 POP JUMP JUMPDEST PUSH2 0x13C5 DUP2 PUSH2 0x13AA JUMP JUMPDEST DUP3 MSTORE POP POP JUMP JUMPDEST PUSH1 0x0 PUSH1 0x20 DUP3 ADD SWAP1 POP PUSH2 0x13E0 PUSH1 0x0 DUP4 ADD DUP5 PUSH2 0x13BC JUMP JUMPDEST SWAP3 SWAP2 POP POP JUMP JUMPDEST PUSH1 0x0 DUP3 DUP3 MSTORE PUSH1 0x20 DUP3 ADD SWAP1 POP SWAP3 SWAP2 POP POP JUMP JUMPDEST PUSH1 0x0 PUSH2 0x1402 DUP3 PUSH2 0x12B2 JUMP JUMPDEST PUSH2 0x140C DUP2 DUP6 PUSH2 0x13E6 JUMP JUMPDEST SWAP4 POP PUSH2 0x141C DUP2 DUP6 PUSH1 0x20 DUP7 ADD PUSH2 0x12CE JUMP JUMPDEST PUSH2 0x1425 DUP2 PUSH2 0x1301 JUMP JUMPDEST DUP5 ADD SWAP2 POP POP SWAP3 SWAP2 POP POP JUMP JUMPDEST PUSH2 0x1439 DUP2 PUSH2 0x124F JUMP JUMPDEST DUP3 MSTORE POP POP JUMP JUMPDEST PUSH1 0x0 PUSH1 0x40 DUP4 ADD PUSH1 0x0 DUP4 ADD MLOAD DUP5 DUP3 SUB PUSH1 0x0 DUP7 ADD MSTORE PUSH2 0x145C DUP3 DUP3 PUSH2 0x13F7 JUMP JUMPDEST SWAP2 POP POP PUSH1 0x20 DUP4 ADD MLOAD PUSH2 0x1471 PUSH1 0x20 DUP7 ADD DUP3 PUSH2 0x1430 JUMP JUMPDEST POP DUP1 SWAP2 POP POP SWAP3 SWAP2 POP POP JUMP JUMPDEST PUSH1 0x0 PUSH1 0x20 DUP3 ADD SWAP1 POP DUP2 DUP2 SUB PUSH1 0x0 DUP4 ADD MSTORE PUSH2 0x1496 DUP2 DUP5 PUSH2 0x143F JUMP JUMPDEST SWAP1 POP SWAP3 SWAP2 POP POP JUMP JUMPDEST PUSH32 0x4E487B7100000000000000000000000000000000000000000000000000000000 PUSH1 0x0 MSTORE PUSH1 0x21 PUSH1 0x4 MSTORE PUSH1 0x24 PUSH1 0x0 REVERT JUMPDEST PUSH1 0x6 DUP2 LT PUSH2 0x14DE JUMPI PUSH2 0x14DD PUSH2 0x149E JUMP JUMPDEST JUMPDEST POP JUMP JUMPDEST PUSH1 0x0 DUP2 SWAP1 POP PUSH2 0x14EF DUP3 PUSH2 0x14CD JUMP JUMPDEST SWAP2 SWAP1 POP JUMP JUMPDEST PUSH1 0x0 PUSH2 0x14FF DUP3 PUSH2 0x14E1 JUMP JUMPDEST SWAP1 POP SWAP2 SWAP1 POP JUMP JUMPDEST PUSH2 0x150F DUP2 PUSH2 0x14F4 JUMP JUMPDEST DUP3 MSTORE POP POP JUMP JUMPDEST PUSH1 0x0 PUSH1 0x20 DUP3 ADD SWAP1 POP PUSH2 0x152A PUSH1 0x0 DUP4 ADD DUP5 PUSH2 0x1506 JUMP JUMPDEST SWAP3 SWAP2 POP POP JUMP JUMPDEST PUSH1 0x0 DUP1 REVERT JUMPDEST PUSH1 0x0 DUP1 REVERT JUMPDEST PUSH32 0x4E487B7100000000000000000000000000000000000000000000000000000000 PUSH1 0x0 MSTORE PUSH1 0x41 PUSH1 0x4 MSTORE PUSH1 0x24 PUSH1 0x0 REVERT JUMPDEST PUSH2 0x1572 DUP3 PUSH2 0x1301 JUMP JUMPDEST DUP2 ADD DUP2 DUP2 LT PUSH8 0xFFFFFFFFFFFFFFFF DUP3 GT OR ISZERO PUSH2 0x1591 JUMPI PUSH2 0x1590 PUSH2 0x153A JUMP JUMPDEST JUMPDEST DUP1 PUSH1 0x40 MSTORE POP POP POP JUMP JUMPDEST PUSH1 0x0 PUSH2 0x15A4 PUSH2 0x123B JUMP JUMPDEST SWAP1 POP PUSH2 0x15B0 DUP3 DUP3 PUSH2 0x1569 JUMP JUMPDEST SWAP2 SWAP1 POP JUMP JUMPDEST PUSH1 0x0 PUSH8 0xFFFFFFFFFFFFFFFF DUP3 GT ISZERO PUSH2 0x15D0 JUMPI PUSH2 0x15CF PUSH2 0x153A JUMP JUMPDEST JUMPDEST PUSH2 0x15D9 DUP3 PUSH2 0x1301 JUMP JUMPDEST SWAP1 POP PUSH1 0x20 DUP2 ADD SWAP1 POP SWAP2 SWAP1 POP JUMP JUMPDEST DUP3 DUP2 DUP4 CALLDATACOPY PUSH1 0x0 DUP4 DUP4 ADD MSTORE POP POP POP JUMP JUMPDEST PUSH1 0x0 PUSH2 0x1608 PUSH2 0x1603 DUP5 PUSH2 0x15B5 JUMP JUMPDEST PUSH2 0x159A JUMP JUMPDEST SWAP1 POP DUP3 DUP2 MSTORE PUSH1 0x20 DUP2 ADD DUP5 DUP5 DUP5 ADD GT ISZERO PUSH2 0x1624 JUMPI PUSH2 0x1623 PUSH2 0x1535 JUMP JUMPDEST JUMPDEST PUSH2 0x162F DUP5 DUP3 DUP6 PUSH2 0x15E6 JUMP JUMPDEST POP SWAP4 SWAP3 POP POP POP JUMP JUMPDEST PUSH1 0x0 DUP3 PUSH1 0x1F DUP4 ADD SLT PUSH2 0x164C JUMPI PUSH2 0x164B PUSH2 0x1530 JUMP JUMPDEST JUMPDEST DUP2 CALLDATALOAD PUSH2 0x165C DUP5 DUP3 PUSH1 0x20 DUP7 ADD PUSH2 0x15F5 JUMP JUMPDEST SWAP2 POP POP SWAP3 SWAP2 POP POP JUMP JUMPDEST PUSH1 0x0 PUSH1 0x20 DUP3 DUP5 SUB SLT ISZERO PUSH2 0x167B JUMPI PUSH2 0x167A PUSH2 0x1245 JUMP JUMPDEST JUMPDEST PUSH1 0x0 DUP3 ADD CALLDATALOAD PUSH8 0xFFFFFFFFFFFFFFFF DUP2 GT ISZERO PUSH2 0x1699 JUMPI PUSH2 0x1698 PUSH2 0x124A JUMP JUMPDEST JUMPDEST PUSH2 0x16A5 DUP5 DUP3 DUP6 ADD PUSH2 0x1637 JUMP JUMPDEST SWAP2 POP POP SWAP3 SWAP2 POP POP JUMP JUMPDEST PUSH2 0x16B7 DUP2 PUSH2 0x13AA JUMP JUMPDEST DUP2 EQ PUSH2 0x16C2 JUMPI PUSH1 0x0 DUP1 REVERT JUMPDEST POP JUMP JUMPDEST PUSH1 0x0 DUP2 CALLDATALOAD SWAP1 POP PUSH2 0x16D4 DUP2 PUSH2 0x16AE JUMP JUMPDEST SWAP3 SWAP2 POP POP JUMP JUMPDEST PUSH1 0x0 PUSH1 0x20 DUP3 DUP5 SUB SLT ISZERO PUSH2 0x16F0 JUMPI PUSH2 0x16EF PUSH2 0x1245 JUMP JUMPDEST JUMPDEST PUSH1 0x0 PUSH2 0x16FE DUP5 DUP3 DUP6 ADD PUSH2 0x16C5 JUMP JUMPDEST SWAP2 POP POP SWAP3 SWAP2 POP POP JUMP JUMPDEST PUSH32 0x596F7520617265206E6F742061626C6520746F20646F20746869732061637469 PUSH1 0x0 DUP3 ADD MSTORE PUSH32 0x6F6E207269676874206E6F770000000000000000000000000000000000000000 PUSH1 0x20 DUP3 ADD MSTORE POP JUMP JUMPDEST PUSH1 0x0 PUSH2 0x1763 PUSH1 0x2C DUP4 PUSH2 0x12BD JUMP JUMPDEST SWAP2 POP PUSH2 0x176E DUP3 PUSH2 0x1707 JUMP JUMPDEST PUSH1 0x40 DUP3 ADD SWAP1 POP SWAP2 SWAP1 POP JUMP JUMPDEST PUSH1 0x0 PUSH1 0x20 DUP3 ADD SWAP1 POP DUP2 DUP2 SUB PUSH1 0x0 DUP4 ADD MSTORE PUSH2 0x1792 DUP2 PUSH2 0x1756 JUMP JUMPDEST SWAP1 POP SWAP2 SWAP1 POP JUMP JUMPDEST PUSH32 0x596F7520617265206E6F7420616C6C6F77656420746F20766F74650000000000 PUSH1 0x0 DUP3 ADD MSTORE POP JUMP JUMPDEST PUSH1 0x0 PUSH2 0x17CF PUSH1 0x1B DUP4 PUSH2 0x12BD JUMP JUMPDEST SWAP2 POP PUSH2 0x17DA DUP3 PUSH2 0x1799 JUMP JUMPDEST PUSH1 0x20 DUP3 ADD SWAP1 POP SWAP2 SWAP1 POP JUMP JUMPDEST PUSH1 0x0 PUSH1 0x20 DUP3 ADD SWAP1 POP DUP2 DUP2 SUB PUSH1 0x0 DUP4 ADD MSTORE PUSH2 0x17FE DUP2 PUSH2 0x17C2 JUMP JUMPDEST SWAP1 POP SWAP2 SWAP1 POP JUMP JUMPDEST PUSH32 0x596F75206861766520616C726561647920766F74656400000000000000000000 PUSH1 0x0 DUP3 ADD MSTORE POP JUMP JUMPDEST PUSH1 0x0 PUSH2 0x183B PUSH1 0x16 DUP4 PUSH2 0x12BD JUMP JUMPDEST SWAP2 POP PUSH2 0x1846 DUP3 PUSH2 0x1805 JUMP JUMPDEST PUSH1 0x20 DUP3 ADD SWAP1 POP SWAP2 SWAP1 POP JUMP JUMPDEST PUSH1 0x0 PUSH1 0x20 DUP3 ADD SWAP1 POP DUP2 DUP2 SUB PUSH1 0x0 DUP4 ADD MSTORE PUSH2 0x186A DUP2 PUSH2 0x182E JUMP JUMPDEST SWAP1 POP SWAP2 SWAP1 POP JUMP JUMPDEST PUSH32 0x4E487B7100000000000000000000000000000000000000000000000000000000 PUSH1 0x0 MSTORE PUSH1 0x32 PUSH1 0x4 MSTORE PUSH1 0x24 PUSH1 0x0 REVERT JUMPDEST PUSH32 0x4E487B7100000000000000000000000000000000000000000000000000000000 PUSH1 0x0 MSTORE PUSH1 0x11 PUSH1 0x4 MSTORE PUSH1 0x24 PUSH1 0x0 REVERT JUMPDEST PUSH1 0x0 PUSH2 0x18DA DUP3 PUSH2 0x124F JUMP JUMPDEST SWAP2 POP PUSH2 0x18E5 DUP4 PUSH2 0x124F JUMP JUMPDEST SWAP3 POP DUP3 PUSH32 0xFFFFFFFFFFFFFFFFFFFFFFFFFFFFFFFFFFFFFFFFFFFFFFFFFFFFFFFFFFFFFFFF SUB DUP3 GT ISZERO PUSH2 0x191A JUMPI PUSH2 0x1919 PUSH2 0x18A0 JUMP JUMPDEST JUMPDEST DUP3 DUP3 ADD SWAP1 POP SWAP3 SWAP2 POP POP JUMP JUMPDEST PUSH1 0x0 PUSH1 0x40 DUP3 ADD SWAP1 POP PUSH2 0x193A PUSH1 0x0 DUP4 ADD DUP6 PUSH2 0x13BC JUMP JUMPDEST PUSH2 0x1947 PUSH1 0x20 DUP4 ADD DUP5 PUSH2 0x134B JUMP JUMPDEST SWAP4 SWAP3 POP POP POP JUMP JUMPDEST PUSH32 0x4E487B7100000000000000000000000000000000000000000000000000000000 PUSH1 0x0 MSTORE PUSH1 0x22 PUSH1 0x4 MSTORE PUSH1 0x24 PUSH1 0x0 REVERT JUMPDEST PUSH1 0x0 PUSH1 0x2 DUP3 DIV SWAP1 POP PUSH1 0x1 DUP3 AND DUP1 PUSH2 0x1995 JUMPI PUSH1 0x7F DUP3 AND SWAP2 POP JUMPDEST PUSH1 0x20 DUP3 LT DUP2 EQ ISZERO PUSH2 0x19A9 JUMPI PUSH2 0x19A8 PUSH2 0x194E JUMP JUMPDEST JUMPDEST POP SWAP2 SWAP1 POP JUMP JUMPDEST PUSH1 0x0 PUSH1 0x40 DUP3 ADD SWAP1 POP PUSH2 0x19C4 PUSH1 0x0 DUP4 ADD DUP6 PUSH2 0x1506 JUMP JUMPDEST PUSH2 0x19D1 PUSH1 0x20 DUP4 ADD DUP5 PUSH2 0x1506 JUMP JUMPDEST SWAP4 SWAP3 POP POP POP JUMP JUMPDEST PUSH1 0x0 PUSH2 0x19E3 DUP3 PUSH2 0x124F JUMP JUMPDEST SWAP2 POP PUSH32 0xFFFFFFFFFFFFFFFFFFFFFFFFFFFFFFFFFFFFFFFFFFFFFFFFFFFFFFFFFFFFFFFF DUP3 EQ ISZERO PUSH2 0x1A16 JUMPI PUSH2 0x1A15 PUSH2 0x18A0 JUMP JUMPDEST JUMPDEST PUSH1 0x1 DUP3 ADD SWAP1 POP SWAP2 SWAP1 POP JUMP JUMPDEST PUSH32 0x596F7520617265206E6F7420616C6C6F77656420746F206D616B652061207072 PUSH1 0x0 DUP3 ADD MSTORE PUSH32 0x6F706F73616C0000000000000000000000000000000000000000000000000000 PUSH1 0x20 DUP3 ADD MSTORE POP JUMP JUMPDEST PUSH1 0x0 PUSH2 0x1A7D PUSH1 0x26 DUP4 PUSH2 0x12BD JUMP JUMPDEST SWAP2 POP PUSH2 0x1A88 DUP3 PUSH2 0x1A21 JUMP JUMPDEST PUSH1 0x40 DUP3 ADD SWAP1 POP SWAP2 SWAP1 POP JUMP JUMPDEST PUSH1 0x0 PUSH1 0x20 DUP3 ADD SWAP1 POP DUP2 DUP2 SUB PUSH1 0x0 DUP4 ADD MSTORE PUSH2 0x1AAC DUP2 PUSH2 0x1A70 JUMP JUMPDEST SWAP1 POP SWAP2 SWAP1 POP JUMP JUMPDEST PUSH32 0x54686973206164647265737320697320616C726561647920696E20766F746572 PUSH1 0x0 DUP3 ADD MSTORE PUSH32 0x7300000000000000000000000000000000000000000000000000000000000000 PUSH1 0x20 DUP3 ADD MSTORE POP JUMP JUMPDEST PUSH1 0x0 PUSH2 0x1B0F PUSH1 0x21 DUP4 PUSH2 0x12BD JUMP JUMPDEST SWAP2 POP PUSH2 0x1B1A DUP3 PUSH2 0x1AB3 JUMP JUMPDEST PUSH1 0x40 DUP3 ADD SWAP1 POP SWAP2 SWAP1 POP JUMP JUMPDEST PUSH1 0x0 PUSH1 0x20 DUP3 ADD SWAP1 POP DUP2 DUP2 SUB PUSH1 0x0 DUP4 ADD MSTORE PUSH2 0x1B3E DUP2 PUSH2 0x1B02 JUMP JUMPDEST SWAP1 POP SWAP2 SWAP1 POP JUMP JUMPDEST PUSH32 0x4F776E61626C653A206E6577206F776E657220697320746865207A65726F2061 PUSH1 0x0 DUP3 ADD MSTORE PUSH32 0x6464726573730000000000000000000000000000000000000000000000000000 PUSH1 0x20 DUP3 ADD MSTORE POP JUMP JUMPDEST PUSH1 0x0 PUSH2 0x1BA1 PUSH1 0x26 DUP4 PUSH2 0x12BD JUMP JUMPDEST SWAP2 POP PUSH2 0x1BAC DUP3 PUSH2 0x1B45 JUMP JUMPDEST PUSH1 0x40 DUP3 ADD SWAP1 POP SWAP2 SWAP1 POP JUMP JUMPDEST PUSH1 0x0 PUSH1 0x20 DUP3 ADD SWAP1 POP DUP2 DUP2 SUB PUSH1 0x0 DUP4 ADD MSTORE PUSH2 0x1BD0 DUP2 PUSH2 0x1B94 JUMP JUMPDEST SWAP1 POP SWAP2 SWAP1 POP JUMP JUMPDEST PUSH32 0x4F776E61626C653A2063616C6C6572206973206E6F7420746865206F776E6572 PUSH1 0x0 DUP3 ADD MSTORE POP JUMP JUMPDEST PUSH1 0x0 PUSH2 0x1C0D PUSH1 0x20 DUP4 PUSH2 0x12BD JUMP JUMPDEST SWAP2 POP PUSH2 0x1C18 DUP3 PUSH2 0x1BD7 JUMP JUMPDEST PUSH1 0x20 DUP3 ADD SWAP1 POP SWAP2 SWAP1 POP JUMP JUMPDEST PUSH1 0x0 PUSH1 0x20 DUP3 ADD SWAP1 POP DUP2 DUP2 SUB PUSH1 0x0 DUP4 ADD MSTORE PUSH2 0x1C3C DUP2 PUSH2 0x1C00 JUMP JUMPDEST SWAP1 POP SWAP2 SWAP1 POP JUMP INVALID LOG2 PUSH5 0x6970667358 0x22 SLT KECCAK256 0xC7 CALLER PUSH32 0x4377083FED61FAB1BA724F1A174D9356B8FA0612FAB3742EBAD872F95564736F PUSH13 0x634300080C0033000000000000 "
				},
				"gasEstimates": {
					"creation": {
						"codeDepositCost": "1457800",
						"executionCost": "infinite",
						"totalCost": "infinite"
					},
					"external": {
						"endProposalsRegistration()": "infinite",
						"endVotingSession()": "infinite",
						"getWinner()": "infinite",
						"owner()": "2567",
						"proposals(uint256)": "infinite",
						"registerProposals(string)": "infinite",
						"registerVoters(address)": "infinite",
						"renounceOwnership()": "30421",
						"startProposalsRegistration()": "infinite",
						"startVotingSession()": "infinite",
						"transferOwnership(address)": "30835",
						"vote(uint256)": "infinite",
						"votesTallied()": "infinite",
						"workflowStatus()": "2699"
					}
				},
				"methodIdentifiers": {
					"endProposalsRegistration()": "6c297445",
					"endVotingSession()": "a7bfab16",
					"getWinner()": "8e7ea5b2",
					"owner()": "8da5cb5b",
					"proposals(uint256)": "013cf08b",
					"registerProposals(string)": "e2dd58c6",
					"registerVoters(address)": "ed8a1608",
					"renounceOwnership()": "715018a6",
					"startProposalsRegistration()": "e09b8c79",
					"startVotingSession()": "ee74c678",
					"transferOwnership(address)": "f2fde38b",
					"vote(uint256)": "0121b93f",
					"votesTallied()": "ada7415f",
					"workflowStatus()": "a1edffa2"
				}
			},
			"storageLayout": {
				"storage": [
					{
						"astId": 372,
						"contract": "contracts/Alyra/Voting.sol:Voting",
						"label": "_owner",
						"offset": 0,
						"slot": "0",
						"type": "t_address"
					},
					{
						"astId": 26,
						"contract": "contracts/Alyra/Voting.sol:Voting",
						"label": "workflowStatus",
						"offset": 20,
						"slot": "0",
						"type": "t_enum(WorkflowStatus)23"
					},
					{
						"astId": 28,
						"contract": "contracts/Alyra/Voting.sol:Voting",
						"label": "winningProposalId",
						"offset": 0,
						"slot": "1",
						"type": "t_uint256"
					},
					{
						"astId": 33,
						"contract": "contracts/Alyra/Voting.sol:Voting",
						"label": "voters",
						"offset": 0,
						"slot": "2",
						"type": "t_mapping(t_address,t_struct(Voter)11_storage)"
					},
					{
						"astId": 37,
						"contract": "contracts/Alyra/Voting.sol:Voting",
						"label": "proposals",
						"offset": 0,
						"slot": "3",
						"type": "t_array(t_struct(Proposal)16_storage)dyn_storage"
					}
				],
				"types": {
					"t_address": {
						"encoding": "inplace",
						"label": "address",
						"numberOfBytes": "20"
					},
					"t_array(t_struct(Proposal)16_storage)dyn_storage": {
						"base": "t_struct(Proposal)16_storage",
						"encoding": "dynamic_array",
						"label": "struct Voting.Proposal[]",
						"numberOfBytes": "32"
					},
					"t_bool": {
						"encoding": "inplace",
						"label": "bool",
						"numberOfBytes": "1"
					},
					"t_enum(WorkflowStatus)23": {
						"encoding": "inplace",
						"label": "enum Voting.WorkflowStatus",
						"numberOfBytes": "1"
					},
					"t_mapping(t_address,t_struct(Voter)11_storage)": {
						"encoding": "mapping",
						"key": "t_address",
						"label": "mapping(address => struct Voting.Voter)",
						"numberOfBytes": "32",
						"value": "t_struct(Voter)11_storage"
					},
					"t_string_storage": {
						"encoding": "bytes",
						"label": "string",
						"numberOfBytes": "32"
					},
					"t_struct(Proposal)16_storage": {
						"encoding": "inplace",
						"label": "struct Voting.Proposal",
						"members": [
							{
								"astId": 13,
								"contract": "contracts/Alyra/Voting.sol:Voting",
								"label": "description",
								"offset": 0,
								"slot": "0",
								"type": "t_string_storage"
							},
							{
								"astId": 15,
								"contract": "contracts/Alyra/Voting.sol:Voting",
								"label": "voteCount",
								"offset": 0,
								"slot": "1",
								"type": "t_uint256"
							}
						],
						"numberOfBytes": "64"
					},
					"t_struct(Voter)11_storage": {
						"encoding": "inplace",
						"label": "struct Voting.Voter",
						"members": [
							{
								"astId": 6,
								"contract": "contracts/Alyra/Voting.sol:Voting",
								"label": "isRegistered",
								"offset": 0,
								"slot": "0",
								"type": "t_bool"
							},
							{
								"astId": 8,
								"contract": "contracts/Alyra/Voting.sol:Voting",
								"label": "hasVoted",
								"offset": 1,
								"slot": "0",
								"type": "t_bool"
							},
							{
								"astId": 10,
								"contract": "contracts/Alyra/Voting.sol:Voting",
								"label": "votedProposalId",
								"offset": 0,
								"slot": "1",
								"type": "t_uint256"
							}
						],
						"numberOfBytes": "64"
					},
					"t_uint256": {
						"encoding": "inplace",
						"label": "uint256",
						"numberOfBytes": "32"
					}
				}
			},
			"userdoc": {
				"kind": "user",
				"methods": {},
				"version": 1
			}
		}
	}
}