{
	"contracts/Alyra/Exceptions.sol": {
		"Bob": {
			"abi": [
				{
					"inputs": [
						{
							"internalType": "contract Alice",
							"name": "c",
							"type": "address"
						}
					],
					"name": "pong",
					"outputs": [],
					"stateMutability": "nonpayable",
					"type": "function"
				},
				{
					"inputs": [],
					"name": "x",
					"outputs": [
						{
							"internalType": "uint256",
							"name": "",
							"type": "uint256"
						}
					],
					"stateMutability": "view",
					"type": "function"
				}
			],
			"devdoc": {
				"kind": "dev",
				"methods": {},
				"version": 1
			},
			"evm": {
				"assembly": "    /* \"contracts/Alyra/Exceptions.sol\":162:330  contract Bob   {... */\n  mstore(0x40, 0x80)\n    /* \"contracts/Alyra/Exceptions.sol\":199:200  0 */\n  0x00\n    /* \"contracts/Alyra/Exceptions.sol\":183:200  uint public x = 0 */\n  dup1\n  sstore\n    /* \"contracts/Alyra/Exceptions.sol\":162:330  contract Bob   {... */\n  callvalue\n  dup1\n  iszero\n  tag_1\n  jumpi\n  0x00\n  dup1\n  revert\ntag_1:\n  pop\n  dataSize(sub_0)\n  dup1\n  dataOffset(sub_0)\n  0x00\n  codecopy\n  0x00\n  return\nstop\n\nsub_0: assembly {\n        /* \"contracts/Alyra/Exceptions.sol\":162:330  contract Bob   {... */\n      mstore(0x40, 0x80)\n      callvalue\n      dup1\n      iszero\n      tag_1\n      jumpi\n      0x00\n      dup1\n      revert\n    tag_1:\n      pop\n      jumpi(tag_2, lt(calldatasize, 0x04))\n      shr(0xe0, calldataload(0x00))\n      dup1\n      0x0c55699c\n      eq\n      tag_3\n      jumpi\n      dup1\n      0xa0145f1d\n      eq\n      tag_4\n      jumpi\n    tag_2:\n      0x00\n      dup1\n      revert\n        /* \"contracts/Alyra/Exceptions.sol\":183:200  uint public x = 0 */\n    tag_3:\n      tag_5\n      tag_6\n      jump\t// in\n    tag_5:\n      mload(0x40)\n      tag_7\n      swap2\n      swap1\n      tag_8\n      jump\t// in\n    tag_7:\n      mload(0x40)\n      dup1\n      swap2\n      sub\n      swap1\n      return\n        /* \"contracts/Alyra/Exceptions.sol\":206:327  function pong(Alice c) public{... */\n    tag_4:\n      tag_9\n      0x04\n      dup1\n      calldatasize\n      sub\n      dup2\n      add\n      swap1\n      tag_10\n      swap2\n      swap1\n      tag_11\n      jump\t// in\n    tag_10:\n      tag_12\n      jump\t// in\n    tag_9:\n      stop\n        /* \"contracts/Alyra/Exceptions.sol\":183:200  uint public x = 0 */\n    tag_6:\n      sload(0x00)\n      dup2\n      jump\t// out\n        /* \"contracts/Alyra/Exceptions.sol\":206:327  function pong(Alice c) public{... */\n    tag_12:\n        /* \"contracts/Alyra/Exceptions.sol\":249:250  1 */\n      0x01\n        /* \"contracts/Alyra/Exceptions.sol\":245:246  x */\n      0x00\n        /* \"contracts/Alyra/Exceptions.sol\":245:250  x = 1 */\n      dup2\n      swap1\n      sstore\n      pop\n        /* \"contracts/Alyra/Exceptions.sol\":290:291  c */\n      dup1\n        /* \"contracts/Alyra/Exceptions.sol\":282:297  address(c).call */\n      0xffffffffffffffffffffffffffffffffffffffff\n      and\n        /* \"contracts/Alyra/Exceptions.sol\":282:305  address(c).call(\"ping\") */\n      mload(0x40)\n      tag_14\n      swap1\n      tag_15\n      jump\t// in\n    tag_14:\n      0x00\n      mload(0x40)\n      dup1\n      dup4\n      sub\n      dup2\n      0x00\n      dup7\n      gas\n      call\n      swap2\n      pop\n      pop\n      returndatasize\n      dup1\n      0x00\n      dup2\n      eq\n      tag_18\n      jumpi\n      mload(0x40)\n      swap2\n      pop\n      and(add(returndatasize, 0x3f), not(0x1f))\n      dup3\n      add\n      0x40\n      mstore\n      returndatasize\n      dup3\n      mstore\n      returndatasize\n      0x00\n      0x20\n      dup5\n      add\n      returndatacopy\n      jump(tag_17)\n    tag_18:\n      0x60\n      swap2\n      pop\n    tag_17:\n      pop\n      pop\n      pop\n        /* \"contracts/Alyra/Exceptions.sol\":319:320  2 */\n      0x02\n        /* \"contracts/Alyra/Exceptions.sol\":315:316  x */\n      0x00\n        /* \"contracts/Alyra/Exceptions.sol\":315:320  x = 2 */\n      dup2\n      swap1\n      sstore\n      pop\n        /* \"contracts/Alyra/Exceptions.sol\":206:327  function pong(Alice c) public{... */\n      pop\n      jump\t// out\n        /* \"#utility.yul\":7:84   */\n    tag_19:\n        /* \"#utility.yul\":44:51   */\n      0x00\n        /* \"#utility.yul\":73:78   */\n      dup2\n        /* \"#utility.yul\":62:78   */\n      swap1\n      pop\n        /* \"#utility.yul\":7:84   */\n      swap2\n      swap1\n      pop\n      jump\t// out\n        /* \"#utility.yul\":90:208   */\n    tag_20:\n        /* \"#utility.yul\":177:201   */\n      tag_35\n        /* \"#utility.yul\":195:200   */\n      dup2\n        /* \"#utility.yul\":177:201   */\n      tag_19\n      jump\t// in\n    tag_35:\n        /* \"#utility.yul\":172:175   */\n      dup3\n        /* \"#utility.yul\":165:202   */\n      mstore\n        /* \"#utility.yul\":90:208   */\n      pop\n      pop\n      jump\t// out\n        /* \"#utility.yul\":214:436   */\n    tag_8:\n        /* \"#utility.yul\":307:311   */\n      0x00\n        /* \"#utility.yul\":345:347   */\n      0x20\n        /* \"#utility.yul\":334:343   */\n      dup3\n        /* \"#utility.yul\":330:348   */\n      add\n        /* \"#utility.yul\":322:348   */\n      swap1\n      pop\n        /* \"#utility.yul\":358:429   */\n      tag_37\n        /* \"#utility.yul\":426:427   */\n      0x00\n        /* \"#utility.yul\":415:424   */\n      dup4\n        /* \"#utility.yul\":411:428   */\n      add\n        /* \"#utility.yul\":402:408   */\n      dup5\n        /* \"#utility.yul\":358:429   */\n      tag_20\n      jump\t// in\n    tag_37:\n        /* \"#utility.yul\":214:436   */\n      swap3\n      swap2\n      pop\n      pop\n      jump\t// out\n        /* \"#utility.yul\":523:640   */\n    tag_22:\n        /* \"#utility.yul\":632:633   */\n      0x00\n        /* \"#utility.yul\":629:630   */\n      dup1\n        /* \"#utility.yul\":622:634   */\n      revert\n        /* \"#utility.yul\":769:895   */\n    tag_24:\n        /* \"#utility.yul\":806:813   */\n      0x00\n        /* \"#utility.yul\":846:888   */\n      0xffffffffffffffffffffffffffffffffffffffff\n        /* \"#utility.yul\":839:844   */\n      dup3\n        /* \"#utility.yul\":835:889   */\n      and\n        /* \"#utility.yul\":824:889   */\n      swap1\n      pop\n        /* \"#utility.yul\":769:895   */\n      swap2\n      swap1\n      pop\n      jump\t// out\n        /* \"#utility.yul\":901:997   */\n    tag_25:\n        /* \"#utility.yul\":938:945   */\n      0x00\n        /* \"#utility.yul\":967:991   */\n      tag_43\n        /* \"#utility.yul\":985:990   */\n      dup3\n        /* \"#utility.yul\":967:991   */\n      tag_24\n      jump\t// in\n    tag_43:\n        /* \"#utility.yul\":956:991   */\n      swap1\n      pop\n        /* \"#utility.yul\":901:997   */\n      swap2\n      swap1\n      pop\n      jump\t// out\n        /* \"#utility.yul\":1003:1111   */\n    tag_26:\n        /* \"#utility.yul\":1052:1059   */\n      0x00\n        /* \"#utility.yul\":1081:1105   */\n      tag_45\n        /* \"#utility.yul\":1099:1104   */\n      dup3\n        /* \"#utility.yul\":1081:1105   */\n      tag_25\n      jump\t// in\n    tag_45:\n        /* \"#utility.yul\":1070:1105   */\n      swap1\n      pop\n        /* \"#utility.yul\":1003:1111   */\n      swap2\n      swap1\n      pop\n      jump\t// out\n        /* \"#utility.yul\":1117:1263   */\n    tag_27:\n        /* \"#utility.yul\":1202:1238   */\n      tag_47\n        /* \"#utility.yul\":1232:1237   */\n      dup2\n        /* \"#utility.yul\":1202:1238   */\n      tag_26\n      jump\t// in\n    tag_47:\n        /* \"#utility.yul\":1195:1200   */\n      dup2\n        /* \"#utility.yul\":1192:1239   */\n      eq\n        /* \"#utility.yul\":1182:1257   */\n      tag_48\n      jumpi\n        /* \"#utility.yul\":1253:1254   */\n      0x00\n        /* \"#utility.yul\":1250:1251   */\n      dup1\n        /* \"#utility.yul\":1243:1255   */\n      revert\n        /* \"#utility.yul\":1182:1257   */\n    tag_48:\n        /* \"#utility.yul\":1117:1263   */\n      pop\n      jump\t// out\n        /* \"#utility.yul\":1269:1432   */\n    tag_28:\n        /* \"#utility.yul\":1327:1332   */\n      0x00\n        /* \"#utility.yul\":1365:1371   */\n      dup2\n        /* \"#utility.yul\":1352:1372   */\n      calldataload\n        /* \"#utility.yul\":1343:1372   */\n      swap1\n      pop\n        /* \"#utility.yul\":1381:1426   */\n      tag_50\n        /* \"#utility.yul\":1420:1425   */\n      dup2\n        /* \"#utility.yul\":1381:1426   */\n      tag_27\n      jump\t// in\n    tag_50:\n        /* \"#utility.yul\":1269:1432   */\n      swap3\n      swap2\n      pop\n      pop\n      jump\t// out\n        /* \"#utility.yul\":1438:1791   */\n    tag_11:\n        /* \"#utility.yul\":1509:1515   */\n      0x00\n        /* \"#utility.yul\":1558:1560   */\n      0x20\n        /* \"#utility.yul\":1546:1555   */\n      dup3\n        /* \"#utility.yul\":1537:1544   */\n      dup5\n        /* \"#utility.yul\":1533:1556   */\n      sub\n        /* \"#utility.yul\":1529:1561   */\n      slt\n        /* \"#utility.yul\":1526:1645   */\n      iszero\n      tag_52\n      jumpi\n        /* \"#utility.yul\":1564:1643   */\n      tag_53\n      tag_22\n      jump\t// in\n    tag_53:\n        /* \"#utility.yul\":1526:1645   */\n    tag_52:\n        /* \"#utility.yul\":1684:1685   */\n      0x00\n        /* \"#utility.yul\":1709:1774   */\n      tag_54\n        /* \"#utility.yul\":1766:1773   */\n      dup5\n        /* \"#utility.yul\":1757:1763   */\n      dup3\n        /* \"#utility.yul\":1746:1755   */\n      dup6\n        /* \"#utility.yul\":1742:1764   */\n      add\n        /* \"#utility.yul\":1709:1774   */\n      tag_28\n      jump\t// in\n    tag_54:\n        /* \"#utility.yul\":1699:1774   */\n      swap2\n      pop\n        /* \"#utility.yul\":1655:1784   */\n      pop\n        /* \"#utility.yul\":1438:1791   */\n      swap3\n      swap2\n      pop\n      pop\n      jump\t// out\n        /* \"#utility.yul\":1797:1944   */\n    tag_29:\n        /* \"#utility.yul\":1898:1909   */\n      0x00\n        /* \"#utility.yul\":1935:1938   */\n      dup2\n        /* \"#utility.yul\":1920:1938   */\n      swap1\n      pop\n        /* \"#utility.yul\":1797:1944   */\n      swap3\n      swap2\n      pop\n      pop\n      jump\t// out\n        /* \"#utility.yul\":1950:2104   */\n    tag_30:\n        /* \"#utility.yul\":2090:2096   */\n      0x70696e6700000000000000000000000000000000000000000000000000000000\n        /* \"#utility.yul\":2086:2087   */\n      0x00\n        /* \"#utility.yul\":2078:2084   */\n      dup3\n        /* \"#utility.yul\":2074:2088   */\n      add\n        /* \"#utility.yul\":2067:2097   */\n      mstore\n        /* \"#utility.yul\":1950:2104   */\n      pop\n      jump\t// out\n        /* \"#utility.yul\":2110:2508   */\n    tag_31:\n        /* \"#utility.yul\":2269:2272   */\n      0x00\n        /* \"#utility.yul\":2290:2373   */\n      tag_58\n        /* \"#utility.yul\":2371:2372   */\n      0x04\n        /* \"#utility.yul\":2366:2369   */\n      dup4\n        /* \"#utility.yul\":2290:2373   */\n      tag_29\n      jump\t// in\n    tag_58:\n        /* \"#utility.yul\":2283:2373   */\n      swap2\n      pop\n        /* \"#utility.yul\":2382:2475   */\n      tag_59\n        /* \"#utility.yul\":2471:2474   */\n      dup3\n        /* \"#utility.yul\":2382:2475   */\n      tag_30\n      jump\t// in\n    tag_59:\n        /* \"#utility.yul\":2500:2501   */\n      0x04\n        /* \"#utility.yul\":2495:2498   */\n      dup3\n        /* \"#utility.yul\":2491:2502   */\n      add\n        /* \"#utility.yul\":2484:2502   */\n      swap1\n      pop\n        /* \"#utility.yul\":2110:2508   */\n      swap2\n      swap1\n      pop\n      jump\t// out\n        /* \"#utility.yul\":2514:2893   */\n    tag_15:\n        /* \"#utility.yul\":2698:2701   */\n      0x00\n        /* \"#utility.yul\":2720:2867   */\n      tag_61\n        /* \"#utility.yul\":2863:2866   */\n      dup3\n        /* \"#utility.yul\":2720:2867   */\n      tag_31\n      jump\t// in\n    tag_61:\n        /* \"#utility.yul\":2713:2867   */\n      swap2\n      pop\n        /* \"#utility.yul\":2884:2887   */\n      dup2\n        /* \"#utility.yul\":2877:2887   */\n      swap1\n      pop\n        /* \"#utility.yul\":2514:2893   */\n      swap2\n      swap1\n      pop\n      jump\t// out\n\n    auxdata: 0xa264697066735822122003f3ddc2a99507c173c02bb034ee60685cb20f99898df97ece263752e96e589164736f6c634300080c0033\n}\n",
				"bytecode": {
					"linkReferences": {},
					"object": "60806040526000805534801561001457600080fd5b5061026e806100246000396000f3fe608060405234801561001057600080fd5b50600436106100365760003560e01c80630c55699c1461003b578063a0145f1d14610059575b600080fd5b610043610075565b604051610050919061010f565b60405180910390f35b610073600480360381019061006e919061019f565b61007b565b005b60005481565b60016000819055508073ffffffffffffffffffffffffffffffffffffffff166040516100a690610223565b6000604051808303816000865af19150503d80600081146100e3576040519150601f19603f3d011682016040523d82523d6000602084013e6100e8565b606091505b505050600260008190555050565b6000819050919050565b610109816100f6565b82525050565b60006020820190506101246000830184610100565b92915050565b600080fd5b600073ffffffffffffffffffffffffffffffffffffffff82169050919050565b600061015a8261012f565b9050919050565b600061016c8261014f565b9050919050565b61017c81610161565b811461018757600080fd5b50565b60008135905061019981610173565b92915050565b6000602082840312156101b5576101b461012a565b5b60006101c38482850161018a565b91505092915050565b600081905092915050565b7f70696e6700000000000000000000000000000000000000000000000000000000600082015250565b600061020d6004836101cc565b9150610218826101d7565b600482019050919050565b600061022e82610200565b915081905091905056fea264697066735822122003f3ddc2a99507c173c02bb034ee60685cb20f99898df97ece263752e96e589164736f6c634300080c0033",
					"opcodes": "PUSH1 0x80 PUSH1 0x40 MSTORE PUSH1 0x0 DUP1 SSTORE CALLVALUE DUP1 ISZERO PUSH2 0x14 JUMPI PUSH1 0x0 DUP1 REVERT JUMPDEST POP PUSH2 0x26E DUP1 PUSH2 0x24 PUSH1 0x0 CODECOPY PUSH1 0x0 RETURN INVALID PUSH1 0x80 PUSH1 0x40 MSTORE CALLVALUE DUP1 ISZERO PUSH2 0x10 JUMPI PUSH1 0x0 DUP1 REVERT JUMPDEST POP PUSH1 0x4 CALLDATASIZE LT PUSH2 0x36 JUMPI PUSH1 0x0 CALLDATALOAD PUSH1 0xE0 SHR DUP1 PUSH4 0xC55699C EQ PUSH2 0x3B JUMPI DUP1 PUSH4 0xA0145F1D EQ PUSH2 0x59 JUMPI JUMPDEST PUSH1 0x0 DUP1 REVERT JUMPDEST PUSH2 0x43 PUSH2 0x75 JUMP JUMPDEST PUSH1 0x40 MLOAD PUSH2 0x50 SWAP2 SWAP1 PUSH2 0x10F JUMP JUMPDEST PUSH1 0x40 MLOAD DUP1 SWAP2 SUB SWAP1 RETURN JUMPDEST PUSH2 0x73 PUSH1 0x4 DUP1 CALLDATASIZE SUB DUP2 ADD SWAP1 PUSH2 0x6E SWAP2 SWAP1 PUSH2 0x19F JUMP JUMPDEST PUSH2 0x7B JUMP JUMPDEST STOP JUMPDEST PUSH1 0x0 SLOAD DUP2 JUMP JUMPDEST PUSH1 0x1 PUSH1 0x0 DUP2 SWAP1 SSTORE POP DUP1 PUSH20 0xFFFFFFFFFFFFFFFFFFFFFFFFFFFFFFFFFFFFFFFF AND PUSH1 0x40 MLOAD PUSH2 0xA6 SWAP1 PUSH2 0x223 JUMP JUMPDEST PUSH1 0x0 PUSH1 0x40 MLOAD DUP1 DUP4 SUB DUP2 PUSH1 0x0 DUP7 GAS CALL SWAP2 POP POP RETURNDATASIZE DUP1 PUSH1 0x0 DUP2 EQ PUSH2 0xE3 JUMPI PUSH1 0x40 MLOAD SWAP2 POP PUSH1 0x1F NOT PUSH1 0x3F RETURNDATASIZE ADD AND DUP3 ADD PUSH1 0x40 MSTORE RETURNDATASIZE DUP3 MSTORE RETURNDATASIZE PUSH1 0x0 PUSH1 0x20 DUP5 ADD RETURNDATACOPY PUSH2 0xE8 JUMP JUMPDEST PUSH1 0x60 SWAP2 POP JUMPDEST POP POP POP PUSH1 0x2 PUSH1 0x0 DUP2 SWAP1 SSTORE POP POP JUMP JUMPDEST PUSH1 0x0 DUP2 SWAP1 POP SWAP2 SWAP1 POP JUMP JUMPDEST PUSH2 0x109 DUP2 PUSH2 0xF6 JUMP JUMPDEST DUP3 MSTORE POP POP JUMP JUMPDEST PUSH1 0x0 PUSH1 0x20 DUP3 ADD SWAP1 POP PUSH2 0x124 PUSH1 0x0 DUP4 ADD DUP5 PUSH2 0x100 JUMP JUMPDEST SWAP3 SWAP2 POP POP JUMP JUMPDEST PUSH1 0x0 DUP1 REVERT JUMPDEST PUSH1 0x0 PUSH20 0xFFFFFFFFFFFFFFFFFFFFFFFFFFFFFFFFFFFFFFFF DUP3 AND SWAP1 POP SWAP2 SWAP1 POP JUMP JUMPDEST PUSH1 0x0 PUSH2 0x15A DUP3 PUSH2 0x12F JUMP JUMPDEST SWAP1 POP SWAP2 SWAP1 POP JUMP JUMPDEST PUSH1 0x0 PUSH2 0x16C DUP3 PUSH2 0x14F JUMP JUMPDEST SWAP1 POP SWAP2 SWAP1 POP JUMP JUMPDEST PUSH2 0x17C DUP2 PUSH2 0x161 JUMP JUMPDEST DUP2 EQ PUSH2 0x187 JUMPI PUSH1 0x0 DUP1 REVERT JUMPDEST POP JUMP JUMPDEST PUSH1 0x0 DUP2 CALLDATALOAD SWAP1 POP PUSH2 0x199 DUP2 PUSH2 0x173 JUMP JUMPDEST SWAP3 SWAP2 POP POP JUMP JUMPDEST PUSH1 0x0 PUSH1 0x20 DUP3 DUP5 SUB SLT ISZERO PUSH2 0x1B5 JUMPI PUSH2 0x1B4 PUSH2 0x12A JUMP JUMPDEST JUMPDEST PUSH1 0x0 PUSH2 0x1C3 DUP5 DUP3 DUP6 ADD PUSH2 0x18A JUMP JUMPDEST SWAP2 POP POP SWAP3 SWAP2 POP POP JUMP JUMPDEST PUSH1 0x0 DUP2 SWAP1 POP SWAP3 SWAP2 POP POP JUMP JUMPDEST PUSH32 0x70696E6700000000000000000000000000000000000000000000000000000000 PUSH1 0x0 DUP3 ADD MSTORE POP JUMP JUMPDEST PUSH1 0x0 PUSH2 0x20D PUSH1 0x4 DUP4 PUSH2 0x1CC JUMP JUMPDEST SWAP2 POP PUSH2 0x218 DUP3 PUSH2 0x1D7 JUMP JUMPDEST PUSH1 0x4 DUP3 ADD SWAP1 POP SWAP2 SWAP1 POP JUMP JUMPDEST PUSH1 0x0 PUSH2 0x22E DUP3 PUSH2 0x200 JUMP JUMPDEST SWAP2 POP DUP2 SWAP1 POP SWAP2 SWAP1 POP JUMP INVALID LOG2 PUSH5 0x6970667358 0x22 SLT KECCAK256 SUB RETURN 0xDD 0xC2 0xA9 SWAP6 SMOD 0xC1 PUSH20 0xC02BB034EE60685CB20F99898DF97ECE263752E9 PUSH15 0x589164736F6C634300080C00330000 "
				},
				"gasEstimates": {
					"creation": {
						"codeDepositCost": "124400",
						"executionCost": "5177",
						"totalCost": "129577"
					},
					"external": {
						"pong(address)": "infinite",
						"x()": "2407"
					}
				},
				"methodIdentifiers": {
					"pong(address)": "a0145f1d",
					"x()": "0c55699c"
				}
			},
			"storageLayout": {
				"storage": [
					{
						"astId": 17,
						"contract": "contracts/Alyra/Exceptions.sol:Bob",
						"label": "x",
						"offset": 0,
						"slot": "0",
						"type": "t_uint256"
					}
				],
				"types": {
					"t_uint256": {
						"encoding": "inplace",
						"label": "uint256",
						"numberOfBytes": "32"
					}
				}
			},
			"userdoc": {
				"kind": "user",
				"methods": {},
				"version": 1
			}
		}
	}
}